:020000022000DC
:1070000000000420757302005D7302005F730200CC
:1070100061730200637302006573020000000000E8
:107020000000000000000000000000006773020084
:1070300069730200000000006B7302006D730200B0
:1070400039D402006F730200E1E002006F730200A6
:107050006F7302006F730200F9DD02006F730200AC
:107060006F7302006F7302006F7302006F73020090
:107070006F7302006F7302006F7302006F73020080
:107080006F73020069A002006F7302006F73020049
:107090006F7302006F730200A14D03006F73020053
:1070A0006F7302006F7302006F7302006F73020050
:1070B0006F7302006F730200000000000000000008
:1070C0006F7302006F7302006F7302006F73020030
:1070D0006F7302006F7302006F7302006F73020020
:1070E0006F7302006F7302006F73020000000000F4
:1070F000000000006F730200000000006F730200C8
:10710000000000000000000000000000000000007F
:10711000000000000000000000000000000000006F
:10712000000000000000000000000000000000005F
:10713000000000000000000000000000000000004F
:10714000000000000000000000000000000000003F
:10715000000000000000000000000000000000002F
:10716000000000000000000000000000000000001F
:10717000000000000000000000000000000000000F
:1071800000000000000000000000000000000000FF
:1071900000000000000000000000000000000000EF
:1071A00000000000000000000000000000000000DF
:1071B00000000000000000000000000000000000CF
:1071C00000000000000000000000000000000000BF
:1071D00000000000000000000000000000000000AF
:1071E000000000000000000000000000000000009F
:1071F000000000000000000000000000000000008F
:10720000354936480A1A02D0072291438D4634493F
:1072100034480A1A06D00722914381F309880222D2
:1072200082F3148830483149314A00F044F831483B
:107230003149324A00F03FF831483249324A00F0D1
:107240003AF832483249334A00F035F83248334987
:10725000334A00F030F833483349344A00F02BF811
:1072600033483449344A00F026F83448344900227F
:1072700000F02CF833483449002200F027F8334856
:107280003349091A082902DB002202604160314AB1
:1072900090471F481F49884205D00268043003B454
:1072A000904703BCF7E700208646EC46002000210B
:1072B000294A9047FEE7884207D0521A05D0037842
:1072C00001300B700131013AF9D17047884202D088
:1072D00002700130FAE770470000042000E003204C
:1072E000000004200000042024710300FC2A002078
:1072F000A42B0020D0730200D0730200345C030082
:1073000024710300FC2A0020FC2A00206C5D03008D
:107310006C5D03006C5D03006C5D03006C5D03003D
:107320006C5D03006C5D03006C5D03002371030062
:10733000CC710300A42B0020A42B0020A42B002040
:107340007C4100207C4100207C4100207C410020C9
:107350007C6100209D73020089150300FEE7FEE7B3
:10736000FEE7FEE7FEE7FEE7FEE7FEE7FEE7FEE7F5
:1073700000F002B8FFF7FCBF0F484FF00701884349
:1073800085460E4880470E48016841F4700101604F
:10739000BFF34F8FBFF36F8FFFF732BF09480A4922
:1073A0000A4A884207D0521A05D0037801300B7080
:1073B0000131013AF9D170470000042001C60200F2
:1073C00088ED00E0585D0300E82A0020FC2A002038
:1073D00000B585B00190019B002B0AD0074B43F00C
:1073E00001030393019B9B010293039B029898471F
:1073F00000E000BF05B05DF804FB00BF805D030046
:1074000000B583B00190019B002B0AD04FF47A7035
:10741000FFF7DEFF019B013B0193019B002BF5D1A0
:1074200000E000BF03B05DF804FB08B50AF06EFA97
:1074300000BF08BD00B589B0039002910192019B85
:10744000002B33D00023079303230693029A079B54
:107450001344019A194600200AF008FA0590079A89
:10746000059B13440793019A059BD31A0193059B2F
:10747000002B13D10F4B1B7883F00103DBB2002BE1
:1074800013D10120FFF7BCFF069B013B0693069B2F
:10749000002B03D1074B00221A7007E0054B012295
:1074A0001A70019B002BD1D100E000BF00BF09B0D2
:1074B0005DF804FBA42B002000B585B00390029179
:1074C000054B00934023054A0299039800F012F8F7
:1074D00000BF05B05DF804FB35740200A82B002046
:1074E00082B0019000BF02B0704782B0019000BF2F
:1074F00002B0704700B5A1B00590049103920293C9
:10750000049803F0CFFC039B1593029B1693002372
:10751000179300238DF8603000231993229B1A9350
:1075200000231F930FA91F9B0822049803F078FDE6
:1075300008231F93119B1293BDF84030ADF84C30D7
:10754000BDF84230ADF84E3000238DF851309DF833
:107550003C3003F00303DBB2012B26D10F9BC3F3B6
:1075600095231C939DF83C30C3F3C203DBB28DF826
:107570005030BDF83C30C3F38313DBB21B931B9B2D
:107580009A0009A91F9B049803F04AFD1B9B9B00CE
:107590001F9A13441F9312AA09A915AB009313460F
:1075A0001B9A1C9800F058FF2FE09DF83C3003F028
:1075B0000303DBB2022B28D1BDF83E30C3F389139D
:1075C0009BB21E939DF83C30C3F3C203DBB28DF82F
:1075D00050301E9B082B28BF08231D9307A91F9B13
:1075E0001D9A049803F01CFD1F9A1D9B13441F93C2
:1075F0001E9A1D9BD31A1E9315AB12AA07A81D999C
:1076000000F0CCFF1E9B002BE3D1049803F059FC43
:1076100000BF21B05DF804FB82B00190019BDB68E4
:1076200001225A7100BF02B07047000000B583B05C
:107630004FF0FF330193FFF7F8FE0421054800F0F7
:1076400025FE01900348FFF7E7FF00BF03B05DF898
:1076500004FB00BF485D030000B583B001900091BA
:10766000019B1B681B6800990198984700BF03B0F5
:107670005DF804FB00B583B00190019B1B685B685B
:107680000198984700BF03B05DF804FB00B583B0D4
:107690000190019B1B689B680198984700BF03B04D
:1076A0005DF804FB82B001900B468DF80330019B1E
:1076B000DB689DF803201A7100BF02B0704782B0EA
:1076C0000190019BDB681B79184602B0704782B0BD
:1076D0000190019BDB6801225A7100BF02B0704724
:1076E00082B00190019BDB685B79184602B070475D
:1076F00000B585B001900091154BFF229A60144BA4
:1077000000221A60124B00225A60114B0022C3F86B
:1077100018240F4B0022C3F814240D4B002283F8C9
:1077200020240C4803F022FB0390039B002B01D084
:10773000039B08E0084803F002FD084A084BD31AEF
:10774000DB0802930023184605B05DF804FB00BF78
:10775000502D0020AC5C0300985D0300485D0300E1
:10776000C05C0300024A034BD31ADB08184670477B
:10777000485D0300C05C030000B587B001900B4674
:107780008DF803309DF80330002B1FD0FFF7EAFF80
:1077900004900023059313E0059B9B000E4A1344BD
:1077A0000393039B1B881A46019B1B689A4204D1D2
:1077B000019B059A1A60002309E0059B013305939C
:1077C000059A049B9A42E7D3052300E0002318465C
:1077D00007B05DF804FB00BFFC2A002000B585B0AF
:1077E00001900B468DF803309DF8032001AB114644
:1077F0001846FFF7C1FF0346002B07D1019BDB00B2
:10780000054A13440393039B1B6800E000231846BA
:1078100005B05DF804FB00BFC05C030084B00190BC
:107820000B468DF80330019BDB00174A134402938B
:107830009DF80330013B032B1CD801A252F823F022
:107840005178020059780200617802006B780200DA
:1078500002238DF80F3011E004238DF80F300DE076
:10786000029B1B798DF80F3008E0029B5B798DF845
:107870000F3003E000238DF80F3000BF9DF80F306C
:10788000184604B0704700BFC05C030084B001908C
:10789000009100238DF80F30019B1B7803F0040347
:1078A000DBB2002B24D0019B1B78C3F30103DBB2B6
:1078B000012B02D0022B0CD017E0009B1B68019A11
:1078C0001288C2F38312D2B213449A1C009B1A602E
:1078D0000BE0009B1B68019A5288C2F3891292B296
:1078E00013449A1C009B1A6000BF01238DF80F30CF
:1078F0009DF80F30184604B07047000000B58BB0FB
:107900000023ADF826303B4802F0F2FD3A4802F081
:10791000EFFD3A4B5B680493384B9B680693049ADF
:10792000069B134002339B00344A134404330893EC
:1079300004AB19460898FFF7A9FF0346002B09D0AE
:10794000049A069B134002339B002C4A13440433D1
:107950000893EDE700BF0023079311E0049B5A1C36
:107960000492069A1340079A920001A90A442349F7
:1079700002339B000B445B681360079B0133079342
:10798000079B012BEAD99DF80430C3F30103DBB256
:10799000012B10D0022B1CD1BDF80A30ADF82630D7
:1079A000BDF80630C3F389139BB203339A08049BD6
:1079B000134404930EE0BDF80A30ADF82630BDF84C
:1079C0000430C3F38313DBB21A46049B13440493BD
:1079D00000E000BF084802F097FD0590059B002BD2
:1079E00002D0049B054A5360BDF8263018460BB000
:1079F0005DF804FB6831002064310020502D002028
:107A000000B585B00021074802F0BFFC0390039B3E
:107A10000293029B83F310030193019B184605B068
:107A20005DF804FB6C31002000B589B00390029131
:107A300001920093039B1B0C0693FFF7E1FF079055
:107A4000079B1904009B5A1C0A9B1340069A0A4381
:107A50001B4902339B000B445A60009A0A9B134057
:107A600002339B00164A134404330593039B03F02F
:107A70000703D9B2059A137861F3C5031370019B0C
:107A800003F00F03D9B2059A138861F389131380A9
:107A9000029BC3F31501059A136861F39F231360DA
:107AA000059A1378012161F301031370059A137885
:107AB0006FF38203137000BF09B05DF804FB00BFD1
:107AC000502D002000B58DB00390029113468DF823
:107AD0000730039B02330A9301238DF827300023DC
:107AE0008DF81B300DF11B03184601F05FFF404B72
:107AF0001A68029B1A603E4B9A683D4B59683C4B92
:107B00001B68CB1A134401330B9314E0012139484D
:107B100002F0B2FCFFF7F2FE07900799354802F039
:107B2000ABFC334B9A68324B5968314B1B68CB1A0C
:107B3000134401330B930A9A0B9B9A42E6D89DF8A3
:107B40002730002B48D0002305939DF80730002BE9
:107B500017D09DF81430012262F301038DF8143020
:107B60009DF8143043F004038DF81430039B03F0A8
:107B70000F03DAB2BDF8143062F38913ADF8143094
:107B800016E09DF81430022262F301038DF81430E0
:107B90009DF8143043F004038DF81430039BC3F3B5
:107BA00009039AB2BDF8163062F38F13ADF81630A0
:107BB0000F4B1A680E4B9B68134002339B000C4A14
:107BC000134404330893059A089B1A60084B1A68FB
:107BD0000A9B1344064A13609DF81B30184601F0B7
:107BE000EFFE9DF8273018460DB05DF804FB00BF8E
:107BF000502D00206C31002000B58BB00590049111
:107C0000039202931F4B9B68079306AB0122194610
:107C10000298FFF757FF0346002B24D0069B023340
:107C200009930023089311E0089B9B00039A1A44D0
:107C3000099B591C099107990B401268114902339D
:107C40009B000B445A60089B01330893089A029BDF
:107C50009A42E9D3069A079B00931346029A049925
:107C60000598FFF7E1FE074B93F82034002B05D071
:107C700000BF00F003F90346002BFAD100BF0BB0A0
:107C80005DF804FB502D002000B583B001900091F9
:107C90000023002200990198FFF7AEFF00BF03B058
:107CA0005DF804FB00B587B0039002910192019B3F
:107CB000059305AA012302990398FFF79DFF00BFD2
:107CC00007B05DF804FB00B587B003900291019204
:107CD0000093019B0493009B059304AA022302993D
:107CE0000398FFF789FF00BF07B05DF804FB00B5FC
:107CF00089B00390029101920093019B0593009B30
:107D000006930A9B079305AA032302990398FFF79A
:107D100073FF00BF09B05DF804FB000000B58DB033
:107D2000039002911346ADF806304B4B9B680B93C2
:107D3000BDF8063003339B0805A900221846FFF75B
:107D4000C1FE0346002B78D0059B0A93059B0233A6
:107D50000593414B9A6805990B9B0B40D31A01334D
:107D60009B000993BDF80630099A9A420ED3059AF2
:107D70000B9B134002339B00374A13440433BDF876
:107D80000620029918460DF072FB17E0059A0B9B2E
:107D9000134002339B00304A13440433099A02997A
:107DA00018460DF064FB029A099BD118BDF8062015
:107DB000099BD31A1A4629480DF059FB039B1B0C4B
:107DC0000893FFF71DFE0790079B19040A9B5A1C96
:107DD0000B9B1340089A0A431F4902339B000B4434
:107DE0005A600A9A0B9B134002339B001A4A1344B1
:107DF00004330693039B03F00703D9B2069A137862
:107E000061F3C5031370069A13886FF38F13138001
:107E1000BDF80630C3F3090399B2069A538861F39B
:107E20008F135380069A1378022161F301031370B4
:107E3000069A13786FF382031370074B93F820347C
:107E4000002B05D000BF00F019F80346002BFAD133
:107E500000BF0DB05DF804FB502D00205C2D00200C
:107E6000054B5A68044B1B689A420CBF0123002340
:107E7000DBB21846704700BF502D002000B599B006
:107E8000FFF7EEFF0346002B01D00023BEE19B4B22
:107E90000022C3F81824BFF34F8F00BF974B5B68D5
:107EA0000493964B9B681093049A109B13400233E3
:107EB0009B00924A13440433119300231793002329
:107EC000169300230F9304AB19461198FFF7DEFCBD
:107ED0000346002B19D0894BD3F81834002B14D14A
:107EE000864B1A68049B9A4205D8844B1B68834AC8
:107EF000536000238AE1049A109B134002339B00D5
:107F00007E4A134404331193DDE70023159311E0F7
:107F1000049B5A1C0492109A1340159A920001A9CE
:107F20000A44764902339B000B445B681360159B3F
:107F300001331593159B012BEAD99DF8043003F00A
:107F40000303DBB2022B40F09C80BDF80630C3F384
:107F500089139BB20D93BDF80630C3F389139BB20E
:107F6000502B28BF50239BB20C930C9BC3F30903E7
:107F70009AB2BDF8063062F38F13ADF806300C9B51
:107F800008330B939DF80430C3F3C203DBB20F93A5
:107F90000B995B4802F0F5FE1790179B002B00F041
:107FA000D180179802F07EFF01A9169B082217982E
:107FB00003F022F8169B08331693049BDA43109BB8
:107FC000134001339B000A930C9A0A9B9A4242D9B0
:107FD0000A9B002B08D0049A109B134002339B008D
:107FE000464A1344043300E0464B08930A9B002B97
:107FF00002D00A9BDBB201E00C9BDBB28DF81F3094
:108000000A9B002B01D03F4B00E0002306930A9B04
:10801000002B06D00C9BDAB20A9BDBB2D31ADBB280
:1080200000E000238DF817309DF81F20169B08995B
:10803000179802F0E1FF9DF81F30169A134416932B
:10804000069B002B16D09DF81720169B06991798B3
:1080500002F0D2FF0EE0049A109B134002339B0003
:10806000264A134404330993169B0C9A09991798CE
:1080700002F0C2FF0D9B03339A08049B1344049340
:1080800060E09DF8043003F00303DBB2012B59D10B
:10809000BDF80430C3F38313DBB2062B28BF0623DD
:1080A000DAB2BDF8043062F38913ADF80430BDF8DC
:1080B0000430C3F38313DBB202330E939DF8043014
:1080C000C3F3C203DBB20F930E9B9B0019460C480F
:1080D00002F057FE1790179B002B33D0179802F031
:1080E000E1FE01A9169B0822179802F085FF169B56
:1080F00008331693002315931BE000BF502D00207A
:10810000AC5C03005C2D0020049B5A1C0492109A66
:10811000134002339B003F4A1344191D169B04224F
:10812000179802F069FF169B04331693159B0133D1
:108130001593BDF80430C3F38313DBB21A46159BC5
:108140009342E1D3179B002B40D0324BD3F810342D
:108150001493304BD3F81834002B1BD0179802F02F
:10816000B0FE4DE000238DF84F301498FFF7B8FAB9
:108170000346002B02D001238DF84F309DF84F307D
:10818000002B03D017991498FFF766FA149BDB684D
:108190001B681493149B002BE4D1179802F091FEF6
:1081A00000238DF803300DF10303184601F0FEFBA8
:1081B000184BD3F81834002B02D1049B154A536096
:1081C0009DF80330184601F0FBFB19E0114BD3F882
:1081D0001034129306E01298FFF758FA129BDB68EE
:1081E0001B681293129B002BF5D10B4A0B4BD31A31
:1081F000DB081B0443F0020309491846FFF744FD5E
:10820000FFF72EFE034683F00103DBB2184619B0D8
:108210005DF804FB502D0020E85C0300C05C030007
:10822000A85D030000B585B00023039323E0164B3F
:10823000D3F81034029301238DF807300FE0029831
:10824000FFF73DFA03461A46039B934203D10023EE
:108250008DF8073006E0029BDB681B680293029BE7
:10826000002BECD19DF80730002B01D0039B07E0D9
:10827000039B01330393039B092BD8DD4FF0FF339E
:10828000184605B05DF804FB502D002000B585B000
:1082900001900B468DF80330FFF7C4FF0390039B5A
:1082A000B3F1FF3F01D1039B22E0039BDBB21946F0
:1082B0000198FFF7F7F9104BD3F81034002B08D1D1
:1082C0000D4A019BC2F81034019BDB6800221A6042
:1082D0000DE0094BD3F81034DA68019BDB681268B3
:1082E0001A60054BD3F81034DB68019A1A60039BBF
:1082F000184605B05DF804FB502D002000B583B092
:108300000D4BD3F8103401930B4B012283F820243A
:1083100009E00198FFF7DBF90198FFF7ABF9019B42
:10832000DB681B680193019B002BF2D100BF00BFEB
:1083300003B05DF804FB00BF502D002082B0019017
:10834000009100BF02B0704710B584B00390029155
:10835000039BDB88002B0AD0039BDB881A461F4B4C
:10836000009313461E4A1F49029802F09BF9039B93
:108370001B7A052B2ED0039B5B7A002B12D0039B1C
:108380009B881A46039B1B7A19461046FFF746FA4C
:1083900003461A46144B53F822301A4613490298E2
:1083A00002F080F9039B1B6819460298FFF7C6FF8D
:1083B000039B1B7A1A460E4B53F82240039B9B8863
:1083C00000211846FFF70AFA034622460949029897
:1083D00002F068F900BF04B010BD00BFDC5D03000F
:1083E000EC5D0300245E0300182B00203C5E0300BC
:1083F000042B0020405E030000B585B0039002917D
:1084000013468DF80730039B1B7A052B0FD0039B77
:108410005B7A002B06D00D4B1B681A460C4902985C
:1084200002F040F90B49029802F03CF907E09DF890
:108430000730002B03D00749029802F033F9029865
:1084400002F018F900BF05B05DF804FB182B0020FE
:108450003C5E03004C5E030030B58BB00790069184
:10846000059204930E9B1B7B8DF827300E9B0022F8
:108470001A730E990498FFF767FF059B062B7FD8A8
:1084800001A252F823F000BFA5840200AF840200CD
:10849000BF840200D3840200F18402001985020027
:1084A0004985020007990E9802F0FCF869E0069BE6
:1084B0001B681A4607990E9802F0F4F861E0069BD3
:1084C0001A68069B04331B6807990E9802F0EAF8B5
:1084D00057E0069B1A68069B04331968069B08330D
:1084E0001B6800930B4607990E9802F0DBF848E0F2
:1084F000069B1968069B04331868069B08331B68A3
:10850000069A0C3212680192009303460A460799B4
:108510000E9802F0C7F834E0069B1868069B0433F7
:108520001C68069B08331B68069A0C321268069971
:10853000103109680291019200932346024607997F
:108540000E9802F0AFF81CE0069B1C68069B0433F3
:108550001D68069B08331B68069A0C321268069940
:108560001031096806981430006803900291019256
:1085700000932B46224607990E9802F093F800E0EC
:1085800000BF00220E990498FFF736FF0E9B9DF85E
:1085900027201A7300BF0BB030BD00BF00B587B0F5
:1085A0000390029101920093029B082B60D8009BDC
:1085B0001B7B8DF81330009B00221A7300990198E1
:1085C000FFF7C2FE0023059314E0059A029B9A422E
:1085D00009D2039A059B13441B781A462649009832
:1085E00002F060F803E02549009802F05BF8059B73
:1085F00001330593059B072BE7D92149009802F029
:1086000051F80023059326E0059A029B9A421BD25B
:10861000039A059B13441B788DF812309DF8123095
:108620007E2B0AD89DF8123018460CF0E9FE03465E
:10863000002B02D09DF8123000E02E231A4611497B
:10864000009802F02FF803E00F49009802F02AF892
:10865000059B01330593059B072BD5D90122009972
:108660000198FFF7C9FE009B9DF813201A7300E0E4
:1086700000BF07B05DF804FB505E0300585E0300C6
:108680005C5E0300605E0300645E030084B003462A
:108690008DF807309DF807305B08DBB21A460D4BAA
:1086A0009B5C8DF80F309DF8073003F00103002B21
:1086B00004D09DF80F301B09DBB204E09DF80F30A9
:1086C00003F00F03DBB28DF80E309DF80E30184624
:1086D00004B07047A831002084B003460A468DF8E4
:1086E000073013468DF806309DF8073003F001037C
:1086F000002B01D00F2300E0F0238DF80F309DF800
:10870000073003F00103002B04D09DF806301B0155
:10871000DBB201E09DF806308DF80E309DF8073091
:108720005B08DBB21A46114B9A5C9DF807305B0878
:10873000DBB219469DF80F301340DAB20B4B5A5496
:108740009DF807305B08DBB21A46084B9A5C9DF82F
:1087500007305B08DBB219469DF80E301343DAB2DE
:10876000024B5A5400BF04B0704700BFA83100202C
:1087700084B003468DF807300023039310E00D4BBF
:108780001A68039BDB0013440293029B1B789DF83D
:1087900007209A4201D1029B09E0039B0133039316
:1087A000054B1B781A46039B9342E8DB00231846CF
:1087B00004B07047743100207831002000B585B0D6
:1087C00003460A468DF8073013468DF806309DF8AB
:1087D00007301846FFF7CCFF0390039B002B0BD00C
:1087E000039B5B68002B07D0039B5B689DF806101A
:1087F0009DF807201046984700BF05B05DF804FBC0
:108800002DE9F04F87B003460A468DF80F30134626
:108810008DF80E309DF80F301846FFF737FF0346EE
:10882000042B00F2C28001A252F823F0418802001A
:10883000B5880200D1880200018902001789020070
:108840009DF80E30002B00F0AD809DF80F30012117
:108850001846FFF741FF00238DF817300DF117037D
:10886000184601F0A3F89DF80F104FF001024FF0E9
:108870000003A1F12004C1F1200003FA01F702FA7C
:1088800004F4274322FA00F0074302FA01F6494BA9
:10889000D3E9002346EA020100913B430193454B93
:1088A000DDE90012C3E900129DF81730184601F007
:1088B00087F877E09DF80E30002B01D0022200E00F
:1088C00000229DF80F3011461846FFF705FF6CE0B7
:1088D0009DF80E30002B0CD09DF80F300321184668
:1088E000FFF7FAFE9DF80F3001211846FFF766FFEB
:1088F0005BE09DF80F3001211846FFF7EDFE54E0D4
:108900009DF80E30002B4FD19DF80F3004211846F2
:10891000FFF7E2FE48E09DF80E30002B06D09DF8F0
:108920000F3003211846FFF7D7FE3EE09DF80F30C9
:1089300000211846FFF7D0FE9DF80F3000211846A1
:10894000FFF73CFF00238DF816300DF11603184693
:1089500001F02CF89DF80F104FF001024FF00003CA
:10896000A1F12006C1F1200003FA01F502FA06F692
:10897000354322FA00F0054302FA01F46FEA0408D5
:108980006FEA05090B4BD3E9002308EA020A09EA5A
:10899000030B084BC3E900AB9DF81630184601F0F5
:1089A0000FF802E000BF00E000BF00BF07B0BDE865
:1089B000F08F00BFA031002000B583B00648074B00
:1089C0001B685B080022194600F021FD019000BFE2
:1089D00003B05DF804FB00BF803100207C31002033
:1089E00000B587B001900023059328E01C4B1A685E
:1089F000059BDB0013440493049B1B78184605F089
:108A0000EBF903468DF80F30049B5B78012B0CBF0C
:108A100001230023DBB21A469DF80F309A420CBFA7
:108A2000012300238DF80E30049B1B789DF80E2047
:108A300011461846FFF7E4FE059B01330593094BE9
:108A40001B781A46059B9342D0DB074BD3E90023E2
:108A5000134301D0FFF7B0FF00BF07B05DF804FB80
:108A60007431002078310020A031002000B585B09D
:108A700001900B468DF80330019BDBB21846FFF7DF
:108A800077FE0390039B1B78184605F0A5F9034673
:108A90008DF80B30039B5B78012B0CBF0123002367
:108AA000DBB21A469DF80B309A420CBF012300231B
:108AB0008DF80A309DF80A30002B06D0054BD3E91B
:108AC0000023134301D1FFF777FF00BF05B05DF826
:108AD00004FB00BFA031002000B58BB003900B4613
:108AE00001928DF80B30019B092B01D8072367E019
:108AF00005F082F8034683F00103DBB2002B09D0B6
:108B000005F028F80990099B0893089B002B01D0D9
:108B1000089B55E02C4A039B13602C4A9DF80B30B0
:108B200013702B4A019B13602022002129480CF06E
:108B3000C7FC29494FF000024FF00003C1E90023B0
:108B400031E09DF80B30DB00039A134407930323B5
:108B50008DF8143000238DF815309DF816306FF322
:108B600000038DF816309DF816306FF341038DF831
:108B700016309DF816306FF382038DF81630079B80
:108B80009B788DF81530079B1B78184605AB134A68
:108B9000194605F03DF80990099B0693069B002BAA
:108BA00001D0069B0CE09DF80B305A1E8DF80B206F
:108BB000002BC6D10A4A00210A4800F009FC0346EE
:108BC00018460BB05DF804FB7431002078310020AA
:108BD0007C310020A8310020A03100206D8A0200E5
:108BE000E1890200745E030000B583B000230193A5
:108BF0000CE00C4B1A68019BDB0013441B7801212D
:108C0000184605F075F8019B01330193064B1B785C
:108C10001A46019B9342ECD30023184603B05DF83B
:108C200004FB00BF743100207831002000B587B00C
:108C300001900023039300230493019B059303AB4E
:108C40001A46002144F2010000F01AF800BF07B0F4
:108C50005DF804FBBFF34F8F00BF074BDB6803F4E5
:108C6000E0620549054B1343CB60BFF34F8F00BF54
:108C700000BF00BFFCE700BF00ED00E00400FA0504
:108C800000B585B003900291019272B600BFFFF764
:108C900035FB00BFFFF7F2F80346002BFAD1114A6B
:108CA000114BD31ADB081B0443F001030F4918468C
:108CB000FEF7EAFF0E4B1B6803F00103002B00D008
:108CC00000BE084A084BD31ADB081B0443F002031A
:108CD00008491846FEF7D8FFFFF7BCFF00BF05B0F4
:108CE0005DF804FBE85C0300C05C0300785E0300F1
:108CF000F0ED00E0845E030084B00190019B9B686E
:108D00000393019BDA68039BD31A184604B070479B
:108D100082B001900B468DF80330019B1A68019BCD
:108D2000DB68019989880B4013449DF803201A7071
:108D3000019BDB685A1C019BDA6000BF02B07047E0
:108D400084B003900B460192ADF80A30039B1A6879
:108D5000039B9968BDF80A300B44039989880B403E
:108D600013441A78019B1A7000BF04B0704700B515
:108D700083B001900091009A00210198FFF7E0FF75
:108D8000019B9B685A1C019B9A6000BF03B05DF871
:108D900004FB84B0039002911346ADF80630029BA9
:108DA000002B01D10E231DE0BDF80630002B07D0AB
:108DB000BDF806305A1EBDF806301340002B01D016
:108DC00009230FE0039B029A1A60BDF80630013BAD
:108DD0009AB2039B9A80039B00229A60039B002215
:108DE000DA600023184604B0704700B583B00190E4
:108DF0000B468DF803300198FFF77EFF0246019B7A
:108E00009B889A4207D89DF8033019460198FFF7CE
:108E10007FFF002300E00423184603B05DF804FB45
:108E200000B583B0019000910198FFF765FF0346FC
:108E3000002B05D000990198FFF799FF002300E06F
:108E40000523184603B05DF804FB0000F0B583B0BD
:108E5000124801F0EFF8034618464FF00001104B9E
:108E6000D3E90023861841EB0307CDE900670D4BDA
:108E7000D3E90023DDE90001994208BF904207D2FF
:108E8000DDE9002312F1807443F10005CDE90045CE
:108E9000DDE900231046194603B0F0BD3C2B00204D
:108EA000D0310020D831002088B001900091019B82
:108EB0000793009B0693079BD3E90223CDE9042384
:108EC000069BD3E90223CDE90223DDE90423DDE992
:108ED0000201994208BF90422CBF01230023DBB25C
:108EE000184608B07047000030B585B001900023E7
:108EF0008DF80F30274B1B78002B45D0019B002BA2
:108F000042D0019B1B7FDBB2002B3DD0FFF79EFFC1
:108F1000019BD3E90223994208BF90422CD3019BC5
:108F20001B69002B02D1019B00221A77019B5B6910
:108F3000019A926910469847019B1B69002B23D028
:108F4000019B1B7FDBB2002B1ED0019BD3E90201EA
:108F5000019B1B691A464FF00003841841EB03057F
:108F6000019BC3E90245019B19460B4802F03AF9FF
:108F700001238DF80F3007E0019B1946064802F0E7
:108F800031F901238DF80F309DF80F30184605B0E8
:108F900030BD00BFCC310020A45E0300F0B589B025
:108FA000019000910D230793009B00221A70019BF2
:108FB000D3E90245FFF74AFF02460B46A61A65EBC6
:108FC0000307CDE90467DDE90423012A73F10003F7
:108FD0001BDB049BB3F5350F05D300F055FA0246B1
:108FE000134B134403E0019BD3E90223134603937D
:108FF0004FF49603039A00210E4800F027FF0790D4
:10900000079B002B05D101230EE00021094800F049
:10901000EBFF079B0D2B06D10198FFF765FF034679
:109020001A46009B1A700023184609B0F0BD00BF15
:10903000FFFFB4003C2B002000B583B0044802F0D1
:10904000FAF80190019B184603B05DF804FB00BFDD
:10905000A45E030000B583B0044802F002F9019059
:10906000019B184603B05DF804FB00BFA45E03003B
:1090700000B583B0FFF7E0FF0190019B002B02D009
:10908000019B00221A77019B002BF3D100BF00BF88
:1090900003B05DF804FB0000054BD3E9002312F197
:1090A000807043F10001024BC3E9000100BF70472B
:1090B000D031002000B583B00190084B1B68002B15
:1090C00007D0064B1B681846FFF70EFF034B002224
:1090D0001A6000BF03B05DF804FB00BFC831002078
:1090E00000B583B00190FFF7B1FE02460B4603497D
:1090F000C1E9002300BF03B05DF804FBD8310020B4
:1091000000B585B00190FFF7A5FF039000238DF80F
:109110000B30039B002B48D02B4B1B68002B03D13B
:1091200001238DF80B3019E0039BD3E90201264B94
:109130001B68D3E90223994208BF90420ED2012353
:109140008DF80B30204B1B681B7FDBB2002B05D04A
:109150001D4B1B6819461D4802F044F89DF80B3062
:10916000002B2AD0FFF768FF03900DF10A03194680
:109170000398FFF713FF0346002B12D0124B1B6816
:10918000002B02D1019800F0A7FD0F4A039B13604A
:109190009DF80A3083F00103DBB2002BB3D000BF8F
:1091A0000EE0094B00221A60ADE7074B1B68002B4D
:1091B00005D1019800F09DFD01E000BF00E000BF77
:1091C00000BF05B05DF804FBC8310020A45E0300B9
:1091D00000B587B001902C4A03AB1946104601F048
:1091E0005EF8059048E0059B1B78022B2ED0022BE1
:1091F00032DC002B02D0012B14D02DE0059B5B68E4
:109200001B7FDBB283F00103DBB2002B26D0059B72
:109210005B6801221A77059B5B6819461B4801F0C1
:10922000E1FF1BE0059B5A68194B1B689A4203D16A
:10923000174B00221A6012E0059B5B681946134821
:1092400002F017F803468DF8133008E0FFF710FF1F
:10925000104B01221A7002E000BF00E000BF0A4A72
:1092600003AB1946104601F033F8074A03AB194621
:10927000104601F014F80590059B002BB3D100BFF8
:1092800000BF07B05DF804FB38320020A45E030085
:10929000C8310020CC31002000B583B00190019886
:1092A00000F095FE0346002B01D0FFF7F5FE0021EC
:1092B000019800F0AAFE0346002B02D00198FFF7A8
:1092C000F9FE0121019800F0A0FE0346002B02D018
:1092D0000198FFF705FF0198FFF77AFF0198FFF764
:1092E0000FFF00BF03B05DF804FB000008B50248A3
:1092F00000F0ADFE00BF08BD3C2B002000B585B0DE
:10930000034600918DF80730114A02AB194610460A
:1093100000F098FF0390039B002B13D0039B9DF854
:1093200007201A70039B009A5A60094A02AB19463B
:10933000104600F0A0FF0346002B01D0FFF7D6FF38
:10934000002300E00423184605B05DF804FB00BFCD
:109350003832002000B583B0164B1B6800931648C6
:1093600008235822154900F026FF0190019B002B8D
:1093700001D0019B19E06B46114A1946114800F0D3
:1093800045FC0190019B002B01D0019B0DE00121C8
:109390000C4800F00BFE01230B4A0121094800F0A4
:1093A000B5FC0A4B01221A70019B184603B05DF808
:1093B00004FB00BFA05E030038320020E031002033
:1093C000999202003C2B0020FFFF7F00CC3100204F
:1093D00086B003900B4601928DF80B30019B002B59
:1093E00001D1072310E0039B1B680593059B019A9D
:1093F0005A619DF80B30012B0CBF01230023DBB217
:109400001A46059B1A610023184606B0704730B50E
:1094100087B0039002910192039B0593059B1B7FEC
:10942000DBB2002B01D000231AE0059B019A9A6160
:10943000FFF70CFD029B1A464FF00003841841EB26
:109440000305059BC3E90245059B1B69002B02D060
:10945000059B029A1A6105990020FFF74FFF03460A
:10946000184607B030BD00B585B00190019B03934D
:10947000039B00221A7703990120FFF73FFF034661
:10948000184605B05DF804FB08B5034800F0D2FDAE
:109490000346184608BD00BF3C2B002000B587B02E
:1094A0000390029113468DF8073000230593039B28
:1094B0001B781A46114B9B5C002B09D0039B04338D
:1094C0009DF807200299184605F026FF05900FE049
:1094D000039B1B781A46094B9B5C002B08D1039B0E
:1094E0000C339DF807200299184605F043F90590C2
:1094F000059B184607B05DF804FB00BF7C330020D5
:1095000000B585B0019000238DF80F30019B1B78CA
:109510001A46114B9B5C002B08D0019B0433184664
:1095200005F090FF03468DF80F300EE0019B1B788D
:109530001A46094B9B5C002B07D1019B0C33184644
:1095400005F084F903468DF80F309DF80F3018466A
:1095500005B05DF804FB00BF7C33002000B587B088
:109560000390029113468DF8073000230593039B67
:109570001B781A46114B9B5C002B09D0039B0433CC
:109580009DF807200299184605F074FF05900FE03A
:10959000039B1B781A46094B9B5C002B08D1039B4D
:1095A0000C339DF807200299184605F0A7F905909D
:1095B000059B184607B05DF804FB00BF7C33002014
:1095C00084B00190019B9B680393019BDA68039B25
:1095D000D31A184604B0704700B587B001900091C7
:1095E000019B1B78022B45D0022B6ADC002B52D04A
:1095F000012B66D1019B1B7A002B05D10122334937
:109600003348FFF7ABFF5DE0019B5B681B781946B1
:109610003048FFF7EAFB0590059B002B0AD0012399
:109620008DF80C30059B04932B4B1B6803AA104646
:1096300098470DE02748FFF7C3FF0346002B07D0EC
:1096400000238DF80C30244B1B6803AA1046984762
:109650002048FFF7B5FF03461E4A9288934205D87B
:1096600001221A491A48FFF779FF2BE01B4B012210
:109670001A7027E002238DF80C30019BDB680493FD
:10968000012212491248FFF769FF134B1B6803AA16
:109690001046984716E012491248FFF7C1FB0346EF
:1096A000002B05D101220E490948FFF7F7FE09E01A
:1096B00003238DF80C30084B1B6803AA104698470B
:1096C00000E000BF00BF07B05DF804FB543200208B
:1096D000442B0020583200204C320020553200200C
:1096E000503200206832002030B591B003900291D2
:1096F00001928DF803303C4A019B1360029B002BC2
:1097000001D107236DE0029B1968029B5B689BB245
:109710001A463648FFF73DFB0F900F9B0E930E9BAA
:10972000002B01D00E9B5CE0029B9968029BDB68DA
:109730009BB21A462E48FFF72CFB0F900F9B0D9300
:109740000D9B002B01D00D9B4BE02A4B04AC1D461A
:109750000FCD0FC495E80F0084E80F00039B5B69F1
:109760000A93039B1B7C002B14BF01230023DBB255
:109770008DF824309DF803308DF82C30039B5B7CF2
:10978000002B01D00E2300E000238DF82530039B31
:10979000DB680693039B9B680793039B1B680593F9
:1097A000039B5B68049304AB134A1946134803F008
:1097B000A3FC0F900F9B0C930C9B002B01D00C9BD8
:1097C0000FE00F4B00221A70039B1B68B3F1FF3FA1
:1097D00006D001220B490948FFF7C0FE034600E00E
:1097E0000023184611B030BD4C3200205832002002
:1097F00068320020B05E0300D9950200442B00209F
:10980000553200205432002000B587B00190114B32
:109810001B788DF8173001990F48FFF701FB049072
:109820009DF81730002B10D00A4B00221A7001222D
:109830000A490B48FFF792FE0390039B0293029B99
:10984000002B02D00298FFF7F1F9049B184607B0ED
:109850005DF804FB553200205832002054320020BD
:10986000442B002000B585B003468DF807309DF8E5
:10987000073019461048FFF7B8FA0390039B002BF6
:1098800015D10E48FFF73CFE034683F00103DBB21F
:10989000002B0CD00A490848FFF7C2FA0346002BF8
:1098A00005D1012206490548FFF7F8FD0390039B07
:1098B000184605B05DF804FB68320020442B0020F8
:1098C0005032002082B0EFF310830093009B01938D
:1098D00072B600BF019B184602B0704762B600BF67
:1098E00000BF704700B585B00190FFF7EBFF039014
:1098F000164B9B68002B1BD1144B01229A60144B12
:10990000D3F88020134B1340104A1360104B114AB8
:10991000C3F880200E4BD3F884300C4A53600C4BB4
:109920004FF0FF32C3F88420019B00221A7002E03E
:10993000019B01221A70039B002B01D1FFF7CEFF80
:109940000023184605B05DF804FB00BF7832002004
:1099500000E100E0FC06FFBD00B585B003468DF8D0
:109960000730104B9B68002B16D09DF80730002B5A
:1099700012D1FFF7A7FF03900B4A0A4B1B68136035
:10998000094A084B5B685360064B00229A60039BB0
:10999000002B01D1FFF7A2FF0023184605B05DF8A8
:1099A00004FB00BF7832002000E100E000B583B086
:1099B00001900198FFF796FF00BF03B05DF804FB2C
:1099C00000B583B003468DF807309DF80730184680
:1099D000FFF7C2FF00BF03B05DF804FB82B003468F
:1099E0008DF807309DF8073003F01F0205499DF9F7
:1099F00007305B09012000FA02F241F8232000BF82
:109A000002B0704700E100E082B003468DF80730F5
:109A10009DF8073003F01F0206499DF907305B09E6
:109A2000012000FA02F2403341F8232000BF02B0C7
:109A3000704700BF00E100E082B0034600918DF85E
:109A400007309DF90730002B0CDA009BDAB20C4985
:109A50009DF8073003F00F03043B5201D2B20B44D0
:109A60001A7609E0009BDAB206499DF907305201E7
:109A7000D2B20B4483F8002300BF02B0704700BF8E
:109A800000ED00E000E100E000B583B003460A46C7
:109A90008DF8073013468DF806309DF806209DF9A5
:109AA000073011461846FFF7C7FF00BF03B05DF847
:109AB00004FB00B583B003468DF807309DF90730ED
:109AC0001846FFF78BFF00BF03B05DF804FB0000F2
:109AD00000B585B00190019B002B0AD0074B43F0E5
:109AE00001030393019B9B010293039B02989847F8
:109AF00000E000BF05B05DF804FB00BF205F03007D
:109B000084B0039002910192039B029A02F5A8721D
:109B1000019943F8221000BF04B0704782B0019051
:109B20000091019B009A02F5A87253F82230184662
:109B300002B0704782B001900091019B009AC3F877
:109B4000042300BF02B0704782B001900091019BD6
:109B5000009AC3F8082300BF02B0704782B001909A
:109B60000B46ADF80230BDF80230019A13441B6871
:109B7000184602B0704784B001900B46ADF8023031
:109B8000BDF80230019A134400221A60BDF8023079
:109B9000019A13441B680393039B00BF04B07047F2
:109BA00082B00190019BD3F80435184602B070478B
:109BB00082B001900091019B009AC3F8082500BF74
:109BC00002B0704782B001900B468DF803309DF8CB
:109BD0000320019B13441A460123136000BF02B007
:109BE000704782B001900091019B009AC3F8442312
:109BF00000BF02B0704782B001900091019B009AB3
:109C0000C3F8482300BF02B07047000000B587B01A
:109C1000039002910192039B5B791946284A019BAC
:109C200042F82130039B5B79264ADB0013441B7901
:109C3000002B0ED008230593234A244BD31ADB08AC
:109C40001B0443F0020322491846FEF71DF8059B4A
:109C500032E0039B1A68029B1B8819461046FFF7E7
:109C6000A7FF039B93F90420029B9B78194610469B
:109C7000FFF70AFF039B93F904301846FFF719FF1B
:109C8000039B5B790F4ADB00134401221A71039B8B
:109C90005B7919460B4A039B42F831300023059348
:109CA000094A0A4BD31ADB081B0443F00303094992
:109CB0001846FDF7E9FF059B184607B05DF804FB61
:109CC0008432002088320020F85C0300C05C03006E
:109CD000D05E0300F45E030000B583B00190019BE9
:109CE0001B6800211846FFF76DFF00BF03B05DF849
:109CF00004FB00B583B00190019B1B68042118464A
:109D0000FFF760FF00BF03B05DF804FB00B587B04C
:109D10000390029101928DF803304FF48032029B40
:109D200002FA03F30593029B50339BB29B00ADF8FC
:109D30001230019B23F07F430193039B1B6805991D
:109D40001846FFF701FF039B1B6805991846FFF7AC
:109D500052FF039B1B68BDF8122011461846FFF7FF
:109D60000AFF039B1B68019A02991846FFF7C8FE79
:109D7000039B1B6805991846FFF733FF9DF80330D6
:109D8000002B05D0039B1B6805991846FFF7D2FEF0
:109D900000BF07B05DF804FB00B585B003900291E9
:109DA00013468DF80730039B1B6802991846FFF78E
:109DB00018FF9DF80730002B05D0039B1B68029904
:109DC0001846FFF7B7FE00BF05B05DF804FB00B50D
:109DD00083B001900091019B1B6800991846FFF722
:109DE0000AFF019B1B6800991846FFF7ADFE00BFF4
:109DF00003B05DF804FB00B583B001900B46ADF8ED
:109E00000230019B1B68BDF8022011461846FFF77F
:109E1000A5FE0346002B09D0019B1B68BDF802205C
:109E200011461846FFF7A7FE012300E0002318465D
:109E300003B05DF804FB82B001900091019A009B91
:109E4000D31A23F07F43184602B0704700B58BB099
:109E500003900291019200934FF48032029B02FA28
:109E600003F30993029B50339BB29B00ADF8223061
:109E7000019B23F07F43019309990398FFF7A7FF04
:109E8000039B1B681846FFF78BFE0790039B1B681C
:109E900002991846FFF742FE0690039B1B68079A3B
:109EA00002991846FFF72CFE039B1B68BDF8222081
:109EB00011461846FFF75FFE07990698FFF7BBFFAC
:109EC0000346012B0AD11020FFF702FE039B1B68FB
:109ED000BDF8222011461846FFF74DFE039B1B6874
:109EE0001846FFF75DFE079007990198FFF7A3FF5B
:109EF0000590039B1B6809991846FFF772FE059BA6
:109F0000012B15D1039B1868019B01331A46029956
:109F1000FFF7F6FD1020FFF7DBFD039B1B681846DB
:109F2000FFF73EFE0246079B934235D00D2339E0F2
:109F3000039B1B68019A02991846FFF7E1FD039BFA
:109F40001B681846FFF72CFE0790019B013B079901
:109F50001846FFF770FF0590009BC3F1FF1303F550
:109F60007F43059A9A4201D90D231BE0059B002BE4
:109F700012D1039B1868019B01331A460299FFF71F
:109F8000BFFD039B1B681846FFF70AFE0246079BAE
:109F9000934201D00D2305E0012209990398FFF7B0
:109FA000FBFE002318460BB05DF804FB00B583B040
:109FB00001900B468DF803309DF803301A460221BC
:109FC0000198FFF7E9FE00BF03B05DF804FB00B5A0
:109FD00083B001904FF482710198FFF70CFF0346A4
:109FE000184603B05DF804FB00B583B00190009102
:109FF0004FF48032009B02FA03F319460198FFF7F1
:10A00000E6FE00BF03B05DF804FB00B585B001902B
:10A010000091009B50339BB29B00ADF80E30BDF811
:10A020000E3019460198FFF7E6FE0346184605B0C4
:10A030005DF804FB00B583B00190019B1B681846D6
:10A04000FFF7AEFD0346184603B05DF804FB00B50C
:10A0500083B00190019B93F904301846FFF7D4FCBC
:10A0600000BF03B05DF804FB08B5044B1B68044A4D
:10A0700012681046984700BF08BD00BF8432002018
:10A080008832002086B001900091019B53E8011FA7
:10A090008AB2D88902449889824228BF121A188944
:10A0A000824202BFBFF32F8F002307E0C2EA010202
:10A0B00043E801200028E9D14FF001038DF80F306B
:10A0C000059002910492029A009B1A609DF80F304D
:10A0D000DBB2184606B0704784B00190019951E890
:10A0E000013FC3EA034341E80132002AF7D103925A
:10A0F000029300BF04B0704786B001900091019BAD
:10A1000053E8021F1FFAA1F2D888824202BFBFF3B0
:10A110002F8F00230DE0D88902449889824228BFFE
:10A12000121AC1EA024243E802200028E8D14FF0A7
:10A1300001038DF80F30059002910492029A009B62
:10A140001A609DF80F30DBB2184606B0704784B035
:10A150000190019951E8023FC3EA234341E80232EA
:10A16000002AF7D10392029300BF04B0704786B073
:10A170000190019B53E8021FDA88B1EB314F4FF099
:10A18000000017BF89B242EA024241EA024204E0FB
:10A190005968B1EB314F08BF012043E80221002983
:10A1A000E8D18DF80F00059104929DF80F30DBB2D5
:10A1B000184606B0704784B00390029111461A46C3
:10A1C0000B46ADF806301346ADF80430029B002B69
:10A1D00001D10E231FE0BDF80630BDF80420B3FB0B
:10A1E000F2F102FB01F29B1A9BB2002B01D0092372
:10A1F00011E0039B029A1A60039B00225A60039BA2
:10A2000000229A60039BBDF806209A81039BBDF84B
:10A210000420DA810023184604B0704700B585B0E9
:10A2200001900198FFF7A3FF03468DF80F309DF8CA
:10A230000F30002B01D0002300E01123184605B099
:10A240005DF804FB00B585B001900091009B1946B4
:10A250000198FFF717FF0346002B07D0019B1B68EF
:10A26000009A128813440393039B00E000231846CE
:10A2700005B05DF804FB00B583B001900091009B30
:10A280001A88009B5B889A4204D10198FFF724FF4B
:10A29000012300E00023184603B05DF804FB00B57D
:10A2A00085B001900091009B19460198FFF724FFAB
:10A2B0000346002B07D0019B1B68009A5288134469
:10A2C0000393039B00E00023184605B05DF804FBF0
:10A2D00000B583B001900091009B1A88009B5B88B9
:10A2E0009A4204D10198FFF732FF012300E00023D6
:10A2F000184603B05DF804FB00B585B001900091ED
:10A30000009B5B099B00019A1A44009B03F01F030A
:10A31000012101FA03F31946104600F065F8039095
:10A3200000BF05B05DF804FB00B585B00190009159
:10A33000009B5B099B00019A1A44009B03F01F03DA
:10A34000012101FA03F3DB431946104600F07CF8C3
:10A35000039000BF05B05DF804FB82B0019000914E
:10A36000009B5B099B00019A13441A68009B03F051
:10A370001F0322FA03F303F00103002B14BF012390
:10A380000023DBB2184602B0704710B487B00190CA
:10A390000091019B009A53E8004F104643E80001EA
:10A3A00091F0000FF7D1059404900391059B184696
:10A3B00007B05DF8044B704710B487B0019000916E
:10A3C000019B009A53E8004F44EA020043E8000171
:10A3D00091F0000FF6D1059404900391059B184667
:10A3E00007B05DF8044B704710B487B0019000913E
:10A3F000019B009A53E8004F44EA020043E8000141
:10A4000091F0000FF6D1059404900391049B184637
:10A4100007B05DF8044B704710B487B0019000910D
:10A42000019B009A53E8004F04EA020043E8000150
:10A4300091F0000FF6D1059404900391059B184606
:10A4400007B05DF8044B704710B487B001900091DD
:10A45000019B009A53E8004F04EA020043E8000120
:10A4600091F0000FF6D1059404900391049B1846D7
:10A4700007B05DF8044B704710B487B001900091AD
:10A48000019B009A53E8004F04EB020043E80001EF
:10A4900091F0000FF6D1059404900391049B1846A7
:10A4A00007B05DF8044B704710B487B0019000917D
:10A4B000019B009A53E8004FA4EB020043E800011F
:10A4C00091F0000FF6D1059404900391049B184677
:10A4D00007B05DF8044B704700B583B001900121CF
:10A4E0000198FFF769FF0346184603B05DF804FBC7
:10A4F00000B583B0019001210198FFF775FF034675
:10A50000184603B05DF804FB00B583B0019000214C
:10A510000198FFF781FF0346184603B05DF804FB7E
:10A5200082B001900B468DF80330019BDA689DF8EC
:10A5300003300199098A01FB03F31344184602B062
:10A54000704782B001900091009B019AD2689B1ADB
:10A55000019A128AB3FBF2F3DBB2184602B07047DD
:10A5600084B00190019B002B01D10E2320E0019BC0
:10A570009A68019B5B68D31A8DF80F30019B1B68AA
:10A58000019A52681A6007E0019B1A681368591C07
:10A5900011609DF80F201A709DF80F305A1E8DF82B
:10A5A0000F20002BF0D1019B1B6800221A710023A1
:10A5B000184604B0704700B585B00190002303939E
:10A5C00000238DF80A300DF10A031846FFF7EEF963
:10A5D000019B1B681A68019B5B689A421FD9019B0B
:10A5E0001B681A68013A1A601B681B7819460198A3
:10A5F000FFF796FF0390019B9A68019B1B681B68FD
:10A60000D31A8DF80B30019B1B681B799DF80B202A
:10A610009A4204D9019B1B689DF80B201A719DF882
:10A620000A301846FFF7CCF9039B184605B05DF8D1
:10A6300004FB10B584B001900091009B03930023AC
:10A640008DF80B300DF10B031846FFF7AFF9019BA6
:10A650001B681C68621C1A6003990198FFF771FF60
:10A66000034623709DF80B301846FFF7A9F900BF89
:10A6700004B010BD00B583B00190019B9B68002B16
:10A680000CD0019B5B69019A1069019A1168019ACB
:10A6900092689847019B00229A6000E000BF03B0D7
:10A6A0005DF804FB0EB400B584B00190059B002B4F
:10A6B0000AD00023039306AB039303AB1A46059914
:10A6C000019800F0B5F900E000BF04B05DF804EBBC
:10A6D00003B0704700B583B001900B468DF803308E
:10A6E0009DF803300A2B03D10D210198FFF7F2FFEB
:10A6F000019B1A68019B9B68581C01998860134450
:10A700009DF803201A70019B9A68019B5B689A422E
:10A7100002D30198FFF7AEFF00BF03B05DF804FB62
:10A7200000B587B003900291019200930023059336
:10A73000009B03F00103002B24D00BE0029B0133AC
:10A740000293059B013305939DF813301946039836
:10A75000FFF7C0FF029B1B788DF813309DF8133074
:10A76000002BEBD106E0019B013B019320210398D4
:10A77000FFF7B0FF019A059B9A422ED9019B002B4F
:10A78000F1D12AE0029B002B0BD002980AF0EDFEDB
:10A79000059006E0019B013B019320210398FFF700
:10A7A00099FF019A059B9A420FD9019B002BF1D189
:10A7B0000BE0029B01330293059B013305939DF847
:10A7C000133019460398FFF785FF029B1B788DF81D
:10A7D00013309DF81330002BEBD100BF07B05DF8AC
:10A7E00004FB000000B589B0039002910192009330
:10A7F000029B07930123069307E0079A019BB2FB94
:10A80000F3F30793069B01330693079A019B9A4241
:10A81000F3D2009A069B9A4201D9009B06930B9BA8
:10A8200003F00103002B22D10A9B002B1FD00B9BAE
:10A8300003F00203002B06D0009B002B03D1302332
:10A840008DF8173002E020238DF8173008E00A9BBE
:10A85000013B0A939DF8173019460398FFF73AFF1A
:10A860000A9B002B03D0069A0A9B9A42EFD301233E
:10A870000793009B012B03D9009B013B009309E048
:10A88000029A079BB2FBF3F30493049A019B9A424A
:10A8900000D205E0079B019A02FB03F30793E8E768
:10A8A000029A079BB2FBF3F30493049B079A02FB03
:10A8B00003F3029AD31A0293154A049B13441B789C
:10A8C00019460398FFF706FF079A019BB2FBF3F3C3
:10A8D0000793079B002BE3D10B9B03F00103002B95
:10A8E00011D00A9B002B0ED006E00A9B013B0A9375
:10A8F00020210398FFF7EEFE0A9B002B03D0069A57
:10A900000A9B9A42F1D300BF09B05DF804FB00BF77
:10A91000285F030000B589B005900491039202936B
:10A92000049B002BB8BF5B4206930123079307E00B
:10A93000039B069A92FBF3F30693079B013307935D
:10A94000039B069A9A42F3DA029A079B9A4201D92C
:10A95000029B07930A9B002B0AD0049B002B04DB6D
:10A960000B9B03F00403002B02D00A9B013B0A93CC
:10A970000B9B03F00203002B02D0029B002B16D08E
:10A980000B9B03F00103002B11D10A9B002B0ED06F
:10A9900006E00A9B013B0A9320210598FFF79AFEE7
:10A9A0000A9B002B03D0079A0A9B9A42F1D3049B7F
:10A9B000002B07DA049B5B4204932D210598FFF7D7
:10A9C00089FE08E00B9B03F00403002B03D02B212E
:10A9D0000598FFF77FFE0B9B03F00203002B19D0B5
:10A9E0000B9B03F00103002B14D1029B002B11D110
:10A9F0000A9B002B0ED006E00A9B013B0A933021F4
:10AA00000598FFF767FE0A9B002B03D0079A0A9B65
:10AA10009A42F1D304990B9B01930A9B0093029BEA
:10AA2000039A0598FFF7DEFE00BF09B05DF804FB4E
:10AA300000B58FB0059004910392049B002B00F0A9
:10AA40009181049B1B788DF83730049B013304936C
:10AA50009DF83730002B00F07C819DF83730252B96
:10AA600040F06B8100230A9301230C93049B1B7815
:10AA70008DF837309DF83730302B0DD0302B1BDC64
:10AA80002B2B11D02D2B17D10A9B43F001030A93D6
:10AA9000049B0133049312E00A9B43F002030A93E0
:10AAA000049B013304930AE00A9B43F004030A93D6
:10AAB000049B0133049302E000230C9300BF0C9B22
:10AAC000002BD3D1002309939DF837302A2B0CD1CA
:10AAD000039B1B68191D039A11601B68099A134494
:10AAE0000993049B013304931AE0049B1B788DF8AF
:10AAF00037309DF837302F2B12D99DF83730392B4E
:10AB00000ED8049B01330493099A13469B00134407
:10AB10005B001A469DF837301344303B0993D3E766
:10AB200000230B93049B1B788DF837309DF837304A
:10AB30002E2B1DD1049B01330493049B1B788DF8AD
:10AB400037309DF837302F2B12D99DF83730392BFD
:10AB50000ED8049B013304930B9A13469B001344B5
:10AB60005B001A469DF837301344303B0B93E4E703
:10AB7000049B1B788DF837309DF837306C2B03D051
:10AB80009DF83730682B07D1049B01330493049B55
:10AB90001B788DF83730EFE79DF83730252B00F024
:10ABA000C280252BC0F2C480782B00F3C180582BC3
:10ABB000C0F2BE80583B202B00F2BA8001A252F8AE
:10ABC00023F000BFB3AC020031AD020031AD020092
:10ABD00031AD020031AD020031AD020031AD0200F5
:10ABE00031AD020031AD020031AD020031AD0200E5
:10ABF00049AC02006BAC020031AD020031AD020085
:10AC000031AD020031AD02006BAC020031AD02008B
:10AC100031AD020031AD020031AD020031AD0200B4
:10AC200031AD0200F3AC020031AD020031AD0200E3
:10AC3000D7AC020031AD02008FAC020031AD020092
:10AC400031AD0200B3AC0200039B1B68191D039ACF
:10AC500011601B680C930C9B8DF81F309DF81F3002
:10AC600019460598FFF736FD63E0039B1B68191D25
:10AC7000039A11601B680C930A9B0193099B009334
:10AC80000B9B0A220C990598FFF744FE51E0039BA9
:10AC90001B68191D039A11601B680C930C990A9B81
:10ACA0000193099B00930B9B0A220598FFF79AFDDD
:10ACB0003FE0039B1B68191D039A11601B680C93EE
:10ACC0000C990A9B0193099B00930B9B10220598FA
:10ACD000FFF788FD2DE0039B1B68191D039A116087
:10ACE0001B6808930A9B099A08990598FFF718FDB5
:10ACF0001FE0039B1B68191D039A11601B680C93CE
:10AD000030210598FFF7E6FC78210598FFF7E2FC73
:10AD10000C9900230193082300930823102205981F
:10AD2000FFF760FD05E025210598FFF7D3FC00E063
:10AD300000BF049B0133049305E09DF837301946AA
:10AD40000598FFF7C7FC049B1B78002B7FF479AEB6
:10AD500000E000BF059B1B7B002B04D00598FFF78C
:10AD600089FC00E000BF0FB05DF804FB00B583B0C4
:10AD700001900198FFF7F4FB0346184603B05DF815
:10AD800004FB00B58BB001900091019B1B8A043B32
:10AD90000793009A079B1344DA1C079BB2FBF3F35B
:10ADA0008DF81B300198FFF706FC0590059B002BE2
:10ADB00001D1002338E0059B00221A71059B012276
:10ADC0005A71079B9AB2059BDA80059B09939DF8FF
:10ADD0001B30013B0493099B019A1A6000230893DE
:10ADE0001DE00198FFF7E7FB0390039B002B0ED0BB
:10ADF000059B5B790133DAB2059B5A71099B039A73
:10AE00001A60039B019A1A60039B099304E005985A
:10AE100000F00EF8002307E0089B01330893089A1E
:10AE2000049B9A42DDD3059B18460BB05DF804FBEA
:10AE300000B58BB00190019B0793079B5B798DF860
:10AE40001B30019B08939DF81B30013B05930023A9
:10AE5000099305E0089B1B680893099B013309933C
:10AE6000099A059B9A42F5D3089B1B680493019BA2
:10AE70000893002309930BE0089B1B680393089930
:10AE80000498FFF7D6FB039B0893099B01330993B2
:10AE90009DF81B30099A9A42EED300BF00BF0BB059
:10AEA0005DF804FB00B585B00190019B0393039B03
:10AEB000043301211846FFF7DFFA00BF05B05DF843
:10AEC00004FB00B587B00190019B0593059B0433FB
:10AED00001211846FFF7E8FA0346039303AB0493F6
:10AEE000049B1B78002B02D10198FFF7A1FF00BF44
:10AEF00007B05DF804FB00B591B003900291019298
:10AF00000093039B0993039B0F93099BDB881A46CD
:10AF1000099B5B7903FB02F3043B0893099BDB88E5
:10AF20000793009B1A1D079BB2FBF3F30E93009B44
:10AF30000433079AB3FBF2F2079901FB02F29B1A62
:10AF40000D93019B1A68009B1344089A9A4203D2FE
:10AF5000089A009BD31A01E0019B1B680C93019B8C
:10AF60000C9A1A6005E00F9B1B680F930E9B013B28
:10AF70000E930E9B002BF6D100230B93079A0D9B8B
:10AF8000D31A0A930A9A0C9B934228BF13460A933A
:10AF90002AE0029A0B9B134406930F9A0D9B1344CD
:10AFA000043305939DF84830002B05D00A9A059983
:10AFB00006980AF05CFA04E00A9A069905980AF0E5
:10AFC00056FA00230D930F9B1B680F930C9A0A9B54
:10AFD000D31A0C930B9A0A9B13440B93079A0C9B5E
:10AFE000934228BF13460A930C9B002BD1D100BF7C
:10AFF00000BF11B05DF804FB00B589B00590049165
:10B0000003920293039B079307AA00230093029BDA
:10B0100004990598FFF76FFF00BF09B05DF804FBC6
:10B0200000B589B00590049103920293039B0793A6
:10B0300007AA01230093029B04990598FFF75BFF81
:10B0400000BF09B05DF804FB82B003468DF80730FD
:10B050009DF8073003F01F0206499DF907305B0990
:10B06000012000FA02F2603341F8232000BF02B051
:10B07000704700BF00E100E082B00190019B002218
:10B080001A60BFF35F8F00BF00BF02B0704741DF9F
:10B09000704700BF184600B585B000238DF8033017
:10B0A0000DF103031846FEF781FCF1EE103A01930F
:10B0B000019B0393039B23F09F030293029BE1EE0A
:10B0C000103A00BFBFF35F8F00BF2620FFF7BCFF21
:10B0D0009DF803301846FEF773FC00BF05B05DF81D
:10B0E00004FB000008B5064B00221A700548FFF764
:10B0F000C3FF0549054800F03FF80023184608BD86
:10B100009432002090320020445F030098320020E7
:10B1100000B583B0FFF7BFFF09F014FE0346002B14
:10B1200003D0FFF7B4FF019005E020BF00BF40BF90
:10B1300000BF20BF00BF00BF03B05DF804FB82B0BA
:10B140000190019B9B6800229A60019B9B680022F2
:10B150001A61019B9B6800225A61019B9B68002237
:10B16000DA60019B9B6800225A60019B9B68002269
:10B170001A6000BF02B0704782B001900091019B3D
:10B18000009A1A60019B1B681A68019B5A60019B18
:10B190005A68019B1B685B689A4202D1019B00229E
:10B1A0005A6000BF02B0704782B00190019B5B689B
:10B1B000002B14D0019B5B681A46019B1B689B689F
:10B1C00013441A46019B5A60019B5A68019B1B68F5
:10B1D0005B689A4204D1019B00225A6000E000BFE4
:10B1E00002B0704700B585B001900091019B5B688B
:10B1F00003930FE0019B9B68039A12680099104625
:10B200009847034683F00103DBB2002B07D1039B71
:10B210001B680393039B1B68002BEBD100E000BF6E
:10B22000039B1A68009B1A60039B009A1A6000BF78
:10B2300005B05DF804FB84B00190019B5B681B685E
:10B240000393019B5B681B68002B06D0019B5B6826
:10B250001A68019B5B6812681A60039B184604B069
:10B26000704782B00190019B5B681B68184602B072
:10B27000704784B00190009100238DF80B30019B42
:10B280005B6803930FE0039B1B68009A9A4207D107
:10B29000009B1A68039B1A6001238DF80B3006E0AF
:10B2A000039B1B680393039B1B68002BEBD19DF84A
:10B2B0000B30184604B0704700B585B00190019876
:10B2C00000F00EF80390039B002B01D0039B00E0DD
:10B2D000024B184605B05DF804FB00BF5C5F03003D
:10B2E00086B00190164B0593164B04931FE0049A09
:10B2F000059BD31ADB10DA0F13445B10DB00059AB1
:10B3000013440393039B1B680293029A019B9A4286
:10B3100002D9039B04930AE0029A019B9A4203D24A
:10B32000039B0833059302E0039B5B6804E0059AE6
:10B33000049B9A42DBD30023184606B0704700BF37
:10B340005C6303008464030000B583B00190009146
:10B35000019BDBB21846FEF785FA019B184603B045
:10B360005DF804FB00B587B0059004910392059B3E
:10B37000002B10D1194A1A4BD31ADB081B0443F0D7
:10B380000100184A18490E2300930B461749FCF791
:10B39000AEFC0E231DE0049B002B10D10F4A104B76
:10B3A000D31ADB081B0443F00100114A0E490E2397
:10B3B00000930B460D49FCF79AFC0E2309E0059B10
:10B3C000049A1A60059B1B681B68039905989847A7
:10B3D0000346184607B05DF804FB00BF185D030084
:10B3E000C05C030094640300386603009C6403009F
:10B3F000C864030010B586B00590049103920293CF
:10B40000059B002B10D1454A454BD31ADB081B0482
:10B4100043F00100434A44490E2300930B4643493D
:10B42000FCF765FC0E2375E0039B002B10D13B4A13
:10B430003B4BD31ADB081B0443F001003C4A3A495A
:10B440000E2300930B463949FCF751FC0E2361E0B3
:10B45000059B1B68002B10D1304A314BD31ADB08F7
:10B460001B0443F00100334A2F49082300930B4685
:10B470002E49FCF73CFC08234CE0029B002B10D12A
:10B48000264A274BD31ADB081B0443F001002A4A43
:10B490002549092300930B462449FCF728FC09237E
:10B4A00038E0049800F026FA0346002B10D11B4A1E
:10B4B0001B4BD31ADB081B0443F001001F4A1A4937
:10B4C000102300930B461949FCF711FC102321E0CF
:10B4D000029A0499059800F0F3F90346002B10D165
:10B4E0000E4A0F4BD31ADB081B0443F00100144A29
:10B4F0000D49102300930B460C49FCF7F8FB102371
:10B5000008E0059B1B689C68029B039A04990598B8
:10B51000A0470346184606B010BD00BF185D0300E3
:10B52000C05C0300946403004C6603009C64030049
:10B53000DC640300D0640300E4640300E8640300F7
:10B540000065030010B586B0059004910392029344
:10B55000059B002B10D1604A604BD31ADB081B04FB
:10B5600043F001005E4A5F490E2300930B465E499B
:10B57000FCF7BDFB0E23ABE0039B002B10D1564A1A
:10B58000564BD31ADB081B0443F00100574A5549B8
:10B590000E2300930B465449FCF7A9FB0E2397E0BA
:10B5A000059B1B68002B10D14B4A4C4BD31ADB0870
:10B5B0001B0443F001004E4A4A49082300930B46FE
:10B5C0004949FCF794FB082382E0029B002B10D131
:10B5D000414A424BD31ADB081B0443F00100454AA1
:10B5E0004049092300930B463F49FCF780FB0923A0
:10B5F0006EE0059B5B685A68029BB3FBF2F102FBAD
:10B6000001F29B1A002B10D0334A344BD31ADB08BB
:10B610001B0443F00100384A3249092300930B46CA
:10B620003149FCF764FB092352E0049800F062F909
:10B630000346002B10D1284A284BD31ADB081B04E1
:10B6400043F001002D4A2749102300930B46264959
:10B65000FCF74DFB10233BE0039B184600F04AF932
:10B660000346002B10D11C4A1C4BD31ADB081B04C9
:10B6700043F00100224A1B49102300930B461A494C
:10B68000FCF735FB102323E0029A0499059800F09B
:10B6900017F90346002B10D10F4A104BD31ADB08C1
:10B6A0001B0443F00100174A0E49102300930B4678
:10B6B0000D49FCF71CFB10230AE0059B1B68DC68A6
:10B6C000089B0093029B039A04990598A0470346A0
:10B6D000184606B010BD00BF185D0300C05C030033
:10B6E00094640300606603009C6403002865030003
:10B6F000D0640300E4640300306503005C6503006C
:10B70000746503009865030010B586B00590049138
:10B7100003920293059B002B10D13E4A3E4BD31A55
:10B72000DB081B0443F001003C4A3D490E23009313
:10B730000B463C49FCF7DBFA0E2368E0059B1B68CF
:10B74000002B10D1334A344BD31ADB081B0443F0CF
:10B750000100354A3249082300930B463149FCF772
:10B76000C6FA082353E0039B002B10D1294A2A4B29
:10B77000D31ADB081B0443F001002C4A2849092393
:10B7800000930B462749FCF7B2FA09233FE00499DE
:10B79000059800F0BCF80346002B10D11D4A1E4B43
:10B7A000D31ADB081B0443F00100214A1C49102373
:10B7B00000930B461B49FCF79AFA102327E0059BE0
:10B7C0005B681B68039A02FB03F31A460499059809
:10B7D00000F076F80346002B10D10E4A0E4BD31A18
:10B7E000DB081B0443F00100124A0D4910230093AB
:10B7F0000B460C49FCF77BFA102308E0059B1B68FD
:10B800001C69029B039A04990598A04703461846B1
:10B8100006B010BD185D0300C05C03009464030013
:10B82000746603009C640300D0640300E4640300B6
:10B83000C0650300E865030000B585B00190019B79
:10B84000002B03D0019B1B68002B28D100230393FE
:10B8500019E0039A13469B0013449B001A46154BAC
:10B8600013440193019B1B68002B09D0019B1B68AB
:10B87000DB69019898470346002B01D0012314E0AF
:10B88000039B013303930C4A0A4BD31A0B4AA2FBC6
:10B8900003231B09039A9A42DBD3002305E0019B93
:10B8A0001B68DB69019898470346184605B05DF8A8
:10B8B00004FB00BFE82A0020FC2A0020CDCCCCCC21
:10B8C00084B0039002910192039BDB68029A9A4232
:10B8D00009D3029A019B13445A1E039B1B699A4287
:10B8E00001D8012300E0002303F00103DBB2184676
:10B8F00004B0704782B00190019B03F00303002B5A
:10B900000CBF01230023DBB2184602B0704782B09F
:10B9100001900091019B5B681B685A1E009B1340BD
:10B92000002B0CBF01230023DBB2184602B0704786
:10B9300029DF704700BF184628DF704700BF184650
:10B9400000B589B001900091019B1B689B68002B9A
:10B9500035D002AB00221A605A609A60DA601A6130
:10B960005A61009B0393019B9B680793019B1B7982
:10B97000002B02D0012B0DD01AE001238DF80830E6
:10B98000019B1B690493019BDB680593019B5B6929
:10B9900006930DE002238DF80830019BDB684FF41D
:10B9A000805202FB03F30493019B5B69069300BF83
:10B9B000019B1B689B6802AA1046984700E000BFE5
:10B9C00009B05DF804FB00B587B00190019B5A698E
:10B9D000019B9B69D31AB3F5805F28BF4FF4805356
:10B9E00005930422059BB3FBF2F3012B38BF01231F
:10B9F0000593019B1A69019B9B6913440493019B66
:10BA0000DB681A46019B9B6913440393059A0399CB
:10BA10000498FFF78DFF0346184607B05DF804FB56
:10BA200000B583B00190019BDA68019B1B69134448
:10BA30001846FFF781FF0346184603B05DF804FB84
:10BA400008B5034B03491846FEF742FC00BF08BD8A
:10BA50002C3300205433002008B5084B0849184601
:10BA6000FEF71DFC0346074A1360064B1B68002BBC
:10BA700014BF01230023DBB2184608BD2C3300207D
:10BA8000543300205033002000B583B02A4B1B7A7A
:10BA9000002B0BD1FFF7E0FF034683F00103DBB27D
:10BAA000002B03D0244B00225A6042E0224B02229A
:10BAB0001A72224B1B681B79002B02D0012B07D076
:10BAC0000DE01E4B1B681846FFF77DFF019009E053
:10BAD0001A4B1B681846FFF7A3FF019002E00323EF
:10BAE000019300BF019B002B03D0019B112B0CD0B5
:10BAF0000FE0114B1B7C83F00103DBB2002B17D04E
:10BB00000021022000F060F912E00B4B01221A72B2
:10BB10000FE00A4B1B6803211846FFF711FF064B85
:10BB200000221A72044B00225A60FFF789FF00E0DE
:10BB300000BF03B05DF804FB3C330020503300200D
:10BB400008B50848FEF7C8FC0346002B08D1064B91
:10BB50005B7C83F00103DBB2002B01D0FFF794FF85
:10BB600000BF08BD403300203C33002084B001906A
:10BB70001B4B0022DA60019B1B79002B02D0012BAA
:10BB800019D028E0019B5A69019B9B69D31AB3F530
:10BB9000805F28BF4FF480530393019B9A69039BF6
:10BBA0001A44019B9A61019B9A69019B5B699A42C5
:10BBB0000ED1012310E0019B1B695A1C019B1A61E5
:10BBC000019B1A69019B5B699A4203D1012303E03F
:10BBD00000BF00E000BF0023184604B0704700BF5C
:10BBE0003C33002082B00190084BDB680133074AE8
:10BBF000D360064BDB68082B04D9044B0022DA60C3
:10BC0000012300E00023184602B070473C330020B7
:10BC100000B583B001900091019B0C4A5A600C481A
:10BC2000FEF75AFC0346002B0BD109F08BF80346B4
:10BC30001A46074B1A7407481C238C220649FEF744
:10BC4000BAFA0023184603B05DF804FB88660300C7
:10BC50003C3300202C330020A032002000B583B0FC
:10BC60000190009114220021054809F029FC054BA0
:10BC70001846FEF7D3FA0023184603B05DF804FB1C
:10BC80003C3300202C33002000B587B00390029194
:10BC900001920093174A04AB19461046FEF7D2FAF8
:10BCA0000590059B002B01D104231FE01C220021DD
:10BCB000059809F005FC059B00221A71059B039A63
:10BCC0001A60059B089A9A60059B029A1A61059B67
:10BCD000019ADA60059B009A5A61064A04AB19463C
:10BCE0001046FEF7C8FAFFF72BFF0023184607B0EF
:10BCF0005DF804FB2C33002000B585B00390029161
:10BD000001920093029B009A1946019809F0AFFB3B
:10BD10000023184605B05DF804FB000000B587B0AD
:10BD20000390029101920093184A04AB1946104601
:10BD3000FEF788FA0590059B002B01D1042320E033
:10BD40001C220021059809F0BBFB059B01221A71FA
:10BD5000059B039A1A60059B009A9A604FF48052E3
:10BD6000029BB3FBF2F2059BDA60059B019A5A61D4
:10BD7000064A04AB19461046FEF77DFAFFF7E0FECF
:10BD80000023184607B05DF804FB00BF2C330020E9
:10BD900082B001900091009B184602B0704782B0BB
:10BDA000019000910023184602B0704782B00190C4
:10BDB000044B1B7A002B14BF01230023DBB218466F
:10BDC00002B070473C33002000B585B0019000916F
:10BDD000019B022B02D0019B032B48D1274B1B7ADE
:10BDE000022B05D0022B35DC002B42D0012B31E099
:10BDF00000238DF80F30019B022B03D0019B032BF6
:10BE000009D011E01E4B1B681846FFF7AFFE034632
:10BE10008DF80F3008E01A4B1B681846FFF7E2FE5A
:10BE200003468DF80F3000BF9DF80F30002B10D067
:10BE3000124B00221A72124B1A68019B022B01D17D
:10BE4000002300E00D2319461046FFF779FDFFF7A8
:10BE5000F7FD00BF094B5B7C83F00103DBB2002BD5
:10BE600002D0FFF711FE05E008F050FF02E000BF2E
:10BE700000E000BF05B05DF804FB00BF3C330020CC
:10BE80005033002082B0034600918DF80730064BF6
:10BE900001225A74044B1B7A002B0CBF0123002390
:10BEA000DBB2184602B070473C33002000B583B0C7
:10BEB000034600918DF807309DF80730012B03D021
:10BEC0009DF80730032B0DD1084B00225A749DF8C2
:10BED0000730012B0CBF01230023DAB2034B1A7485
:10BEE000FFF7D2FD00BF03B05DF804FB3C33002038
:10BEF000CEB001AB18606B46196000234593002358
:10BF0000449327E06B461A68449B13441B781A0637
:10BF1000449B0133694609680B441B781B041A4390
:10BF2000449B0233694609680B441B781B02134388
:10BF3000449A0332694609680A4412781343194641
:10BF400002AB459A43F82210459B01334593449B2D
:10BF500004334493459B0F2BD4D943E0459B9A1E51
:10BF600002AB53F822304FEA7342459B991E02AB55
:10BF700053F821304FEAF3435A40459B991E02ABD8
:10BF800053F821309B0A5A40459BD91F02AB53F806
:10BF900021301A44459BA3F10F0102AB53F8213025
:10BFA0004FEAF311459BA3F10F0002AB53F8203089
:10BFB0004FEAB3435940459BA3F10F0002AB53F83E
:10BFC0002030DB084B401A44459BA3F1100102AB23
:10BFD00053F82130D11802AB459A43F82210459B03
:10BFE00001334593459B3F2BB8D901AB1B681B6DB3
:10BFF0004D9301AB1B685B6D4C9301AB1B689B6D54
:10C000004B9301AB1B68DB6D4A9301AB1B681B6E46
:10C01000499301AB1B685B6E489301AB1B689B6E39
:10C02000479301AB1B68DB6E4693002345934DE0BD
:10C03000499B4FEAB312499B4FEAF3235A40499B6D
:10C040004FEA73635A40469B1A444999489B1940EA
:10C05000499BD843479B03404B401A443E49459B6C
:10C0600051F823301A4402AB459953F82130134458
:10C0700043934D9B4FEAB3024D9B4FEA73335A40B3
:10C080004D9B4FEAB3535A404C994B9B59404D9BA3
:10C0900019404C984B9B03404B4013444293479BA1
:10C0A0004693489B4793499B48934A9A439B134422
:10C0B00049934B9B4A934C9B4B934D9B4C93439A78
:10C0C000429B13444D93459B01334593459B3F2B26
:10C0D000AED901AB1B681A6D4D9B1A4401AB1B68AE
:10C0E0001A6501AB1B685A6D4C9B1A4401AB1B6867
:10C0F0005A6501AB1B689A6D4B9B1A4401AB1B68D8
:10C100009A6501AB1B68DA6D4A9B1A4401AB1B6848
:10C11000DA6501AB1B681A6E499B1A4401AB1B68B8
:10C120001A6601AB1B685A6E489B1A4401AB1B6828
:10C130005A6601AB1B689A6E479B1A4401AB1B6899
:10C140009A6601AB1B68DA6E469B1A4401AB1B680A
:10C15000DA6600BF4EB07047B466030082B001904B
:10C16000019B002B01D10E2322E0019B00221A64C7
:10C1700001994FF000024FF00003C1E91223019B27
:10C180000D4A1A65019B0D4A5A65019B0C4A9A6536
:10C19000019B0C4ADA65019B0B4A1A66019B0B4A0C
:10C1A0005A66019B0A4A9A66019B0A4ADA6600238C
:10C1B000184602B0704700BF67E6096A85AE67BBE4
:10C1C00072F36E3C3AF54FA57F520E518C68059B79
:10C1D000ABD9831F19CDE05B30B587B003900291D6
:10C1E0000192039B002B01D10E2335E0019B002B14
:10C1F00004D0029B002B01D10E232DE000230593D8
:10C2000025E0029A059B1A44039B1B6C1178039A44
:10C21000D154039B1B6C5A1C039B1A64039B1B6C1D
:10C22000402B11D1039B19460398FFF761FE039B36
:10C23000D3E9122312F5007443F10005039BC3E90F
:10C240001245039B00221A64059B01330593059A4E
:10C25000019B9A42D5D30023184607B030BDF0B5F4
:10C2600087B00390029113468DF80730039B002B93
:10C2700001D10E23A0E1029B002B01D10E239BE1F3
:10C28000039B1B6C0593039B1B6C372B10D8059BE2
:10C290005A1C0592039A8021D15405E0059B5A1C33
:10C2A0000592039A0021D154059B372BF6D91AE049
:10C2B000059B5A1C0592039A8021D15405E0059BE9
:10C2C0005A1C0592039A0021D154059B3F2BF6D9A5
:10C2D000039B19460398FFF70BFE039B38220021AE
:10C2E000184609F0EDF8039BD3E91245039B1B6C3C
:10C2F00018464FF000014FF000024FF00003CB0052
:10C3000043EA5073C200A61845EB0307039BC3E939
:10C310001267039BD3E91223D2B2039B83F83F2019
:10C32000039BD3E912014FF000024FF00003020A11
:10C3300042EA01620B0AD2B2039B83F83E20039BC0
:10C34000D3E912014FF000024FF00003020C42EA61
:10C3500001420B0CD2B2039B83F83D20039BD3E92F
:10C3600012014FF000024FF00003020E42EA0122D8
:10C370000B0ED2B2039B83F83C20039BD3E912013E
:10C380004FF000024FF000030A000023D2B2039BDB
:10C3900083F83B20039BD3E912014FF000024FF0DA
:10C3A00000030A0A0023D2B2039B83F83A20039BBE
:10C3B000D3E912014FF000024FF000030A0C0023F2
:10C3C000D2B2039B83F83920039BD3E912014FF0CB
:10C3D00000024FF000030A0E0023D2B2039B83F841
:10C3E0003820039B19460398FFF782FD9DF807301C
:10C3F000002B68D00023059361E0039BDA6E059B58
:10C40000DB0022FA03F1029A059B1344CAB21A70A8
:10C41000039B9A6E059BDB0022FA03F1059B043314
:10C42000029A1344CAB21A70039B5A6E059BDB0032
:10C4300022FA03F1059B0833029A1344CAB21A7018
:10C44000039B1A6E059BDB0022FA03F1059B0C335C
:10C45000029A1344CAB21A70039BDA6D059BDB0083
:10C4600022FA03F1059B1033029A1344CAB21A70E0
:10C47000039B9A6D059BDB0022FA03F1059B1433A5
:10C48000029A1344CAB21A70039B5A6D059BDB00D3
:10C4900022FA03F1059B1833029A1344CAB21A70A8
:10C4A000039B1A6D059BDB0022FA03F1059B1C33ED
:10C4B000029A1344CAB21A70059B01330593059B77
:10C4C000032B9AD977E00023059371E0039B1A6D43
:10C4D000059BC3F10303DB0022FA03F1029A059BDB
:10C4E0001344CAB21A70039B5A6D059BC3F1030330
:10C4F000DB0022FA03F1059B0433029A1344CAB20B
:10C500001A70039B9A6D059BC3F10303DB0022FAAB
:10C5100003F1059B0833029A1344CAB21A70039BB5
:10C52000DA6D059BC3F10303DB0022FA03F1059BDF
:10C530000C33029A1344CAB21A70039B1A6E059BFD
:10C54000C3F10303DB0022FA03F1059B1033029AC7
:10C550001344CAB21A70039B5A6E059BC3F10303BE
:10C56000DB0022FA03F1059B1433029A1344CAB28A
:10C570001A70039B9A6E059BC3F10303DB0022FA3A
:10C5800003F1059B1833029A1344CAB21A70039B35
:10C59000DA6E059BC3F10303DB0022FA03F1059B6E
:10C5A0001C33029A1344CAB21A70059B01330593D7
:10C5B000059B032B8AD90023184607B0F0BD000065
:10C5C000BFF34F8F00BF074BDB6803F4E062054900
:10C5D000054B1343CB60BFF34F8F00BF00BF00BFBD
:10C5E000FCE700BF00ED00E00400FA05024B034A3F
:10C5F0001A6000BF704700BF582B00200090D00386
:10C6000008B500F027F90346002B0ED04FF0804309
:10C610000022C3F80C214FF080430022C3F8102100
:10C620004FF080430022C3F8382500F037F9034665
:10C63000002B76D04FF080537D4AD3F80434C2F8F3
:10C6400020354FF080537A4AD3F80834C2F82435A5
:10C650004FF08053764AD3F80C34C2F828354FF0A7
:10C660008053734AD3F81034C2F82C354FF08053FE
:10C670006F4AD3F81434C2F830354FF080536C4A07
:10C68000D3F81834C2F834354FF08053684AD3F8E1
:10C690001C34C2F840354FF08053654AD3F820343B
:10C6A000C2F844354FF08053614AD3F82434C2F8BD
:10C6B00048354FF080535E4AD3F82834C2F84C35E1
:10C6C0004FF080535A4AD3F82C34C2F850354FF00B
:10C6D0008053574AD3F83034C2F854354FF0805362
:10C6E000534AD3F83434C2F860354FF08053504A7F
:10C6F000D3F83834C2F864354FF080534C4AD3F83D
:10C700003C34C2F868354FF08053494AD3F840347E
:10C71000C2F86C354FF08053454AD3F84434C2F820
:10C72000703500F0DFF80346002B02D0414B424A3F
:10C730001A6000F0E9F80346002B03D03F4BFB22C0
:10C74000C3F8182500F0F2F80346002B0AD03C4B42
:10C750001B6823F00F023B4B1B6803F00F033849A3
:10C7600013430B6000F0F4F80346002B03D0364B64
:10C770004FF400721A6000F0FDF80346002B0DD054
:10C780004FF08043D3F8003403F00103002B05D0B1
:10C790004FF080436FF00102C3F800242B4BD3F815
:10C7A00088302A4A43F47003C2F88830BFF34F8FB1
:10C7B00000BFBFF36F8F00BF4FF01023D3F80032DC
:10C7C000002B05DB4FF01023D3F80432002B2BDABB
:10C7D0001F4B0122C3F8042500BF1D4BD3F80034C2
:10C7E000002BFAD04FF010231222C3F8002200BF12
:10C7F000174BD3F80034002BFAD04FF0102312223D
:10C80000C3F8042200BF124BD3F80034002BFAD037
:10C810000F4B0022C3F8042500BF0D4BD3F80034A2
:10C82000002BFAD0FFF7CCFEFFF7E0FE00BF08BDFB
:10C8300000C000408C5600404881030000F00040DA
:10C84000E40E0040580200104096024000ED00E067
:10C8500000E001400F4B1B68082B17D10E4B1B68E3
:10C86000002B01D1012312E00B4B1B68012B01D1DE
:10C8700001230CE0084B1B68022B01D1012306E0C9
:10C88000054B1B68032B01D1012300E0012318464F
:10C89000704700BF30010010340100100F4B1B68BF
:10C8A000082B17D10E4B1B68002B01D1012312E07E
:10C8B0000B4B1B68012B01D101230CE0084B1B68BB
:10C8C000022B01D1012306E0054B1B68032B01D18C
:10C8D000012300E001231846704700BF300100101B
:10C8E00034010010064B1B68082B05D1054B1B6853
:10C8F000002B01D1012300E000231846704700BF40
:10C900003001001034010010064B1B68082B05D1C4
:10C91000054B1B68002B01D1012300E000231846C2
:10C92000704700BF3001001034010010064B1B6837
:10C93000082B05D1054B1B68002B01D1012300E01A
:10C9400000231846704700BF30010010340100106A
:10C95000064B1B68082B05D1054B1B68002B01D12A
:10C96000012300E000231846704700BF300100108B
:10C97000340100100F4B1B68082B17D10E4B1B689E
:10C98000002B01D1012312E00B4B1B68012B01D1BD
:10C9900001230CE0084B1B68022B01D1012306E0A8
:10C9A000054B1B68032B01D1012300E0012318462E
:10C9B000704700BF300100103401001082B00190B8
:10C9C000019B1B681F2B02D84FF0A04306E0019B80
:10C9D0001B6803F01F02019B1A60024B184602B04D
:10C9E000704700BF0003005000B585B001900846B5
:10C9F00011461A4603468DF803300B468DF8023077
:10CA000013468DF8013001AB1846FFF7D7FF0390AE
:10CA10009DF803209DF802305B001A439DF8013019
:10CA20009B001A439DF818301B0242EA03019DF84F
:10CA30001C301B04019A1943039B02F5E07243F872
:10CA4000221000BF05B05DF804FB00B585B003906F
:10CA50000023019300230093002301220121039866
:10CA6000FFF7C2FF00BF05B05DF804FB00B585B05D
:10CA700003900B468DF80B309DF80B30002201928D
:10CA800000220092002200210398FFF7ADFF00BFB3
:10CA900005B05DF804FB00B585B0019001AB184608
:10CAA000FFF78CFF0390019B012202FA03F3194662
:10CAB000039800F086F800BF05B05DF804FB00B5F0
:10CAC00085B0019001AB1846FFF778FF0390019BFA
:10CAD000012202FA03F31946039800F07CF800BF24
