:020000022000DC
:1070000000000420757302005D7302005F730200CC
:1070100061730200637302006573020000000000E8
:107020000000000000000000000000006773020084
:1070300069730200000000006B7302006D730200B0
:1070400045CC02006F730200E9D802006F730200A2
:107050006F7302006F73020001D602006F730200AB
:107060006F7302006F7302006F7302006F73020090
:107070006F7302006F7302006F7302006F73020080
:107080006F73020051A002006F7302006F73020061
:107090006F7302006F730200714003006F73020090
:1070A0006F7302006F7302006F7302006F73020050
:1070B0006F7302006F730200000000000000000008
:1070C0006F7302006F7302006F7302006F73020030
:1070D0006F7302006F7302006F7302006F73020020
:1070E0006F7302006F7302006F73020000000000F4
:1070F000000000006F730200000000006F730200C8
:10710000000000000000000000000000000000007F
:10711000000000000000000000000000000000006F
:10712000000000000000000000000000000000005F
:10713000000000000000000000000000000000004F
:10714000000000000000000000000000000000003F
:10715000000000000000000000000000000000002F
:10716000000000000000000000000000000000001F
:10717000000000000000000000000000000000000F
:1071800000000000000000000000000000000000FF
:1071900000000000000000000000000000000000EF
:1071A00000000000000000000000000000000000DF
:1071B00000000000000000000000000000000000CF
:1071C00000000000000000000000000000000000BF
:1071D00000000000000000000000000000000000AF
:1071E000000000000000000000000000000000009F
:1071F000000000000000000000000000000000008F
:10720000354936480A1A02D0072291438D4634493F
:1072100034480A1A06D00722914381F309880222D2
:1072200082F3148830483149314A00F044F831483B
:107230003149324A00F03FF831483249324A00F0D1
:107240003AF832483249334A00F035F83248334987
:10725000334A00F030F833483349344A00F02BF811
:1072600033483449344A00F026F83448344900227F
:1072700000F02CF833483449002200F027F8334856
:107280003349091A082902DB002202604160314AB1
:1072900090471F481F49884205D00268043003B454
:1072A000904703BCF7E700208646EC46002000210B
:1072B000294A9047FEE7884207D0521A05D0037842
:1072C00001300B700131013AF9D17047884202D088
:1072D00002700130FAE770470000042000E003204C
:1072E0000000042000000420E8630300FC2A0020C2
:1072F000B42B0020D0730200D0730200E84F0300CB
:10730000E8630300FC2A0020FC2A0020205103002F
:10731000205103002051030020510300205103009D
:10732000205103002051030020510300E8630300B3
:10733000A0640300B42B0020B42B0020B42B002049
:10734000943F0020943F0020943F0020943F002071
:10735000945F00209D7302002D090300FEE7FEE705
:10736000FEE7FEE7FEE7FEE7FEE7FEE7FEE7FEE7F5
:1073700000F002B8FFF7FCBF0F484FF00701884349
:1073800085460E4880470E48016841F4700101604F
:10739000BFF34F8FBFF36F8FFFF732BF09480A4922
:1073A0000A4A884207D0521A05D0037801300B7080
:1073B0000131013AF9D170470000042061BE02009A
:1073C00088ED00E00C510300E82A0020FC2A002090
:1073D00000B585B00190019B002B0AD0074B43F00C
:1073E00001030393019B9B010293039B029898471F
:1073F00000E000BF05B05DF804FB00BF30510300A2
:1074000000B583B00190019B002B0AD04FF47A7035
:10741000FFF7DEFF019B013B0193019B002BF5D1A0
:1074200000E000BF03B05DF804FB08B509F062FCA2
:1074300000BF08BD00B589B0039002910192019B85
:10744000002B33D00023079303230693029A079B54
:107450001344019A1946002009F0FEFB0590079A93
:10746000059B13440793019A059BD31A0193059B2F
:10747000002B13D10F4B1B7883F00103DBB2002BE1
:1074800013D10120FFF7BCFF069B013B0693069B2F
:10749000002B03D1074B00221A7007E0054B012295
:1074A0001A70019B002BD1D100E000BF00BF09B0D2
:1074B0005DF804FBB42B002000B585B00390029169
:1074C000054B00934023054A0299039800F012F8F7
:1074D00000BF05B05DF804FB35740200B82B002036
:1074E00082B0019000BF02B0704782B0019000BF2F
:1074F00002B0704700B5A1B00590049103920293C9
:10750000049803F018FD039B1593029B1693002328
:10751000179300238DF8603000231993229B1A9350
:1075200000231F930FA91F9B0822049803F0C0FD9E
:1075300008231F93119B1293BDF84030ADF84C30D7
:10754000BDF84230ADF84E3000238DF851309DF833
:107550003C3003F00303DBB2012B26D10F9BC3F3B6
:1075600095231D939DF83C30C3F3C203DBB28DF825
:107570005030BDF83C30C3F38313DBB21C931C9B2B
:107580009A0009A91F9B049803F092FD1C9B9B0085
:107590001F9A13441F9312AA09A915AB009313460F
:1075A0001C9A1D9800F054FF2FE09DF83C3003F02A
:1075B0000303DBB2022B28D1BDF83E30C3F389139D
:1075C0009BB21E939DF83C30C3F3C203DBB28DF82F
:1075D00050301E9B082B28BF08231B9307A91F9B15
:1075E0001B9A049803F064FD1F9A1B9B13441F937E
:1075F0001E9A1B9BD31A1E9315AB12AA07A81B99A0
:1076000000F0C8FF1E9B002BE3D1049803F0A2FCFE
:1076100000BF21B05DF804FB82B00190019BDB68E4
:1076200001225A7100BF02B07047000000B583B05C
:107630004FF0FF330193FFF7F8FE0421054800F0F7
:1076400023FE01900348FFF7E7FF00BF03B05DF89A
:1076500004FB00BFFC50030000B583B00190009113
:10766000019B1B681B6800990198984700BF03B0F5
:107670005DF804FB00B583B00190019B1B685B685B
:107680000198984700BF03B05DF804FB00B583B0D4
:107690000190019B1B689B680198984700BF03B04D
:1076A0005DF804FB82B001900B468DF80330019B1E
:1076B000DB689DF803201A7100BF02B0704782B0EA
:1076C0000190019BDB681B79184602B0704782B0BD
:1076D0000190019BDB6801225A7100BF02B0704724
:1076E00082B00190019BDB685B79184602B070475D
:1076F00000B585B001900091154BFF229A60144BA4
:1077000000221A60124B00225A60114B0022C3F86B
:1077100018240F4B0022C3F814240D4B002283F8C9
:1077200020240C4803F06CFB0390039B002B01D03A
:10773000039B08E0084803F043FD084A084BD31AAE
:10774000DB0802930023184605B05DF804FB00BF78
:10775000602D00206050030048510300FC500300DE
:1077600074500300024A034BD31ADB0818467047D3
:10777000FC5003007450030000B587B001900B4625
:107780008DF803309DF80330002B1FD0FFF7EAFF80
:1077900004900023059313E0059B9B000E4A1344BD
:1077A0000393039B1B881A46019B1B689A4204D1D2
:1077B000019B059A1A60002309E0059B013305939C
:1077C000059A049B9A42E7D3052300E0002318465C
:1077D00007B05DF804FB00BFFC2A002000B585B0AF
:1077E00001900B468DF803309DF8032001AB114644
:1077F0001846FFF7C1FF0346002B07D1019BDB00B2
:10780000054A13440393039B1B6800E000231846BA
:1078100005B05DF804FB00BF7450030084B0019014
:107820000B468DF80330019BDB00174A134402938B
:107830009DF80330013B032B1CD801A252F823F022
:107840005178020059780200617802006B780200DA
:1078500002238DF80F3011E004238DF80F300DE076
:10786000029B1B798DF80F3008E0029B5B798DF845
:107870000F3003E000238DF80F3000BF9DF80F306C
:10788000184604B0704700BF7450030084B00190E4
:10789000009100238DF80F30019B1B7803F0040347
:1078A000DBB2002B24D0019B1B78C3F30103DBB2B6
:1078B000012B02D0022B0CD017E0009B1B68019A11
:1078C0001288C2F38312D2B213449A1C009B1A602E
:1078D0000BE0009B1B68019A5288C2F3891292B296
:1078E00013449A1C009B1A6000BF01238DF80F30CF
:1078F0009DF80F30184604B07047000000B58BB0FB
:107900000023ADF826303B4802F0E4FD3A4802F08F
:10791000E1FD3A4B5B680493384B9B680693049AED
:10792000069B134002339B00344A134404330893EC
:1079300004AB19460898FFF7A9FF0346002B09D0AE
:10794000049A069B134002339B002C4A13440433D1
:107950000893EDE700BF0023079311E0049B5A1C36
:107960000492069A1340079A920001A90A442349F7
:1079700002339B000B445B681360079B0133079342
:10798000079B012BEAD99DF80430C3F30103DBB256
:10799000012B10D0022B1CD1BDF80A30ADF82630D7
:1079A000BDF80630C3F389139BB203339A08049BD6
:1079B000134404930EE0BDF80A30ADF82630BDF84C
:1079C0000430C3F38313DBB21A46049B13440493BD
:1079D00000E000BF084802F089FD0590059B002BE0
:1079E00002D0049B054A5360BDF8263018460BB000
:1079F0005DF804FB7831002074310020602D0020F8
:107A000000B585B00021074802F0B1FC0390039B4C
:107A10000293029B83F310030193019B184605B068
:107A20005DF804FB7C31002000B589B00390029121
:107A300001920093039B1B0C0693FFF7E1FF079055
:107A4000079B1904009B5A1C0A9B1340069A0A4381
:107A50001B4902339B000B445A60009A0A9B134057
:107A600002339B00164A134404330593039B03F02F
:107A70000703D9B2059A137861F3C5031370019B0C
:107A800003F00F03D9B2059A138861F389131380A9
:107A9000029BC3F31501059A136861F39F231360DA
:107AA000059A1378012161F301031370059A137885
:107AB0006FF38203137000BF09B05DF804FB00BFD1
:107AC000602D002000B58DB00390029113468DF813
:107AD0000730039B02330A9301238DF827300023DC
:107AE0008DF81B300DF11B03184601F053FF404B7E
:107AF0001A68029B1A603E4B9A683D4B59683C4B92
:107B00001B68CB1A134401330B9314E0012139484D
:107B100002F0A4FCFFF7F2FE08900899354802F045
:107B20009DFC334B9A68324B5968314B1B68CB1A1A
:107B3000134401330B930A9A0B9B9A42E6D89DF8A3
:107B40002730002B48D0002305939DF80730002BE9
:107B500017D09DF81430012262F301038DF8143020
:107B60009DF8143043F004038DF81430039B03F0A8
:107B70000F03DAB2BDF8143062F38913ADF8143094
:107B800016E09DF81430022262F301038DF81430E0
:107B90009DF8143043F004038DF81430039BC3F3B5
:107BA00009039AB2BDF8163062F38F13ADF81630A0
:107BB0000F4B1A680E4B9B68134002339B000C4A14
:107BC000134404330793059A079B1A60084B1A68FD
:107BD0000A9B1344064A13609DF81B30184601F0B7
:107BE000E3FE9DF8273018460DB05DF804FB00BF9A
:107BF000602D00207C31002000B58BB005900491F1
:107C0000039202931F4B9B68079306AB0122194610
:107C10000298FFF757FF0346002B24D0069B023340
:107C200009930023089311E0089B9B00039A1A44D0
:107C3000099B591C099107990B401268114902339D
:107C40009B000B445A60089B01330893089A029BDF
:107C50009A42E9D3069A079B00931346029A049925
:107C60000598FFF7E1FE074B93F82034002B05D071
:107C700000BF00F003F90346002BFAD100BF0BB0A0
:107C80005DF804FB602D002000B583B001900091E9
:107C90000023002200990198FFF7AEFF00BF03B058
:107CA0005DF804FB00B587B0039002910192019B3F
:107CB000059305AA012302990398FFF79DFF00BFD2
:107CC00007B05DF804FB00B587B003900291019204
:107CD0000093019B0493009B059304AA022302993D
:107CE0000398FFF789FF00BF07B05DF804FB00B5FC
:107CF00089B00390029101920093019B0593009B30
:107D000006930A9B079305AA032302990398FFF79A
:107D100073FF00BF09B05DF804FB000000B58DB033
:107D2000039002911346ADF806304B4B9B680B93C2
:107D3000BDF8063003339B0805A900221846FFF75B
:107D4000C1FE0346002B78D0059B0A93059B0233A6
:107D50000593414B9A6805990B9B0B40D31A01334D
:107D60009B000993BDF80630099A9A420ED3059AF2
:107D70000B9B134002339B00374A13440433BDF876
:107D80000620029918460CF0DCFC17E0059A0B9BC4
:107D9000134002339B00304A13440433099A02997A
:107DA00018460CF0CEFC029A099BD118BDF80620AB
:107DB000099BD31A1A4629480CF0C3FC039B1B0CE1
:107DC0000893FFF71DFE0790079B19040A9B5A1C96
:107DD0000B9B1340089A0A431F4902339B000B4434
:107DE0005A600A9A0B9B134002339B001A4A1344B1
:107DF00004330693039B03F00703D9B2069A137862
:107E000061F3C5031370069A13886FF38F13138001
:107E1000BDF80630C3F3090399B2069A538861F39B
:107E20008F135380069A1378022161F301031370B4
:107E3000069A13786FF382031370074B93F820347C
:107E4000002B05D000BF00F019F80346002BFAD133
:107E500000BF0DB05DF804FB602D00206C2D0020EC
:107E6000054B5A68044B1B689A420CBF0123002340
:107E7000DBB21846704700BF602D002000B599B0F6
:107E8000FFF7EEFF0346002B01D00023BCE19A4B25
:107E90000022C3F81824BFF34F8F974B5B680493FD
:107EA000954B9B681093049A109B134002339B00E0
:107EB000914A13440433119300231793002316931C
:107EC00000230F9304AB19461198FFF7DFFC03461C
:107ED000002B19D0884BD3F81834002B14D1864BC3
:107EE0001A68049B9A4205D8834B1B68824A5360E8
:107EF000002389E1049A109B134002339B007E4AC1
:107F0000134404331193DDE70023159311E0049B20
:107F10005A1C0492109A1340159A920001A90A441F
:107F2000754902339B000B445B681360159B01335A
:107F30001593159B012BEAD99DF8043003F0030338
:107F4000DBB2022B40F09C80BDF80630C3F38913EE
:107F50009BB20E93BDF80630C3F389139BB2502B2E
:107F600028BF50239BB20D930D9BC3F309039AB214
:107F7000BDF8063062F38F13ADF806300D9B083361
:107F80000C939DF80430C3F3C203DBB20F930C993A
:107F90005A4802F040FF1790179B002B00F0D0804A
:107FA000179802F0C8FF01A9169B0822179803F042
:107FB0006BF8169B08331693049BDA43109B13400F
:107FC00001339B000B930D9A0B9B9A4242D90B9B5A
:107FD000002B08D0049A109B134002339B00464AA2
:107FE0001344043300E0464B0A930B9B002B02D052
:107FF0000B9BDBB201E00D9BDBB28DF827300B9BB6
:10800000002B01D03E4B00E0002308930B9B002B7C
:1080100006D00D9BDAB20B9BDBB2D31ADBB200E0C9
:1080200000238DF81F309DF82720169B0A9917987A
:1080300003F02AF89DF82730169A13441693089BEC
:10804000002B16D09DF81F20169B0899179803F057
:108050001BF80EE0049A109B134002339B00264A43
:10806000134404330693169B0D9A0699179803F050
:108070000BF80E9B03339A08049B134404935FE0B0
:108080009DF8043003F00303DBB2012B58D1BDF897
:108090000430C3F38313DBB2062B28BF0623DAB206
:1080A000BDF8043062F38913ADF80430BDF8043034
:1080B000C3F38313DBB2023305939DF80430C3F39B
:1080C000C203DBB20F93059B9B0019460B4802F0DD
:1080D000A2FE1790179B002B32D0179802F02BFFAF
:1080E00001A9169B0822179802F0CEFF169B0833B1
:1080F0001693002315931AE0602D002060500300B2
:108100006C2D0020049B5A1C0492109A13400233D9
:108110009B003F4A1344191D169B0422179802F036
:10812000B3FF169B04331693159B01331593BDF8CB
:108130000430C3F38313DBB21A46159B9342E1D399
:10814000179B002B40D0324BD3F810341493304B94
:10815000D3F81834002B1BD0179802F0FBFE4DE02B
:1081600000238DF84F301498FFF7BAFA0346002B1E
:1081700002D001238DF84F309DF84F30002B03D0F3
:1081800017991498FFF768FA149BDB681B6814931F
:10819000149B002BE4D1179802F0DCFE00238DF82D
:1081A00003300DF10303184601F0F4FB184BD3F82C
:1081B0001834002B02D1049B154A53609DF80330FC
:1081C000184601F0F1FB19E0114BD3F8103412936B
:1081D00006E01298FFF75AFA129BDB681B681293AD
:1081E000129B002BF5D10B4A0B4BD31ADB081B0457
:1081F00043F0020309491846FFF746FDFFF730FE3A
:10820000034683F00103DBB2184619B05DF804FBA6
:10821000602D00209C50030074500300585103004F
:1082200000B585B00023039323E0164BD3F8103438
:10823000029301238DF807300FE00298FFF73FFA11
:1082400003461A46039B934203D100238DF807305F
:1082500006E0029BDB681B680293029B002BECD1BB
:108260009DF80730002B01D0039B07E0039B0133EF
:108270000393039B092BD8DD4FF0FF33184605B05D
:108280005DF804FB602D002000B585B001900B4621
:108290008DF80330FFF7C4FF0390039BB3F1FF3F5A
:1082A00001D1039B22E0039BDBB219460198FFF743
:1082B000F9F9104BD3F81034002B08D10D4A019B6B
:1082C000C2F81034019BDB6800221A600DE0094BF4
:1082D000D3F81034DA68019BDB6812681A60054B2A
:1082E000D3F81034DB68019A1A60039B184605B076
:1082F0005DF804FB602D002000B583B00C4BD3F873
:10830000103401930A4B012283F8202409E00198DC
:10831000FFF7DDF90198FFF7ADF9019BDB681B68FA
:108320000193019B002BF2D100BF03B05DF804FB69
:10833000602D002082B00190009100BF02B0704714
:1083400010B584B003900291039BDB88002B0AD008
:10835000039BDB881A461F4B009313461E4A1F4996
:10836000029802F091F9039B1B7A052B2ED0039BF8
:108370005B7A002B12D0039B9B881A46039B1B7AC7
:1083800019461046FFF74AFA03461A46144B53F8AB
:1083900022301A461349029802F076F9039B1B68B3
:1083A00019460298FFF7C6FF039B1B7A1A460E4B2D
:1083B00053F82240039B9B8800211846FFF70EFAD2
:1083C000034622460949029802F05EF900BF04B054
:1083D00010BD00BF8C5103009C510300D451030019
:1083E000182B0020EC510300042B0020F051030057
:1083F00000B585B00390029113468DF80730039BBA
:108400001B7A052B0FD0039B5B7A002B06D00D4BFC
:108410001B681A460C49029802F036F90B4902987B
:1084200002F032F907E09DF80730002B03D007492E
:10843000029802F029F9029802F00EF900BF05B087
:108440005DF804FB182B0020EC510300FC510300E5
:1084500030B58BB007900691059204930E9B1B7B61
:108460008DF827300E9B00221A730E990498FFF79F
:1084700067FF059B062B7FD801A252F823F000BFAF
:108480009D840200A7840200B7840200CB8402000E
:10849000E9840200118502004185020007990E98C7
:1084A00002F0F2F869E0069B1B681A4607990E98DD
:1084B00002F0EAF861E0069B1A68069B04331B6829
:1084C00007990E9802F0E0F857E0069B1A68069BA1
:1084D00004331968069B08331B6800930B46079901
:1084E0000E9802F0D1F848E0069B1968069B043309
:1084F0001868069B08331B68069A0C3212680192B2
:10850000009303460A4607990E9802F0BDF834E03E
:10851000069B1868069B04331C68069B08331B687F
:10852000069A0C321268069910310968029101927C
:1085300000932346024607990E9802F0A5F81CE026
:10854000069B1C68069B04331D68069B08331B684A
:10855000069A0C3212680699103109680698143090
:10856000006803900291019200932B4622460799DE
:108570000E9802F089F800E000BF00220E990498DE
:10858000FFF736FF0E9B9DF827201A7300BF0BB034
:1085900030BD00BF00B587B00390029101920093F7
:1085A000029B082B60D8009B1B7B8DF81330009B2F
:1085B00000221A7300990198FFF7C2FE0023059369
:1085C00014E0059A029B9A4209D2039A059B134430
:1085D0001B781A462649009802F056F803E0254910
:1085E000009802F051F8059B01330593059B072B7A
:1085F000E7D92149009802F047F80023059326E0C7
:10860000059A029B9A421BD2039A059B13441B783E
:108610008DF812309DF812307E2B0AD89DF812305A
:1086200018460CF057F80346002B02D09DF8123084
:1086300000E02E231A461149009802F025F803E0C5
:108640000F49009802F020F8059B01330593059B24
:10865000072BD5D9012200990198FFF7C9FE009B8D
:108660009DF813201A7300E000BF07B05DF804FB0B
:1086700000520300085203000C5203001052030082
:108680001452030084B003468DF807309DF807307C
:108690005B08DBB21A460D4B9B5C8DF80F309DF8E2
:1086A000073003F00103002B04D09DF80F301B09A5
:1086B000DBB204E09DF80F3003F00F03DBB28DF85E
:1086C0000E309DF80E30184604B07047B8310020C7
:1086D00084B003460A468DF8073013468DF80630FD
:1086E0009DF8073003F00103002B01D00F2300E0B9
:1086F000F0238DF80F309DF8073003F00103002BB5
:1087000004D09DF806301B01DBB201E09DF8063075
:108710008DF80E309DF807305B08DBB21A46114B1E
:108720009A5C9DF807305B08DBB219469DF80F3064
:108730001340DAB20B4B5A549DF807305B08DBB29A
:108740001A46084B9A5C9DF807305B08DBB2194665
:108750009DF80E301343DAB2024B5A5400BF04B0F6
:10876000704700BFB831002084B003468DF8073051
:108770000023039310E00D4B1A68039BDB001344A6
:108780000293029B1B789DF807209A4201D1029B1D
:1087900009E0039B01330393054B1B781A46039BA7
:1087A0009342E8DB0023184604B070478431002070
:1087B0008831002000B585B003460A468DF80730A1
:1087C00013468DF806309DF807301846FFF7CCFFAA
:1087D0000390039B002B0BD0039B5B68002B07D0FF
:1087E000039B5B689DF806109DF80720104698478C
:1087F00000BF05B05DF804FB2DE9F04F87B00346DC
:108800000A468DF80F3013468DF80E309DF80F3064
:108810001846FFF737FF0346042B00F2C38001A27E
:1088200052F823F039880200AF880200CB8802009A
:10883000FB880200118902009DF80E30002B00F029
:10884000AE809DF80F3001211846FFF741FF00234D
:108850008DF817300DF11703184601F09BF89DF8BD
:108860000F204FF001034FF00004A2F12000C2F1ED
:10887000200104FA02F703FA00F0074323FA01F19A
:108880000F4303FA02F6494BD3E9003446EA0302E8
:10889000009247EA04030193444BDDE90012C3E967
:1088A00000129DF81730184601F07EF877E09DF829
:1088B0000E30002B01D0022200E000229DF80F3084
:1088C00011461846FFF704FF6CE09DF80E30002BB0
:1088D0000CD09DF80F3003211846FFF7F9FE9DF8E4
:1088E0000F3001211846FFF765FF5BE09DF80F3060
:1088F00001211846FFF7ECFE54E09DF80E30002BE6
:108900004FD19DF80F3004211846FFF7E1FE48E0F3
:108910009DF80E30002B06D09DF80F30032118462D
:10892000FFF7D6FE3EE09DF80F3000211846FFF716
:10893000CFFE9DF80F3000211846FFF73BFF0023C4
:108940008DF816300DF11603184601F023F89DF846
:108950000F104FF001024FF00003A1F12006C1F10A
:10896000200003FA01F502FA06F6354322FA00F078
:10897000054302FA01F46FEA04086FEA05090B4B9C
:10898000D3E9003408EA030A09EA040B074BC3E9F8
:1089900000AB9DF81630184601F006F802E000BF63
:1089A00000E000BF00BF07B0BDE8F08FB03100208D
:1089B00000B583B00648074B1B685B0800221946C8
:1089C00000F01BFD019000BF03B05DF804FB00BF89
:1089D000903100208C31002010B586B0019000232A
:1089E000059328E01C4B1A68059BDB001344049395
:1089F000049B1B78184604F0F3FD03468DF80F30F6
:108A0000049B5B78012B0CBF01230023DBB21A46C9
:108A10009DF80F309A420CBF012300238DF80E30D1
:108A2000049B1B789DF80E2011461846FFF7E4FEC4
:108A3000059B01330593094B1B781A46059B93420E
:108A4000D0DB074BD3E90034234301D0FFF7B0FF5D
:108A500000BF06B010BD00BF843100208831002067
:108A6000B031002010B584B001900B468DF8033072
:108A7000019BDBB21846FFF777FE0390039B1B7840
:108A8000184604F0ADFD03468DF80B30039B5B7870
:108A9000012B0CBF01230023DBB21A469DF80B30DB
:108AA0009A420CBF012300238DF80A309DF80A304A
:108AB000002B06D0044BD3E90034234301D1FFF748
:108AC00077FF00BF04B010BDB031002010B58AB0F0
:108AD00003900B4601928DF80B30019B092B01D8B6
:108AE000072367E004F08CFC034683F00103DBB24C
:108AF000002B09D004F032FC0990099B0893089BD5
:108B0000002B01D0089B55E02C4A039B13602C4A94
:108B10009DF80B3013702B4A019B1360202200211B
:108B200029480BF037FE294A4FF000034FF00004AC
:108B3000C2E9003431E09DF80B30DB00039A1344A6
:108B4000079303238DF8143000238DF815309DF81A
:108B500016306FF300038DF816309DF816306FF362
:108B600041038DF816309DF816306FF382038DF8AF
:108B70001630079B9B788DF81530079B1B7818469D
:108B800005AB134A194604F047FC0990099B06936C
:108B9000069B002B01D0069B0CE09DF80B305A1E63
:108BA0008DF80B20002BC6D10A4A00210A4800F09C
:108BB00005FC034618460AB010BD00BF84310020F2
:108BC000883100208C310020B8310020B0310020E5
:108BD000658A0200D98902002452030000B583B0DF
:108BE000002301930CE00C4B1A68019BDB0013443B
:108BF0001B780121184604F07FFC019B013301938F
:108C0000064B1B781A46019B9342ECD3002318466F
:108C100003B05DF804FB00BF8431002088310020E0
:108C200000B587B001900023039300230493019BB8
:108C3000059303AB1A46002144F2010000F016F838
:108C400000BF07B05DF804FBBFF34F8F054BDB6837
:108C500003F4E0620349044B1343CB60BFF34F8F2F
:108C600000BFFDE700ED00E00400FA0500B585B0A7
:108C700003900291019272B6FFF73EFB00BFFFF72F
:108C8000FDF80346002BFAD1114A124BD31ADB0828
:108C90001B0443F0010310491846FEF7F5FF0F4B84
:108CA0001B6803F00103002B00D000BE084A094BEB
:108CB000D31ADB081B0443F0020309491846FEF7E8
:108CC000E3FFFFF7C1FF00BF05B05DF804FB00BF85
:108CD0009C5003007450030028520300F0ED00E0A4
:108CE0003452030084B00190019B9B680393019B65
:108CF000DA68039BD31A184604B0704782B001901B
:108D00000B468DF80330019B1A68019BDB680199C3
:108D100089880B4013449DF803201A70019BDB687F
:108D20005A1C019BDA6000BF02B0704784B0039008
:108D30000B460192ADF80A30039B1A68039B9968B1
:108D4000BDF80A300B44039989880B4013441A7804
:108D5000019B1A7000BF04B0704700B583B001904A
:108D60000091009A00210198FFF7E0FF019B9B68AA
:108D70005A1C019B9A6000BF03B05DF804FB84B0ED
:108D8000039002911346ADF80630029B002B01D1EF
:108D90000E231DE0BDF80630002B07D0BDF80630CD
:108DA0005A1EBDF806301340002B01D009230FE0F6
:108DB000039B029A1A60BDF80630013B9AB2039BEE
:108DC0009A80039B00229A60039B0022DA600023B2
:108DD000184604B0704700B583B001900B468DF87B
:108DE00003300198FFF77EFF0246019B9B889A4261
:108DF00007D89DF8033019460198FFF77FFF00233D
:108E000000E00423184603B05DF804FB00B583B00E
:108E1000019000910198FFF765FF0346002B05D0F4
:108E200000990198FFF799FF002300E005231846F9
:108E300003B05DF804FB00002DE9F04182B0134857
:108E400001F0ECF8034619464FF00002104BD3E94D
:108E50000034CF1842EB0408CDE900780D4BD3E97C
:108E60000034DDE90012A24208BF994207D2DDE9D1
:108E7000003413F1807544F10006CDE90056DDE9B8
:108E800000341846214602B0BDE8F0813C2B00209A
:108E9000E0310020E831002010B489B00190009149
:108EA000019B0793009B0693079BD3E90234CDE90E
:108EB0000434069BD3E90234CDE90234DDE90434FD
:108EC000DDE90212A24208BF99422CBF0123002310
:108ED000DBB2184609B05DF8044B704770B584B03A
:108EE000019000238DF80F30274B1B78002B46D0C4
:108EF000019B002B43D0019B1B7FDBB2002B3ED09C
:108F0000FFF79AFF0A460146019BD3E90234A242C9
:108F100008BF99422BD3019B1B69002B02D1019BF7
:108F200000221A77019B5B69019A92691046984763
:108F3000019B1B69002B22D0019B1B7FDBB2002B06
:108F40001DD0019BD3E90212019B1B694FF0000465
:108F5000CD1842EB0406019BC3E90256019B19465A
:108F60000A4802F080F901238DF80F3007E0019BD9
:108F70001946064802F077F901238DF80F309DF865
:108F80000F30184604B070BDDC310020545203008D
:108F9000F0B589B0019000910D230793009B00224A
:108FA0001A70019BD3E90245FFF746FF02460B46C4
:108FB000A61A65EB0307CDE90467DDE90434012B4C
:108FC00074F100031ADB049BB3F5350F05D300F0F1
:108FD00053FA0246124B134402E0019BD3E90234D8
:108FE00003934FF49603039A00210E4800F022FFEA
:108FF0000790079B002B05D101230EE000210948B3
:1090000000F0E6FF079B0D2B06D10198FFF766FFE6
:1090100003461A46009B1A700023184609B0F0BD9B
:10902000FFFFB4003C2B002000B583B0044802F0E1
:1090300043F90190019B184603B05DF804FB00BFA3
:109040005452030000B583B0044802F04BF901907C
:10905000019B184603B05DF804FB00BF54520300A7
:1090600000B583B0FFF7E0FF0190019B002B02D019
:10907000019B00221A77019B002BF3D100BF03B0A4
:109080005DF804FB10B4074BD3E9003413F1807191
:1090900044F10002034BC3E9001200BF5DF8044B2A
:1090A000704700BFE031002000B583B00190084B4D
:1090B0001B68002B07D0064B1B681846FFF70EFFF6
:1090C000034B00221A6000BF03B05DF804FB00BF31
:1090D000D831002010B582B00190FFF7ADFE0346F5
:1090E0000C46034AC2E9003400BF02B010BD00BF05
:1090F000E831002010B586B00190FFF7A3FF04907F
:1091000000238DF81730049B002B48D02B4B1B6895
:10911000002B03D101238DF8173019E0049BD3E90C
:109120000212264B1B68D3E90234A24208BF9942BF
:109130000ED201238DF81730204B1B681B7FDBB24A
:10914000002B05D01D4B1B6819461D4802F08BF8FB
:109150009DF81730002B2AD0FFF766FF04900DF121
:109160000F0319460498FFF713FF0346002B12D094
:10917000124B1B68002B02D1019800F0A1FD0F4A91
:10918000049B13609DF80F3083F00103DBB2002BCA
:10919000B3D000BF0EE0094B00221A60ADE7074BC9
:1091A0001B68002B05D1019800F097FD01E000BF7E
:1091B00000E000BF00BF06B010BD00BFD8310020E6
:1091C0005452030000B587B001902A4A03AB1946F8
:1091D000104601F058F8059045E0059B1B78012BDF
:1091E00017D0022B29D0002B2DD1059B5B681B7F4C
:1091F000DBB283F00103DBB2002B26D0059B5B685A
:1092000001221A77059B5B6819461B4802F02BF870
:109210001BE0059B5A68194B1B689A4203D1174BF8
:1092200000221A6012E0059B5B681946124802F0A2
:1092300061F803468DF8133008E0FFF711FF104B7B
:1092400001221A7002E000BF00E000BF094A03AB30
:109250001946104601F030F8064A03AB194610468D
:1092600001F011F80590059B002BB6D100BF07B0A7
:109270005DF804FB4832002054520300D83100202E
:10928000DC31002000B583B00190019800F093FE1E
:109290000346002B01D0FFF7F5FE0021019800F0F6
:1092A000A8FE0346002B02D00198FFF7FDFE012126
:1092B000019800F09EFE0346002B02D00198FFF7B4
:1092C00009FF0198FFF77EFF0198FFF713FF00BF2A
:1092D00003B05DF804FB000008B5024800F0ABFEE7
:1092E00000BF08BD3C2B002000B585B003460091AF
:1092F0008DF80730114A02AB1946104600F096FF70
:109300000390039B002B13D0039B9DF807201A703A
:10931000039B009A5A60094A02AB1946104600F0B6
:109320009EFF0346002B01D0FFF7D6FF002300E08D
:109330000423184605B05DF804FB00BF4832002046
:1093400000B583B0164B1B680093164808235822BB
:10935000154900F024FF0190019B002B01D0019BD7
:1093600019E06B46114A1946114800F043FC019080
:10937000019B002B01D0019B0DE001210C4800F066
:1093800009FE01230B4A0121094800F0B3FC0A4BF6
:1093900001221A70019B184603B05DF804FB00BF60
:1093A0005052030048320020F03100208592020024
:1093B0003C2B0020FFFF7F00DC31002086B00390B3
:1093C0000B4601928DF80B30019B002B01D1072336
:1093D00010E0039B1B680593059B019A5A619DF859
:1093E0000B30012B0CBF01230023DBB21A46059B77
:1093F0001A610023184606B0704770B586B0039016
:1094000002910192039B0593059B1B7FDBB2002B0E
:1094100001D000231BE0059B019A9A61FFF70CFD28
:109420000A460146029B4FF00004CD1842EB0406A9
:10943000059BC3E90256059B1B69002B02D0059BC7
:10944000029A1A6105990020FFF74EFF034618465D
:1094500006B070BD00B585B00190019B0393039BDE
:1094600000221A7703990120FFF73EFF03461846B2
:1094700005B05DF804FB000008B5034800F0CEFD20
:109480000346184608BD00BF3C2B002000B587B03E
:109490000390029113468DF8073000230593039B38
:1094A0001B781A46114B9B5C002B09D0039B04339D
:1094B0009DF807200299184605F036FB05900FE04D
:1094C000039B1B781A46094B9B5C002B08D1039B1E
:1094D0000C339DF807200299184604F051FD0590C1
:1094E000059B184607B05DF804FB00BF8C330020D5
:1094F00000B585B0019000238DF80F30019B1B78DB
:109500001A46114B9B5C002B08D0019B0433184674
:1095100005F0A0FB03468DF80F300EE0019B1B7891
:109520001A46094B9B5C002B07D1019B0C33184654
:1095300004F092FD03468DF80F309DF80F30184669
:1095400005B05DF804FB00BF8C33002000B587B088
:109550000390029113468DF8073000230593039B77
:109560001B781A46114B9B5C002B09D0039B0433DC
:109570009DF807200299184605F084FB05900FE03E
:10958000039B1B781A46094B9B5C002B08D1039B5D
:109590000C339DF807200299184604F0B5FD05909C
:1095A000059B184607B05DF804FB00BF8C33002014
:1095B00084B00190019B9B680393019BDA68039B35
:1095C000D31A184604B0704700B587B001900091D7
:1095D000019B1B78012B04D0022B42D0002B51D0D1
:1095E00066E0019B1B7A002B05D1012232493348EA
:1095F000FFF7ACFF5CE0019B5B681B7819463048C5
:10960000FFF7E9FB0590059B002B0AD001238DF89D
:109610000C30059B04932B4B1B6803AA10469847FC
:109620000DE02748FFF7C4FF0346002B07D00023B7
:109630008DF80C30234B1B6803AA1046984720482E
:10964000FFF7B6FF02461E4B9B889A4205D80122BF
:1096500019491A48FFF77AFF2AE01B4B01221A70BA
:1096600026E002238DF80C30019BDB680493012275
:1096700011491248FFF76AFF124B1B6803AA1046F4
:10968000984715E011491248FFF7C0FB0346002B2D
:1096900005D101220D490948FFF7F8FE07E0032331
:1096A0008DF80C30074B1B6803AA1046984700BF83
:1096B00000BF07B05DF804FB64320020442B00209B
:1096C000683200205C3200206532002060320020C9
:1096D0007832002030B591B00390029101928DF85C
:1096E00003303C4A019B1360029B002B01D10723EE
:1096F0006DE0029B1968029B5B689BB21A46364874
:10970000FFF73DFB0F900F9B0E930E9B002B01D09C
:109710000E9B5CE0029B9968029BDB689BB21A4639
:109720002E48FFF72CFB0F900F9B0D930D9B002BEA
:1097300001D00D9B4BE02A4B04AC1D460FCD0FC44E
:1097400095E80F0084E80F00039B5B690A93039B75
:109750001B7C002B14BF01230023DBB28DF82430C7
:109760009DF803308DF82C30039B5B7C002B01D0DF
:109770000E2300E000238DF82530039BDB68069361
:10978000039B9B680793039B1B680593039B5B6884
:10979000049304AB134A1946134803F0B5F80F902D
:1097A0000F9B0C930C9B002B01D00C9B0FE00F4BDD
:1097B00000221A70039B1B68B3F1FF3F06D0012201
:1097C0000B490948FFF7C2FE034600E00023184694
:1097D00011B030BD5C3200206832002078320020A9
:1097E00060520300C9950200442B0020653200201E
:1097F0006432002000B587B00190114B1B788DF8C2
:10980000173001990F48FFF701FB04909DF81730BE
:10981000002B10D00A4B00221A7001220A490B4873
:10982000FFF794FE0390039B0293029B002B02D050
:109830000298FFF7F5F9049B184607B05DF804FBA2
:10984000653200206832002064320020442B002062
:1098500000B585B003468DF807309DF807301946EE
:109860001048FFF7B8FA0390039B002B15D10E4860
:10987000FFF73EFE034683F00103DBB2002B0CD062
:109880000A490848FFF7C2FA0346002B05D1012216
:1098900006490548FFF7FAFD0390039B184605B0FB
:1098A0005DF804FB78320020442B00206032002059
:1098B00082B0EFF310830093009B019372B6019B7B
:1098C000184602B0704762B600BF704700B585B059
:1098D0000190FFF7EDFF0390164B9B68002B1BD107
:1098E000144B01229A60144BD3F88020134B134081
:1098F000104A1360104B114AC3F880200E4BD3F866
:1099000084300C4A53600C4B4FF0FF32C3F8842074
:10991000019B00221A7002E0019B01221A70039B36
:10992000002B01D1FFF7CFFF0023184605B05DF8EB
:1099300004FB00BF8832002000E100E0FC06FFBD10
:1099400000B585B003468DF80730104B9B68002B9F
:1099500016D09DF80730002B12D1FFF7A9FF039016
:109960000B4A0A4B1B681360094A084B5B6853603B
:10997000064B00229A60039B002B01D1FFF7A3FF47
:109980000023184605B05DF804FB00BF88320020B4
:1099900000E100E000B583B001900198FFF796FF69
:1099A00000BF03B05DF804FB00B583B003468DF83B
:1099B00007309DF807301846FFF7C2FF00BF03B01D
:1099C0005DF804FB82B003468DF807309DF8073040
:1099D00003F01F0205499DF907305B09012000FAD9
:1099E00002F241F8232000BF02B0704700E100E01E
:1099F00082B003468DF807309DF8073003F01F0250
:109A000006499DF907305B09012000FA02F2403354
:109A100041F8232000BF02B0704700BF00E100E022
:109A200082B0034600918DF807309DF90730002B76
:109A30000CDA009BDAB20C499DF8073003F00F03F3
:109A4000043B5201D2B20B441A7609E0009BDAB211
:109A500006499DF907305201D2B20B4483F8002326
:109A600000BF02B0704700BF00ED00E000E100E081
:109A700000B583B003460A468DF8073013468DF8CB
:109A800006309DF806209DF9073011461846FFF76D
:109A9000C7FF00BF03B05DF804FB00B583B0034609
:109AA0008DF807309DF907301846FFF78BFF00BF90
:109AB00003B05DF804FB000000B585B00190019B88
:109AC000002B0AD0074B43F001030393019B9B013A
:109AD0000293039B0298984700E000BF05B05DF831
:109AE00004FB00BFD052030084B0039002910192A6
:109AF000039B029A02F5A872019943F8221000BF55
:109B000004B0704782B001900091019B009A02F569
:109B1000A87253F82230184602B0704782B0019004
:109B20000091019B009AC3F8042300BF02B0704764
:109B300082B001900091019B009AC3F8082300BFF6
:109B400002B0704782B001900B46ADF80230BDF80C
:109B50000230019A13441B68184602B0704784B063
:109B600001900B46ADF80230BDF80230019A134463
:109B700000221A60BDF80230019A13441B68039357
:109B8000039B00BF04B0704782B00190019BD3F8E3
:109B90000435184602B0704782B001900091019BD5
:109BA000009AC3F8082500BF02B0704782B0019048
:109BB0000B468DF803309DF80320019B13441A4691
:109BC0000123136000BF02B0704782B00190009182
:109BD000019B009AC3F8442300BF02B0704782B0D3
:109BE00001900091019B009AC3F8482300BF02B086
:109BF0007047000000B587B0039002910192039B6B
:109C00005B791946284A019B42F82130039B5B7916
:109C1000264ADB0013441B79002B0ED00823059342
:109C2000234A244BD31ADB081B0443F002032249C6
:109C30001846FEF729F8059B32E0039B1A68029B41
:109C40001B8819461046FFF7A7FF039B93F90420D2
:109C5000029B9B7819461046FFF70AFF039B93F976
:109C600004301846FFF719FF039B5B790F4ADB00AE
:109C7000134401221A71039B5B7919460B4A039B1B
:109C800042F8313000230593094A0A4BD31ADB0806
:109C90001B0443F0030309491846FDF7F5FF059B34
:109CA000184607B05DF804FB94320020983200207B
:109CB000AC5003007450030080520300A452030010
:109CC00000B583B00190019B1B6800211846FFF787
:109CD0006DFF00BF03B05DF804FB00B583B00190D9
:109CE000019B1B6804211846FFF760FF00BF03B00B
:109CF0005DF804FB00B587B00390029101928DF8E6
:109D000003304FF48032029B02FA03F30593029B67
:109D100050339BB29B00ADF81230019B23F07F4380
:109D20000193039B1B6805991846FFF701FF039BEE
:109D30001B6805991846FFF752FF039B1B68BDF887
:109D4000122011461846FFF70AFF039B1B68019A71
:109D500002991846FFF7C8FE039B1B680599184631
:109D6000FFF733FF9DF80330002B05D0039B1B68E2
:109D700005991846FFF7D2FE00BF07B05DF804FB57
:109D800000B585B00390029113468DF80730039B10
:109D90001B6802991846FFF718FF9DF80730002B43
:109DA00005D0039B1B6802991846FFF7B7FE00BF5A
:109DB00005B05DF804FB00B583B001900091019BF4
:109DC0001B6800991846FFF70AFF019B1B68009962
:109DD0001846FFF7ADFE00BF03B05DF804FB00B509
:109DE00083B001900B46ADF80230019B1B68BDF8B3
:109DF000022011461846FFF7A5FE0346002B09D0A6
:109E0000019B1B68BDF8022011461846FFF7A7FE0C
:109E1000012300E00023184603B05DF804FB82B084
:109E200001900091019A009BD31A23F07F431846BA
:109E300002B0704700B58BB003900291019200937D
:109E40004FF48032029B02FA03F30993029B5033D2
:109E50009BB29B00ADF82230019B23F07F4301931E
:109E600009990398FFF7A7FF039B1B681846FFF7A4
:109E70008BFE0790039B1B6802991846FFF742FE72
:109E80000690039B1B68079A02991846FFF72CFE61
:109E9000039B1B68BDF8222011461846FFF75FFEA2
:109EA00007990698FFF7BBFF0346012B0AD1102044
:109EB000FFF702FE039B1B68BDF8222011461846DF
:109EC000FFF74DFE039B1B681846FFF75DFE0790EA
:109ED00007990198FFF7A3FF0590039B1B68099959
:109EE0001846FFF772FE059B012B15D1039B1868DE
:109EF000019B01331A460299FFF7F6FD1020FFF788
:109F0000DBFD039B1B681846FFF73EFE0246079BDE
:109F1000934235D00D2339E0039B1B68019A0299C7
:109F20001846FFF7E1FD039B1B681846FFF72CFE60
:109F30000790019B013B07991846FFF770FF0590BA
:109F4000009BC3F1FF1303F57F43059A9A4201D9A1
:109F50000D231BE0059B002B12D1039B1868019B6E
:109F600001331A460299FFF7BFFD039B1B68184691
:109F7000FFF70AFE0246079B934201D00D2305E03E
:109F8000012209990398FFF7FBFE002318460BB046
:109F90005DF804FB00B583B001900B468DF80330EB
:109FA0009DF803301A4602210198FFF7E9FE00BF31
:109FB00003B05DF804FB00B583B001904FF48271EB
:109FC0000198FFF70CFF0346184603B05DF804FB49
:109FD00000B583B0019000914FF48032009B02FAEB
:109FE00003F319460198FFF7E6FE00BF03B05DF8E2
:109FF00004FB00B585B001900091009B50339BB2EB
:10A000009B00ADF80E30BDF80E3019460198FFF7F1
:10A01000E6FE0346184605B05DF804FB00B583B0C4
:10A020000190019B1B681846FFF7AEFD03461846DA
:10A0300003B05DF804FB00B583B00190019B93F978
:10A0400004301846FFF7D4FC00BF03B05DF804FBF2
:10A0500008B5044B1B68044A12681046984700BFB5
:10A0600008BD00BF943200209832002086B00190D5
:10A070000091019B53E8011F8AB2D8890244988954
:10A08000824228BF121A1889824202BFBFF32F8F63
:10A09000002307E0C2EA010243E801200028E9D1D9
:10A0A0004FF001038DF80F30059002910492029A4F
:10A0B000009B1A609DF80F30DBB2184606B070475F
:10A0C00084B00190019951E8013FC3EA034341E89C
:10A0D0000132002AF7D10392029300BF04B0704707
:10A0E00086B001900091019B53E8021F1FFAA1F274
:10A0F000D888824202BFBFF32F8F00230DE0D8899A
:10A1000002449889824228BF121AC1EA024243E8F7
:10A1100002200028E8D14FF001038DF80F300590A0
:10A1200002910492029A009B1A609DF80F30DBB2F4
:10A13000184606B0704784B00190019951E8023F7B
:10A14000C3EA234341E80232002AF7D10392029383
:10A1500000BF04B0704786B00190019B53E8021F16
:10A16000DA88B1EB314F4FF0000017BF89B242EAF5
:10A17000024241EA024204E05968B1EB314F08BFA4
:10A18000012043E802210029E8D18DF80F00059154
:10A1900004929DF80F30DBB2184606B0704784B0C9
:10A1A0000390029111461A460B46ADF8063013464D
:10A1B000ADF80430029B002B01D10E231FE0BDF847
:10A1C0000630BDF80420B3FBF2F102FB01F29B1A4A
:10A1D0009BB2002B01D0092311E0039B029A1A6065
:10A1E000039B00225A60039B00229A60039BBDF8E8
:10A1F00006209A81039BBDF80420DA8100231846CB
:10A2000004B0704700B585B001900198FFF7A3FF37
:10A2100003468DF80F309DF80F30002B01D000233E
:10A2200000E01123184605B05DF804FB00B585B0C9
:10A2300001900091009B19460198FFF717FF034614
:10A24000002B07D0019B1B68009A128813440393CC
:10A25000039B00E00023184605B05DF804FB00B541
:10A2600083B001900091009B1A88009B5B889A4202
:10A2700004D10198FFF724FF012300E000231846D2
:10A2800003B05DF804FB00B585B001900091009B20
:10A2900019460198FFF724FF0346002B07D0019BC6
:10A2A0001B68009A528813440393039B00E0002329
:10A2B000184605B05DF804FB00B583B0019000912D
:10A2C000009B1A88009B5B889A4204D10198FFF793
:10A2D00032FF012300E00023184603B05DF804FBC1
:10A2E00000B585B001900091009B5B099B00019A2D
:10A2F000D018009B03F01F03012202FA03F3194652
:10A3000000F064F8039000BF05B05DF804FB00B5F1
:10A3100085B001900091009B5B099B00019AD018C9
:10A32000009B03F01F03012202FA03F3DB431946EB
:10A3300000F07CF8039000BF05B05DF804FB82B02C
:10A3400001900091009B5B099B00019A13441A68DD
:10A35000009B03F01F0322FA03F303F00103002B19
:10A3600014BF01230023DBB2184602B0704710B4BB
:10A3700087B001900091019B009A53E8004F10466E
:10A3800043E8000191F0000FF7D105940490039188
:10A39000059B184607B05DF8044B704710B487B0B2
:10A3A00001900091019B009A53E8004F44EA02009B
:10A3B00043E8000191F0000FF6D105940490039159
:10A3C000059B184607B05DF8044B704710B487B082
:10A3D00001900091019B009A53E8004F44EA02006B
:10A3E00043E8000191F0000FF6D105940490039129
:10A3F000049B184607B05DF8044B704710B487B053
:10A4000001900091019B009A53E8004F04EA02007A
:10A4100043E8000191F0000FF6D1059404900391F8
:10A42000059B184607B05DF8044B704710B487B021
:10A4300001900091019B009A53E8004F04EA02004A
:10A4400043E8000191F0000FF6D1059404900391C8
:10A45000049B184607B05DF8044B704710B487B0F2
:10A4600001900091019B009A53E8004F04EB020019
:10A4700043E8000191F0000FF6D105940490039198
:10A48000049B184607B05DF8044B704710B487B0C2
:10A4900001900091019B009A53E8004FA4EB020049
:10A4A00043E8000191F0000FF6D105940490039168
:10A4B000049B184607B05DF8044B704700B583B0A5
:10A4C000019001210198FFF769FF0346184603B088
:10A4D0005DF804FB00B583B0019001210198FFF7FE
:10A4E00075FF0346184603B05DF804FB00B583B062
:10A4F000019000210198FFF781FF0346184603B041
:10A500005DF804FB82B001900B468DF80330019B8F
:10A51000DA689DF803300199098A01FB03F31344BB
:10A52000184602B0704782B001900091009B019ADA
:10A53000D2689B1A019A128AB3FBF2F3DBB2184677
:10A5400002B0704784B00190019B002B01D10E2313
:10A5500020E0019B9A68019B5B68D31A8DF80F304D
:10A56000019B1B68019A52681A6007E0019B1A68F8
:10A570001368591C11609DF80F201A709DF80F3058
:10A580005A1E8DF80F20002BF0D1019B1B68002272
:10A590001A710023184604B0704700B585B00190C9
:10A5A0000023039300238DF80A300DF10A031846A7
:10A5B000FFF7F0F9019B1B681A68019B5B689A42E0
:10A5C0001FD9019B1B681A68013A1A601B681B7827
:10A5D00019460198FFF796FF0390019B9A68019B2B
:10A5E0001B681B68D31A8DF80B30019B1B681B7905
:10A5F0009DF80B209A4204D9019B1B689DF80B2003
:10A600001A719DF80A301846FFF7CEF9039B1846D9
:10A6100005B05DF804FB10B584B001900091009B7B
:10A62000039300238DF80B300DF10B031846FFF751
:10A63000B1F9019B1B681C68621C1A6003990198A0
:10A64000FFF771FF034623709DF80B301846FFF7A4
:10A65000ABF900BF04B010BD00B583B00190019B01
:10A660009B68002B0CD0019B5B69019A1069019AD1
:10A670001168019A92689847019B00229A6000E055
:10A6800000BF03B05DF804FB0EB400B584B00190C8
:10A69000059B002B0AD00023039306AB039303AB67
:10A6A0001A460599019800F0B5F900E000BF04B022
:10A6B0005DF804EB03B0704700B583B001900B4622
:10A6C0008DF803309DF803300A2B03D10D2101983A
:10A6D000FFF7F2FF019B1A68019B9B68581C0199C8
:10A6E000886013449DF803201A70019B9A68019BAF
:10A6F0005B689A4202D30198FFF7AEFF00BF03B038
:10A700005DF804FB00B587B00390029101920093BD
:10A7100000230593009B03F00103002B24D00BE0E2
:10A72000029B01330293059B013305939DF813307F
:10A7300019460398FFF7C0FF029B1B788DF8133072
:10A740009DF81330002BEBD106E0019B013B0193F8
:10A7500020210398FFF7B0FF019A059B9A422ED95A
:10A76000019B002BF1D12AE0029B002B0BD0029819
:10A770000AF065F8059006E0019B013B019320215A
:10A780000398FFF799FF019A059B9A420FD9019B05
:10A79000002BF1D10BE0029B01330293059B0133A7
:10A7A00005939DF8133019460398FFF785FF029B28
:10A7B0001B788DF813309DF81330002BEBD100BFC0
:10A7C00007B05DF804FB000000B589B0039002916A
:10A7D00001920093029B07930123069307E0079AD7
:10A7E000019BB2FBF3F30793069B01330693079A91
:10A7F000019B9A42F3D2009A069B9A4201D9009B90
:10A8000006930B9B03F00103002B22D10A9B002B24
:10A810001FD00B9B03F00203002B06D0009B002BE4
:10A8200003D130238DF8173002E020238DF8173044
:10A8300008E00A9B013B0A939DF8173019460398DC
:10A84000FFF73AFF0A9B002B03D0069A0A9B9A4215
:10A85000EFD301230793009B012B03D9009B013BFE
:10A86000009309E0029A079BB2FBF3F30493049A66
:10A87000019B9A4200D205E0079B019A02FB03F379
:10A880000793E8E7029A079BB2FBF3F30493049B58
:10A89000079A02FB03F3029AD31A0293154A049B08
:10A8A00013441B7819460398FFF706FF079A019B8C
:10A8B000B2FBF3F30793079B002BE3D10B9B03F051
:10A8C0000103002B11D00A9B002B0ED006E00A9B3F
:10A8D000013B0A9320210398FFF7EEFE0A9B002B11
:10A8E00003D0069A0A9B9A42F1D300BF09B05DF8E3
:10A8F00004FB00BFD852030000B589B00590049155
:10A9000003920293049B002BB8BF5B420693012382
:10A91000079307E0039B069A92FBF3F30693079BCA
:10A9200001330793039B069A9A42F3DA029A079B34
:10A930009A4201D9029B07930A9B002B0AD0049BE1
:10A94000002B04DB0B9B03F00403002B02D00A9BBB
:10A95000013B0A930B9B03F00203002B02D0029BE6
:10A96000002B16D00B9B03F00103002B11D10A9B87
:10A97000002B0ED006E00A9B013B0A93202105988C
:10A98000FFF79AFE0A9B002B03D0079A0A9B9A4274
:10A99000F1D3049B002B07DA049B5B4204932D2127
:10A9A0000598FFF789FE08E00B9B03F00403002BDA
:10A9B00003D02B210598FFF77FFE0B9B03F00203CA
:10A9C000002B19D00B9B03F00103002B14D1029B29
:10A9D000002B11D10A9B002B0ED006E00A9B013BF5
:10A9E0000A9330210598FFF767FE0A9B002B03D0DE
:10A9F000079A0A9B9A42F1D304990B9B01930A9BF5
:10AA00000093029B039A0598FFF7DEFE00BF09B092
:10AA10005DF804FB00B58FB0059004910392049B90
:10AA2000002B00F0E981049B1B788DF83730049BE4
:10AA3000013304939DF83730002B00F0D4819DF84A
:10AA40003730252B40F0C38100230A9301230C9358
:10AA5000049B1B788DF837309DF837302D2B04D0B0
:10AA6000302B0AD02B2B10D017E00A9B43F00103A8
:10AA70000A93049B0133049312E00A9B43F0020300
:10AA80000A93049B013304930AE00A9B43F00403F6
:10AA90000A93049B0133049302E000230C9300BF4C
:10AAA0000C9B002BD4D1002309939DF837302A2B1F
:10AAB0000CD1039B1B68191D039A11601B68099A2E
:10AAC00013440993049B013304931AE0049B1B78FD
:10AAD0008DF837309DF837302F2B12D99DF837304D
:10AAE000392B0ED8049B01330493099A13469B001B
:10AAF00013445B001A469DF837301344303B0993EA
:10AB0000D3E700230B93049B1B788DF837309DF817
:10AB100037302E2B1DD1049B01330493049B1B78EB
:10AB20008DF837309DF837302F2B12D99DF83730FC
:10AB3000392B0ED8049B013304930B9A13469B00C8
:10AB400013445B001A469DF837301344303B0B9397
:10AB5000E4E7049B1B788DF837309DF837306C2B79
:10AB600003D09DF83730682B07D1049B0133049341
:10AB7000049B1B788DF83730EFE79DF83730253B85
:10AB8000532B00F21F8101A252F823F0BBAD02004B
:10AB9000C5AD0200C5AD0200C5AD0200C5AD0200E5
:10ABA000C5AD0200C5AD0200C5AD0200C5AD0200D5
:10ABB000C5AD0200C5AD0200C5AD0200C5AD0200C5
:10ABC000C5AD0200C5AD0200C5AD0200C5AD0200B5
:10ABD000C5AD0200C5AD0200C5AD0200C5AD0200A5
:10ABE000C5AD0200C5AD0200C5AD0200C5AD020095
:10ABF000C5AD0200C5AD0200C5AD0200C5AD020085
:10AC0000C5AD0200C5AD0200C5AD0200C5AD020074
:10AC1000C5AD0200C5AD0200C5AD0200C5AD020064
:10AC2000C5AD0200C5AD0200C5AD0200C5AD020054
:10AC3000C5AD0200C5AD0200C5AD0200C5AD020044
:10AC4000C5AD0200C5AD0200C5AD0200C5AD020034
:10AC5000C5AD0200C5AD020047AD0200C5AD0200A2
:10AC6000C5AD0200C5AD0200C5AD0200C5AD020014
:10AC7000C5AD0200C5AD0200C5AD0200C5AD020004
:10AC8000C5AD0200DDAC0200FFAC0200C5AD0200A4
:10AC9000C5AD0200C5AD0200C5AD0200FFAC0200AB
:10ACA000C5AD0200C5AD0200C5AD0200C5AD0200D4
:10ACB000C5AD0200C5AD020087AD0200C5AD020002
:10ACC000C5AD02006BAD0200C5AD020023AD0200B0
:10ACD000C5AD0200C5AD020047AD0200039B1B6875
:10ACE000191D039A11601B680C930C9B8DF823307F
:10ACF0009DF8233019460598FFF7DEFC63E0039BBF
:10AD00001B68191D039A11601B680C930A9B019321
:10AD1000099B00930B9B0A220C990598FFF7ECFD09
:10AD200051E0039B1B68191D039A11601B680C936B
:10AD30000C990A9B0193099B00930B9B0A2205988F
:10AD4000FFF742FD3FE0039B1B68191D039A11604A
:10AD50001B680C930C990A9B0193099B00930B9B16
:10AD600010220598FFF730FD2DE0039B1B68191D8D
:10AD7000039A11601B6807930A9B099A0799059823
:10AD8000FFF7C0FC1FE0039B1B68191D039A1160AD
:10AD90001B680C9330210598FFF78EFC78210598ED
:10ADA000FFF78AFC0C9900230193082300930823E2
:10ADB00010220598FFF708FD05E025210598FFF70B
:10ADC0007BFC00E000BF049B0133049305E09DF889
:10ADD000373019460598FFF76FFC049B1B78002B52
:10ADE0007FF421AE00E000BF059B1B7B002B04D04D
:10ADF0000598FFF731FC00E000BF0FB05DF804FBE1
:10AE000000B583B001900198FFF79CFB03461846FC
:10AE100003B05DF804FB00B58BB001900091019B7D
:10AE20001B8A043B0793009A079B1344DA1C079B79
:10AE3000B2FBF3F38DF81B300198FFF7AEFB0590E2
:10AE4000059B002B01D1002338E0059B00221A71DD
:10AE5000059B01225A71079B9AB2059BDA80059BDC
:10AE600009939DF81B30013B0493099B019A1A60DA
:10AE7000002308931DE00198FFF78FFB0390039BCD
:10AE8000002B0ED0059B5B790133DAB2059B5A711A
:10AE9000099B039A1A60039B019A1A60039B09930A
:10AEA00004E0059800F00EF8002307E0089B01334A
:10AEB0000893089A049B9A42DDD3059B18460BB071
:10AEC0005DF804FB00B58BB00190019B0793079BD5
:10AED0005B798DF81B30019B08939DF81B30013B7B
:10AEE00005930023099305E0089B1B680893099BC1
:10AEF00001330993099A059B9A42F5D3089B1B6875
:10AF00000493019B0893002309930BE0089B1B68A3
:10AF1000039308990498FFF77EFB039B0893099B12
:10AF2000013309939DF81B30099A9A42EED300BF72
:10AF30000BB05DF804FB00B585B00190019B039355
:10AF4000039B043301211846FFF788FA00BF05B0C0
:10AF50005DF804FB00B587B00190019B0593059B4C
:10AF6000043301211846FFF791FA0346039303AB1C
:10AF70000493049B1B78002B02D10198FFF7A2FFDA
:10AF800000BF07B05DF804FB00B591B003900291DB
:10AF900001920093039B0993039B0F93099BDB880A
:10AFA0001A46099B5B7903FB02F3043B0893099B58
:10AFB000DB880793009B1A1D079BB2FBF3F30E93EC
:10AFC000009B0433079AB3FBF2F2079901FB02F2EC
:10AFD0009B1A0D93019B1A68009B1344089A9A428E
:10AFE00003D2089A009BD31A01E0019B1B680C93C3
:10AFF000019B0C9A1A6005E00F9B1B680F930E9B38
:10B00000013B0E930E9B002BF6D100230B93079A66
:10B010000D9BD31A0A930A9A0C9B934228BF13469E
:10B020000A932AE0029A0B9B134406930F9A0D9BF6
:10B030001344043305939DF84830002B05D00A9A39
:10B040000599069809F07DFB04E00A9A069905988F
:10B0500009F077FB00230D930F9B1B680F930C9A4D
:10B060000A9BD31A0C930B9A0A9B13440B93079ACF
:10B070000C9B934228BF13460A930C9B002BD1D103
:10B0800000BF11B05DF804FB00B589B005900491D4
:10B0900003920293039B079307AA00230093029B4A
:10B0A00004990598FFF770FF00BF09B05DF804FB35
:10B0B00000B589B00590049103920293039B079316
:10B0C00007AA01230093029B04990598FFF75CFFF0
:10B0D00000BF09B05DF804FB82B003468DF807306D
:10B0E0009DF8073003F01F0206499DF907305B0900
:10B0F000012000FA02F2603341F8232000BF02B0C1
:10B10000704700BF00E100E082B00190019B002287
:10B110001A60BFF35F8F00BF02B0704741DF704716
:10B1200000BF184600B585B000238DF803300DF13F
:10B1300003031846FEF72EFCF1EE103A0193019B33
:10B140000393039B23F09F030293029BE1EE103ACB
:10B15000BFF35F8F2620FFF7BFFF9DF8033018462F
:10B16000FEF722FC00BF05B05DF804FB08B5064BF6
:10B1700000221A700548FFF7C7FF0549054800F08F
:10B180003CF80023184608BDA4320020A03200205D
:10B19000F4520300A832002000B583B0FFF7C2FFCD
:10B1A00008F03AFF0346002B03D0FFF7B7FF0190EA
:10B1B00002E020BF40BF20BF00BF03B05DF804FB2A
:10B1C00082B00190019B9B6800229A60019B9B6862
:10B1D00000221A61019B9B6800225A61019B9B68B7
:10B1E0000022DA60019B9B6800225A60019B9B68E9
:10B1F00000221A6000BF02B0704782B00190009137
:10B20000019B009A1A60019B1B681A68019B5A6097
:10B21000019B5A68019B1B685B689A4202D1019BA3
:10B2200000225A6000BF02B0704782B00190019BBB
:10B230005B68002B14D0019B5B681A46019B1B685E
:10B240009B6813441A46019B5A60019B5A68019BF4
:10B250001B685B689A4204D1019B00225A6000E09F
:10B2600000BF02B0704700B585B001900091019B0E
:10B270005B6803930FE0019B9B68039A1268009937
:10B2800010469847034683F00103DBB2002B07D139
:10B29000039B1B680393039B1B68002BEBD100E00F
:10B2A00000BF039B1A68009B1A60039B009A1A60F8
:10B2B00000BF05B05DF804FB84B00190019B5B68A2
:10B2C0001B680393019B5B681B68002B06D0019BE6
:10B2D0005B681A68019B5B6812681A60039B1846DA
:10B2E00004B0704782B00190019B5B681B681846F0
:10B2F00002B0704784B00190009100238DF80F30A8
:10B30000019B5B6802930FE0029B1B68009A9A42C4
:10B3100007D1009B1A68029B1A6001238DF80F3039
:10B3200006E0029B1B680293029B1B68002BEBD17B
:10B330009DF80F30184604B07047000000B585B086
:10B340000190019800F00EF80390039B002B01D0B0
:10B35000039B00E0024B184605B05DF804FB00BFFC
:10B360000C53030086B00190164B0593164B0493C3
:10B370001FE0049A059BD31ADB10DA0F13445B100D
:10B38000DB00059A13440393039B1B680293029A04
:10B39000019B9A4202D9039B04930AE0029A019B03
:10B3A0009A4203D2039B0833059302E0039B5B6838
:10B3B00004E0059A049B9A42DBD30023184606B0AA
:10B3C000704700BF0C5703003458030000B583B02A
:10B3D00001900091019BDBB21846FEF739FA019B00
:10B3E000184603B05DF804FB00B587B005900491E2
:10B3F0000392059B002B10D1194A1A4BD31ADB0874
:10B400001B0443F00100184A18490E2300930B4611
:10B410001749FCF76CFC0E231DE0049B002B10D198
:10B420000F4A104BD31ADB081B0443F00100114AEA
:10B430000E490E2300930B460D49FCF758FC0E23D2
:10B4400009E0059B049A1A60059B1B681B68039919
:10B45000059898470346184607B05DF804FB00BFFF
:10B46000CC5003007450030044580300E859030013
:10B470004C5803007858030010B586B0059004912D
:10B4800003920293059B002B10D1454A454BD31ADA
:10B49000DB081B0443F00100434A44490E23009398
:10B4A0000B464349FCF723FC0E2375E0039B002B5E
:10B4B00010D13B4A3B4BD31ADB081B0443F001007D
:10B4C0003C4A3A490E2300930B463949FCF70FFCDE
:10B4D0000E2361E0059B1B68002B10D1304A314BD5
:10B4E000D31ADB081B0443F00100334A2F49082319
:10B4F00000930B462E49FCF7FAFB08234CE0029B15
:10B50000002B10D1264A274BD31ADB081B0443F02B
:10B5100001002A4A2549092300930B462449FCF7D8
:10B52000E6FB092338E0049800F08EF90346002B6F
:10B5300010D11B4A1B4BD31ADB081B0443F001003C
:10B540001F4A1A49102300930B461949FCF7CFFBF9
:10B55000102321E0029A0499059800F05BF9034654
:10B56000002B10D10E4A0F4BD31ADB081B0443F0FB
:10B570000100144A0D49102300930B460C49FCF7B7
:10B58000B6FB102308E0059B1B689C68029B039A8E
:10B5900004990598A0470346184606B010BD00BFA1
:10B5A000CC5003007450030044580300FC590300BE
:10B5B0004C5803008C580300805803009458030033
:10B5C00098580300B058030010B586B00590049158
:10B5D00003920293059B002B10D1604A604BD31A53
:10B5E000DB081B0443F001005E4A5F490E23009311
:10B5F0000B465E49FCF77BFB0E23ABE0039B002B65
:10B6000010D1564A564BD31ADB081B0443F00100F5
:10B61000574A55490E2300930B465449FCF767FBE4
:10B620000E2397E0059B1B68002B10D14B4A4C4B17
:10B63000D31ADB081B0443F001004E4A4A49082391
:10B6400000930B464949FCF752FB082382E0029B1A
:10B65000002B10D1414A424BD31ADB081B0443F0A4
:10B660000100454A4049092300930B463F49FCF736
:10B670003EFB09236EE0059B5B685A68029BB3FBA7
:10B68000F2F102FB01F29B1A002B10D0334A344B2B
:10B69000D31ADB081B0443F00100384A324909235E
:10B6A00000930B463149FCF722FB092352E0049832
:10B6B00000F0CAF80346002B10D1284A284BD31AB1
:10B6C000DB081B0443F001002D4A27491023009397
:10B6D0000B462649FCF70BFB10233BE0039B184667
:10B6E00000F0B2F80346002B10D11C4A1C4BD31AB1
:10B6F000DB081B0443F00100224A1B49102300937E
:10B700000B461A49FCF7F3FA102323E0029A049936
:10B71000059800F07FF80346002B10D10F4A104B1C
:10B72000D31ADB081B0443F00100174A0E4910230B
:10B7300000930B460D49FCF7DAFA10230AE0059B4B
:10B740001B68DC68089B0093029B039A0499059888
:10B75000A0470346184606B010BD00BFCC500300FA
:10B760007450030044580300105A03004C5803005F
:10B77000D85803008058030094580300E058030091
:10B780000C590300245903004859030000B585B043
:10B790000190019B002B03D0019B1B68002B28D13B
:10B7A0000023039319E0039A13469B0013449B0064
:10B7B0001A46154B13440193019B1B68002B09D0BB
:10B7C000019B1B68DB69019898470346002B01D059
:10B7D000012314E0039B013303930C4A0A4BD31A51
:10B7E0000B4AA2FB03231B09039A9A42DBD30023D3
:10B7F00005E0019B1B68DB690198984703461846E2
:10B8000005B05DF804FB00BFE82A0020FC2A0020F8
:10B81000CDCCCCCC84B0039002910192039BDB6829
:10B82000029A9A4209D3029A019B13445A1E039B1F
:10B830001B699A4201D8012300E0002303F00103B1
:10B84000DBB2184604B0704782B00190019B03F050
:10B850000303002B0CBF01230023DBB2184602B008
:10B86000704729DF704700BF184628DF704700BFC8
:10B87000184600B589B001900091019B1B689B6838
:10B88000002B35D002AB00221A605A609A60DA6051
:10B890001A615A61009B0393019B9B680793019B6C
:10B8A0001B79002B02D0012B0DD01AE001238DF85B
:10B8B0000830019B1B690493019BDB680593019B86
:10B8C0005B6906930DE002238DF80830019BDB686D
:10B8D0004FF4805202FB03F30493019B5B690693D0
:10B8E00000BF019B1B689B6802AA1046984700E0B6
:10B8F00000BF09B05DF804FB00B587B00190019B63
:10B900005A69019B9B69D31AB3F5805F28BF4FF436
:10B91000805305930422059BB3FBF2F3012B38BF40
:10B9200001230593019B1A69019B9B6913440493AE
:10B93000019BDB681A46019B9B6913440393059A9C
:10B9400003990498FFF78DFF0346184607B05DF88A
:10B9500004FB00B583B00190019BDA68019B1B6971
:10B9600013441846FFF781FF0346184603B05DF8FD
:10B9700004FB000008B5034B03491846FEF79CFC86
:10B9800000BF08BD3C3300206433002008B5084BDD
:10B9900008491846FEF777FC0246074B1A60064B2B
:10B9A0001B68002B14BF01230023DBB2184608BD1F
:10B9B0003C330020643300206033002000B583B0A6
:10B9C0002B4B1B7A002B0BD1FFF7E0FF034683F0D4
:10B9D0000103DBB2002B03D0254B00225A6043E069
:10B9E000234B02221A72234B1B681B79002B02D0B7
:10B9F000012B07D00DE01F4B1B681846FFF77CFF9B
:10BA0000019009E01B4B1B681846FFF7A2FF01904D
:10BA100002E00323019300BF019B002B03D0019B95
:10BA2000112B0CD00FE0124B1B7C83F00103DBB217
:10BA3000002B18D00021022000F062F913E00C4B1B
:10BA400001221A7210E00B4B1B6803211846FFF706
:10BA500010FF074B00221A72054B00225A60FFF7B5
:10BA600089FF00BF00E000BF03B05DF804FB00BF2A
:10BA70004C3300206033002008B50848FEF71EFD57
:10BA80000346002B08D1064B5B7C83F00103DBB23D
:10BA9000002B01D0FFF792FF00BF08BD50330020FC
:10BAA0004C33002084B001901B4B0022DA60019BD4
:10BAB0001B79002B02D0012B19D028E0019B5A6979
:10BAC000019B9B69D31AB3F5805F28BF4FF4805365
:10BAD0000393019B9A69039B1A44019B9A61019B02
:10BAE0009A69019B5B699A420ED1012310E0019B88
:10BAF0001B695A1C019B1A61019B1A69019B5B69B6
:10BB00009A4203D1012303E000BF00E000BF0023FD
:10BB1000184604B0704700BF4C33002082B001903B
:10BB2000084BDB680133074AD360064BDB68082B00
:10BB300004D9044B0022DA60012300E000231846F8
:10BB400002B070474C33002000B583B001900091E3
:10BB5000019B0C4A5A600C48FEF7B0FC0346002BD0
:10BB60000BD108F059FA03461A46074B1A740748D6
:10BB70001C238C220649FEF712FB0023184603B053
:10BB80005DF804FB245A03004C3300203C330020B2
:10BB9000B032002000B583B0019000911422002142
:10BBA000054808F0F7FD054B1846FEF72BFB002370
:10BBB000184603B05DF804FB4C3300203C330020F2
:10BBC00000B587B00390029101920093174A04AB2D
:10BBD00019461046FEF72AFB0590059B002B01D164
:10BBE00004231FE01C220021059808F0D3FD059BCB
:10BBF00000221A71059B039A1A60059B089A9A60A5
:10BC0000059B029A1A61059B019ADA60059B009ACE
:10BC10005A61064A04AB19461046FEF720FBFFF7AF
:10BC20002BFF0023184607B05DF804FB3C330020CF
:10BC300000B585B00390029101920093029B009A97
:10BC40001946019808F07DFD0023184605B05DF8FF
:10BC500004FB000000B587B00390029101920093AD
:10BC6000184A04AB19461046FEF7E0FA0590059B0A
:10BC7000002B01D1042320E01C220021059808F0AC
:10BC800089FD059B01221A71059B039A1A60059B89
:10BC9000009A9A604FF48052029BB3FBF2F2059B2C
:10BCA000DA60059B019A5A61064A04AB19461046B0
:10BCB000FEF7D5FAFFF7E0FE0023184607B05DF85F
:10BCC00004FB00BF3C33002082B001900091009B38
:10BCD000184602B0704782B00190009100231846C8
:10BCE00002B0704782B00190044B1B7A002B14BF46
:10BCF00001230023DBB2184602B070474C3300200A
:10BD000000B585B001900091019B022B02D0019BF0
:10BD1000032B4AD1274B1B7A012B36D0022B02D0A2
:10BD2000002B35D142E000238DF80F30019B022B10
:10BD300003D0019B032B09D011E01F4B1B68184651
:10BD4000FFF7B0FE03468DF80F3008E01A4B1B6872
:10BD50001846FFF7E3FE03468DF80F3000BF9DF84D
:10BD60000F30002B13D0134B00221A72124B1A689B
:10BD7000019B022B01D1002300E00D231946104640
:10BD8000FFF777FDFFF7F6FD01E000BF00E000BF21
:10BD9000084B5B7C83F00103DBB2002B02D0FFF782
:10BDA0000DFE03E008F01CF900E000BF05B05DF8EF
:10BDB00004FB00BF4C3300206033002082B00346F8
:10BDC00000918DF80730064B01225A74044B1B7A00
:10BDD000002B0CBF01230023DBB2184602B07047D2
:10BDE0004C33002000B583B0034600918DF8073036
:10BDF0009DF80730012B03D09DF80730032B0DD1A0
:10BE0000084B00225A749DF80730012B0CBF012308
:10BE10000023DAB2034B1A74FFF7D0FD00BF03B062
:10BE20005DF804FB4C330020BFF34F8F054BDB68FC
:10BE300003F4E0620349044B1343CB60BFF34F8F1D
:10BE400000BFFDE700ED00E00400FA05024B034AE5
:10BE50001A6000BF704700BF582B00200090D0032D
:10BE600008B500F025F90346002B0ED04FF08043B3
:10BE70000022C3F80C214FF080430022C3F81021A8
:10BE80004FF080430022C3F8382500F035F903460F
:10BE9000002B76D04FF080537C4AD3F80434C2F89C
:10BEA00020354FF08053794AD3F80834C2F824354E
:10BEB0004FF08053754AD3F80C34C2F828354FF050
:10BEC0008053724AD3F81034C2F82C354FF08053A7
:10BED0006E4AD3F81434C2F830354FF080536B4AB1
:10BEE000D3F81834C2F834354FF08053674AD3F88A
:10BEF0001C34C2F840354FF08053644AD3F82034E4
:10BF0000C2F844354FF08053604AD3F82434C2F865
:10BF100048354FF080535D4AD3F82834C2F84C3589
:10BF20004FF08053594AD3F82C34C2F850354FF0B3
:10BF30008053564AD3F83034C2F854354FF080530A
:10BF4000524AD3F83434C2F860354FF080534F4A28
:10BF5000D3F83834C2F864354FF080534B4AD3F8E5
:10BF60003C34C2F868354FF08053484AD3F8403427
:10BF7000C2F86C354FF08053444AD3F84434C2F8C9
:10BF8000703500F0DDF80346002B02D0404B414AEB
:10BF90001A6000F0E7F80346002B03D03E4BFB226B
:10BFA000C3F8182500F0F0F80346002B0AD03B4BED
:10BFB0001B6823F00F023A4B1B6803F00F0337494D
:10BFC00013430B6000F0F2F80346002B03D0354B0F
:10BFD0004FF400721A6000F0FBF80346002B0DD0FE
:10BFE0004FF08043D3F8003403F00103002B05D059
:10BFF0004FF080436FF00102C3F800242A4BD3F8BE
:10C000008830294A43F47003C2F88830BFF34F8F59
:10C01000BFF36F8F4FF01023D3F80032002B05DBF6
:10C020004FF01023D3F80432002B2BDA1F4B0122E0
:10C03000C3F8042500BF1D4BD3F80034002BFAD001
:10C040004FF010231222C3F8002200BF174BD3F881
:10C050000034002BFAD04FF010231222C3F8042230
:10C0600000BF124BD3F80034002BFAD00F4B002244
:10C07000C3F8042500BF0D4BD3F80034002BFAD0D1
:10C08000FFF7D2FEFFF7E2FE00BF08BD00C0004090
:10C090008C5600404881030000F00040E40E004050
:10C0A000580200104096024000ED00E000E0014020
:10C0B0000F4B1B68082B17D10E4B1B68002B01D1AF
:10C0C000012312E00B4B1B68012B01D101230CE073
:10C0D000084B1B68022B01D1012306E0054B1B68AE
:10C0E000032B01D1012300E001231846704700BF54
:10C0F00030010010340100100F4B1B68082B17D1C2
:10C100000E4B1B68002B01D1012312E00B4B1B6867
:10C11000012B01D101230CE0084B1B68022B01D13C
:10C12000012306E0054B1B68032B01D1012300E02E
:10C1300001231846704700BF300100103401001081
:10C14000064B1B68082B05D1054B1B68002B01D142
:10C15000012300E000231846704700BF30010010A3
:10C1600034010010064B1B68082B05D1054B1B68DA
:10C17000002B01D1012300E000231846704700BFC7
:10C180003001001034010010064B1B68082B05D14C
:10C19000054B1B68002B01D1012300E0002318464A
:10C1A000704700BF3001001034010010064B1B68BF
:10C1B000082B05D1054B1B68002B01D1012300E0A2
:10C1C00000231846704700BF3001001034010010F2
:10C1D0000F4B1B68082B17D10E4B1B68002B01D18E
:10C1E000012312E00B4B1B68012B01D101230CE052
:10C1F000084B1B68022B01D1012306E0054B1B688D
:10C20000032B01D1012300E001231846704700BF32
:10C21000300100103401001082B00190019B1B68B6
:10C220001F2B02D84FF0A04306E0019B1B6803F0D0
:10C230001F02019B1A60024B184602B0704700BFF4
:10C240000003005000B585B00190084611461A461B
:10C2500003468DF803300B468DF8023013468DF8F7
:10C26000013001AB1846FFF7D7FF03909DF803207C
:10C270009DF802305B001A439DF801309B001A4381
:10C280009DF818301B0242EA03019DF81C301B0484
:10C29000019A1943039B02F5E07243F8221000BF94
:10C2A00005B05DF804FB00B585B003900023019351
:10C2B000002300930023012201210398FFF7C2FF0E
:10C2C00000BF05B05DF804FB00B585B003900B46D8
:10C2D0008DF80B309DF80B20002301930023009371
:10C2E0001346002200210398FFF7ACFF00BF05B002
:10C2F0005DF804FB00B585B0019001AB1846FFF76F
:10C300008BFF0390019B012202FA03F31946039865
:10C3100000F086F800BF05B05DF804FB00B585B0FD
:10C32000019001AB1846FFF777FF0390019B0122B4
:10C3300002FA03F31946039800F07CF800BF05B039
:10C340005DF804FB00B585B0019001AB1846FFF71E
:10C3500063FF0390039BD3F804350293029BDA43F7
:10C36000019B012101FA03F31A40039BC3F808253E
:10C37000019B01229A40029B1A40039BC3F80C25A3
:10C3800000BF05B05DF804FB00B583B001900091DB
:10C39000009B002B03D10198FFF7C0FF02E001983A
:10C3A000FFF7A8FF00BF03B05DF804FB00B585B040
:10C3B000019001AB1846FFF72FFF0390039800F0A0
:10C3C0001FF80246019B22FA03F303F0010318460B
:10C3D00005B05DF804FB00B585B0019001AB1846CF
:10C3E000FFF71AFF0390039800F012F80246019B32
:10C3F00022FA03F303F00103184605B05DF804FBCD
:10C4000082B00190019BD3F81035184602B07047F6
:10C4100082B00190019BD3F80435184602B07047F2
:10C4200082B001900091019B009AC3F8082500BFDB
:10C4300002B0704782B001900091019B009AC3F84E
:10C440000C2500BF02B0704700B585B001900A4AC4
:10C45000019B13441B781846FFF7BDFF0346002BD2
:10C4600014BF012300238DF80F309DF80F301846BC
:10C4700005B05DF804FB00BF505A030000B583B05F
:10C480000190064A019B13441B7801211846FFF7CF
:10C490007BFF00BF03B05DF804FB00BF505A0300F0
:10C4A00000B583B00190064A019B13441B7800211C
:10C4B0001846FFF769FF00BF03B05DF804FB00BF3B
:10C4C000505A030000B583B00023019305E00198A2
:10C4D000FFF7E6FF019B01330193019B012BF6D986
:10C4E00000BF03B05DF804FB00B583B000230193E7
:10C4F00005E00198FFF7C2FF019B01330193019B07
:10C50000012BF6D900BF03B05DF804FB00B583B082
:10C510000190054A019B13441B781846FFF712FF50
:10C5200000BF03B05DF804FB505A030000B583B0B0
:10C530000023019309E0094A019B13441B78184624
:10C54000FFF7B1FE019B01330193019B012BF2D94F
:10C55000FFF7B8FF00BF03B05DF804FB505A0300BB
:10C5600000B585B001900D231846FFF71FFF034665
:10C57000002B14BF012300238DF80F309DF80F30DE
:10C58000002B14BF01230023DBB283F00103DBB2D5
:10C5900003F00103DBB2184605B05DF804FB00B5FB
:10C5A00083B00023019307E00D2303211846FFF712
:10C5B0008BFE019B01330193019B002BF4D000BF44
:10C5C00003B05DF804FB84B001904FF0FF33029399
:10C5D000002303930AE00D231A46019B934202D1E4
:10C5E000039B029305E0039B01330393039B002B02
:10C5F000F1D0029B184604B0704782B001900D2321
:10C60000184602B0704700B583B00190019B03F05B
:10C610000103002B01D0FFF789FF019B03F0020308
:10C62000002B01D0FFF7BBFF00BF03B05DF804FB98
:10C6300082B003468DF807309DF8073003F01F02E3
:10C6400006499DF907305B09012000FA02F2203308
:10C6500041F8232000BF02B0704700BF00E100E0B6
:10C6600008B500F0E3FA024B00229A7000BF08BD43
:10C670006833002000B583B000230193144B1B786E
:10C68000002B02D0852301931CE0114B00229A60FD
:10C690000F4B00225A600E4B00221A610C4B0022F5
:10C6A000DA600C4800F0A0FA019007F0B5FC0346F0
:10C6B00083F00103DBB2002B01D000F0AFFA044B92
:10C6C00001221A70019B184603B05DF804FB00BFFD
:10C6D0006833002085C7020084B00190019B1B686D
:10C6E0000393039B002B03D0039B1A68019B1A60E2
:10C6F000039B184604B0704700B583B000238DF843
:10C7000007300DF107031846FDF744F9094BDB68C4
:10C71000013B084AD360074BDB68002B01D1FFF7D0
:10C720009FFF9DF807301846FDF73EF900BF03B0A4
:10C730005DF804FB6833002000B585B003468DF832
:10C7400007309DF80730002B02D10C4B039301E01A
:10C750000B4B03930398FFF7BFFF0290029B002B44
:10C7600006D0029B5B689DF8072010469847F1E7CA
:10C7700000BF00BF05B05DF804FB00BF70330020B0
:10C780007833002000B583B003468DF807309DF85C
:10C790000730002B05D10A4B01225A700020FFF709
:10C7A000CBFF9DF80730012B05D1054B01229A7074
:10C7B0000120FFF7C1FF00BF03B05DF804FB00BF1D
:10C7C0006833002000B583B001900091019B002BDD
:10C7D00005D1054B01225A700020FFF7ADFF00BFC5
:10C7E00003B05DF804FB00BF6833002000B585B0DE
:10C7F000034600918DF807309DF80730012B07D0D4
:10C80000032B24D0002B27D10020FFF711FF24E0B9
:10C8100000238DF80F300DF10F031846FDF7BAF81D
:10C82000104B1B7883F00103DBB2002B01D0FFF724
:10C8300021FF0C4BDB6801330A4AD360094B01220C
:10C840009A709DF80F301846FDF7AEF805E000F03D
:10C85000E5F9FFF751FF00E000BF00BF05B05DF84C
:10C8600004FB00BF6833002000B589B0019000913F
:10C87000009B0793019B1B788DF80C30019B5B6834
:10C880000493019B9B68DBB28DF81430019BDB683D
:10C890000693074A079B52F823300649079A51F836
:10C8A000221003AA1046984700BF09B05DF804FBA8
:10C8B0007C3300208433002000B589B001900091C2
:10C8C000009B0793019B1B788DF80C30019B5B68E4
:10C8D0000493019B9B68DBB28DF81430019BDB68ED
:10C8E0000693074A079B52F823300649079A51F8E6
:10C8F000221003AA1046984700BF09B05DF804FB58
:10C900007C3300208433002030B58FB00390029137
:10C910000192039B1B780C9326490C9B019A41F8CA
:10C920002320029B1A6924490C9B41F82320029B77
:10C930005B7F1946214A0C9B13440A461A70029BDE
:10C9400004AC1D460FCD0FC495E80F0084E80F001E
:10C950000C9B089300230D93039B1B781A46174BDF
:10C960009B5C002B0DD0039B181D019B002B01D05D
:10C97000134A00E0002204AB194602F077F80D904C
:10C9800014E0039B1B781A460C4B9B5C002B0DD1CB
:10C99000039B03F10C00019B002B01D0094A00E02E
:10C9A000002204AB194601F041FA0D900D9B184688
:10C9B0000FB030BD7C330020843300208C33002046
:10C9C00069C80200B9C8020082B003468DF807307A
:10C9D0009DF8073003F01F0205499DF907305B09F8
:10C9E000012000FA02F241F8232000BF02B0704794
:10C9F00000E100E082B0034600918DF807309DF918
:10CA00000730002B0CDA009BDAB20C499DF8073096
:10CA100003F00F03043B5201D2B20B441A7609E033
:10CA2000009BDAB206499DF907305201D2B20B449D
:10CA300083F8002300BF02B0704700BF00ED00E0A4
:10CA400000E100E082B00190019B1B0B5BB2184635
:10CA500002B0704700B583B003460A468DF8073030
:10CA600013468DF806309DF806209DF907301146D3
:10CA70001846FFF7BFFF00BF03B05DF804FB00B529
:10CA800083B003468DF807309DF907301846FFF74D
:10CA90009BFF00BF03B05DF804FB000082B00346BB
:10CAA0008DF807300F4A9DF90730002B00DA1F334D
:10CAB0005B115BB252F823209DF90730594203F015
:10CAC0001F0301F01F0158BF4B425BB222FA03F370
:10CAD00003F00103002B14BF01230023DBB218462F
