:1000000000000420B5020000DD020000DF02000055
:10001000E1020000E3020000E50200000000000031
:10002000000000000000000000000000E7020000E7
:10003000E902000000000000EB020000ED020000F9
:10004000EF020000EF020000EF020000EF020000EC
:10005000EF020000EF020000EF020000EF020000DC
:10006000EF020000EF020000EF020000EF020000CC
:10007000EF020000EF020000EF020000EF020000BC
:10008000EF020000EF020000EF020000EF020000AC
:10009000EF020000EF020000EF020000EF0200009C
:1000A000EF020000EF020000EF020000EF0200008C
:1000B000EF020000EF02000000000000000000005E
:1000C000EF020000EF020000EF020000EF0200006C
:1000D000EF020000EF020000EF020000EF0200005C
:1000E000EF020000EF020000EF020000000000003D
:1000F00000000000EF02000000000000EF0200001E
:1001000000000000000000000000000000000000EF
:1001100000000000000000000000000000000000DF
:1001200000000000000000000000000000000000CF
:1001300000000000000000000000000000000000BF
:1001400000000000000000000000000000000000AF
:10015000000000000000000000000000000000009F
:10016000000000000000000000000000000000008F
:10017000000000000000000000000000000000007F
:10018000000000000000000000000000000000006F
:10019000000000000000000000000000000000005F
:1001A000000000000000000000000000000000004F
:1001B000000000000000000000000000000000003F
:1001C000000000000000000000000000000000002F
:1001D000000000000000000000000000000000001F
:1001E000000000000000000000000000000000000F
:1001F00000000000000000000000000000000000FF
:1002000010B5054C237833B9044B13B10448AFF350
:1002100000800123237010BD6C000020000000004E
:100220001C06000008B5034B1BB103490348AFF39C
:10023000008008BD00000000700000201C060000C7
:10024000154B002B08BF134B9D46A3F5803A0021A8
:100250008B460F461348144A121A00F0BFF90F4B91
:10026000002B00D098470E4B002B00D09847002061
:10027000002104000D000D48002802D00C48AFF307
:10028000008000F087F92000290000F06FF800F0EE
:100290006DF900BF0000080000000420000000000D
:1002A000000000006C00002088000020000000001A
:1002B000000000000649074A074B9B1A03DD043B78
:1002C000C858D050FBDC00F06FF8FFF7B9FF000012
:1002D00028060000000000206C000020FEE7FEE77A
:1002E000FEE7FEE7FEE7FEE7FEE7FEE7FEE7FEE7E6
:1002F0000A4B185C1F288ABF09494FF0A04100F043
:100300001F00D1F804350122824022EA0300134085
:10031000C1F80805C1F80C35704700BF0806000099
:1003200000030050C10707D4830742BF4FF0A0432A
:100330000C22C3F8342770470B4B032210B48021E2
:10034000C3F838274FF48044C3F81C278207C3F84A
:100350000C45C3F80C1504D54FF0A0430C22C3F88C
:1003600034275DF8044B70470003005038B5012076
:100370000C4DFFF7D7FF45F001050020FFF7B8FF50
:100380004FF4FA744FF47A40A847013CFAD10120A7
:10039000FFF7AEFF4FF4FA744FF47A40A847013CE0
:1003A000FAD1EAE71006000010B44FF080414FF098
:1003B00080520020C1F80C015E4BC1F81001C1F859
:1003C0003805D2F80414C3F82015D2F80814C3F87D
:1003D0002415D2F80C14C3F82815D2F81014C3F859
:1003E0002C15D2F81414C3F83015D2F81814C3F829
:1003F0003415D2F81C14C3F84015D2F82014C3F8F1
:100400004415D2F82414C3F84815D2F82814C3F8B8
:100410004C15D2F82C14C3F85015D2F83014C3F888
:100420005415D2F83414C3F86015D2F83814C3F850
:100430006415D2F83C04C3F86805D2F840043E497C
:10044000C3F86C050968D2F84424C3F8702508295C
:1004500024D04FF08043D3F80024D20744BF6FF07C
:100460000102C3F80024354AD2F8883043F47003FF
:10047000C2F88830BFF34F8FBFF36F8F4FF0102358
:10048000D3F80022002A23DBD3F80432002B1FDB31
:100490002B4B2C4A1A605DF8044B70472A4B1B68A3
:1004A000002BD6D129482A4A2A4C04602A492B4BD2
:1004B000FB20C2F818050A681B68294822F00F02C1
:1004C00003F00F0313434FF400720B600260C0E7A8
:1004D000244A0123C2F80435D2F80034002BFBD0A3
:1004E0004FF0102312211F4AC3F80012D2F8003433
:1004F000002BFBD04FF0102312211A4AC3F804122C
:10050000D2F80034002BFBD000231649C2F8043582
:10051000D1F80034002BFBD0BFF34F8F0749124BAB
:10052000CA6802F4E0621343CB60BFF34F8F00BF91
:10053000FDE700BF00C000403001001000ED00E00A
:10054000000000200090D003340100108C560040C1
:1005500000F0004048810300E40E00405802001003
:100560004096024000E001400400FA0508B5074B40
:10057000044613B10021AFF30080054B1868836A6D
:1005800003B19847204600F031F800BF000000009A
:100590001806000070B50D4D0D4C641BA41000260C
:1005A000A64209D10B4D0C4C00F022F8641BA4109C
:1005B0000026A64205D170BD55F8043B9847013688
:1005C000EEE755F8043B98470136F2E76400002057
:1005D00064000020640000206800002002440346FC
:1005E000934200D1704703F8011BF9E7FEE700BF13
:1005F000F8B500BFF8BC08BC9E467047F8B500BF10
:10060000F8BC08BC9E4670472E2700000000000082
:100610000338FDD8704700000400002000000000EF
:0806200020FCFF7F0100000037
:100628000090D0030000000000000000000000005F
:1006380000000000000000000000000000000000B2
:1006480000000000000000000000000000000000A2
:100658000000000000000000000000000000000092
:100668000000000000000000000000000000000082
:100678000000000000000000000000000000000072
:0C0688000000000025020000010200003C
:04000003000002B542
:00000001FF
