:020000022000DC
:1070000000000420757302005D7302005F730200CC
:1070100061730200637302006573020000000000E8
:107020000000000000000000000000006773020084
:1070300069730200000000006B7302006D730200B0
:10704000FDA302006F730200B5A802006F73020077
:107050006F7302006F73020009A702006F730200D2
:107060006F7302006F7302006F7302006F73020090
:107070006F7302006F7302006F7302006F73020080
:107080006F730200E58902006F7302006F730200E4
:107090006F7302006F73020009D502006F73020064
:1070A0006F7302006F7302006F7302006F73020050
:1070B0006F7302006F730200000000000000000008
:1070C0006F7302006F7302006F7302006F73020030
:1070D0006F7302006F7302006F7302006F73020020
:1070E0006F7302006F7302006F73020000000000F4
:1070F000000000006F730200000000006F730200C8
:10710000000000000000000000000000000000007F
:10711000000000000000000000000000000000006F
:10712000000000000000000000000000000000005F
:10713000000000000000000000000000000000004F
:10714000000000000000000000000000000000003F
:10715000000000000000000000000000000000002F
:10716000000000000000000000000000000000001F
:10717000000000000000000000000000000000000F
:1071800000000000000000000000000000000000FF
:1071900000000000000000000000000000000000EF
:1071A00000000000000000000000000000000000DF
:1071B00000000000000000000000000000000000CF
:1071C00000000000000000000000000000000000BF
:1071D00000000000000000000000000000000000AF
:1071E000000000000000000000000000000000009F
:1071F000000000000000000000000000000000008F
:10720000354936480A1A02D0072291438D4634493F
:1072100034480A1A06D00722914381F309880222D2
:1072200082F3148830483149314A00F044F831483B
:107230003149324A00F03FF831483249324A00F0D1
:107240003AF832483249334A00F035F83248334987
:10725000334A00F030F833483349344A00F02BF811
:1072600033483449344A00F026F83448344900227F
:1072700000F02CF833483449002200F027F8334856
:107280003349091A082902DB002202604160314AB1
:1072900090471F481F49884205D00268043003B454
:1072A000904703BCF7E700208646EC46002000210B
:1072B000294A9047FEE7884207D0521A05D0037842
:1072C00001300B700131013AF9D17047884202D088
:1072D00002700130FAE770470000042000E003204C
:1072E0000000042000000420D8F40200FC2A002042
:1072F000642B0020D0730200D0730200E8E2020089
:10730000D8F40200FC2A0020FC2A002008E4020035
:1073100008E4020008E4020008E4020008E40200B5
:1073200008E4020008E4020008E40200D8F40200C5
:1073300040F50200642B0020642B0020642B002009
:107340002C3F00202C3F00202C3F00202C3F002011
:107350002C5F00209D730200B5BB0200FEE7FEE734
:10736000FEE7FEE7FEE7FEE7FEE7FEE7FEE7FEE7F5
:1073700000F002B8FFF7FCBF0F484FF00701884349
:1073800085460E4880470E48016841F4700101604F
:10739000BFF34F8FBFF36F8FFFF732BF09480A4922
:1073A0000A4A884207D0521A05D0037801300B7080
:1073B0000131013AF9D1704700000420799E0200A2
:1073C00088ED00E0F4E30200E82A0020FC2A002017
:1073D0007047000007B5044B0093044A402300F0B7
:1073E00032F803B05DF804FBF1730200652B002056
:1073F0002DE9F84389461446B2B10F4B0F4E0325D1
:10740000002743F00108224609EB0701002004F0A1
:1074100063FD0744241A48B933782BB14FF47A40FE
:10742000C047013D02D13570BDE8F88301233370B8
:10743000002CE8D1F8E700BF10E40200642B002024
:10744000704704F07DBDF0B595B01C461646084661
:107450000D4601F068FE1A9B0D93CDE908640024E7
:107460002346082205A928460A948DF82C400C943E
:1074700001F076FE079B0293069B03939DF8143060
:107480008DF8114003F00302012A1DD1BDF814400C
:10749000059EC3F3C203C4F383148DF81030A20019
:1074A00008230EA9284601F05BFEC6F3952608AB1B
:1074B0000093224602AB0EA9304600F0C9FB2846D5
:1074C00001F035FE15B0F0BD022AF8D1BDF8164026
:1074D000C3F3C203A4098DF810300827082C2646F0
:1074E00028BF08263B4632460EA9284601F038FE42
:1074F000A41B08AB02AA31460EA8374400F00CFCCE
:10750000002CEBD1DBE7000008B5FFF79AFF042160
:10751000034800F00BFB034B01225A7108BD00BF6A
:10752000E4E30200FC2A0020037813F0040216D0E2
:1075300003F00303012B03D0022B09D00120704775
:107540000A6800880232C0F3831002440A60F5E73B
:107550000B684288023303EB92130B60EEE7104690
:10756000704700002DE9F04F87B000230446851CCA
:107570000DF107000F4690468DF8073001F0C6F870
:10758000454806683E60D0E90132134401339B1B35
:10759000824600F21C4600F5836900F21447AB42B4
:1075A0001BD30022B8F1000F70D0052363F307024C
:1075B00064F38912DAF80010DAF808309DF8070051
:1075C0000B4003330D444AF82320CAF8005001F061
:1075D000C1F8012007B0BDE8F08F0121304601F06D
:1075E000E5FA484601F0F8FA384601F0F5FADAF81B
:1075F0000400DAF808B0029000EA0B0003300AEB4E
:10760000800002A9FFF790FF029B50BB0BEA030228
:107610000AEB820203F1020CD2680392013303EAFF
:107620000B0B0AEB8B0B02F00302012ACDF808C00A
:10763000DBF80C1022D0022A16D08346384601F01F
:10764000CEFA10B1029BCAF804305946304601F018
:10765000ADFADAE901231344DAF8002001339B1A6A
:107660009DE70BEA0300C9E7BDF80E309B09033321
:107670004FEA114B0CEB93030293DFE7BDF80C309C
:10768000C3F383134FEA114B6344F5E7062363F317
:10769000070264F39F528DE7782C00200B4B0C48B7
:1076A000FF2210B59A600022C3F81824C3E9002213
:1076B000C3F8142483F8202401F0EEFC044610B92A
:1076C000044801F095FD204610BD00BF782C002035
:1076D00048E3020034E4020030B50A4C71B10A4AB2
:1076E0000A49121BD20800239A4201D1002030BD62
:1076F00031F82350854202D00133F5E7034654F8B0
:107700003300F4E75CE30200E4E30200FC2A00201B
:10771000094B013903EBC000032909D8DFE801F068
:107720000A020406042070470079704740797047C8
:1077300000207047022070475CE30200034BD3E94E
:107740000030C31A58425841704700BF782C0020BF
:107750002DE9F04387B0FFF7F1FF0646002840F01F
:10776000FB807E4DC5F81804BFF34F8F6868AC6886
:1077700002902040033005EB800002A9FFF7D4FE01
:10778000029B18B1D5F81824002A5FD004EA03023E
:10779000991C013305EB8202234005EB8303D26879
:1077A000DB68049302F00303022B0392029162D17F
:1077B000BDF80E306A484FEA9318B8F1500FC14631
:1077C00028BF4FF0500969F38F1309F10801ADF894
:1077D0000E3001F079FC0746002800F0A88001F087
:1077E000A2FC03A900230822384601F0AFFC02994D
:1077F00024EA01060136B600B14535D95FFA89F9A8
:107800007EB3F6B2A9EB0609214003315FFA89F491
:10781000B146544E05EB810108234A46384601F033
:1078200095FC36B109F1080322463146384601F08D
:107830008DFC029B08F1030803EB98030293D5F833
:107840001834002B4BD1D5F810445BE02A689A42DB
:1078500004D86A60304607B0BDE8F08304EA03004C
:1078600088E740493446D7E72140033108234A4698
:1078700005EB8101DAE7012B59D1BDF80C3038480E
:10788000C3F38311062928BF062161F3891302314E
:107890008900ADF80C3001F017FC0746002846D0EF
:1078A00001F041FC0023082203A9384601F04EFCF8
:1078B0000026BDF80C20C2F38312B300964203F1F8
:1078C0000803BCD202994A1C21400331029205EB05
:1078D00081010422384601F039FC0136E9E73846D7
:1078E00001F025FCFFF72AFF80F00100C6B2B1E7E6
:1078F000E3685B7923B1236839461B6820469847C3
:10790000E3681C68002CF3D1384601F010FC0DF13F
:1079100007008DF8074000F0F9FED5F818340BB9D0
:10792000029B6B609DF8070000F014FFDAE7D5F8C2
:10793000104454B90C4B0D480D49C01AC00800043E
:1079400040F0020000F06EF8CCE7236820469B6808
:107950009847E3681C68ECE700267BE7782C00205A
:1079600048E30200842C00205CE3020084E3020070
:1079700040E402002DE9F74F284C80460F4692461E
:1079800001A9012218469B46D4F80890FFF7EAFDAA
:1079900080B3019D0026A91C5E4506EB010233D190
:1079A00000211F4801F0CCF880F310006A1C02EAA5
:1079B000090204EB8202000405EA0903033340EAEA
:1079C0001840D06014F8232068F3C50204F823207F
:1079D00034F8232066F3891224F8232054F8232056
:1079E00067F39F2244F8232002F0F80242F00102DC
:1079F00004F8232094F820341BB1FFF7A9FE0028D7
:107A0000FBD103B0BDE8F08F09EA020204EB820269
:107A10005AF82630D3600136BEE700BF782C00202C
:107A20009430002000231A46FFF7A4BF07B50123B6
:107A3000019201AAFFF79EFF03B05DF804FB07B5B2
:107A4000CDE9002302236A46FFF794FF03B05DF8F7
:107A500004FB1FB5CDE90123069B039301AA032371
:107A6000FFF788FF05B05DF804FB00002DE9F34740
:107A700080462C4CD01C8A46174601A9002280085B
:107A8000A568FFF76FFDC8B3DDF80490A66809F19B
:107A90000200019001362840361AB6000330B74282
:107AA00004EB800034D83A46514605F0CAFF002165
:107AB0001D4801F045F880F3100009F101032B4047
:107AC00004EB83034FEA184242EA0042DA6005EA17
:107AD0000903033304EB830214F8231068F3C50190
:107AE00004F82310518867F38F11518034F8232054
:107AF00002F0380242F0020224F8232094F82034E5
:107B00001BB1FFF725FE0028FBD102B0BDE8F087CE
:107B10003246514605F095FFBA1B0AEB060104F107
:107B20000C00C2E7782C00209430002030B50F49BB
:107B3000D1F81024002314463CB9C468237152B90B
:107B4000C1F810042260184630BDE46825799D42D2
:107B500006D02468F0E7D268116821601060F2E76F
:107B600001330A2BE7D14FF0FF33ECE7782C0020EC
:107B7000094A38B50123D2F8104482F820341D4652
:107B800004B938BDE3685D71236820465B68984797
:107B9000E3681C68F4E700BF782C0020037A052B0B
:107BA00010B50C460FD0437A23B1084A0849204645
:107BB00001F078F80749204601F074F82046BDE846
:107BC000104001F064B8002AF8D0F3E78BE402001B
:107BD00090E4020022EE0200C38873B504460D460D
:107BE00033B1144A00921449144A284601F05AF855
:107BF000217A05291CD0637A4BB1A088FFF788FD54
:107C00000F4B104953F82020284601F04BF8227AF8
:107C10000D4BA08853F822600021FFF75DFD0B4952
:107C200003463246284602B0BDE8704001F03AB83B
:107C300002B070BD8BE402009BE4020093E40200FA
:107C400058E4020090E40200C0E40200B3E4020041
:107C50002DE9F04385B01F460C9D002306460C46D7
:107C6000904695F80C902B7329463846FFF7B4FFE1
:107C7000B8F1060F09D8DFE808F00412181F2833FE
:107C800040003146284601F00DF8002229463846CA
:107C9000FFF784FF85F80C9005B0BDE8F0832268FB
:107CA0003146284600F0FEFFEFE7D4E900233146D5
:107CB000284600F0F7FFE8E7A36800933146D4E9CF
:107CC0000023284600F0EEFFDFE7E3680193A36896
:107CD00000933146D4E90023284600F0E3FFD4E7BF
:107CE00023690293E3680193A36800933146D4E9C2
:107CF0000023284600F0D6FFC7E763690393236992
:107D00000293E3680193A36800933146D4E900230A
:107D1000284600F0C7FFB8E708292DE9F84F80464C
:107D20000E4617461C463AD8002593F80C901D7352
:107D300019461046FFF750FFDFF884A0DFF884B043
:107D4000AE422ED918F805205946204600F0AAFF69
:107D50000135082DF4D11849DFF86CB0204600F049
:107D6000A1FF4FF0000A564520D918F80A507E2D81
:107D700003D8284605F02EFE00B92E252A4659467E
:107D8000204600F08FFF0AF1010ABAF1080FEAD18C
:107D9000012221463846FFF701FF84F80C90BDE828
:107DA000F88F5146204600F07DFFD1E70349204679
:107DB00000F078FFE7E700BF86E4020084E40200F9
:107DC00082E402007CE4020088E40200C30710B5EC
:107DD00007D4F0234008054A145C2340194311548A
:107DE00010BD0901C9B20F23F4E700BF68310020BC
:107DF00030B5094B1C78094B196800239C4202DC02
:107E00000022104630BD11F83350854201EBC30209
:107E1000F7D00133F2E700BF343100208831002071
:107E200070B504460D46FFF7E3FF30B1436823B158
:107E300029462046BDE87040184770BD034B0448F2
:107E400019680022490800F064BA00BF38310020E8
:107E50004031002010B5C0B2FFF7CAFF04460078D9
:107E600002F044FC63785A1E53425341834208D1C6
:107E7000044BD3E90023134303D1BDE81040FFF7BF
:107E8000DDBF10BD6031002037B54308364AD35CF2
:107E9000C2074CBF1B0903F00F0304460D46042B19
:107EA00036D8DFE803F003262D393D0081B30121E8
:107EB000FFF78CFF00230DF107008DF8073000F06D
:107EC00025FC0122A4F12003C4F12000274902FA75
:107ED00003F322FA00F0034302FA04F4D1E900208C
:107EE00014430343C1E900439DF8070000F032FC4E
:107EF0000EE0002918BF02212046FFF767FF07E0C8
:107F000041B10321FFF762FF01212046FFF788FFFF
:107F100003B030BD0121EFE70029F9D10421EBE7DF
:107F200009B10321E8E7FFF751FF29462046FFF793
:107F300077FF0DF107008DF8075000F0E7FB0122F5
:107F4000A4F12003C4F12000084902FA03F322FA45
:107F500000F0034302FA04F4D1E9002022EA040409
:107F600020EA0303BEE700BF683100206031002033
:107F70002DE9F041124E134F00243378A34208DC60
:107F8000114BD3E90023134318D0BDE8F041FFF7AC
:107F900055BF3D6805EBC40815F8340002F0A6FB98
:107FA00098F801104B1E594259410A1A514215F8CE
:107FB00034005141FFF768FF0134DEE7BDE8F0818E
:107FC000343100208831002060310020092AF7B5C3
:107FD00005460C4616463DD902F0B8FAD8B11E4BFC
:107FE0001E481D601E4B1F4F1C701F4B002120227E
:107FF0001E6005F04FFD1D4B00200021C3E900016C
:10800000013CE4B20326FF2C0BD1194A1948002188
:1080100000F074F903E002F061FA0028DFD003B049
:10802000F0BD20B29DF806308DF8046005EBC0026B
:1080300023F007038DF8063001A9937815F8300076
:108040008DF805303A4602F08BFA013CE4B2002884
:10805000D9D0E4E70720E2E788310020683100202A
:1080600034310020557E020038310020603100207C
:10807000717F020020E5020070B5084D084E002413
:108080002B789C4201D3002070BD3368012113F886
:10809000340002F0E1FA0134F2E700BF343100208D
:1080A000883100201FB50021039001AA44F201008D
:1080B000CDE9011100F004F805B05DF804FB000003
:1080C00010B572B6FFF754FDFFF742FB0028FBD155
:1080D000104B114C1149E41AE408240444F0010047
:1080E000FFF7A0FC0E4B1B68DB0700D500BE0D4957
:1080F00044F00200FFF796FCBFF34F8F0A490B4B89
:10810000CA6802F4E0621343CB60BFF34F8F00BF35
:10811000FDE700BF5CE3020084E302002FE50200FC
:10812000F0ED00E03BE5020000ED00E00400FA05A0
:1081300049B152B1531E1A4007D182600160838059
:10814000C260104670470E2070470920704710B576
:108150008468C2688388121B934208D3C2681340A4
:108160000268D154C3680133C360002010BD0420ED
:10817000FCE78268C3689A420AD082688388134009
:108180000268D35C0B708368013383600020704702
:1081900005207047D0E90223D1E90201994208BFC6
:1081A00090422CBF01200020704700002DE90048BC
:1081B0000C4800F002FC0C4BD3E9002312EB000B3F
:1081C00043F1000C094BD3E900239C4508BF9345BC
:1081D0005846614603D21BF180704CF10001BDE8A6
:1081E000008800BF042B00209031002008320020BE
:1081F00037B505460C460A4801A900F010FC60B1ED
:108200000570446001A9064800F033FC18B1054828
:1082100000F0D8FB002003B030BD0420FBE700BF16
:10822000F4310020042B0020194B1B782DE9304835
:1082300004461BB900252846BDE830880028F9D03F
:10824000037F03F0FF05002BF4D0FFF7AFFFD4E965
:108250000223994208BF904215D3236903B92377BB
:10826000D4E90530984721690029E3D0237F03F042
:10827000FF05002BDED0D4E9022312EB010B43F102
:10828000000CC4E902BC2146024800F0D0FFD2E74E
:10829000983100204CE5020013B5114B11491868C4
:1082A000019008235822104800F0A6FB044698B914
:1082B0000E4A0F4801A900F071FA044660B9012185
:1082C0000B4800F05DFB01230A4A0948194600F0FB
:1082D000C3FA094B01221A70204602B010BD00BF3C
:1082E00048E502009C310020F43100205D8302004B
:1082F000042B0020FFFF7F00983100203AB1036873
:108300005A614A1E514251411961002070470720AD
:10831000704738B5037F04460D4683B98261FFF785
:1083200045FF421941F10003C4E90223236903B167
:10833000256121460020BDE83840FFF759BF0020E5
:1083400038BD0023014603770120FFF751BF00002D
:10835000014800F032BB00BF042B00202DE9F04F94
:1083600085B0074600F014FB40B1594AD2E900310C
:1083700013F1807341F10001C2E900310021384658
:1083800000F015FB38B1534C236823B12068FFF788
:108390004BFF002323600121384600F008FB20B189
:1083A000FFF704FF4C4BC3E9000103A94B48494DBB
:1083B0004B4C4C4E00F06DFB002845D1DFF820A15E
:1083C000444CDFF828B1504600F047FF23680028EE
:1083D00075D07BB12368D0E90201D3E90223994229
:1083E00008BF90422DD223681B7F1BB121685046E5
:1083F00000F01DFF504600F02AFFD0E90263054659
:108400000193FFF7D3FE019BB6EB000863EB010974
:10841000B8F1010F79F1000344DB334EB0453FD989
:10842000FFF796FF82194FF496030021584600F09B
:1084300033FA00283ED1236813B9384600F004FA15
:10844000256005B0BDE8F08F0378012B1DD05BB12E
:10845000022B11D14FF0000A204600F0F8FE002850
:1084600033D080F81CA0F7E741680B7F23B90123C4
:108470000B77204600F0DBFE03A9184800F034FB20
:1084800003A9164800F005FB96E741682B6899425E
:1084900002D100232B60EFE7204600F0E1FEEBE77E
:1084A000AA68C0E70021584600F077FA2846FFF78F
:1084B000BBFE01E00D28F9D00023236083E7002BE9
:1084C000BFD1384600F0C4F9BBE701233370D3E7CE
:1084D000903100201032002008320020F4310020BA
:1084E0004CE5020098310020FFFFB400042B00206F
:1084F0000648074A03780749D35C012213B10430C8
:1085000002F06EBE0C3002F015BC00BF0C2B002038
:108510001C3300203C3200200648074A03780749F4
:10852000D35C012213B1043002F006BE0C3002F01D
:10853000ABBB00BF0C2B00201C3300203D320020C1
:1085400037B50578012D05D0002D32D0022D25D06C
:1085500003B030BD037A13B9FFF7CAFFF8E74368E9
:108560001A4C19782046FFF7F2FD80B18DF80050C3
:108570000190174B68461B689847A168E368A2887A
:108580005B1A9A42E8D2134B01221A70E0E7A26804
:10859000E3689A42F1D08DF80000EAE7C3688DF8ED
:1085A00000500193FFF7A4FF094B68461B689847EA
:1085B000CEE709490948FFF7DCFD10B9FFF7ACFF2A
:1085C000C6E703238DF80030EEE700BF1832002025
:1085D00014320020283200203D3200202C320020AE
:1085E000F0B51F46234B89B006461A600C46002999
:1085F0003DD08A8820480968FFF79AFD002834D1C9
:10860000A289A1681D48FFF793FD00282DD11C4DBC
:108610000FCD6C460FC495E80F0084E80F00736916
:108620000693337C174A18488DF81C70003318BF26
:1086300001238DF81430737C002B14BF0E2300230C
:108640008DF81530F3680293B36803933368019390
:1086500069467368009301F06BFE30B90B4B1870DC
:108660003368013301D0FFF743FF09B0F0BD0720A5
:10867000FBE700BF14320020183200202C3200200B
:1086800064E50200418502000C2B00202832002006
:1086900070B5084C014608482678FFF76AFD054684
:1086A00036B100232370FFF723FF08B1FFF7FAFC70
:1086B000284670BD283200201832002010B501462F
:1086C0000E48FFF744FD0446A8B90D480D4A03784B
:1086D000D35C63B1043002F077FD60B90A49074802
:1086E000FFF747FD38B9BDE81040FFF715BF0C3064
:1086F00002F014FBF1E7204610BD00BF2C32002031
:108700000C2B00201C3300203D32002070B5EFF30D
:10871000108672B60C4A946801239CB993600B4B87
:108720000B4DD3F8801029401160C3F88050D3F866
:10873000841051604FF0FF32C3F88420047006B9F2
:1087400062B670BD0370FAE74032002000E100E03D
:10875000FC06FFBD084B9A6810B55AB150B9EFF34B
:10876000108172B6054A1C6814605C685460986099
:1087700001B962B610BD00BF4032002000E100E048
:10878000435882B03BB10023435043580193019BAF
:10879000012002B070471846FBE70000F8B5224BF5
:1087A0004679224D43F82620214A224BF7009B1A96
:1087B000EA19DB0812791B0432B143F002001E49AA
:1087C000FFF730F90820F8BD02680C88C2F80845A8
:1087D00090F904208978002AA8BF02F1604CD4B235
:1087E000BABF04F00F0EDFF858C00CF5614C4FEA29
:1087F0004111C9B2B4BF0CF80E108CF80013520925
:108800000121DFF840C004F01F042F4401FA04F4F2
:108810004CF82240397145F83600084943F003000E
:10882000FFF700F90020CEE7543200204C32002040
:108830005CE3020094E3020096E50200B8E5020062
:1088400014ED00E000E100E0036801221A607047C7
:10885000036801225A60704773B501F15005AD00FD
:108860000068ADB24FF480348C400026C0F8084355
:10887000C0F84843465101F5A8714559019522F0C9
:108880007F42019D40F82120C0F844430BB1C0F85D
:10889000044302B070BD00002DE9F74F88469946A9
:1088A0004FF48036036808F150058E404FEA880A7D
:1088B000AD00C3F84863ADB2C3F80863074603EBE5
:1088C0000A00D3F804154FF0000B22F07F44D0F8D3
:1088D0004025C0F8401543F805B05B590093009B54
:1088E000531A23F07F43012B0BD1244B4FF48060AC
:1088F00043F0010398473B6843F805B05B59019387
:10890000019B3868D0F80455C0F84463631B23F01A
:108910007F43012B1AD108F5A878184B013440F891
:10892000284043F001034FF4806098473B68D3F838
:1089300004359D4208D13B680020C3F84463C3F866
:10894000046303B0BDE8F08F0D20FAE78244C9F15B
:10895000FF19CAF84045D0F80435E21A013A22F06E
:108960007F4209F57F499145EED3002AE3D10134D6
:10897000CAF84045D0F804259342DBE790E50200B1
:1089800003680222C3F8442309B1C3F804237047E3
:108990004FF482710068FFF7F3BE4FF4803303FA9F
:1089A00001F10368C3F84813C3F808137047503146
:1089B000890089B20068FFF7E3BE0368D3F80405B5
:1089C0007047000090F9043001215A0903F01F0399
:1089D00001FA03F34032024941F82230704700BFE8
:1089E00000E100E0024B034A1B681068184700BF13
:1089F000543200204C32002010B561B1B2FBF3F4C8
:108A000003FB1424A4B244B9C0E900148460828139
:108A1000C381204610BD0E20FCE70920FAE737B5D8
:108A200050E8013F9DB2C48925448489A54228BFEE
:108A30002D1B0489A54202BFBFF32F8F002207E040
:108A4000C5EA030540E80154002CE9D14FF00102CA
:108A50008DF803200193019B9DF803200B6002F029
:108A6000FF0322B10B880068184403B030BD1846DC
:108A7000FBE70A884B889A4209D150E8012FC2EAE5
:108A8000024240E80123002BF7D10120704700206B
:108A9000704737B550E8023F1FFAA3F5C488A542D6
:108AA00002BFBFF32F8F00220DE0C48925448489C3
:108AB000A54228BF2D1BC3EA054540E80254002CFF
:108AC000E8D14FF001028DF803200193019B9DF83E
:108AD00003200B6002F0FF0322B14B8800681844AA
:108AE00003B030BD1846FBE70A884B889A4209D18B
:108AF00050E8022FC2EA224240E80223002BF7D1BD
:108B0000012070470020704701F01F024B0901212E
:108B1000914000EB830000F01DB801F01F0301221B
:108B20009A404B0900EB8300D14300F029B84B0970
:108B300001F01F0150F82300C84000F00100704709
:108B400050E8002F0B4640E8003C9CF0000FF7D1A6
:108B50001046704750E8003F43EA010240E8002C0D
:108B60009CF0000FF6D11046704750E8002F02EA43
:108B7000010340E8003C9CF0000FF6D1104670471E
:108B800050E8003F03EA010240E8002C9CF0000F8F
:108B9000F6D11046704750E8002F02EB010340E881
:108BA000003C9CF0000FF6D11046704750E8003FA3
:108BB00003EB010240E8002C9CF0000FF6D11046B8
:108BC000704750E8003FA3EB010240E8002C9CF006
:108BD000000FF6D1104670470121FFF7BBBF0021FF
:108BE000FFF7C3BF10B590B1D0E9012301689B1A0C
:108BF000DBB20A60013BDBB2FF2B026802D100202E
:108C0000107110BD11684C1C14600B70F2E70E203F
:108C1000F7E737B5054600240DF107008DF807404A
:108C2000FFF774FD2A686B68116899420ED9481ED7
:108C3000106011F8014CEB68298A01FB0434AB6821
:108C400011791B1ADBB2994238BF13719DF80700E6
:108C5000FFF780FD204603B030BD37B50546002341
:108C60000DF107000C468DF80730FFF74FFD2A681D
:108C70001368591C1160E968641A298AB4FBF1F47D
:108C80001C709DF80700FFF765FD03B030BD8268DA
:108C900010B504462AB1436901680069984700236A
:108CA000A36010BD0EB403B5039921B104AB01AAB2
:108CB000019300F075F802B05DF804EB03B0704763
:108CC0000A2938B504460D4602D10D21FFF7F8FFF9
:108CD000A3682268591CA160D554D4E901329A4294
:108CE00004D32046BDE83840FFF7D1BF38BD0000AF
:108CF0002DE9F84F9946DDE90A4317468246884632
:108D00000A460126BA420FD24E4538BF4E4613F0EE
:108D1000010B01D164B900240125B9F1010F1AD961
:108D200009F1FF397D43F8E7B2FBF7F20136E9E7D5
:108D30009B070ED5B9F1000F0CBF30252025A642A8
:108D4000EAD2013C29465046FFF7BAFF002CF6D183
:108D5000E1E72025F3E7B8FBF5F39F42E2D9DFF81E
:108D60003C90B8FBF5F3504619F8031005FB138847
:108D7000FFF7A6FFB5FBF7F3BD4207D2BBF1000F2B
:108D800002D00CB1A64203D3BDE8F88F1D46E8E738
:108D900020215046013CFFF793FFF2E7CAE50200AD
:108DA0002DE9F74F054617468846002900F0308127
:108DB00018F8011B49B92B7B002B00F029812846AC
:108DC00003B0BDE8F04FFFF762BF252940F0C08037
:108DD000002698F800302D2B424608F1010823D0D8
:108DE000302B24D02B2B25D000242A2B02F101017B
:108DF00023D13B681A1D1B683A601C440A4613784D
:108E00002E2B26D101324FF00009104610F8011B1D
:108E1000A1F1300CBCF1090F1DD80A2303FB091383
:108E2000A3F130090246F0E746F00106D1E746F02B
:108E30000206CEE746F00406CBE711F8013CA3F1A9
:108E400030000928DBD80A2202FB0434303C0A46F1
:108E5000CBE74FF0000912F8011B01F0FB00682876
:108E60009046F8D069290ED04AD8582964D006D83F
:108E700025296DD098F80030002B99D19BE7632904
:108E800062D06429F6D13A68D2F800A0111D8AEAAE
:108E9000EA723960A2EBEA724FF0010B092A5BDC3F
:108EA000CB4538BFCB462CB1BAF1000F01DB7207BE
:108EB00000D5013CB30702D5B9F1000F04D0F0078B
:108EC00002D4002C4ED10024BAF1000F52DACAF1BC
:108ED000000A2D212846FFF7F3FE06F00302022ABE
:108EE00005D1B9F1000F02D1002C47D10024CDE902
:108EF00000464B460A2251462846FFF7F9FEB9E7DD
:108F000073294CD014D87029B4D13B681A1D3A602B
:108F1000302128461C68FFF7D3FE78212846FFF74A
:108F2000CFFE00220823CDE9003221461022E3E7DC
:108F300075292BD078299DD139680A1D3A60CDE971
:108F400000464B46102228E03B681A1D19783A600B
:108F50002846FFF7B5FE8DE70A230BF1010BB2FBA4
:108F6000F3F29BE7A345AFD220212846013CFFF74F
:108F7000A7FEA6E77107B0D52B21ABE7A345B6D274
:108F800030212846013CFFF79BFEADE73968CDE96B
:108F900000460A1D3A604B460A220968ACE73B6866
:108FA0001A1D3A6016F00106D3F800A020D1BAF1DC
:108FB000000F03D0504604F0C2FD0646B44200D96B
:108FC000C4B90AF1FF3A1EE028460136FFF778FEE1
:108FD0001AF806100029F7D1A642BFF44BAF002CB7
:108FE0003FF448AF20212846013CFFF769FEF3E734
:108FF0000026EDE720212846013CFFF761FEDDE772
:109000002846FFF75DFE1AF8011F0029F8D131E765
:1090100003B0BDE8F08F2DE9F047B0F80690447931
:10902000D2F800A09DF8208009FB04F4043C064619
:109030000AEB0300A0420F4688BFA4EB030A191DE8
:10904000C2F800A0B1FBF9F509FB15114DB9A9EB68
:109050000104544528BF5446BAF1000F04D1BDE8BD
:10906000F0873668013DF1E704317B19701822461C
:10907000B8F1000F0ED001461846AAEB040A04F01E
:10908000E0FCD145254436684C464FF0000128BF2E
:109090005446E1E71946F0E7FFF7A4BDF8B5467975
:1090A0000146721E0546002393422D6803D3002417
:1090B000A64202D8F8BD0133F6E70F682846FFF74D
:1090C000CCFD01343946F3E72DE9F843068ACD1C7F
:1090D0000746FFF79EFD043E35440446B5FBF6F512
:1090E000F0B14FF48073EDB28380C680013D07601C
:1090F00081464FF00008A84512D23846FFF789FD97
:10910000064648B163790133637108F10108C9F873
:10911000000007608146EEE72046FFF7BFFF3446B8
:109120002046BDE8F88301210430FFF73FBD10B5AC
:10913000012104460430FFF744FD10F0FF0F04D175
:109140002046BDE81040FFF7A9BF10BD1FB5039230
:109150000022009203AAFFF75EFF05B05DF804FB52
:109160001FB503920122009203AAFFF754FF05B036
:109170005DF804FB41DF7047064B10B500241C70FE
:10918000054B1C60BFF35F8F0449054800F039F8B8
:10919000204610BD6032002064320020DCE5020071
:1091A0005832002007B500230DF107008DF8073075
:1091B000FFF7ACFAF1EE103A23F09F03E1EE103A1C
:1091C000BFF35F8F094B4022C3F884219DF807004D
:1091D000FFF7C0FA04F07EF920B1FFF7CBFF03B030
:1091E0005DF804FB20BF40BF20BFF8E700E100E0CE
:1091F000836800225A609A60C3E90422DA601A6028
:1092000070470B684A684360934208BF00230160BF
:1092100008BF43607047436843B102689168526871
:109220000B449342436004BF00234360704770B512
:10923000446806460D46206818B1B3682946984729
:1092400018B923682B60256070BD2468F3E7436874
:10925000186808B102681A60704743681868704758
:109260004368186800B97047884203D102681A60E1
:109270000120704703460068F4E7000010B50D496F
:10928000A1F59472914201D800200FE08B1ADB10F7
:1092900003EBD3735B1002EBC30452F83330834209
:1092A00005D802D204F10802ECE7606810BD21463F
:1092B000E8E700BF38E7020008B5FFF7DFFF024B21
:1092C000002808BF184608BDFAE5020010B504469C
:1092D000C0B2FFF7F3F9204610BD000070B5064D8F
:1092E0000646002455F8043B0BB13046984701343C
:1092F000042CF7D170BD00BF74320020033080B25F
:1093000040F2FE33984230B51FD8134B1A783AB961
:109310001C895D892C440444A4B2B4F5806F0AD939
:109320001A7DAAB99A8BDC8B2244024492B2B2F520
:10933000806F0DD801220A801446142202FB0433E8
:109340005A8910445881002030BD48F20860FBE77C
:1093500048F20660F8E700BFA83200200B4A0C4B29
:109360005188142000FB0131CB6833B904204968CF
:1093700010700122074800F005BD0523064913704F
:1093800002238B80012200230968F3E78C3200203E
:10939000A8320020E82A0020E432002007B500238C
:1093A00005490093054A09680548082300F054FC64
:1093B00003B05DF804FB00BFE432002000EB0200C4
:1093C000E82A002007B50023009301460823034A3A
:1093D000034800F041FC03B05DF804FBF8EA02002A
:1093E000E82A002013B500230C460093014604230D
:1093F000074A084800F030FC38B9074B142202FB3A
:1094000004340123237402B010BD48F20D60FAE762
:10941000F4EA0200E82A0020A832002037B50A4802
:109420000A4B42689C8819685388032503330570EA
:109430009BB2002000909B0001EB8401044800F0E7
:109440000BFC03B030BD00BF8C320020E4320020A2
:10945000E82A002010B501460448FFF7E0FA1C2274
:109460000446002104F016FB204610BDD032002037
:109470004388033300EB830399420BD382884FF672
:10948000FF739A4208D0038833B18068431C584266
:10949000584170470220704701207047154A142335
:1094A00003FB002070B50B6844680D4604F5805638
:1094B000ABB15C88033403EB8404B4420DD223685F
:1094C00001330AD031462046FFF7D2FF01280BD0E6
:1094D00010F0FF0F05D00228EFD1002003E0083480
:1094E000EBE72C60012070BD6388033304EB830439
:1094F000E3E700BFA8320020436873B504460D4679
:109500006BB3244AD1688B4229D31269934226D87F
:1095100013F0030023D1204A2189128991421ED1E0
:1095200021689A6891421AD11C4A51688B4203D92A
:1095300001F580518B420DD3926993420CD902F50B
:109540008052934208D201232B80B0FA80F0400968
:1095500002B070BD0346F7E748F20960F5E7002363
:109560002B801E46019601A92888FFF797FF30B986
:109570002B8801339BB2012B2B80F3D9E8E7019BA9
:10958000226899689142EED16360034B1B89238165
:10959000DEE700BFE82A00208C320020A83200203D
:1095A0002DE9F8431C461D4B1B7806460F46154611
:1095B00073B382B37CB3DFF86C804FF01409A388D7
:1095C000012B02D948F2096020E009FB03F318F8E7
:1095D00003302BB92146A088FFF760FF20B9206037
:1095E000A3880133A380EAE723681EB199883288F3
:1095F0009142EFD11FB119883A889142EAD19A6815
:10960000C5E90023064B1B892B810020BDE8F883A8
:1096100048F20160FAE748F20460F7E7843200207C
:109620008C320020A832002008B5074B191D58883D
:10963000FFF734FF18B1BDE80840FFF7EFBEBDE803
:109640000840FFF78BBE00BF8C3200202DE9F04FA1
:10965000A34FDFF8B09289B00646B8463B6823B9FD
:109660004946A048FFF715FA3860D8F80050297825
:109670004B1E052B00F2FE80DFE813F006006000B1
:109680006000F200F20064012EB1974B00225A6094
:109690004FF40644F0E02B79032B1DD8DFE803F0EC
:1096A00015022B3691490B78022B08461AD00B7DF8
:1096B000022B4FF0010317D114225343C21800208C
:1096C000C8545068FFF77EFE03E001232B71FFF7BB
:1096D00065FE002800F0BE80834B00225A6048F2ED
:1096E0000D64C9E00023E7E77F4A1370002353604D
:1096F00041F61D54C0E07E497E48002302222B71B2
:109700008A800122096800F03DFBE2E7784C0026E0
:109710002E712068754DFFF755FE774BD4F800C0C9
:109720005A8814235343EA18EE5451682160A188E3
:10973000C2F804C011810222A280CAE7B5F814A0C1
:10974000AA7DDFF8A8B1AEB1022AEB8806D91421B0
:1097500001FB0AB1DA1C088902440A81142202FBC7
:109760000ABAC3F57F43BAF80A20FD331344AAF8B6
:109770000A308DE7142303FB0AB318895C6804EBF5
:109780008004062A69D8DFE802F0274E36441D5AC5
:10979000040041F61D54AA7DEB88022A06D9142143
:1097A00001FB0AB1DA1C088902440A81142202FB77
:1097B0000ABAC3F57F43BAF80A20FD331344AAF866
:1097C0000A3059E04D484E4900234360AB690360BD
:1097D000FFF792FE002874D00223AB75002300939C
:1097E0000423EA182146434800F036FA002831D015
:1097F00048F20D64CFE72B69002B14BF032301232C
:10980000AB750023009305F10C02042304F1080159
:10981000E9E70123AB750022EB8800929B002A69DF
:1098200004F10C01DFE703290CBF05230623AB7508
:1098300000230093042305F10802E118D3E706236F
:10984000AB752F4B19882D4B5868FFF7CBFD04469D
:109850000028A0D109B0BDE8F08F48F20E649AE765
:10986000002E7FF415AF2B79012B4DD0EBB1022BDD
:109870003FF43EAF48F20E641422002103A804F026
:1098800009F941F61D539C4208BF0024D8F8003066
:1098900004941A78023A042A00F20881DFE812F0F0
:1098A000E900F50018012001270102232B710DF1B9
:1098B0000A01EB68039303A8CDE90466FFF71CFED9
:1098C00010B948F20964D7E70498BDF80A108388F4
:1098D000EB8003882B81FFF785FD044629E000BF5C
:1098E000A4320020D032002084320020A832002090
:1098F000E4320020E82A00208C3200206832002068
:10990000EC3200209C320020DFF800A203AA53466C
:109910003146A81DFFF744FE044668B9BAF80410A2
:109920000498FFF75FFD044648F209639C423FF448
:10993000DFAE002CA0D18DE708223146504604F05E
:10994000A9F8F1E7002E7FF4A3AE6B4B1A7BAAB106
:109950001E731A78013A062A8CD801A151F822F018
:10996000079A02002D9A02004B9A0200519A0200B7
:1099700075980200579A0200699A02001A78072A1D
:10998000E7D801A151F822F0A999020053990200E9
:1099900053990200CF990200E3990200039A020052
:1099A000039A0200CB9902001A89544901321A81A4
:1099B00000225A801A730A78B2FA82F252099A7215
:1099C0000A7DB2FA82F25209DA72012207E04C49AA
:1099D00058688A884088033202448A8002221A70BA
:1099E000B7E7464C5A884649142505FB02420868E9
:1099F000546850608888108102228A800C60062298
:109A0000EDE70722EBE79A7A32B9DA7A8AB90022CF
:109A10001A705A805A606BE6384900229A72CA68F6
:109A2000002AF2D1097C0029EFD05A80FFF7FCFD13
:109A300053E70022DA72314A116A0029E7D192F81D
:109A40002420002AE3D00122EFE7FFF7E7FC44E7F8
:109A5000FFF784FC41E7294A5B88142101FB0323BB
:109A60005868FFF7AFFC38E700225A60FFF796FC12
:109A700033E701228DF80C201A89ADF818209A8856
:109A8000DB68ADF81A20059310E002228DF80C2057
:109A90001A89ADF818209A88ADF81A20DA689B7DEB
:109AA00005929A1F534253418DF81C3003A8FFF7CB
:109AB00015FC002649461348C8F80060FFF714F863
:109AC00001211148FFF77DF800287FF4C7ADC1E6FA
:109AD00003228DF80C20DA88ADF818201A89CFE718
:109AE0000422DB888DF80C20ADF81830DEE7052362
:109AF0008DF80C30DAE700BF8C320020A83200204D
:109B0000E4320020D0320020E0320020F032002089
:109B10004068FFF79BBD000008B501210448FFF72E
:109B20003AF818B9BDE80840FFF790BD08BD00BF7E
:109B3000E03200202DE9F3419846374B1B7806466A
:109B40000D46002B5CD000295DD009884FF6FF73CD
:109B500099425BD06B88002B58D06B689B0758D11B
:109B60004AB92F890DF102013846FFF7C7FB30B122
:109B700002B0BDE8F08113885788ADF8023001A823
:109B8000FFF768FC044660B9BDF80230234A14218F
:109B900001FB032358890338C01B588148F2076032
:109BA000E6E700238375BDF8023083826B680361AA
:109BB00080F8008001211A48FEF7F8FF2B882381E6
:109BC000B8F1030F6B88A38004BF0423A3754FF083
:109BD000000508BF3368E06008BFA361E7806581C6
:109BE00001A91048FEF745FF36B1E36833600E4B1C
:109BF00075601B89B5723381FFF78EFF0020B7E7D0
:109C000048F20160B4E748F20460B1E748F203604B
:109C1000AEE748F20260ABE784320020A8320020B1
:109C2000A0320020D03200208C32002018B1032353
:109C30000022FFF77FBF48F20460704707B5ADF818
:109C40000600ADF804100DF1060001A9FFF7A8FC0D
:109C500003B05DF804FB00002DE9F34188B93D4BEA
:109C60003D483E4AC01AC0080E243D4B00940004F3
:109C70003C4940F00100FDF7ECFE204602B0BDE893
:109C8000F0814AB9334B3448374AC01AC0080E2411
:109C900000040094324BEBE7D0F800C0BCF1000F99
:109CA00009D12C4B2C48314AC01AC00808240004A2
:109CB00000942B4BDCE74BB9264B27482C4AC01AA3
:109CC000C008092400040094254BD1E74768D7F861
:109CD0000480B3FBF8F708FB17374FB11D4B1E4844
:109CE000244AC01AC0080924000400941C4BBFE792
:109CF0008F0709D0174B18481F4AC01AC0081024F4
:109D000000040094164BB3E712F0030F09D0114B77
:109D100011481A4AC01AC008102400040094104BBD
:109D2000A6E7C768B9420BD34C1E05691C44AC4278
:109D300006D8DCF80C40A44602B0BDE8F04160470C
:109D4000044B05480E4AC01AC008102400040094B1
:109D5000034B8DE75CE30200B4E30200A3EB0200D7
:109D600008EB0200A8EB020025EC020019EC02004F
:109D7000D8EB02002BEC020055EC02006DEC020067
:109D800090EC0200F7B580B92A4B2B482B4AC01A39
:109D9000C0080E242A4B009400042A4940F0010018
:109DA000FDF757FE204603B0F0BDD0F800C0BCF16F
:109DB000000F09D11F4B2048234AC01AC0080824AD
:109DC000000400941E4BE8E74AB91A4B1A481F4A90
:109DD000C01AC008092400040094194BDDE7476845
:109DE000D7F800E00EF1FF370F4209D0114B1248AF
:109DF000174AC01AC008102400040094104BCCE786
:109E0000C768B9420CD34C1E05690EFB0244AC4234
:109E100006D8DCF81040A44603B0BDE8F040604727
:109E2000044B05480B4AC01AC008102400040094D3
:109E3000034BB2E75CE30200B4E30200A3EB0200D1
:109E40001BEB0200A8EB020019EC0200D8EB0200A9
:109E50002EEB020054EB0200054B1B68082B01BFE0
:109E6000044B1868B0FA80F0400918BF0020704712
:109E7000300100103401001008B54FF0804300227B
:109E8000C3F80C21C3F81021C3F838254FF08052D5
:109E900003F54043D2F80414C3F82015D2F808148F
:109EA000C3F82415D2F80C14C3F82815D2F81014EE
:109EB000C3F82C15D2F81414C3F83015D2F81814BE
:109EC000C3F83415D2F81C14C3F84015D2F8201486
:109ED000C3F84415D2F82414C3F84815D2F828144E
:109EE000C3F84C15D2F82C14C3F85015D2F830141E
:109EF000C3F85415D2F83414C3F86015D2F83814E6
:109F0000C3F86415D2F83C14C3F86815D2F84014AD
:109F1000C3F86C15D2F84424C3F87025FFF79CFFF2
:109F200010B1384B384A1A60FFF796FF18B1374B1B
:109F3000FB22C3F81825FFF78FFF48B13449354B92
:109F40000A681B6822F00F0203F00F0313430B6033
:109F5000FFF782FF18B1304B4FF400721A604FF0D8
:109F60008043D3F80024D20744BF6FF00102C3F846
:109F700000242A4AD2F8883043F47003C2F88830AB
:109F8000BFF34F8FBFF36F8F4FF01023D3F8002232
:109F9000002A03DBD3F80432002B2FDA204B0122F6
:109FA000C3F80425D3F80024002AFBD04FF0102278
:109FB0001221C2F80012D3F80024002AFBD04FF07F
:109FC00010231222C3F80422154B1A46D3F80014AA
:109FD0000029FBD00021C3F80415D2F80034002B6F
:109FE000FBD0BFF34F8F0D490E4BCA6802F4E062FD
:109FF0001343CB60BFF34F8F00BFFDE70A4B0B4A03
:10A000001A6008BD8C5600404881030000F00040F3
:10A01000E40E0040580200104096024000ED00E0BF
:10A0200000E001400400FA05202B00200090D0033E
:10A03000074B1B5C1F2B8ABF064A4FF0A04203F060
:10A040001F03D2F80405D840C04300F00100704758
:10A05000C8EC020000030050074B1B5C1F2B86BF9F
:10A0600003F01F0305494FF0A041012202FA03F358
:10A07000C1F80C35704700BFC8EC02000003005067
:10A08000074B1B5C1F2B86BF03F01F0305494FF0D6
:10A09000A041012202FA03F3C1F80835704700BF5E
:10A0A000C8EC02000003005008B50020FFF7E8FFED
:10A0B0000120FFF7E5FF0220FFF7E2FF0320BDE8E4
:10A0C0000840FFF7DDBF08B50020FFF7C5FF0120FE
:10A0D000FFF7C2FF0220FFF7BFFF0320BDE80840E3
:10A0E000FFF7BABF0A4B185C1F288ABF094B4FF015
:10A0F000A04300F01F00D3F804250121814021EA8C
:10A1000002000A40C3F80805C3F80C25704700BFD9
:10A11000C8EC020000030050074B1B5C1F2B8ABFDA
:10A12000064A4FF0A04203F01F03D2F81005D840B2
:10A13000C04300F001007047C4EC0200000300506F
:10A140000B2809D00C2809D0182809D019280CBFD1
:10A1500003204FF0FF307047002070470120704708
:10A1600002207047014B185C704700BFC4EC02002E
:10A17000C20710B504460CD54FF0A0430322C3F824
:10A180003427C3F83827C3F83C27C3F84027FFF724
:10A190008BFFA3070AD54FF0A0430C22C3F82C274E
:10A1A000C3F83027C3F86027C3F8642710BD000048
:10A1B00038B5074C051E04F1080318BF1C46236878
:10A1C0002BB11A6822605B6828469847F7E738BDCC
:10A1D0000033002020B9054B01225A70FFF7E8BF79
:10A1E000012802D1014A9070F8E77047F832002048
:10A1F00020B9034B01225A70FFF7DABF704700BF46
:10A20000F832002038B50B4C237883B90A486360D4
:10A21000A3602361E36000F0C7F8054603F05AF934
:10A2200008B900F0CDF801232370284638BD8525F4
:10A23000FBE700BFF8320020D5A1020037B50B4C78
:10A2400000230DF107008DF80730FEF75FFAE36891
:10A25000013BE360E56815B900F0C4F8A5709DF80E
:10A260000700FEF777FA03B030BD00BFF8320020D8
:10A27000012813B509D018B103281CD002B010BDB5
:10A280000F4B0122C3F88020F8E70E4C00230DF19C
:10A2900007008DF80730FEF739FA23780BB9FFF77E
:10A2A000B1FFE3689DF807000133E3600123A37069
:10A2B000FEF750FAE2E700F083F8FFF7BFFFDDE7B3
:10A2C00000E100E0F83200201FB503788DF800307F
:10A2D0004368019383688DF80830C3680393054A87
:10A2E000054B684653F8213052F82110984705B0C5
:10A2F0005DF804FB0C330020143300201FB50378F5
:10A300008DF800304368019383688DF80830C36886
:10A310000393054A054B684653F8213052F8211043
:10A32000984705B05DF804FB0C330020143300207F
:10A33000F0B5184B0778DFF86CE043F82720164B90
:10A3400016460A6943F827204B7F0EF807300C4663
:10A3500084460FCC89B06D460FC594E80F0085E8A0
:10A360000F001EF80730049753B1002E0B4A6946C0
:10A3700008BF32460CF1040000F0FCFD09B0F0BD4E
:10A38000002E074A694608BF32460CF10C0000F067
:10A39000A7FBF3E7143300200C330020C9A202000E
:10A3A000FDA202001C330020044A137923B90121C5
:10A3B0001060918018467047852070472033002038
:10A3C000074B1A68D2075FBFC02283F8002301221F
:10A3D0001A604FF080430122C3F81825704700BF70
:10A3E00000E100E0044B01221A604FF08042D2F8F5
:10A3F0001834DB03FBD470470C000040154B07B545
:10A400001A687AB100221A601B680093009B4FF013
:10A4100080430122C3F808230F4B587910B95A71B1
:10A420001B6898470D4B1A6882B100221A601B689E
:10A430000193019B4FF080430222C3F80823064B8F
:10A440001B68012003B05DF804EB184703B05DF80A
:10A4500004FB00BF00010040203300200401004045
:10A4600000F1804000F5C040002382B00360036823
:10A470000193019B02B0704703681F2B83BF03F059
:10A480001F03036001484FF0A040704700030050D5
:10A4900007B5019001A8FFF7EFFF019B00EB8300D8
:10A4A000D0F8002722F44032C0F80027D0F8003757
:10A4B00043EA0143C0F8003703B05DF804FB000035
:10A4C000054B4FF0FF32072843F8202084BF1B18AC
:10A4D00083F85820704700BF2833002010B5174C70
:10A4E00094F86A3043BB04F130033021FF22013974
:10A4F00011F0FF0103F8012BF9D1C8B2FFF7E0FF1B
:10A5000001310C29F9D1062200210D4803F0C2FACD
:10A510000C4BC02283F8062340221A604FF4BE7011
:10A52000FFF79EFF084B4FF00042C3F804230123BE
:10A5300084F86A30002010BD0820FCE72833002092
:10A540008C33002000E100E000600040034B93F8F2
:10A550006A00003018BF0120704700BF2833002078
:10A56000F7B53B4E3318054693F93030002B6CDAC3
:10A570008B78C3F34003002B0BBF082400240C206E
:10A580000820844202D1042003B0F0BD56F82470A4
:10A59000013743D1701946F8242080F8304013B9B0
:10A5A000331983F858508B785A0717D4D80737D502
:10A5B00001A80195FFF760FF019B00EB8300D0F835
:10A5C000003723F00203C0F800372248EA0805F0FC
:10A5D00007070123BB40875C3B43835488780A7894
:10A5E00010F0020028D0A40004F1804404F5C04417
:10A5F0002D02D4F8103523F44F3323F44073C4F8FC
:10A6000010351204D4F8103505F47C5502F44032AC
:10A6100015431D43C4F810550020B5E70134B0E7D9
:10A6200001A84A780195FFF727FF019B03F5E07326
:10A63000920040F82320C8E7083C344494F8605066
:10A6400045EA821284F860209EE708209CE700BF5C
:10A65000283300208C33002073B5224C2518064681
:10A6600095F93020072A19DD224492F858309B09C9
:10A67000032B0FD1019001A8FFF7FEFE019AD0F83D
:10A680001035D340DB0707D402213046FFF700FF27
:10A6900002B070BD012BF7D00321F6E7D3B2072B30
:10A6A000F6D8930003F1804303F5C043D3F81005B7
:10A6B00040F00100C3F8100502F14000800080B2B4
:10A6C000FFF7CEFE0029E3D095F9303054F823305F
:10A6D000002BDDD0012303FA02F2034BC3F804235D
:10A6E000D6E700BF283300200060004007B5019086
:10A6F00001A8FFF7C1FE019BD0F81005D84000F07B
:10A70000010003B05DF804FB2DE9F04F002489B08F
:10A71000CDE90244624D4FF48072012102F1804381
:10A7200003F5C04390B21B68012B06D1D5F8043362
:10A730000B4202D0FFF794FE0C430432B2F5907F37
:10A740004FEA4101EAD1574B1B68012B0ED14FF460
:10A75000BE70FFF785FE4FF0A04344F00044D3F8ED
:10A7600010350293504BD3F81035039314F0FF0FBC
:10A770001AD04E4F00250126344210D0AB0003F111
:10A78000804303F5C043D3F81005D3F8101557F8EC
:10A79000253023B1C1F30141C0F3052098470135AD
:10A7A000082D4FEA4606E7D1002C75DA0DF11008A6
:10A7B00000230493C8F804304FF0FF33CDE906338B
:10A7C000DFF8E8A0DFF8E89000273D4619F9014BD3
:10A7D000631C48D0E4B2012324F0C00604F0070251
:10A7E00003FA02F2F00808AB191811F8083C1342FA
:10A7F00039D00AEB0603A40993F930305AF823B094
:10A80000BBF1000F08D1032C2DD118F800C04CEA81
:10A81000020C08F800C001E0032CF6D001A8019654
:10A82000FFF72AFE019B11F8181C03F5E07C11428A
:10A8300050F82C00C0F3014005D0022813D1032C9E
:10A840000BD1214604E003280DD1032C05D10221B0
:10A850003046FFF71DFE0135EDB2BBF1000F02D00F
:10A8600021463046D8470137042FAFD1A5B14FF06C
:10A87000A0430299D3F8102503F540739142D3F811
:10A88000103502D10399994206D002920393049A9B
:10A89000059B0692079395E709B0BDE8F08F00BFCE
:10A8A000006000407C61004000030050283300201D
:10A8B00088330020014B1B68184700BF94330020E9
:10A8C0000E4B984237B50D4602D0002003B030BD84
:10A8D00000230DF107008DF80730FDF717FF084B37
:10A8E0001C7914B901221D601A719DF80700FDF74B
:10A8F00031FF002CE9D01120E8E700BF0020004024
:10A90000943300200023435082B043580193019BAD
:10A9100002B070470A4610B54FF48E71FFF7F2FF90
:10A92000136A9168C95C136A01331362C0F81C157D
:10A9300010BD024608B54FF492710068FFF7E2FFC0
:10A940004FF484711068FFF7DDFF136801221A606D
:10A9500008BD8B690A4610B54FF4847123B9FFF71F
:10A96000D1FFD0F8183510BDFFF7CCFF536AD1687E
:10A97000D0F81805C854536A01335362F3E7000056
:10A980001FB501238DF80030044BCDE90110D3E948
:10A9900000126846904705B05DF804FB9C33002028
:10A9A00030B54D4AD2F8043313F4007F85B0154614
:10A9B0004FD0D2F82431002B4BD04FF49271104677
:10A9C000FFF7A0FF4FF40173C2F80833434B93F82D
:10A9D000291009B9012151603F4902228DF8002058
:10A9E000D1F88024C1F8802403929A690292DA682F
:10A9F00001920022C3E906226846D3E9001290477B
:10AA00003548D0F81C315BB134494A690B6A9A4227
:10AA10000A464BD991F82830002B47D1FFF77AFF2F
:10AA20002D4AD2F8443193B14FF4A2711046FFF78A
:10AA300069FF2A4B93F8291009B1012111609A6925
:10AA40002AB100229A61586AD968FFF799FF05B0C8
:10AA500030BDD5F804335B07D2D5D5F80831002BCB
:10AA6000CED01E4C1C482146FFF773FF636AA269D3
:10AA70009A422346C4D1E269E1684AB12369E3609E
:10AA80000023606AA261E3616362FFF779FFB7E7C1
:10AA900094F829200AB901226A600F4A4FF4017024
:10AAA000C2F8080300229A61586AEEE74FF48E71EB
:10AAB0000948FFF727FF5369002BB1D05169029174
:10AAC000002391688DF80030019153616846D2E906
:10AAD00000139847A4E700BF002000409C330020EB
:10AAE0002DE9F843624F047991462C2202FB04724F
:10AAF000064692F82A200D46002A40F0B3805D49B0
:10AB00000068FFF7DDFE8046002840F0AE8029682F
:10AB10004A1C10D01F2987BF01F01F03564A0B465D
:10AB20004FF0A0420120984003F5E073C2F80805F9
:10AB3000032042F823006868431C0DD01F288BBFF8
:10AB400000F01F0303464C4A4FF0A04203F5E073A8
:10AB50004FF0000C42F823C03368AA6995F814C07E
:10AB6000C3F824256A7DBCF1010F4CEA0202C3F848
:10AB70006C25C3F81405C3F80C152BD1A968481C23
:10AB80000DD01F298BBF01F01F020A463A484FF033
:10AB9000A04002F5E0724FF0000C40F822C0E868D7
:10ABA000421C13D01F2887BF00F01F0C324A844676
:10ABB0004FF0A0424FF0010E0EFA0CFE0CF5E07CB7
:10ABC000C2F808E54FF0030E42F82CE0C3F8080580
:10ABD000C3F810152C236343FA18C2F804902A69AD
:10ABE000FA50B9F1000F2AD04FF48E7130682D7FE2
:10ABF000FFF788FE30684FF4A271FFF783FE3268DA
:10AC00001E4BC2F80433120B51B20029A8BF01F148
:10AC100060404FEA4513BABF194802F00F0500F52E
:10AC20006140DBB2B4BF435580F8003302F01F022D
:10AC3000012303FA02F24909124B43F82120336839
:10AC40000422C3F800252C2303FB04730022C3E96C
:10AC5000062283F829205A61012283F82A204046DF
:10AC6000BDE8F8834FF00808F9E74FF01108F6E760
:10AC70009C330020A1A902000003005080000200C4
:10AC800014ED00E000E100E02DE9F84F224F0679D5
:10AC90004FF02C0909FB067480466569002D38D1F8
:10ACA0006261A16025624FF48E71006884F82850BB
:10ACB000FFF728FED8F80000012383602146FFF744
:10ACC00029FE6368A1469BB9D8F800A0D4F814B057
:10ACD000236A9B4512D8D8F80020D2F81C31002BEB
:10ACE000FBD00123D3602C2303FB067300225A619F
:10ACF0002846BDE8F88F94F8283043B9DAF81C31BB
:10AD0000002BF8D049465046FFF704FEE0E70F2538
:10AD1000E9E71125ECE700BF9C3300200379044AE2
:10AD20002C2101FB03235869003018BF0120704714
:10AD30009C3300202DE9F843394E05792C2303FB81
:10AD4000056307465C6824B103684FF40170C3F8DB
:10AD500008032C2303FB0563986950B1D8690028C8
:10AD60003ED024B13B684FF40172C3F80423112490
:10AD700033E09A61D9605862D8612C2303FB0563E4
:10AD800093F829301BB910B93846FFF7D2FD4FF0C0
:10AD90002C0909FB05683868D8F80430002B34D139
:10ADA0004FF4A271FFF7AEFDC1463868D0F82431E8
:10ADB000D0F80821D0F84441B2B90CB9002BF4D036
:10ADC0002C2202FB05650022AA6123BB2CBB95F84F
:10ADD00029103B680122B1B11A602046BDE8F88312
:10ADE0001961DA610120C8E7002BE9D1002CE7D115
:10ADF0004946FFF7AEFDD8F82430D8F818209A421B
:10AE0000D3D82346DCE75A60E7E74FF40173C0F874
:10AE100004330024E1E70324DFE70F24DDE700BF6C
:10AE20009C3300200023435082B043580193019B80
:10AE300002B070471FB501238DF80030044BCDE9F7
:10AE40000110D3E900126846904705B05DF804FB95
:10AE5000C83300207FB5454AD2F82461002E63D064
:10AE600010464FF49271FFF7DDFF02238DF800309A
:10AE7000D2F88034C2F880340393D2F83C35029380
:10AE80003B4BDA6801920022C3E906226846D3E907
:10AE900000129047354AD2F844317BB14FF4A27189
:10AEA0001046FFF7BFFF324B996939B10021C3E962
:10AEB0000611D968D2F83C05FFF7BCFF2B4AD2F83F
:10AEC0002031B3B14FF490711046FFF7ABFF01236F
:10AED000D360274B596961B1D2F84C150291002219
:10AEE00099688DF8002001915A616846D3E90012F3
:10AEF00090471E4AD2F85831A3B14FF4AC711046B6
:10AF0000FFF790FF1A4B596961B1D2F84C150291C5
:10AF1000002299688DF8002001915A616846D3E9B2
:10AF20000012904704B070BDD2F81031002BB1D0A0
:10AF30004FF488711046FFF775FF0D4BD2F83C05B2
:10AF400099698842A6D1DC69D96864B1D2F8005207
:10AF500025F02005C2F800521A699C61DA60DE61B2
:10AF6000FFF768FF96E79C61FAE700BF002000400A
:10AF7000C83300202DE9F843694F06799146242211
:10AF800002FB0672044692F820200D46002A40F08B
:10AF9000C08064490068FFF793FC8046002840F0B9
:10AFA000BB802868421C10D01F2887BF00F01F03F9
:10AFB0005D4A03464FF0A0420121994003F5E0733A
:10AFC000C2F80815032142F8231069684B1C0DD004
:10AFD0001F298BBF01F01F030B46534A4FF0A042BD
:10AFE00003F5E0734FF0000C42F823C02368AA6910
:10AFF00095F814C0C3F824256A7DBCF1010F4CEA12
:10B000000202C3F86C25C3F80C05C3F814152BD144
:10B01000A968481C0DD01F298BBF01F01F020A46EA
:10B0200041484FF0A04002F5E0724FF0000C40F8AC
:10B0300022C0E868421C13D01F2887BF00F01F0CF5
:10B04000394A84464FF0A0424FF0010E0EFA0CFE32
:10B050000CF5E07CC2F808E54FF0030E42F82CE056
:10B06000C3F80805C3F8101524237343FA18C2F86F
:10B0700004902A69FA50B9F1000F39D04FF4887161
:10B0800020682D7FFFF7CEFE4FF490712068FFF708
:10B09000C9FE4FF492712068FFF7C4FE4FF4A2710D
:10B0A0002068FFF7BFFE20684FF4AC71FFF7BAFECF
:10B0B00022681E4BC2F80433120B51B20029A8BFFC
:10B0C00001F160404FEA4513BABF194802F00F057D
:10B0D00000F56140DBB2B4BF435580F8003302F0A5
:10B0E0001F02012303FA02F24909124B43F82120FF
:10B0F00023680822C3F80025242303FB06730022DB
:10B10000C3E906225A61012283F820204046BDE8A7
:10B11000F8834FF00808F9E74FF01108F6E700BF91
:10B12000C833002055AE0200000300501003420057
:10B1300014ED00E000E100E001F06043B3F1005FD6
:10B140002DE9F041074638D11E4B0679242505FB31
:10B15000063598466C69002C31D16A61A960006897
:10B160004FF49071FFF75EFE4FF4AC713868FFF753
:10B1700059FE3B686A69A968C3F84415C3F84825B5
:10B1800001229A606A68AAB9D3F82021D3F85841FD
:10B190001AB9002CF8D00F2407E0002CFBD10122B3
:10B1A000DA60D3F85821002AFBD0242303FB06865B
:10B1B000002373612046BDE8F0811024FAE71124D2
:10B1C000F8E700BFC83300200379044A242101FBBB
:10B1D00003235869003018BF01207047C83300208E
:10B1E000F8B501F06043B3F1005F04460F465ED14D
:10B1F0000379304D242101FB0351486820B12168B7
:10B200004FF40476C1F80863242101FB03539E69BF
:10B2100056B1D969002939D020B123684FF404729E
:10B22000C3F80423112030E09A61DF60DE614FF43F
:10B2300088712068FFF7F6FD4FF4A2712068FFF7D0
:10B24000F1FD2368C3F83475C3F8382516BB012215
:10B250001A602179242202FB015252680ABBD3F8FA
:10B260001041D3F84421D3F82401144302D100281B
:10B27000F5D02246242303FB01550023984218BF32
:10B2800003209A42AB6118BF0F20F8BD1F61DA613D
:10B290000126CCE7D3F8002242F02002C3F80022B6
:10B2A000D7E74FF40472C3F804230020EDE7102021
:10B2B000EBE700BFC83300200220FEF713BF0000F9
:10B2C0002DE9F04781460D46FEF73AFF0328044674
:10B2D00004D8012D04D025B3022D2FD0BDE8F0876E
:10B2E000194D47003A18A918AE5C4A7852B1DFF8F8
:10B2F0006880164842464FF48041FDF70AF808B9C5
:10B3000088F800903B192B449A78114B1A55002E5F
:10B31000E4D0104B1B68002BE0D03046BDE8F0476E
:10B3200018470A48FDF70DF8074B04EB4402134495
:10B330009E78074B1B5DB342D0D1E8E7024B00EB90
:10B3400040041C446678E2E75034002010340020AA
:10B350006934002064340020EC330020022100789E
:10B36000FFF7AEBF08B5094B1B7853B10020FEF7BD
:10B3700087FE0120FEF784FE0320BDE80840FEF7AB
:10B380007FBEBDE80840FEF78FBE00BFED33002052
:10B39000F8B57B4C237805461BB100232370FFF7DB
:10B3A000E1FF172D00F28880DFE805F00C17174346
:10B3B00054657680888D888D959A9A9A9A9AC4C990
:10B3C000D1D9E4E4FFF7CEFF6E48FCF7BAFF6E4B2D
:10B3D000002204461A702046F8BD0020FEF728FE21
:10B3E000F8B10020FEF74CFE022D0CBF4FF4E161D6
:10B3F0004FF47A61644B1D704FF400404FF47A743F
:10B400000025E0FB01454FF4FA620023204629465F
:10B4100002F0EAF9002201465A48BDE8F840FCF77C
:10B4200078BFFEF719FE022D0CBFC8214FF4C8717A
:10B43000E0E70020FEF7FCFD40B10020FEF720FE13
:10B440004FF44871504B03221A70D5E7FEF704FE03
:10B45000C821F7E70020FEF7EBFD38B10020FEF72A
:10B460000FFE4FF47A61484B0422EDE7FEF7F4FD3E
:10B470004FF4C871F7E70020FEF7DAFD48B100206D
:10B48000FEF7FEFD404B05221A7040F6CD4100222A
:10B49000C2E7FEF7E1FDF5E70020FEF723FE3A4B99
:10B4A00006221A70002240F26661B5E70020FEF71E
:10B4B000D3FD354B07221A7000248CE70120207041
:10B4C000FEF710FEEEE701202070FEF70BFE0022D3
:10B4D0004FF40051A0E7FEF7F6FD2B4B0C22EAE7F4
:10B4E0002A482B4EFCF72DFFD5F1110504461CD040
:10B4F000D8B9012D13D0C8235D434FF400474FF452
:10B500007A7000214FF4FA620023C7FB050102F0B4
:10B510006BF9224601461D48FCF7FBFE044602205B
:10B52000FEF79AFD0123337055E70220FEF7A8FDD0
:10B530000023F8E7FFF716FF134B1222BBE7FFF7D4
:10B5400011FF0020FEF788FD0F4B1322B3E7FFF732
:10B5500009FF0120FEF780FD0B4B1422ABE7FFF73C
:10B5600001FF0020FEF778FD0120FEF775FD064B78
:10B570001522A0E7FEF7A7FD034B1D709CE700BF57
:10B58000603400203034002068340020F033002084
:10B59000ED330020044B1B68DB0703D5034B187801
:10B5A000FFF7F6BE704700BF5C340020683400200F
:10B5B000002910B514BF03240024FEF7D3FD1F2873
:10B5C0008ABF0A4B4FF0A04300F01F0003EB80003E
:10B5D000D0F8002722F44032C0F80027D0F8003716
:10B5E00043EA0443C0F80037002010BD00030050B8
:10B5F000032801D8FEF790BD00207047044B1B685C
:10B6000013F0010301D0FFF7C3BE1846704700BF17
:10B610005C34002038B51C4B18601C4B10F0020441
:10B62000054619601AD01A4B1A480E221A700F22BA
:10B63000DA7010229A7111225A72042140F23332C8
:10B64000FCF7C4FC044648B9FCF716FD044628B9CB
:10B650000146114A1148FCF751FE0446EB0711D58B
:10B660000120FEF785FD6CB921460D4A0D48FCF717
:10B6700045FE044630B90C4A0C480121BDE838406B
:10B68000FCF73CBE204638BD5C340020643400200A
:10B6900050340020ECEC02005DB3020010ED02001B
:10B6A00095B5020014ED0200B9B202000CED0200E3
:10B6B000032813D8012A0BD1012908D100F10E0269
:10B6C000D2B200EB40000C4B1A540020704700220D
:10B6D0000129F6D04BB24BB1022901D007207047A7
:10B6E000054B00EB400018444270EEE7024900EBC6
:10B6F000400008448270E8E750340020032802D854
:10B700000121FFF755BF0620704708B5012202212D
:10B710000020FFF7CDFF08B1072810D10722022132
:10B720000120FFF7C5FF08B1072808D100210A2230
:10B730000846FFF7BDFF10B1072808BF002008BD6D
:10B740000388102B10B502D0112B1ED010BD1A4C3F
:10B750002168B1B901220846FFF7AAFF08B10728FE
:10B7600024D1072202210120FFF7A2FF08B10728F8
:10B770001CD1042202210020FFF79AFF08B10728FC
:10B7800014D1236801332360E0E70B4A1368013BBF
:10B790001360002BDAD1FFF7B8FF0028D6D0074B93
:10B7A0001B68002BD2D0BDE810401847034B1B6824
:10B7B000002BE6D09847E4E7743400207034002072
:10B7C00008B50020FFF79AFF08B1062806D101202E
:10B7D000FFF794FF10B1062808BF002008BD000045
:10B7E0000D4B10B518600C4629B10120FFF700FF82
:10B7F00040B102232370094B1B6853B9BDE81040C8
:10B80000FFF783BFFFF7F4FE08B10B23F2E72070C8
:10B81000F1E7002010BD00BF703400207434002018
:10B8200076DF70477ADF70477CDF70477FDF7047D5
:10B830008FDF7047B1DF704733DF7047FCF732BCF2
:10B8400008B50020FFF7DAFE08B1FCF72BFCFFF784
:10B85000B7FF08B1FCF726FCFFF7EEFF18B1BDE813
:10B860000840FCF71FBC08BD0388212B13B5044614
:10B870003BD01FD8112B28D0132B3ED0102B32D108
:10B88000264B27482749C01AC008000440F003008F
:10B89000FCF7C8F80720FFF7B1FE08B1FCF702FC7F
:10B8A000214BA1882148198001F0E6FBD8B1FCF7B3
:10B8B000F9FB18E0522B28D0562B01D03B2B12D18C
:10B8C0001321A088FFF7ACFFF0E7144B1448184988
:10B8D000C01AC008000440F00300FCF7A3F8124BA4
:10B8E0004FF6FF721A8002B010BD002301A98088B4
:10B8F000ADF80430FFF79CFFD8E70B4800231A4649
:10B9000085210088FFF792FFD0E7074800231A46F9
:10B9100019460088FFF78EFFC8E700BF5CE302000E
:10B9200084E3020030ED02002A2B0020BC39002005
:10B930003AED02000D4B4A881B889A4214D10A88BE
:10B9400040F677239A420FD18B88094A09480A4961
:10B95000033B9BB21380094A801AC00800041A46B0
:10B9600040F00300FCF76BB8704700BF2A2B0020A3
:10B97000282B002084E3020047ED02005CE3020074
:10B9800008B503784BB9054B3B211888FFF748FFF2
:10B9900018B1BDE80840FCF785BB08BD2A2B002084
:10B9A000072808B513D00A280DD0042819D10D4B4B
:10B9B00013211888FFF734FF30F0080311D0BDE8D9
:10B9C0000840FCF76FBBBDE80840FFF739BF054BE7
:10B9D0001A884FF6FF739A4203D1034800F003FF21
:10B9E000EAE708BD2A2B00207035002008B548B1D1
:10B9F00003280BD10220FFF701FE38B1BDE8084053
:10BA0000FCF750BBBDE80840FFF71ABF08BD0000B7
:10BA10000378012BF7B534D01BB1022B31D003B022
:10BA2000F0BD1A4C1A4D20782844FCF731FE2378DB
:10BA30000133DBB21D44237015F8012C0A2A05D00E
:10BA40000D2A03D0134A12889A42E8D8012B15D93F
:10BA5000114D0F4E114F2378ADF806300DF106024F
:10BA60002B883146384601F079FC082806D0132887
:10BA7000F1D0052802D008B1FCF714FB0023237095
:10BA8000CDE74068FCF70EFBC9E700BF6C3500202E
:10BA900078340020282B00202A2B00202C2B00207B
:10BAA0002DE9F04306788DB00546002E56D12D4B7A
:10BAB0002D4C828A0169DFF8C890E41AE408240456
:10BAC00044F003073846FBF7D1FFAA8A27493846D6
:10BAD000FBF7ACFF44F00104AA8A96420AD32B6913
:10BAE000134413F8013C0D2B16D10A20FCF7E6FD98
:10BAF0001128F9E72B69985DFCF7E0FD804648B115
:10BB00001128F7D0024649462046FBF78FFF4046F2
:10BB1000FCF7C8FA0136DFE7154B049306230593BB
:10BB200003A9144B039306A8FEF780F818B1124935
:10BB30003846FBF777FF069A10493846FBF776FF41
:10BB40000023CDE9013309AA01AB42F2222141F2DF
:10BB50001110FEF773F808B1FCF7A4FA0DB0BDE8B8
:10BB6000F08300BF5CE3020084E30200C2ED020048
:10BB7000AAED020011112222FDED02000BEE0200DF
:10BB8000D2ED0200FCF78EBA08B50849084801F06A
:10BB90005FF908B1FCF786FAF721054801F06CF966
:10BBA00018B1BDE80840FCF77DBA08BD35B9020000
:10BBB000A439002000B5734D0FCDB1B005AC0FC452
:10BBC00095E80300704B714A01934FF4807384E849
:10BBD0000300CDE9032302936D4A072301A905A8B9
:10BBE000FCF7FEFC08B1FCF75DFA4FF48041002041
:10BBF000FBF754FD08B1FCF755FAFBF785FCFCF7A1
:10BC00004BFB08B1FCF74EFA62490320FFF702FD37
:10BC100008B1FCF747FA05A90020FFF7E1FD08B1DC
:10BC2000FCF740FAFDF7A8FA08B1FCF73BFA01F07F
:10BC300013FC08B1FCF736FA002305A9012005938F
:10BC400001F098FC08B1FCF72DFA05A801F062FD9F
:10BC500008B1FCF727FA11234F488DF8043001F0A2
:10BC60006EFF4D4982B201A8FFF7DEFD08B1FCF777
:10BC700019FA0021082205A801F00CFF47494FF0EE
:10BC8000C87305A8CDE90513FFF7CCFD08B1FCF793
:10BC900009FAFFF779FF424B4248059305A901F0E5
:10BCA000D9F908B1FCF7FEF9042200210DEB0200DE
:10BCB00001F0F0FE3C4B3D48019301A901F0D8FA98
:10BCC00008B1FCF7EFF9AC22002105A801F0E2FE73
:10BCD00002238DF814304FF4A063354AADF81630C6
:10BCE0000123ADF8603019928DF89030402244F273
:10BCF0005063CDE9272305A92E4B2F482E9300F042
:10BD0000B4FB08B1FCF7CEF901212B4800F0AAFBE7
:10BD10001C22002105A801F0BDFE00234FF4A03233
:10BD2000CDE90532ADF822304FF4F0228DF8243001
:10BD3000224B07920A930322214B8DF8202005A85D
:10BD40000B9300F06DFE08B1FCF7ACF91D4801F053
:10BD500047FE1D4B1D481E49C01AC008000440F094
:10BD60000300FBF75FFE0321134800F0F5FB08B169
:10BD7000FCF798F9FBF7ECFC0028FBD1FDF712FA71
:10BD8000F8E700BF18ED0200C8390020C83A0020CB
:10BD900011BA0200A1B9020063ED020010003C00DC
:10BDA0003DB80200BC390020A1BA02002C2B0020B3
:10BDB000242B0020EDB902007035002081B902006B
:10BDC00085BB02006FED02005CE3020084E3020029
:10BDD00081ED02000369C1688B429DBF8268D21861
:10BDE00002F1FF3203F1FF3394BF501A581A704723
:10BDF0002DE9F041D0E9027405463E1B40689642A9
:10BE000020448846144404D901F01BFEEC60BDE8D0
:10BE1000F0813246E41B01F014FE224608EB0601D5
:10BE20006868F1E72DE9F843C56806468946174674
:10BE30004FF000083469B3687068A54228BFE41861
:10BE4000013C621B5C1BBC4228BF3C46944228BF9D
:10BE5000144649462844224601F0F3FDB3682544C0
:10BE6000AB4208BF00253F1BA044A144F560E1D1CF
:10BE70004046BDE8F883000010B5114C114AA2619C
:10BE80000223C4E90433104BE361A2644FF400734E
:10BE90000E4A2362E264002310220D49A362E01DD2
:10BEA0006362E362A3656365E365226501F025FED5
:10BEB0000849204601F021FE2023A37110BD00BFD8
:10BEC000C83B002025EE0200503C0020403C0020F2
:10BED0002EEE020032EE0200F8B5184C182300FBDB
:10BEE000033503FB00402544C46A012C0F46164667
:10BEF00011D024B1022C1BD000242046F8BD2846C6
:10BF0000FFF768FFB042F8D3324639462846FFF7BC
:10BF10006FFF3446F1E72846FFF75CFF8642344660
:10BF200028BF0446224639462846FFF761FFE4E76A
:10BF30002846BDE8F840FFF775BF00BFC83B0020AA
:10BF4000FFF79ABF6DDF704779DF70477DDF70477D
:10BF500064DF70472DE9F04F85B000250E9CBDF8D9
:10BF60003CB027880191804691469A462E46B8F803
:10BF70000020B2420CDC3DB12288013AD21B92B2C1
:10BF8000FF2A3BD80AF80720002005B0BDE8F08F53
:10BF9000D8F8042052F82600039000220DF10B017E
:10BFA00003A8FFF7D5FF0028EFD19DF80B204A45E5
:10BFB00022D12288002D14BF0020022002EB0901AB
:10BFC000014459451ADC45B9013292B2019B2280E5
:10BFD0000AF8023022880132228022880DF10B01FA
:10BFE000524403A8FFF7B4FF0028CED121889DF862
:10BFF0000B200A44228001250136B8E70C20C4E753
:10C000002DE9F341089CBDF824501746CDE90045C1
:10C01000022206469846FFF79DFF50B9434610227C
:10C0200039463046CDE9084502B0BDE8F041FFF79A
:10C0300091BF02B0BDE8F0812DE9F04F00231688D2
:10C04000138090F82D3085B007460D46144653B343
:10C05000082E01D80C2027E102A8FFF773FF002863
:10C0600040F0228123880822EA54238801339BB2BE
:10C070001B222380EA542088013080B220800622CF
:10C080000DF10901284401F0DCFC23889DF808200B
:10C0900006339BB212F0FE0218BF01222380EA543D
:10C0A000238801332380BB78FBB123880433B34258
:10C0B000D0D802A8FFF748FF002840F0F580238879
:10C0C0000322EA54238801339BB219222380EA54C5
:10C0D0002388BDF8082001339BB2E9182380EA5475
:10C0E000120A4A70238802332380FA789AB123888F
:10C0F000D91CB142AED80221E954238801339BB246
:10C1000001212380E95423880B449BB22380EA5405
:10C1100023880B4423807A68AAB12388D91CB142B2
:10C1200098D8022192F90020E954238801339BB268
:10C130000A212380E954238801339BB22380EA54E7
:10C140002388013323803B89002B40F0A1803B8A68
:10C150005BB1CDE900462B460722032107F1100011
:10C16000FFF74EFF002840F09F803B8B5BB1CDE98D
:10C1700000462B461522142107F11800FFF740FF57
:10C18000002840F091803A6A002A40F09080D7F869
:10C190002480B8F1000F30D0B8F804302188981C02
:10C1A0008A1C0244B2423FF655AFFE283FF652AF1A
:10C1B00003336B54238801339BB2FF222380EA545C
:10C1C000238801339BB22380B8F80020EA54E91891
:10C1D000120A4A702088023080B22080B8F8042009
:10C1E0005AB1D8F8081000296BD0284401F029FC76
:10C1F0002388B8F804201344238097F82C30002BB0
:10C2000040F09A80387800284ED03B88012B58D0D7
:10C21000228802F1020CB4453FF61CAF012805D17B
:10C220007B78023313449E42FFF414AF023EB61AE9
:10C23000B6B202A905EB0C00ADF80860FFF786FE68
:10C2400090BB3978BDF80820022900F0BA807B78CD
:10C25000934202D3B24240F2B280012940F0B3804F
:10C260009BB29E42C0F0AF80ADF808300821BDF807
:10C270000830FE2B3FF6EEAE22880133AB54228805
:10C28000013292B22280A9542288134423800BE009
:10C29000CDE900462B460622022107F10800FFF7F0
:10C2A000AFFE00283FF453AF05B0BDE8F08FB4F8FF
:10C2B00000C00CF10603B3423FF6CCAE118805294D
:10C2C00001D80720F0E76FF4486E01EB0E039BB234
:10C2D0004FF27D3E7345F4D95388052BF1D96FF4A5
:10C2E0004860181880B27045EBD94FF6FF70814254
:10C2F00003D0834201D09942E3D8052305F80C30DE
:10C30000238801339BB212212380E954238801330F
:10C310009BB223801188E954E818090A41702388E8
:10C3200002339BB223805288EA54E918120A4A70F9
:10C330002388023323802AE7BB6A002BC1D04FF049
:10C3400000094FF00C0A4FF0160B97F82C305FFAEB
:10C3500089F293427FF656AFB96A0AFB02F201EB0B
:10C360000208B8F80430981CFE283FF673AE208807
:10C3700003332B54238801339BB2238005F803B089
:10C38000238801339BB223808A5AEA54E918120A9F
:10C390004A702088023080B22080B8F804205AB158
:10C3A000D8F8081000298CD0284401F04AFB2388D3
:10C3B000B8F804201344238009F10109C5E70921D5
:10C3C00055E7B242FBD9ADF808604FE770B5E0B170
:10C3D0004AB116880024B44203D305196D789D42F2
:10C3E00008D0A14201D800200FE0055D01352C44A2
:10C3F000A4B2F0E7A142F6D9005DA31C01389BB2BC
:10C4000080B21C188C42EEDC138070BD13B5002383
:10C41000ADF8063013460DF106020446FFF7D6FFCD
:10C4200010B1BDF80600204402B010BD72DF7047A5
:10C4300073DF704774DF704738B5012204460D463C
:10C44000B0F81414D0F81004FFF7E0FF00B1057045
:10C4500004F13C0204F5826104F15400BDE8384067
:10C46000FFF7E4BF80F830107047F8B504460F4678
:10C4700000296DD000286BD091F87A301BB191F86B
:10C480009830002B66D107F178060FCE4FF0000CE4
:10C49000251D84F802C00FC50FCE0FC596E8070012
:10C4A00085E8070084F830C0D7F8A4306363D7F874
:10C4B000A830A3634FF6FF7504F58263C4F82034F7
:10C4C000A4F824540722614604F2264001F0E2FA5F
:10C4D00023780BB984F8545094F82430002B14BFFF
:10C4E000EE231F2304F15501C4F81014A4F81434EA
:10C4F00004F214423846FFF79FFD40BB94F8243005
:10C50000002B14BFEE231F2304F23121C4F81814AA
:10C51000A4F81C3404F21C4207F13C00FFF78CFD28
:10C52000A8B9A369A4F848304FF480730125A4F892
:10C53000503063692064014684F83C50636404F120
:10C540003C0204F15400FFF771FF00B92570F8BDFB
:10C550000E20FCE70720FAE7F8B5077804460D46F9
:10C56000002F00F0098100F22646A1700722002169
:10C57000304601F08FFAE38813B1A378012B04D081
:10C58000E3794BB1A378022B06D1636BA3B10122EF
:10C5900084F82D2408209847334604F22C4113F8E0
:10C5A000012F12B98B42FAD117466B1E032B57D8B5
:10C5B000DFE803F0050B0F1284F82D34ECE7A379C4
:10C5C0001BB194F8243003B95FB9E3790BB1002FA4
:10C5D00048D1237A002B47D1637A002B0CBF00256A
:10C5E0000425636BA570002B40D0033D012D3DD881
:10C5F0006279002A3AD094F82E24002A36D184F8A1
:10C600003024012284F82F240720984704F13C05A8
:10C6100018220021284601F03DFAE26A0123511E4A
:10C62000994284F83C3001D9042A00D1D3B294F85D
:10C63000242084F8513042B1A36A591E012902D93D
:10C64000042B18BF012384F85230A178002384F80A
:10C65000503004291BD8DFE801F0770D223559004E
:10C660000025BEE70225BCE70325BAE7002384F8CE
:10C670002F34CBE7C4F82034C4E91063022301222D
:10C6800084F83C30802384F83120A4F84830A37823
:10C69000002B5CD1636B002B6AD1002067E0022382
:10C6A000002A84F8313014BF0723032384F83C3078
:10C6B0002369A4F848300023C4F82034E3682664D2
:10C6C0006364E4E763696364A369A4F8483012B162
:10C6D000062384F83C306379B3B194F82E349BB9C7
:10C6E00094F8303483B1022384F85030042120467A
:10C6F000FFF7A2FE0028CAD1052384F8313004F5E3
:10C700008263C4F82034C2E70323F6E7E369636475
:10C71000236AA4F8483012B1062384F83C306379C8
:10C7200083B194F82E346BB994F8303453B10223AA
:10C7300084F8503004212046FFF77EFE0028A6D161
:10C740000623DAE70423D8E784F831309FE72A4646
:10C75000D4F8201404F15400FFF768FE38B994F8B7
:10C76000301094F85400FFF763FE002892D0F8BD13
:10C7700094F83100984790E70820F8E70388112BD8
:10C7800010B50C460AD0262B1FD0102B05D1C37B29
:10C79000012B02D18388A1F8243410BD00228388A4
:10C7A00081F82E24B1F824249A42F6D10B79002B7B
:10C7B000F3D101212046FFF7CFFE0028EDD0A36B77
:10C7C000002BEAD0BDE810401847037A013B012B4B
:10C7D000E3D8897805230131B1FBF3F303EB83033D
:10C7E000C91AC9B2E6E738B5044690F85400FFF715
:10C7F00021FE012384F82E34002384F8303484F899
:10C80000503006212046FFF717FE054638B9A178BB
:10C810002046FFF7A1FE10B1A36B03B1984728464D
:10C8200038BD75DF704776DF70477ADF70477BDF92
:10C8300070470000034B1A8882420CBF1846002044
:10C84000704700BF6C3E0020024B9B6903B1184744
:10C85000704700BF503E002073B586B23046FFF7E8
:10C86000E9FF044670B1164D027A2B7B9A420BD237
:10C8700000F10A013046FFF7D4FFE8B1112801D0DA
:10C88000FFF7E2FF02B070BD002303722B7C43B1BF
:10C890003B213046FFF7C7FF30F0080301D0FFF718
:10C8A000D3FF6B69002BEDD000228DF80420ADF88A
:10C8B000066001A89847E5E7237A01332372E1E790
:10C8C000503E002013B50B46497A0F4C024669B919
:10C8D000D4E901101C7A002C18BF01465868FBF7F8
:10C8E00018FD08B1FFF7B0FF02B010BD00211972AA
:10C8F0006369002BF8D00121ADF806008DF8041013
:10C9000001A89847F0E700BF503E00204B880288FE
:10C910009A4213D842889A4210D380888A8840F27B
:10C92000F313984294BF031AC31A934206D800F235
:10C93000F310904234BF0020012070470020704760
:10C940000388112B70B5014648D002D8102B1ED099
:10C9500070BD122B52D0502BFAD12F4BC288DB89DD
:10C960009A42F5D1038A022BF2D186883046FFF72E
:10C9700061FF05460028EBD001F1120000F079F9C3
:10C9800030BB6868FBF7DDFC0028E1D009E0C37B21
:10C99000012BDDD14FF6FF70FFF74CFF054620B9A4
:10C9A0000420BDE87040FFF74FBF1C4A8E88068008
:10C9B000002303721368C5F80A300A3053684360D5
:10C9C0001031FFF7A3FF144B6872DB89002BBFD136
:10C9D00029463046BDE87040FFF774BF8088FFF7F6
:10C9E00029FF04460028B3D04068FBF7AAFC08B131
:10C9F000FFF72AFF4FF6FF732380A9E786883046AA
:10CA0000FFF718FF05460028A2D008310A30FFF7CB
:10CA10007DFF6872DCE700BF503E0020803E0020B2
:10CA2000F8B5064648B305460FCD154F3C460FC432
:10CA300095E8070084E807003068124C3C60B0B10C
:10CA4000FFF7F3FEC0B93268136823605368636070
:10CA50000D480E4A4FF6FF7303800D4B40F8043F1C
:10CA60000021FBF74BFC002818BF032004E0204600
:10CA7000FFF7DDFE0028EBD0F8BD0E20FCE700BF7D
:10CA8000503E0020803E00206C3E002059C802002D
:10CA9000883E00200AB1FCF737B8FCF73EB873B502
:10CAA0000191019C06466CB100252C46294601A83F
:10CAB000FCF73DF818B106EB440301349D800135C5
:10CAC000142DF3D13046346002B070BD2DE9F0472B
:10CAD00003888488103B8CB005460A2B1FD8DFE8FA
