:020000022000DC
:1070000000000420757302005D7302005F730200CC
:1070100061730200637302006573020000000000E8
:107020000000000000000000000000006773020084
:1070300069730200000000006B7302006D730200B0
:10704000C1E902006F73020065F602006F7302006F
:107050006F7302006F7302007DF302006F73020012
:107060006F7302006F7302006F7302006F73020090
:107070006F7302006F7302006F7302006F73020080
:107080006F73020051A002006F7302006F73020061
:107090006F7302006F730200E15F03006F73020001
:1070A0006F7302006F7302006F7302006F73020050
:1070B0006F7302006F730200000000000000000008
:1070C0006F7302006F7302006F7302006F73020030
:1070D0006F7302006F7302006F7302006F73020020
:1070E0006F7302006F7302006F73020000000000F4
:1070F000000000006F730200000000006F730200C8
:10710000000000000000000000000000000000007F
:10711000000000000000000000000000000000006F
:10712000000000000000000000000000000000005F
:10713000000000000000000000000000000000004F
:10714000000000000000000000000000000000003F
:10715000000000000000000000000000000000002F
:10716000000000000000000000000000000000001F
:10717000000000000000000000000000000000000F
:1071800000000000000000000000000000000000FF
:1071900000000000000000000000000000000000EF
:1071A00000000000000000000000000000000000DF
:1071B00000000000000000000000000000000000CF
:1071C00000000000000000000000000000000000BF
:1071D00000000000000000000000000000000000AF
:1071E000000000000000000000000000000000009F
:1071F000000000000000000000000000000000008F
:10720000354936480A1A02D0072291438D4634493F
:1072100034480A1A06D00722914381F309880222D2
:1072200082F3148830483149314A00F044F831483B
:107230003149324A00F03FF831483249324A00F0D1
:107240003AF832483249334A00F035F83248334987
:10725000334A00F030F833483349344A00F02BF811
:1072600033483449344A00F026F83448344900227F
:1072700000F02CF833483449002200F027F8334856
:107280003349091A082902DB002202604160314AB1
:1072900090471F481F49884205D00268043003B454
:1072A000904703BCF7E700208646EC46002000210B
:1072B000294A9047FEE7884207D0521A05D0037842
:1072C00001300B700131013AF9D17047884202D088
:1072D00002700130FAE770470000042000E003204C
:1072E000000004200000042030850300FC2A002058
:1072F000F02B0020D0730200D0730200586F0300FF
:1073000030850300FC2A0020FC2A00209070030036
:107310009070030090700300907003009070030061
:10732000907003009070030090700300308503009C
:1073300024860300F02B0020F02B0020F02B0020EF
:1073400004410020044100200441002004410020A9
:10735000046100209D730200C5280300FEE7FEE7DC
:10736000FEE7FEE7FEE7FEE7FEE7FEE7FEE7FEE7F5
:1073700000F002B8FFF7FCBF0F484FF00701884349
:1073800085460E4880470E48016841F4700101604F
:10739000BFF34F8FBFF36F8FFFF732BF09480A4922
:1073A0000A4A884207D0521A05D0037801300B7080
:1073B0000131013AF9D1704700000420DDDB020001
:1073C00088ED00E07C700300E82A0020FC2A002001
:1073D00000B585B00190019B002B0AD0074B43F00C
:1073E00001030393019B9B010293039B029898471F
:1073F00000E000BF05B05DF804FB00BFA070030013
:1074000000B583B00190019B002B0AD04FF47A7035
:10741000FFF7DEFF019B013B0193019B002BF5D1A0
:1074200000E000BF03B05DF804FB08B50BF01AFCE8
:1074300000BF08BD00B589B0039002910192019B85
:10744000002B33D00023079303230693029A079B54
:107450001344019A194600200BF0B6FB0590079AD9
:10746000059B13440793019A059BD31A0193059B2F
:10747000002B13D10F4B1B7883F00103DBB2002BE1
:1074800013D10120FFF7BCFF069B013B0693069B2F
:10749000002B03D1074B00221A7007E0054B012295
:1074A0001A70019B002BD1D100E000BF00BF09B0D2
:1074B0005DF804FBF02B002000B585B0039002912D
:1074C000054B00934023054A0299039800F012F8F7
:1074D00000BF05B05DF804FB35740200F42B0020FA
:1074E00082B0019000BF02B0704782B0019000BF2F
:1074F00002B0704700B5A1B00590049103920293C9
:10750000049803F030FD039B1593029B1693002310
:10751000179300238DF8603000231993229B1A9350
:1075200000231F930FA91F9B0822049803F0D8FD86
:1075300008231F93119B1293BDF84030ADF84C30D7
:10754000BDF84230ADF84E3000238DF851309DF833
:107550003C3003F00303DBB2012B26D10F9BC3F3B6
:1075600095231D939DF83C30C3F3C203DBB28DF825
:107570005030BDF83C30C3F38313DBB21C931C9B2B
:107580009A0009A91F9B049803F0AAFD1C9B9B006D
:107590001F9A13441F9312AA09A915AB009313460F
:1075A0001C9A1D9800F054FF2FE09DF83C3003F02A
:1075B0000303DBB2022B28D1BDF83E30C3F389139D
:1075C0009BB21E939DF83C30C3F3C203DBB28DF82F
:1075D00050301E9B082B28BF08231B9307A91F9B15
:1075E0001B9A049803F07CFD1F9A1B9B13441F9366
:1075F0001E9A1B9BD31A1E9315AB12AA07A81B99A0
:1076000000F0C8FF1E9B002BE3D1049803F0BAFCE6
:1076100000BF21B05DF804FB82B00190019BDB68E4
:1076200001225A7100BF02B07047000000B583B05C
:107630004FF0FF330193FFF7F8FE0421054800F0F7
:1076400023FE01900348FFF7E7FF00BF03B05DF89A
:1076500004FB00BF6C70030000B583B00190009183
:10766000019B1B681B6800990198984700BF03B0F5
:107670005DF804FB00B583B00190019B1B685B685B
:107680000198984700BF03B05DF804FB00B583B0D4
:107690000190019B1B689B680198984700BF03B04D
:1076A0005DF804FB82B001900B468DF80330019B1E
:1076B000DB689DF803201A7100BF02B0704782B0EA
:1076C0000190019BDB681B79184602B0704782B0BD
:1076D0000190019BDB6801225A7100BF02B0704724
:1076E00082B00190019BDB685B79184602B070475D
:1076F00000B585B001900091154BFF229A60144BA4
:1077000000221A60124B00225A60114B0022C3F86B
:1077100018240F4B0022C3F814240D4B002283F8C9
:1077200020240C4803F084FB0390039B002B01D022
:10773000039B08E0084803F05BFD084A084BD31A96
:10774000DB0802930023184605B05DF804FB00BF78
:107750009C2D0020D06F0300B87003006C700300F4
:10776000E46F0300024A034BD31ADB081846704744
:107770006C700300E46F030000B587B001900B4606
:107780008DF803309DF80330002B1FD0FFF7EAFF80
:1077900004900023059313E0059B9B000E4A1344BD
:1077A0000393039B1B881A46019B1B689A4204D1D2
:1077B000019B059A1A60002309E0059B013305939C
:1077C000059A049B9A42E7D3052300E0002318465C
:1077D00007B05DF804FB00BFFC2A002000B585B0AF
:1077E00001900B468DF803309DF8032001AB114644
:1077F0001846FFF7C1FF0346002B07D1019BDB00B2
:10780000054A13440393039B1B6800E000231846BA
:1078100005B05DF804FB00BFE46F030084B0019085
:107820000B468DF80330019BDB00174A134402938B
:107830009DF80330013B032B1CD801A252F823F022
:107840005178020059780200617802006B780200DA
:1078500002238DF80F3011E004238DF80F300DE076
:10786000029B1B798DF80F3008E0029B5B798DF845
:107870000F3003E000238DF80F3000BF9DF80F306C
:10788000184604B0704700BFE46F030084B0019055
:10789000009100238DF80F30019B1B7803F0040347
:1078A000DBB2002B24D0019B1B78C3F30103DBB2B6
:1078B000012B02D0022B0CD017E0009B1B68019A11
:1078C0001288C2F38312D2B213449A1C009B1A602E
:1078D0000BE0009B1B68019A5288C2F3891292B296
:1078E00013449A1C009B1A6000BF01238DF80F30CF
:1078F0009DF80F30184604B07047000000B58BB0FB
:107900000023ADF826303B4802F0FCFD3A4802F077
:10791000F9FD3A4B5B680493384B9B680693049AD5
:10792000069B134002339B00344A134404330893EC
:1079300004AB19460898FFF7A9FF0346002B09D0AE
:10794000049A069B134002339B002C4A13440433D1
:107950000893EDE700BF0023079311E0049B5A1C36
:107960000492069A1340079A920001A90A442349F7
:1079700002339B000B445B681360079B0133079342
:10798000079B012BEAD99DF80430C3F30103DBB256
:10799000012B10D0022B1CD1BDF80A30ADF82630D7
:1079A000BDF80630C3F389139BB203339A08049BD6
:1079B000134404930EE0BDF80A30ADF82630BDF84C
:1079C0000430C3F38313DBB21A46049B13440493BD
:1079D00000E000BF084802F0A1FD0590059B002BC8
:1079E00002D0049B054A5360BDF8263018460BB000
:1079F0005DF804FBB4310020B03100209C2D002044
:107A000000B585B00021074802F0B1FC0390039B4C
:107A10000293029B83F310030193019B184605B068
:107A20005DF804FBB831002000B589B003900291E5
:107A300001920093039B1B0C0693FFF7E1FF079055
:107A4000079B1904009B5A1C0A9B1340069A0A4381
:107A50001B4902339B000B445A60009A0A9B134057
:107A600002339B00164A134404330593039B03F02F
:107A70000703D9B2059A137861F3C5031370019B0C
:107A800003F00F03D9B2059A138861F389131380A9
:107A9000029BC3F31501059A136861F39F231360DA
:107AA000059A1378012161F301031370059A137885
:107AB0006FF38203137000BF09B05DF804FB00BFD1
:107AC0009C2D002000B58DB00390029113468DF8D7
:107AD0000730039B02330A9301238DF827300023DC
:107AE0008DF81B300DF11B03184601F053FF404B7E
:107AF0001A68029B1A603E4B9A683D4B59683C4B92
:107B00001B68CB1A134401330B9314E0012139484D
:107B100002F0BCFCFFF7F2FE08900899354802F02D
:107B2000B5FC334B9A68324B5968314B1B68CB1A02
:107B3000134401330B930A9A0B9B9A42E6D89DF8A3
:107B40002730002B48D0002305939DF80730002BE9
:107B500017D09DF81430012262F301038DF8143020
:107B60009DF8143043F004038DF81430039B03F0A8
:107B70000F03DAB2BDF8143062F38913ADF8143094
:107B800016E09DF81430022262F301038DF81430E0
:107B90009DF8143043F004038DF81430039BC3F3B5
:107BA00009039AB2BDF8163062F38F13ADF81630A0
:107BB0000F4B1A680E4B9B68134002339B000C4A14
:107BC000134404330793059A079B1A60084B1A68FD
:107BD0000A9B1344064A13609DF81B30184601F0B7
:107BE000E3FE9DF8273018460DB05DF804FB00BF9A
:107BF0009C2D0020B831002000B58BB00590049179
:107C0000039202931F4B9B68079306AB0122194610
:107C10000298FFF757FF0346002B24D0069B023340
:107C200009930023089311E0089B9B00039A1A44D0
:107C3000099B591C099107990B401268114902339D
:107C40009B000B445A60089B01330893089A029BDF
:107C50009A42E9D3069A079B00931346029A049925
:107C60000598FFF7E1FE074B93F82034002B05D071
:107C700000BF00F003F90346002BFAD100BF0BB0A0
:107C80005DF804FB9C2D002000B583B001900091AD
:107C90000023002200990198FFF7AEFF00BF03B058
:107CA0005DF804FB00B587B0039002910192019B3F
:107CB000059305AA012302990398FFF79DFF00BFD2
:107CC00007B05DF804FB00B587B003900291019204
:107CD0000093019B0493009B059304AA022302993D
:107CE0000398FFF789FF00BF07B05DF804FB00B5FC
:107CF00089B00390029101920093019B0593009B30
:107D000006930A9B079305AA032302990398FFF79A
:107D100073FF00BF09B05DF804FB000000B58DB033
:107D2000039002911346ADF806304B4B9B680B93C2
:107D3000BDF8063003339B0805A900221846FFF75B
:107D4000C1FE0346002B78D0059B0A93059B0233A6
:107D50000593414B9A6805990B9B0B40D31A01334D
:107D60009B000993BDF80630099A9A420ED3059AF2
:107D70000B9B134002339B00374A13440433BDF876
:107D80000620029918460EF094FC17E0059A0B9B0A
:107D9000134002339B00304A13440433099A02997A
:107DA00018460EF086FC029A099BD118BDF80620F1
:107DB000099BD31A1A4629480EF07BFC039B1B0C27
:107DC0000893FFF71DFE0790079B19040A9B5A1C96
:107DD0000B9B1340089A0A431F4902339B000B4434
:107DE0005A600A9A0B9B134002339B001A4A1344B1
:107DF00004330693039B03F00703D9B2069A137862
:107E000061F3C5031370069A13886FF38F13138001
:107E1000BDF80630C3F3090399B2069A538861F39B
:107E20008F135380069A1378022161F301031370B4
:107E3000069A13786FF382031370074B93F820347C
:107E4000002B05D000BF00F019F80346002BFAD133
:107E500000BF0DB05DF804FB9C2D0020A82D002074
:107E6000054B5A68044B1B689A420CBF0123002340
:107E7000DBB21846704700BF9C2D002000B599B0BA
:107E8000FFF7EEFF0346002B01D00023BCE19A4B25
:107E90000022C3F81824BFF34F8F974B5B680493FD
:107EA000954B9B681093049A109B134002339B00E0
:107EB000914A13440433119300231793002316931C
:107EC00000230F9304AB19461198FFF7DFFC03461C
:107ED000002B19D0884BD3F81834002B14D1864BC3
:107EE0001A68049B9A4205D8834B1B68824A5360E8
:107EF000002389E1049A109B134002339B007E4AC1
:107F0000134404331193DDE70023159311E0049B20
:107F10005A1C0492109A1340159A920001A90A441F
:107F2000754902339B000B445B681360159B01335A
:107F30001593159B012BEAD99DF8043003F0030338
:107F4000DBB2022B40F09C80BDF80630C3F38913EE
:107F50009BB20E93BDF80630C3F389139BB2502B2E
:107F600028BF50239BB20D930D9BC3F309039AB214
:107F7000BDF8063062F38F13ADF806300D9B083361
:107F80000C939DF80430C3F3C203DBB20F930C993A
:107F90005A4802F058FF1790179B002B00F0D08032
:107FA000179802F0E0FF01A9169B0822179803F02A
:107FB00083F8169B08331693049BDA43109B1340F7
:107FC00001339B000B930D9A0B9B9A4242D90B9B5A
:107FD000002B08D0049A109B134002339B00464AA2
:107FE0001344043300E0464B0A930B9B002B02D052
:107FF0000B9BDBB201E00D9BDBB28DF827300B9BB6
:10800000002B01D03E4B00E0002308930B9B002B7C
:1080100006D00D9BDAB20B9BDBB2D31ADBB200E0C9
:1080200000238DF81F309DF82720169B0A9917987A
:1080300003F042F89DF82730169A13441693089BD4
:10804000002B16D09DF81F20169B0899179803F057
:1080500033F80EE0049A109B134002339B00264A2B
:10806000134404330693169B0D9A0699179803F050
:1080700023F80E9B03339A08049B134404935FE098
:108080009DF8043003F00303DBB2012B58D1BDF897
:108090000430C3F38313DBB2062B28BF0623DAB206
:1080A000BDF8043062F38913ADF80430BDF8043034
:1080B000C3F38313DBB2023305939DF80430C3F39B
:1080C000C203DBB20F93059B9B0019460B4802F0DD
:1080D000BAFE1790179B002B32D0179802F043FF7F
:1080E00001A9169B0822179802F0E6FF169B083399
:1080F0001693002315931AE09C2D0020D06F0300E7
:10810000A82D0020049B5A1C0492109A134002339D
:108110009B003F4A1344191D169B0422179802F036
:10812000CBFF169B04331693159B01331593BDF8B3
:108130000430C3F38313DBB21A46159B9342E1D399
:10814000179B002B40D0324BD3F810341493304B94
:10815000D3F81834002B1BD0179802F013FF4DE012
:1081600000238DF84F301498FFF7BAFA0346002B1E
:1081700002D001238DF84F309DF84F30002B03D0F3
:1081800017991498FFF768FA149BDB681B6814931F
:10819000149B002BE4D1179802F0F4FE00238DF815
:1081A00003300DF10303184601F0F4FB184BD3F82C
:1081B0001834002B02D1049B154A53609DF80330FC
:1081C000184601F0F1FB19E0114BD3F8103412936B
:1081D00006E01298FFF75AFA129BDB681B681293AD
:1081E000129B002BF5D10B4A0B4BD31ADB081B0457
:1081F00043F0020309491846FFF746FDFFF730FE3A
:10820000034683F00103DBB2184619B05DF804FBA6
:108210009C2D00200C700300E46F0300C870030065
:1082200000B585B00023039323E0164BD3F8103438
:10823000029301238DF807300FE00298FFF73FFA11
:1082400003461A46039B934203D100238DF807305F
:1082500006E0029BDB681B680293029B002BECD1BB
:108260009DF80730002B01D0039B07E0039B0133EF
:108270000393039B092BD8DD4FF0FF33184605B05D
:108280005DF804FB9C2D002000B585B001900B46E5
:108290008DF80330FFF7C4FF0390039BB3F1FF3F5A
:1082A00001D1039B22E0039BDBB219460198FFF743
:1082B000F9F9104BD3F81034002B08D10D4A019B6B
:1082C000C2F81034019BDB6800221A600DE0094BF4
:1082D000D3F81034DA68019BDB6812681A60054B2A
:1082E000D3F81034DB68019A1A60039B184605B076
:1082F0005DF804FB9C2D002000B583B00C4BD3F837
:10830000103401930A4B012283F8202409E00198DC
:10831000FFF7DDF90198FFF7ADF9019BDB681B68FA
:108320000193019B002BF2D100BF03B05DF804FB69
:108330009C2D002082B00190009100BF02B07047D8
:1083400010B584B003900291039BDB88002B0AD008
:10835000039BDB881A461F4B009313461E4A1F4996
:10836000029802F0A9F9039B1B7A052B2ED0039BE0
:108370005B7A002B12D0039B9B881A46039B1B7AC7
:1083800019461046FFF74AFA03461A46144B53F8AB
:1083900022301A461349029802F08EF9039B1B689B
:1083A00019460298FFF7C6FF039B1B7A1A460E4B2D
:1083B00053F82240039B9B8800211846FFF70EFAD2
:1083C000034622460949029802F076F900BF04B03C
:1083D00010BD00BFFC7003000C710300447103006A
:1083E000182B00205C710300042B00206071030037
:1083F00000B585B00390029113468DF80730039BBA
:108400001B7A052B0FD0039B5B7A002B06D00D4BFC
:108410001B681A460C49029802F04EF90B49029863
:1084200002F04AF907E09DF80730002B03D0074916
:10843000029802F041F9029802F026F900BF05B057
:108440005DF804FB182B00205C7103006C710300C5
:1084500030B58BB007900691059204930E9B1B7B61
:108460008DF827300E9B00221A730E990498FFF79F
:1084700067FF059B062B7FD801A252F823F000BFAF
:108480009D840200A7840200B7840200CB8402000E
:10849000E9840200118502004185020007990E98C7
:1084A00002F00AF969E0069B1B681A4607990E98C4
:1084B00002F002F961E0069B1A68069B04331B6810
:1084C00007990E9802F0F8F857E0069B1A68069B89
:1084D00004331968069B08331B6800930B46079901
:1084E0000E9802F0E9F848E0069B1968069B0433F1
:1084F0001868069B08331B68069A0C3212680192B2
:10850000009303460A4607990E9802F0D5F834E026
:10851000069B1868069B04331C68069B08331B687F
:10852000069A0C321268069910310968029101927C
:1085300000932346024607990E9802F0BDF81CE00E
:10854000069B1C68069B04331D68069B08331B684A
:10855000069A0C3212680699103109680698143090
:10856000006803900291019200932B4622460799DE
:108570000E9802F0A1F800E000BF00220E990498C6
:10858000FFF736FF0E9B9DF827201A7300BF0BB034
:1085900030BD00BF00B587B00390029101920093F7
:1085A000029B082B60D8009B1B7B8DF81330009B2F
:1085B00000221A7300990198FFF7C2FE0023059369
:1085C00014E0059A029B9A4209D2039A059B134430
:1085D0001B781A462649009802F06EF803E02549F8
:1085E000009802F069F8059B01330593059B072B62
:1085F000E7D92149009802F05FF80023059326E0AF
:10860000059A029B9A421BD2039A059B13441B783E
:108610008DF812309DF812307E2B0AD89DF812305A
:1086200018460EF00FF80346002B02D09DF81230CA
:1086300000E02E231A461149009802F03DF803E0AD
:108640000F49009802F038F8059B01330593059B0C
:10865000072BD5D9012200990198FFF7C9FE009B8D
:108660009DF813201A7300E000BF07B05DF804FB0B
:1086700070710300787103007C7103008071030046
:108680008471030084B003468DF807309DF80730ED
:108690005B08DBB21A460D4B9B5C8DF80F309DF8E2
:1086A000073003F00103002B04D09DF80F301B09A5
:1086B000DBB204E09DF80F3003F00F03DBB28DF85E
:1086C0000E309DF80E30184604B07047F831002087
:1086D00084B003460A468DF8073013468DF80630FD
:1086E0009DF8073003F00103002B01D00F2300E0B9
:1086F000F0238DF80F309DF8073003F00103002BB5
:1087000004D09DF806301B01DBB201E09DF8063075
:108710008DF80E309DF807305B08DBB21A46114B1E
:108720009A5C9DF807305B08DBB219469DF80F3064
:108730001340DAB20B4B5A549DF807305B08DBB29A
:108740001A46084B9A5C9DF807305B08DBB2194665
:108750009DF80E301343DAB2024B5A5400BF04B0F6
:10876000704700BFF831002084B003468DF8073011
:108770000023039310E00D4B1A68039BDB001344A6
:108780000293029B1B789DF807209A4201D1029B1D
:1087900009E0039B01330393054B1B781A46039BA7
:1087A0009342E8DB0023184604B07047C031002034
:1087B000C431002000B585B003460A468DF8073065
:1087C00013468DF806309DF807301846FFF7CCFFAA
:1087D0000390039B002B0BD0039B5B68002B07D0FF
:1087E000039B5B689DF806109DF80720104698478C
:1087F00000BF05B05DF804FB2DE9F04F87B00346DC
:108800000A468DF80F3013468DF80E309DF80F3064
:108810001846FFF737FF0346042B00F2C38001A27E
:1088200052F823F039880200AF880200CB8802009A
:10883000FB880200118902009DF80E30002B00F029
:10884000AE809DF80F3001211846FFF741FF00234D
:108850008DF817300DF11703184601F09BF89DF8BD
:108860000F204FF001034FF00004A2F12000C2F1ED
:10887000200104FA02F703FA00F0074323FA01F19A
:108880000F4303FA02F6494BD3E9003446EA0302E8
:10889000009247EA04030193444BDDE90012C3E967
:1088A00000129DF81730184601F07EF877E09DF829
:1088B0000E30002B01D0022200E000229DF80F3084
:1088C00011461846FFF704FF6CE09DF80E30002BB0
:1088D0000CD09DF80F3003211846FFF7F9FE9DF8E4
:1088E0000F3001211846FFF765FF5BE09DF80F3060
:1088F00001211846FFF7ECFE54E09DF80E30002BE6
:108900004FD19DF80F3004211846FFF7E1FE48E0F3
:108910009DF80E30002B06D09DF80F30032118462D
:10892000FFF7D6FE3EE09DF80F3000211846FFF716
:10893000CFFE9DF80F3000211846FFF73BFF0023C4
:108940008DF816300DF11603184601F023F89DF846
:108950000F104FF001024FF00003A1F12006C1F10A
:10896000200003FA01F502FA06F6354322FA00F078
:10897000054302FA01F46FEA04086FEA05090B4B9C
:10898000D3E9003408EA030A09EA040B074BC3E9F8
:1089900000AB9DF81630184601F006F802E000BF63
:1089A00000E000BF00BF07B0BDE8F08FF03100204D
:1089B00000B583B00648074B1B685B0800221946C8
:1089C00000F01BFD019000BF03B05DF804FB00BF89
:1089D000D0310020C831002010B586B001900023AE
:1089E000059328E01C4B1A68059BDB001344049395
:1089F000049B1B78184606F0B1FC03468DF80F3037
:108A0000049B5B78012B0CBF01230023DBB21A46C9
:108A10009DF80F309A420CBF012300238DF80E30D1
:108A2000049B1B789DF80E2011461846FFF7E4FEC4
:108A3000059B01330593094B1B781A46059B93420E
:108A4000D0DB074BD3E90034234301D0FFF7B0FF5D
:108A500000BF06B010BD00BFC0310020C4310020EF
:108A6000F031002010B584B001900B468DF8033032
:108A7000019BDBB21846FFF777FE0390039B1B7840
:108A8000184606F06BFC03468DF80B30039B5B78B1
:108A9000012B0CBF01230023DBB21A469DF80B30DB
:108AA0009A420CBF012300238DF80A309DF80A304A
:108AB000002B06D0044BD3E90034234301D1FFF748
:108AC00077FF00BF04B010BDF031002010B58AB0B0
:108AD00003900B4601928DF80B30019B092B01D8B6
:108AE000072367E006F04AFB034683F00103DBB28D
:108AF000002B09D006F0F0FA0990099B0893089B17
:108B0000002B01D0089B55E02C4A039B13602C4A94
:108B10009DF80B3013702B4A019B1360202200211B
:108B200029480DF0EFFD294A4FF000034FF00004F3
:108B3000C2E9003431E09DF80B30DB00039A1344A6
:108B4000079303238DF8143000238DF815309DF81A
:108B500016306FF300038DF816309DF816306FF362
:108B600041038DF816309DF816306FF382038DF8AF
:108B70001630079B9B788DF81530079B1B7818469D
:108B800005AB134A194606F005FB0990099B0693AD
:108B9000069B002B01D0069B0CE09DF80B305A1E63
:108BA0008DF80B20002BC6D10A4A00210A4800F09C
:108BB00005FC034618460AB010BD00BFC0310020B6
:108BC000C4310020C8310020F8310020F0310020ED
:108BD000658A0200D98902009471030000B583B050
:108BE000002301930CE00C4B1A68019BDB0013443B
:108BF0001B780121184606F03DFB019B01330193D0
:108C0000064B1B781A46019B9342ECD3002318466F
:108C100003B05DF804FB00BFC0310020C431002068
:108C200000B587B001900023039300230493019BB8
:108C3000059303AB1A46002144F2010000F016F838
:108C400000BF07B05DF804FBBFF34F8F054BDB6837
:108C500003F4E0620349044B1343CB60BFF34F8F2F
:108C600000BFFDE700ED00E00400FA0500B585B0A7
:108C700003900291019272B6FFF73EFB00BFFFF72F
:108C8000FDF80346002BFAD1114A124BD31ADB0828
:108C90001B0443F0010310491846FEF7F5FF0F4B84
:108CA0001B6803F00103002B00D000BE084A094BEB
:108CB000D31ADB081B0443F0020309491846FEF7E8
:108CC000E3FFFFF7C1FF00BF05B05DF804FB00BF85
:108CD0000C700300E46F030098710300F0ED00E0F6
:108CE000A471030084B00190019B9B680393019BD6
:108CF000DA68039BD31A184604B0704782B001901B
:108D00000B468DF80330019B1A68019BDB680199C3
:108D100089880B4013449DF803201A70019BDB687F
:108D20005A1C019BDA6000BF02B0704784B0039008
:108D30000B460192ADF80A30039B1A68039B9968B1
:108D4000BDF80A300B44039989880B4013441A7804
:108D5000019B1A7000BF04B0704700B583B001904A
:108D60000091009A00210198FFF7E0FF019B9B68AA
:108D70005A1C019B9A6000BF03B05DF804FB84B0ED
:108D8000039002911346ADF80630029B002B01D1EF
:108D90000E231DE0BDF80630002B07D0BDF80630CD
:108DA0005A1EBDF806301340002B01D009230FE0F6
:108DB000039B029A1A60BDF80630013B9AB2039BEE
:108DC0009A80039B00229A60039B0022DA600023B2
:108DD000184604B0704700B583B001900B468DF87B
:108DE00003300198FFF77EFF0246019B9B889A4261
:108DF00007D89DF8033019460198FFF77FFF00233D
:108E000000E00423184603B05DF804FB00B583B00E
:108E1000019000910198FFF765FF0346002B05D0F4
:108E200000990198FFF799FF002300E005231846F9
:108E300003B05DF804FB00002DE9F04182B0134857
:108E400001F0ECF8034619464FF00002104BD3E94D
:108E50000034CF1842EB0408CDE900780D4BD3E97C
:108E60000034DDE90012A24208BF994207D2DDE9D1
:108E7000003413F1807544F10006CDE90056DDE9B8
:108E800000341846214602B0BDE8F0813C2B00209A
:108E9000203200202832002010B489B001900091C7
:108EA000019B0793009B0693079BD3E90234CDE90E
:108EB0000434069BD3E90234CDE90234DDE90434FD
:108EC000DDE90212A24208BF99422CBF0123002310
:108ED000DBB2184609B05DF8044B704770B584B03A
:108EE000019000238DF80F30274B1B78002B46D0C4
:108EF000019B002B43D0019B1B7FDBB2002B3ED09C
:108F0000FFF79AFF0A460146019BD3E90234A242C9
:108F100008BF99422BD3019B1B69002B02D1019BF7
:108F200000221A77019B5B69019A92691046984763
:108F3000019B1B69002B22D0019B1B7FDBB2002B06
:108F40001DD0019BD3E90212019B1B694FF0000465
:108F5000CD1842EB0406019BC3E90256019B19465A
:108F60000A4802F098F901238DF80F3007E0019BC1
:108F70001946064802F08FF901238DF80F309DF84D
:108F80000F30184604B070BD1C320020C4710300BD
:108F9000F0B589B0019000910D230793009B00224A
:108FA0001A70019BD3E90245FFF746FF02460B46C4
:108FB000A61A65EB0307CDE90467DDE90434012B4C
:108FC00074F100031ADB049BB3F5350F05D300F0F1
:108FD00053FA0246124B134402E0019BD3E90234D8
:108FE00003934FF49603039A00210E4800F022FFEA
:108FF0000790079B002B05D101230EE000210948B3
:1090000000F0E6FF079B0D2B06D10198FFF766FFE6
:1090100003461A46009B1A700023184609B0F0BD9B
:10902000FFFFB4003C2B002000B583B0044802F0E1
:109030005BF90190019B184603B05DF804FB00BF8B
:10904000C471030000B583B0044802F063F90190D5
:10905000019B184603B05DF804FB00BFC471030018
:1090600000B583B0FFF7E0FF0190019B002B02D019
:10907000019B00221A77019B002BF3D100BF03B0A4
:109080005DF804FB10B4074BD3E9003413F1807191
:1090900044F10002034BC3E9001200BF5DF8044B2A
:1090A000704700BF2032002000B583B00190084B0C
:1090B0001B68002B07D0064B1B681846FFF70EFFF6
:1090C000034B00221A6000BF03B05DF804FB00BF31
:1090D0001832002010B582B00190FFF7ADFE0346B4
:1090E0000C46034AC2E9003400BF02B010BD00BF05
:1090F0002832002010B586B00190FFF7A3FF04903E
:1091000000238DF81730049B002B48D02B4B1B6895
:10911000002B03D101238DF8173019E0049BD3E90C
:109120000212264B1B68D3E90234A24208BF9942BF
:109130000ED201238DF81730204B1B681B7FDBB24A
:10914000002B05D01D4B1B6819461D4802F0A3F8E3
:109150009DF81730002B2AD0FFF766FF04900DF121
:109160000F0319460498FFF713FF0346002B12D094
:10917000124B1B68002B02D1019800F0A1FD0F4A91
:10918000049B13609DF80F3083F00103DBB2002BCA
:10919000B3D000BF0EE0094B00221A60ADE7074BC9
:1091A0001B68002B05D1019800F097FD01E000BF7E
:1091B00000E000BF00BF06B010BD00BF18320020A5
:1091C000C471030000B587B001902A4A03AB194669
:1091D000104601F058F8059045E0059B1B78012BDF
:1091E00017D0022B29D0002B2DD1059B5B681B7F4C
:1091F000DBB283F00103DBB2002B26D0059B5B685A
:1092000001221A77059B5B6819461B4802F043F858
:109210001BE0059B5A68194B1B689A4203D1174BF8
:1092200000221A6012E0059B5B681946124802F0A2
:1092300079F803468DF8133008E0FFF711FF104B63
:1092400001221A7002E000BF00E000BF094A03AB30
:109250001946104601F030F8064A03AB194610468D
:1092600001F011F80590059B002BB6D100BF07B0A7
:109270005DF804FB88320020C4710300183200201E
:109280001C32002000B583B00190019800F093FEDD
:109290000346002B01D0FFF7F5FE0021019800F0F6
:1092A000A8FE0346002B02D00198FFF7FDFE012126
:1092B000019800F09EFE0346002B02D00198FFF7B4
:1092C00009FF0198FFF77EFF0198FFF713FF00BF2A
:1092D00003B05DF804FB000008B5024800F0ABFEE7
:1092E00000BF08BD3C2B002000B585B003460091AF
:1092F0008DF80730114A02AB1946104600F096FF70
:109300000390039B002B13D0039B9DF807201A703A
:10931000039B009A5A60094A02AB1946104600F0B6
:109320009EFF0346002B01D0FFF7D6FF002300E08D
:109330000423184605B05DF804FB00BF8832002006
:1093400000B583B0164B1B680093164808235822BB
:10935000154900F024FF0190019B002B01D0019BD7
:1093600019E06B46114A1946114800F043FC019080
:10937000019B002B01D0019B0DE001210C4800F066
:1093800009FE01230B4A0121094800F0B3FC0A4BF6
:1093900001221A70019B184603B05DF804FB00BF60
:1093A000C071030088320020303200208592020014
:1093B0003C2B0020FFFF7F001C32002086B0039072
:1093C0000B4601928DF80B30019B002B01D1072336
:1093D00010E0039B1B680593059B019A5A619DF859
:1093E0000B30012B0CBF01230023DBB21A46059B77
:1093F0001A610023184606B0704770B586B0039016
:1094000002910192039B0593059B1B7FDBB2002B0E
:1094100001D000231BE0059B019A9A61FFF70CFD28
:109420000A460146029B4FF00004CD1842EB0406A9
:10943000059BC3E90256059B1B69002B02D0059BC7
:10944000029A1A6105990020FFF74EFF034618465D
:1094500006B070BD00B585B00190019B0393039BDE
:1094600000221A7703990120FFF73EFF03461846B2
:1094700005B05DF804FB000008B5034800F0CEFD20
:109480000346184608BD00BF3C2B002000B587B03E
:109490000390029113468DF8073000230593039B38
:1094A0001B781A46114B9B5C002B09D0039B04339D
:1094B0009DF807200299184607F0F4F905900FE08F
:1094C000039B1B781A46094B9B5C002B08D1039B1E
:1094D0000C339DF807200299184606F00FFC059002
:1094E000059B184607B05DF804FB00BFEC34002074
:1094F00000B585B0019000238DF80F30019B1B78DB
:109500001A46114B9B5C002B08D0019B0433184674
:1095100007F05EFA03468DF80F300EE0019B1B78D2
:109520001A46094B9B5C002B07D1019B0C33184654
:1095300006F050FC03468DF80F309DF80F301846AA
:1095400005B05DF804FB00BFEC34002000B587B027
:109550000390029113468DF8073000230593039B77
:109560001B781A46114B9B5C002B09D0039B0433DC
:109570009DF807200299184607F042FA05900FE07F
:10958000039B1B781A46094B9B5C002B08D1039B5D
:109590000C339DF807200299184606F073FC0590DD
:1095A000059B184607B05DF804FB00BFEC340020B3
:1095B00084B00190019B9B680393019BDA68039B35
:1095C000D31A184604B0704700B587B001900091D7
:1095D000019B1B78012B04D0022B42D0002B51D0D1
:1095E00066E0019B1B7A002B05D1012232493348EA
:1095F000FFF7ACFF5CE0019B5B681B7819463048C5
:10960000FFF7E9FB0590059B002B0AD001238DF89D
:109610000C30059B04932B4B1B6803AA10469847FC
:109620000DE02748FFF7C4FF0346002B07D00023B7
:109630008DF80C30234B1B6803AA1046984720482E
:10964000FFF7B6FF02461E4B9B889A4205D80122BF
:1096500019491A48FFF77AFF2AE01B4B01221A70BA
:1096600026E002238DF80C30019BDB680493012275
:1096700011491248FFF76AFF124B1B6803AA1046F4
:10968000984715E011491248FFF7C0FB0346002B2D
:1096900005D101220D490948FFF7F8FE07E0032331
:1096A0008DF80C30074B1B6803AA1046984700BF83
:1096B00000BF07B05DF804FBA4320020442B00205B
:1096C000A83200209C320020A5320020A0320020C9
:1096D000B832002030B591B00390029101928DF81C
:1096E00003303C4A019B1360029B002B01D10723EE
:1096F0006DE0029B1968029B5B689BB21A46364874
:10970000FFF73DFB0F900F9B0E930E9B002B01D09C
:109710000E9B5CE0029B9968029BDB689BB21A4639
:109720002E48FFF72CFB0F900F9B0D930D9B002BEA
:1097300001D00D9B4BE02A4B04AC1D460FCD0FC44E
:1097400095E80F0084E80F00039B5B690A93039B75
:109750001B7C002B14BF01230023DBB28DF82430C7
:109760009DF803308DF82C30039B5B7C002B01D0DF
:109770000E2300E000238DF82530039BDB68069361
:10978000039B9B680793039B1B680593039B5B6884
:10979000049304AB134A1946134804F073FF0F9067
:1097A0000F9B0C930C9B002B01D00C9B0FE00F4BDD
:1097B00000221A70039B1B68B3F1FF3F06D0012201
:1097C0000B490948FFF7C2FE034600E00023184694
:1097D00011B030BD9C320020A8320020B8320020E9
:1097E000D0710300C9950200442B0020A53200204F
:1097F000A432002000B587B00190114B1B788DF882
:10980000173001990F48FFF701FB04909DF81730BE
:10981000002B10D00A4B00221A7001220A490B4873
:10982000FFF794FE0390039B0293029B002B02D050
:109830000298FFF7F5F9049B184607B05DF804FBA2
:10984000A5320020A8320020A4320020442B0020A2
:1098500000B585B003468DF807309DF807301946EE
:109860001048FFF7B8FA0390039B002B15D10E4860
:10987000FFF73EFE034683F00103DBB2002B0CD062
:109880000A490848FFF7C2FA0346002B05D1012216
:1098900006490548FFF7FAFD0390039B184605B0FB
:1098A0005DF804FBB8320020442B0020A0320020D9
:1098B00082B0EFF310830093009B019372B6019B7B
:1098C000184602B0704762B600BF704700B585B059
:1098D0000190FFF7EDFF0390164B9B68002B1BD107
:1098E000144B01229A60144BD3F88020134B134081
:1098F000104A1360104B114AC3F880200E4BD3F866
:1099000084300C4A53600C4B4FF0FF32C3F8842074
:10991000019B00221A7002E0019B01221A70039B36
:10992000002B01D1FFF7CFFF0023184605B05DF8EB
:1099300004FB00BFC832002000E100E0FC06FFBDD0
:1099400000B585B003468DF80730104B9B68002B9F
:1099500016D09DF80730002B12D1FFF7A9FF039016
:109960000B4A0A4B1B681360094A084B5B6853603B
:10997000064B00229A60039B002B01D1FFF7A3FF47
:109980000023184605B05DF804FB00BFC832002074
:1099900000E100E000B583B001900198FFF796FF69
:1099A00000BF03B05DF804FB00B583B003468DF83B
:1099B00007309DF807301846FFF7C2FF00BF03B01D
:1099C0005DF804FB82B003468DF807309DF8073040
:1099D00003F01F0205499DF907305B09012000FAD9
:1099E00002F241F8232000BF02B0704700E100E01E
:1099F00082B003468DF807309DF8073003F01F0250
:109A000006499DF907305B09012000FA02F2403354
:109A100041F8232000BF02B0704700BF00E100E022
:109A200082B0034600918DF807309DF90730002B76
:109A30000CDA009BDAB20C499DF8073003F00F03F3
:109A4000043B5201D2B20B441A7609E0009BDAB211
:109A500006499DF907305201D2B20B4483F8002326
:109A600000BF02B0704700BF00ED00E000E100E081
:109A700000B583B003460A468DF8073013468DF8CB
:109A800006309DF806209DF9073011461846FFF76D
:109A9000C7FF00BF03B05DF804FB00B583B0034609
:109AA0008DF807309DF907301846FFF78BFF00BF90
:109AB00003B05DF804FB000000B585B00190019B88
:109AC000002B0AD0074B43F001030393019B9B013A
:109AD0000293039B0298984700E000BF05B05DF831
:109AE00004FB00BF4072030084B003900291019216
:109AF000039B029A02F5A872019943F8221000BF55
:109B000004B0704782B001900091019B009A02F569
:109B1000A87253F82230184602B0704782B0019004
:109B20000091019B009AC3F8042300BF02B0704764
:109B300082B001900091019B009AC3F8082300BFF6
:109B400002B0704782B001900B46ADF80230BDF80C
:109B50000230019A13441B68184602B0704784B063
:109B600001900B46ADF80230BDF80230019A134463
:109B700000221A60BDF80230019A13441B68039357
:109B8000039B00BF04B0704782B00190019BD3F8E3
:109B90000435184602B0704782B001900091019BD5
:109BA000009AC3F8082500BF02B0704782B0019048
:109BB0000B468DF803309DF80320019B13441A4691
:109BC0000123136000BF02B0704782B00190009182
:109BD000019B009AC3F8442300BF02B0704782B0D3
:109BE00001900091019B009AC3F8482300BF02B086
:109BF0007047000000B587B0039002910192039B6B
:109C00005B791946284A019B42F82130039B5B7916
:109C1000264ADB0013441B79002B0ED00823059342
:109C2000234A244BD31ADB081B0443F002032249C6
:109C30001846FEF729F8059B32E0039B1A68029B41
:109C40001B8819461046FFF7A7FF039B93F90420D2
:109C5000029B9B7819461046FFF70AFF039B93F976
:109C600004301846FFF719FF039B5B790F4ADB00AE
:109C7000134401221A71039B5B7919460B4A039B1B
:109C800042F8313000230593094A0A4BD31ADB0806
:109C90001B0443F0030309491846FDF7F5FF059B34
:109CA000184607B05DF804FBD4320020D8320020FB
:109CB0001C700300E46F0300F071030014720300D2
:109CC00000B583B00190019B1B6800211846FFF787
:109CD0006DFF00BF03B05DF804FB00B583B00190D9
:109CE000019B1B6804211846FFF760FF00BF03B00B
:109CF0005DF804FB00B587B00390029101928DF8E6
:109D000003304FF48032029B02FA03F30593029B67
:109D100050339BB29B00ADF81230019B23F07F4380
:109D20000193039B1B6805991846FFF701FF039BEE
:109D30001B6805991846FFF752FF039B1B68BDF887
:109D4000122011461846FFF70AFF039B1B68019A71
:109D500002991846FFF7C8FE039B1B680599184631
:109D6000FFF733FF9DF80330002B05D0039B1B68E2
:109D700005991846FFF7D2FE00BF07B05DF804FB57
:109D800000B585B00390029113468DF80730039B10
:109D90001B6802991846FFF718FF9DF80730002B43
:109DA00005D0039B1B6802991846FFF7B7FE00BF5A
:109DB00005B05DF804FB00B583B001900091019BF4
:109DC0001B6800991846FFF70AFF019B1B68009962
:109DD0001846FFF7ADFE00BF03B05DF804FB00B509
:109DE00083B001900B46ADF80230019B1B68BDF8B3
:109DF000022011461846FFF7A5FE0346002B09D0A6
:109E0000019B1B68BDF8022011461846FFF7A7FE0C
:109E1000012300E00023184603B05DF804FB82B084
:109E200001900091019A009BD31A23F07F431846BA
:109E300002B0704700B58BB003900291019200937D
:109E40004FF48032029B02FA03F30993029B5033D2
:109E50009BB29B00ADF82230019B23F07F4301931E
:109E600009990398FFF7A7FF039B1B681846FFF7A4
:109E70008BFE0790039B1B6802991846FFF742FE72
:109E80000690039B1B68079A02991846FFF72CFE61
:109E9000039B1B68BDF8222011461846FFF75FFEA2
:109EA00007990698FFF7BBFF0346012B0AD1102044
:109EB000FFF702FE039B1B68BDF8222011461846DF
:109EC000FFF74DFE039B1B681846FFF75DFE0790EA
:109ED00007990198FFF7A3FF0590039B1B68099959
:109EE0001846FFF772FE059B012B15D1039B1868DE
:109EF000019B01331A460299FFF7F6FD1020FFF788
:109F0000DBFD039B1B681846FFF73EFE0246079BDE
:109F1000934235D00D2339E0039B1B68019A0299C7
:109F20001846FFF7E1FD039B1B681846FFF72CFE60
:109F30000790019B013B07991846FFF770FF0590BA
:109F4000009BC3F1FF1303F57F43059A9A4201D9A1
:109F50000D231BE0059B002B12D1039B1868019B6E
:109F600001331A460299FFF7BFFD039B1B68184691
:109F7000FFF70AFE0246079B934201D00D2305E03E
:109F8000012209990398FFF7FBFE002318460BB046
:109F90005DF804FB00B583B001900B468DF80330EB
:109FA0009DF803301A4602210198FFF7E9FE00BF31
:109FB00003B05DF804FB00B583B001904FF48271EB
:109FC0000198FFF70CFF0346184603B05DF804FB49
:109FD00000B583B0019000914FF48032009B02FAEB
:109FE00003F319460198FFF7E6FE00BF03B05DF8E2
:109FF00004FB00B585B001900091009B50339BB2EB
:10A000009B00ADF80E30BDF80E3019460198FFF7F1
:10A01000E6FE0346184605B05DF804FB00B583B0C4
:10A020000190019B1B681846FFF7AEFD03461846DA
:10A0300003B05DF804FB00B583B00190019B93F978
:10A0400004301846FFF7D4FC00BF03B05DF804FBF2
:10A0500008B5044B1B68044A12681046984700BFB5
:10A0600008BD00BFD4320020D832002086B0019055
:10A070000091019B53E8011F8AB2D8890244988954
:10A08000824228BF121A1889824202BFBFF32F8F63
:10A09000002307E0C2EA010243E801200028E9D1D9
:10A0A0004FF001038DF80F30059002910492029A4F
:10A0B000009B1A609DF80F30DBB2184606B070475F
:10A0C00084B00190019951E8013FC3EA034341E89C
:10A0D0000132002AF7D10392029300BF04B0704707
:10A0E00086B001900091019B53E8021F1FFAA1F274
:10A0F000D888824202BFBFF32F8F00230DE0D8899A
:10A1000002449889824228BF121AC1EA024243E8F7
:10A1100002200028E8D14FF001038DF80F300590A0
:10A1200002910492029A009B1A609DF80F30DBB2F4
:10A13000184606B0704784B00190019951E8023F7B
:10A14000C3EA234341E80232002AF7D10392029383
:10A1500000BF04B0704786B00190019B53E8021F16
:10A16000DA88B1EB314F4FF0000017BF89B242EAF5
:10A17000024241EA024204E05968B1EB314F08BFA4
:10A18000012043E802210029E8D18DF80F00059154
:10A1900004929DF80F30DBB2184606B0704784B0C9
:10A1A0000390029111461A460B46ADF8063013464D
:10A1B000ADF80430029B002B01D10E231FE0BDF847
:10A1C0000630BDF80420B3FBF2F102FB01F29B1A4A
:10A1D0009BB2002B01D0092311E0039B029A1A6065
:10A1E000039B00225A60039B00229A60039BBDF8E8
:10A1F00006209A81039BBDF80420DA8100231846CB
:10A2000004B0704700B585B001900198FFF7A3FF37
:10A2100003468DF80F309DF80F30002B01D000233E
:10A2200000E01123184605B05DF804FB00B585B0C9
:10A2300001900091009B19460198FFF717FF034614
:10A24000002B07D0019B1B68009A128813440393CC
:10A25000039B00E00023184605B05DF804FB00B541
:10A2600083B001900091009B1A88009B5B889A4202
:10A2700004D10198FFF724FF012300E000231846D2
:10A2800003B05DF804FB00B585B001900091009B20
:10A2900019460198FFF724FF0346002B07D0019BC6
:10A2A0001B68009A528813440393039B00E0002329
:10A2B000184605B05DF804FB00B583B0019000912D
:10A2C000009B1A88009B5B889A4204D10198FFF793
:10A2D00032FF012300E00023184603B05DF804FBC1
:10A2E00000B585B001900091009B5B099B00019A2D
:10A2F000D018009B03F01F03012202FA03F3194652
:10A3000000F064F8039000BF05B05DF804FB00B5F1
:10A3100085B001900091009B5B099B00019AD018C9
:10A32000009B03F01F03012202FA03F3DB431946EB
:10A3300000F07CF8039000BF05B05DF804FB82B02C
:10A3400001900091009B5B099B00019A13441A68DD
:10A35000009B03F01F0322FA03F303F00103002B19
:10A3600014BF01230023DBB2184602B0704710B4BB
:10A3700087B001900091019B009A53E8004F10466E
:10A3800043E8000191F0000FF7D105940490039188
:10A39000059B184607B05DF8044B704710B487B0B2
:10A3A00001900091019B009A53E8004F44EA02009B
:10A3B00043E8000191F0000FF6D105940490039159
:10A3C000059B184607B05DF8044B704710B487B082
:10A3D00001900091019B009A53E8004F44EA02006B
:10A3E00043E8000191F0000FF6D105940490039129
:10A3F000049B184607B05DF8044B704710B487B053
:10A4000001900091019B009A53E8004F04EA02007A
:10A4100043E8000191F0000FF6D1059404900391F8
:10A42000059B184607B05DF8044B704710B487B021
:10A4300001900091019B009A53E8004F04EA02004A
:10A4400043E8000191F0000FF6D1059404900391C8
:10A45000049B184607B05DF8044B704710B487B0F2
:10A4600001900091019B009A53E8004F04EB020019
:10A4700043E8000191F0000FF6D105940490039198
:10A48000059B184607B05DF8044B704710B487B0C1
:10A4900001900091019B009A53E8004F04EB0200E9
:10A4A00043E8000191F0000FF6D105940490039168
:10A4B000049B184607B05DF8044B704710B487B092
:10A4C00001900091019B009A53E8004FA4EB020019
:10A4D00043E8000191F0000FF6D105940490039138
:10A4E000049B184607B05DF8044B704700B583B075
:10A4F000019001210198FFF751FF0346184603B070
:10A500005DF804FB00B583B0019001210198FFF7CD
:10A510005DFF0346184603B05DF804FB00B583B049
:10A52000019000210198FFF769FF0346184603B028
:10A530005DF804FB82B001900B468DF80330019B5F
:10A54000DA689DF803300199098A01FB03F313448B
:10A55000184602B0704782B001900091009B019AAA
:10A56000D2689B1A019A128AB3FBF2F3DBB2184647
:10A5700002B0704784B00190019B002B01D10E23E3
:10A5800020E0019B9A68019B5B68D31A8DF80F301D
:10A59000019B1B68019A52681A6007E0019B1A68C8
:10A5A0001368591C11609DF80F201A709DF80F3028
:10A5B0005A1E8DF80F20002BF0D1019B1B68002242
:10A5C0001A710023184604B0704700B585B0019099
:10A5D0000023039300238DF80A300DF10A03184677
:10A5E000FFF7D8F9019B1B681A68019B5B689A42C8
:10A5F0001FD9019B1B681A68013A1A601B681B78F7
:10A6000019460198FFF796FF0390019B9A68019BFA
:10A610001B681B68D31A8DF80B30019B1B681B79D4
:10A620009DF80B209A4204D9019B1B689DF80B20D2
:10A630001A719DF80A301846FFF7B6F9039B1846C1
:10A6400005B05DF804FB10B584B001900091009B4B
:10A65000039300238DF80B300DF10B031846FFF721
:10A6600099F9019B1B681C68621C1A600399019888
:10A67000FFF771FF034623709DF80B301846FFF774
:10A6800093F900BF04B010BD00B583B00190019BE9
:10A690009B68002B0CD0019B5B69019A1069019AA1
:10A6A0001168019A92689847019B00229A6000E025
:10A6B00000BF03B05DF804FB0EB400B584B0019098
:10A6C000059B002B0AD00023039306AB039303AB37
:10A6D0001A460599019800F0B5F900E000BF04B0F2
:10A6E0005DF804EB03B0704700B583B001900B46F2
:10A6F0008DF803309DF803300A2B03D10D2101980A
:10A70000FFF7F2FF019B1A68019B9B68581C019997
:10A71000886013449DF803201A70019B9A68019B7E
:10A720005B689A4202D30198FFF7AEFF00BF03B007
:10A730005DF804FB00B587B003900291019200938D
:10A7400000230593009B03F00103002B24D00BE0B2
:10A75000029B01330293059B013305939DF813304F
:10A7600019460398FFF7C0FF029B1B788DF8133042
:10A770009DF81330002BEBD106E0019B013B0193C8
:10A7800020210398FFF7B0FF019A059B9A422ED92A
:10A79000019B002BF1D12AE0029B002B0BD00298E9
:10A7A0000CF005F8059006E0019B013B0193202188
:10A7B0000398FFF799FF019A059B9A420FD9019BD5
:10A7C000002BF1D10BE0029B01330293059B013377
:10A7D00005939DF8133019460398FFF785FF029BF8
:10A7E0001B788DF813309DF81330002BEBD100BF90
:10A7F00007B05DF804FB000000B589B0039002913A
:10A8000001920093029B07930123069307E0079AA6
:10A81000019BB2FBF3F30793069B01330693079A60
:10A82000019B9A42F3D2009A069B9A4201D9009B5F
:10A8300006930B9B03F00103002B22D10A9B002BF4
:10A840001FD00B9B03F00203002B06D0009B002BB4
:10A8500003D130238DF8173002E020238DF8173014
:10A8600008E00A9B013B0A939DF8173019460398AC
:10A87000FFF73AFF0A9B002B03D0069A0A9B9A42E5
:10A88000EFD301230793009B012B03D9009B013BCE
:10A89000009309E0029A079BB2FBF3F30493049A36
:10A8A000019B9A4200D205E0079B019A02FB03F349
:10A8B0000793E8E7029A079BB2FBF3F30493049B28
:10A8C000079A02FB03F3029AD31A0293154A049BD8
:10A8D00013441B7819460398FFF706FF079A019B5C
:10A8E000B2FBF3F30793079B002BE3D10B9B03F021
:10A8F0000103002B11D00A9B002B0ED006E00A9B0F
:10A90000013B0A9320210398FFF7EEFE0A9B002BE0
:10A9100003D0069A0A9B9A42F1D300BF09B05DF8B2
:10A9200004FB00BF4872030000B589B00590049194
:10A9300003920293049B002BB8BF5B420693012352
:10A94000079307E0039B069A92FBF3F30693079B9A
:10A9500001330793039B069A9A42F3DA029A079B04
:10A960009A4201D9029B07930A9B002B0AD0049BB1
:10A97000002B04DB0B9B03F00403002B02D00A9B8B
:10A98000013B0A930B9B03F00203002B02D0029BB6
:10A99000002B16D00B9B03F00103002B11D10A9B57
:10A9A000002B0ED006E00A9B013B0A93202105985C
:10A9B000FFF79AFE0A9B002B03D0079A0A9B9A4244
:10A9C000F1D3049B002B07DA049B5B4204932D21F7
:10A9D0000598FFF789FE08E00B9B03F00403002BAA
:10A9E00003D02B210598FFF77FFE0B9B03F002039A
:10A9F000002B19D00B9B03F00103002B14D1029BF9
:10AA0000002B11D10A9B002B0ED006E00A9B013BC4
:10AA10000A9330210598FFF767FE0A9B002B03D0AD
:10AA2000079A0A9B9A42F1D304990B9B01930A9BC4
:10AA30000093029B039A0598FFF7DEFE00BF09B062
:10AA40005DF804FB00B58FB0059004910392049B60
:10AA5000002B00F0E981049B1B788DF83730049BB4
:10AA6000013304939DF83730002B00F0D4819DF81A
:10AA70003730252B40F0C38100230A9301230C9328
:10AA8000049B1B788DF837309DF837302D2B04D080
:10AA9000302B0AD02B2B10D017E00A9B43F0010378
:10AAA0000A93049B0133049312E00A9B43F00203D0
:10AAB0000A93049B013304930AE00A9B43F00403C6
:10AAC0000A93049B0133049302E000230C9300BF1C
:10AAD0000C9B002BD4D1002309939DF837302A2BEF
:10AAE0000CD1039B1B68191D039A11601B68099AFE
:10AAF00013440993049B013304931AE0049B1B78CD
:10AB00008DF837309DF837302F2B12D99DF837301C
:10AB1000392B0ED8049B01330493099A13469B00EA
:10AB200013445B001A469DF837301344303B0993B9
:10AB3000D3E700230B93049B1B788DF837309DF8E7
:10AB400037302E2B1DD1049B01330493049B1B78BB
:10AB50008DF837309DF837302F2B12D99DF83730CC
:10AB6000392B0ED8049B013304930B9A13469B0098
:10AB700013445B001A469DF837301344303B0B9367
:10AB8000E4E7049B1B788DF837309DF837306C2B49
:10AB900003D09DF83730682B07D1049B0133049311
:10ABA000049B1B788DF83730EFE79DF83730253B55
:10ABB000532B00F21F8101A252F823F0EBAD0200EB
:10ABC000F5AD0200F5AD0200F5AD0200F5AD0200F5
:10ABD000F5AD0200F5AD0200F5AD0200F5AD0200E5
:10ABE000F5AD0200F5AD0200F5AD0200F5AD0200D5
:10ABF000F5AD0200F5AD0200F5AD0200F5AD0200C5
:10AC0000F5AD0200F5AD0200F5AD0200F5AD0200B4
:10AC1000F5AD0200F5AD0200F5AD0200F5AD0200A4
:10AC2000F5AD0200F5AD0200F5AD0200F5AD020094
:10AC3000F5AD0200F5AD0200F5AD0200F5AD020084
:10AC4000F5AD0200F5AD0200F5AD0200F5AD020074
:10AC5000F5AD0200F5AD0200F5AD0200F5AD020064
:10AC6000F5AD0200F5AD0200F5AD0200F5AD020054
:10AC7000F5AD0200F5AD0200F5AD0200F5AD020044
:10AC8000F5AD0200F5AD020077AD0200F5AD0200B2
:10AC9000F5AD0200F5AD0200F5AD0200F5AD020024
:10ACA000F5AD0200F5AD0200F5AD0200F5AD020014
:10ACB000F5AD02000DAD02002FAD0200F5AD0200B2
:10ACC000F5AD0200F5AD0200F5AD02002FAD0200BA
:10ACD000F5AD0200F5AD0200F5AD0200F5AD0200E4
:10ACE000F5AD0200F5AD0200B7AD0200F5AD020012
:10ACF000F5AD02009BAD0200F5AD020053AD0200C0
:10AD0000F5AD0200F5AD020077AD0200039B1B68B4
:10AD1000191D039A11601B680C930C9B8DF823304E
:10AD20009DF8233019460598FFF7DEFC63E0039B8E
:10AD30001B68191D039A11601B680C930A9B0193F1
:10AD4000099B00930B9B0A220C990598FFF7ECFDD9
:10AD500051E0039B1B68191D039A11601B680C933B
:10AD60000C990A9B0193099B00930B9B0A2205985F
:10AD7000FFF742FD3FE0039B1B68191D039A11601A
:10AD80001B680C930C990A9B0193099B00930B9BE6
:10AD900010220598FFF730FD2DE0039B1B68191D5D
:10ADA000039A11601B6807930A9B099A07990598F3
:10ADB000FFF7C0FC1FE0039B1B68191D039A11607D
:10ADC0001B680C9330210598FFF78EFC78210598BD
:10ADD000FFF78AFC0C9900230193082300930823B2
:10ADE00010220598FFF708FD05E025210598FFF7DB
:10ADF0007BFC00E000BF049B0133049305E09DF859
:10AE0000373019460598FFF76FFC049B1B78002B21
:10AE10007FF421AE00E000BF059B1B7B002B04D01C
:10AE20000598FFF731FC00E000BF0FB05DF804FBB0
:10AE300000B583B001900198FFF79CFB03461846CC
:10AE400003B05DF804FB00B58BB001900091019B4D
:10AE50001B8A043B0793009A079B1344DA1C079B49
:10AE6000B2FBF3F38DF81B300198FFF7AEFB0590B2
:10AE7000059B002B01D1002338E0059B00221A71AD
:10AE8000059B01225A71079B9AB2059BDA80059BAC
:10AE900009939DF81B30013B0493099B019A1A60AA
:10AEA000002308931DE00198FFF78FFB0390039B9D
:10AEB000002B0ED0059B5B790133DAB2059B5A71EA
:10AEC000099B039A1A60039B019A1A60039B0993DA
:10AED00004E0059800F00EF8002307E0089B01331A
:10AEE0000893089A049B9A42DDD3059B18460BB041
:10AEF0005DF804FB00B58BB00190019B0793079BA5
:10AF00005B798DF81B30019B08939DF81B30013B4A
:10AF100005930023099305E0089B1B680893099B90
:10AF200001330993099A059B9A42F5D3089B1B6844
:10AF30000493019B0893002309930BE0089B1B6873
:10AF4000039308990498FFF77EFB039B0893099BE2
:10AF5000013309939DF81B30099A9A42EED300BF42
:10AF60000BB05DF804FB00B585B00190019B039325
:10AF7000039B043301211846FFF788FA00BF05B090
:10AF80005DF804FB00B587B00190019B0593059B1C
:10AF9000043301211846FFF791FA0346039303ABEC
:10AFA0000493049B1B78002B02D10198FFF7A2FFAA
:10AFB00000BF07B05DF804FB00B591B003900291AB
:10AFC00001920093039B0993039B0F93099BDB88DA
:10AFD0001A46099B5B7903FB02F3043B0893099B28
:10AFE000DB880793009B1A1D079BB2FBF3F30E93BC
:10AFF000009B0433079AB3FBF2F2079901FB02F2BC
:10B000009B1A0D93019B1A68009B1344089A9A425D
:10B0100003D2089A009BD31A01E0019B1B680C9392
:10B02000019B0C9A1A6005E00F9B1B680F930E9B07
:10B03000013B0E930E9B002BF6D100230B93079A36
:10B040000D9BD31A0A930A9A0C9B934228BF13466E
:10B050000A932AE0029A0B9B134406930F9A0D9BC6
:10B060001344043305939DF84830002B05D00A9A09
:10B07000059906980BF01DFB04E00A9A06990598BD
:10B080000BF017FB00230D930F9B1B680F930C9A7B
:10B090000A9BD31A0C930B9A0A9B13440B93079A9F
:10B0A0000C9B934228BF13460A930C9B002BD1D1D3
:10B0B00000BF11B05DF804FB00B589B005900491A4
:10B0C00003920293039B079307AA00230093029B1A
:10B0D00004990598FFF770FF00BF09B05DF804FB05
:10B0E00000B589B00590049103920293039B0793E6
:10B0F00007AA01230093029B04990598FFF75CFFC0
:10B1000000BF09B05DF804FB82B003468DF807303C
:10B110009DF8073003F01F0206499DF907305B09CF
:10B12000012000FA02F2603341F8232000BF02B090
:10B13000704700BF00E100E082B00190019B002257
:10B140001A60BFF35F8F00BF02B0704741DF7047E6
:10B1500000BF184600B585B000238DF803300DF10F
:10B1600003031846FEF716FCF1EE103A0193019B1B
:10B170000393039B23F09F030293029BE1EE103A9B
:10B18000BFF35F8F2620FFF7BFFF9DF803301846FF
:10B19000FEF70AFC00BF05B05DF804FB08B5064BDE
:10B1A00000221A700548FFF7C7FF0549054800F05F
:10B1B0003CF80023184608BDE4320020E0320020AD
:10B1C00064720300E832002000B583B0FFF7C2FFCD
:10B1D0000AF0DAFE0346002B03D0FFF7B7FF019019
:10B1E00002E020BF40BF20BF00BF03B05DF804FBFA
:10B1F00082B00190019B9B6800229A60019B9B6832
:10B2000000221A61019B9B6800225A61019B9B6886
:10B210000022DA60019B9B6800225A60019B9B68B8
:10B2200000221A6000BF02B0704782B00190009106
:10B23000019B009A1A60019B1B681A68019B5A6067
:10B24000019B5A68019B1B685B689A4202D1019B73
:10B2500000225A6000BF02B0704782B00190019B8B
:10B260005B68002B14D0019B5B681A46019B1B682E
:10B270009B6813441A46019B5A60019B5A68019BC4
:10B280001B685B689A4204D1019B00225A6000E06F
:10B2900000BF02B0704700B585B001900091019BDE
:10B2A0005B6803930FE0019B9B68039A1268009907
:10B2B00010469847034683F00103DBB2002B07D109
:10B2C000039B1B680393039B1B68002BEBD100E0DF
:10B2D00000BF039B1A68009B1A60039B009A1A60C8
:10B2E00000BF05B05DF804FB84B00190019B5B6872
:10B2F0001B680393019B5B681B68002B06D0019BB6
:10B300005B681A68019B5B6812681A60039B1846A9
:10B3100004B0704782B00190019B5B681B681846BF
:10B3200002B0704784B00190009100238DF80F3077
:10B33000019B5B6802930FE0029B1B68009A9A4294
:10B3400007D1009B1A68029B1A6001238DF80F3009
:10B3500006E0029B1B680293029B1B68002BEBD14B
:10B360009DF80F30184604B07047000000B585B056
:10B370000190019800F00EF80390039B002B01D080
:10B38000039B00E0024B184605B05DF804FB00BFCC
:10B390007C72030086B00190164B0593164B049304
:10B3A0001FE0049A059BD31ADB10DA0F13445B10DD
:10B3B000DB00059A13440393039B1B680293029AD4
:10B3C000019B9A4202D9039B04930AE0029A019BD3
:10B3D0009A4203D2039B0833059302E0039B5B6808
:10B3E00004E0059A049B9A42DBD30023184606B07A
:10B3F000704700BF7C760300A477030000B583B0DC
:10B4000001900091019BDBB21846FEF721FA019BE7
:10B41000184603B05DF804FB82B00190019B03F075
:10B420000303002B0CBF01230023DBB2184602B03C
:10B430007047000000B585B00190002303930EE033
:10B440000A4A039B52F82330002B05D0074A039B7E
:10B4500052F8233001989847039B01330393039BD1
:10B46000032BEDD900BF05B05DF804FB00330020CD
:10B4700082B001900091019B1B78013B052B61D8A4
:10B4800001A252F823F000BFA1B40200A9B4020047
:10B49000CFB4020001B5020021B502003DB50200A3
:10B4A000009B00221A704EE0009B01221A70019B43
:10B4B0001A89009B9A81019B9A88009BDA81019BE3
:10B4C000DA68009B9A60009B00221A743BE0009BA4
:10B4D00002221A70019B1A89009B9A81019B9A880B
:10B4E000009BDA81019BDA68009B9A60019B9B7D3F
:10B4F000062B0CBF01230023DAB2009B1A7422E052
:10B50000009B03221A70019BDA88009B9A81019BA1
:10B510001A89009BDA81019BDA68009B9A6012E02D
:10B52000009B04221A70019BDA88009B9A81009B81
:10B530000022DA81009B00229A6004E0009B052231
:10B540001A7000E000BF00BF02B0704784B00190E5
:10B550000091019B0393039A009B9A4206D2039B9E
:10B560001B68B3F1FF3F01D0012300E0002303F08B
:10B570000103DBB2184604B0704782B00190019B12
:10B580005B8803339B00019A1344184602B070474E
:10B5900000B583B0019000910198FFF7EEFF0246DD
:10B5A000009B934201D2022311E0019B9B884FF63E
:10B5B000FF72934208D0019B1B88002B04D0019B93
:10B5C0009B68B3F1FF3F01D1012300E0002318463F
:10B5D00003B05DF804FB000000B583B00190019B4F
:10B5E000002B13D00D4BDB681A46019B93420DD301
:10B5F0000A4B1B691A46019B934207D80198FFF733
:10B600000BFF0346002B01D0012300E0002303F0D1
:10B610000103DBB2184603B05DF804FBE82A002002
:10B6200082B00190019B002B04D0019B1B680B4A48
:10B63000934201D003230DE0019B04331B68084AA9
:10B64000934204D0074A934203D1012302E000232E
:10B6500000E00323184602B0704700BFDEC0ADDE35
:10B66000FE011EF1FF011EF184B00190019B1B68D9
:10B67000B3F1FF3F06D0019B1B680E4A934201D0F5
:10B68000002314E0012303930CE0039B9B00019A29
:10B6900013441B68B3F1FF3F01D0002307E0039B75
:10B6A00001330393039BB3F5806FEED30123184658
:10B6B00004B07047DEC0ADDE82B003460A46ADF886
:10B6C00006301346ADF80430BDF806201349134682
:10B6D0009B0013449B000B4408331A88BDF80430C8
:10B6E0001344ADF80430BDF806200C4913469B0006
:10B6F00013449B000B440A331A88BDF804301344EA
:10B70000ADF80430BDF80430B3F5806F94BF012369
:10B710000023DBB2184602B0704700BFB0330020F0
:10B7200084B00190009148F2096303930023ADF8BF
:10B730000A3027E0BDF80A20164913469B0013443F
:10B740009B000B4404331B68009A9A4215D9BDF83C
:10B750000A20104913469B0013449B000B440433FA
:10B760001B6803F58053009A9A4206D20023039384
:10B77000019BBDF80A201A8008E0BDF80A300133A9
:10B78000ADF80A30BDF80A30012BD3D9039B184617
:10B7900004B07047B033002000B589B00390029127
:10B7A0000192039B03F580530693039B0833039395
:10B7B000029B02221A80039B079332E006990798A6
:10B7C000FFF7E6FE03468DF817309DF81730002B83
:10B7D0000AD1079B9A68184B1B689A4213D9079B9A
:10B7E0009B68154A13600EE0019B002B02D0019B61
:10B7F00001221A709DF81730022B04D1029B4FF4DE
:10B8000080621A8014E0029B1A88079B5B881344AD
:10B810009BB203339AB2029B1A800798FFF7ADFEE2
:10B82000079006990798FFF791FE0346002BC5D1B4
:10B8300009B05DF804FB00BF1033002082B0019016
:10B840000091009B9B7D022B09D9019B1A89009BCB
:10B85000DB8813449BB203339AB2019B1A81019B8C
:10B860005A89009BDB88D31A9BB2033B9AB2019B97
:10B870005A8100BF02B0704700B583B0074B1B6808
:10B880001946002300930823054A064801F0F6FCF8
:10B890000346184603B05DF804FB00BFD833002010
:10B8A000A4770300E82A002000B585B0039003992F
:10B8B000002300930823044A044801F0DFFC0346F8
:10B8C000184605B05DF804FBAC770300E82A0020B9
:10B8D00000B585B003460091ADF8063000238DF821
:10B8E0000F30BDF806300333ADF80A30BDF80A302A
:10B8F00040F2FE32934202D948F208634BE0002343
:10B90000ADF80C303BE0BDF80C20254913469B00F8
:10B9100013449B000B441B78002B2BD1BDF80A204D
:10B92000BDF80C3011461846FFF7C6FE0346002B43
:10B9300020D001238DF80F30009BBDF80C201A8019
:10B94000BDF80C20164913469B0013449B000B4482
:10B950000A331988BDF80C20BDF80A300B4498B2A0
:10B960000F4913469B0013449B000B440A330246C5
:10B970001A8008E0BDF80C300133ADF80C30BDF88A
:10B980000C30012BBFD99DF80F30002B01D00023C4
:10B9900001E048F20663184605B05DF804FB00BFFD
:10B9A000B033002082B003460A46ADF80630134695
:10B9B000ADF80430BDF804200D4913469B00134434
:10B9C0009B000B440A331A88BDF80630D31A9BB289
:10B9D000BDF80420033B98B2054913469B0013446D
:10B9E0009B000B440A3302461A8000BF02B0704726
:10B9F000B033002008B501210248FEF747FD034699
:10BA0000184608BD1033002000B585B003460091EC
:10BA1000ADF80630BDF80620224913469B001344BA
:10BA20009B000B4404331B6803F580530293009B77
:10BA30001B680393039B002B04D00398FFF79DFD25
:10BA4000039023E0BDF80620164913469B001344DB
:10BA50009B000B4404331B680833039316E00299E0
:10BA60000398FFF795FD0346012B08D0022B0BD05E
:10BA7000002B0BD1009B039A1A6001230EE0039860
:10BA8000FFF77BFD039001E0002307E00299039894
:10BA9000FFF75CFD0346002BE1D10023184605B0FB
:10BAA0005DF804FBB033002000B585B00190009133
:10BAB000019B5B681846FFF78FFD0346002B19D0EA
:10BAC000019B1A89244B1B899A4213D1019B1A6846
:10BAD000019B5B689B689A420CD1019B5B6819468D
:10BAE0000098FFF71DFE0346002B0CBF0123002327
:10BAF000DBB22CE0009B00221A8023E0002302939B
:10BB000010E0029B0393039B9A68019B1B689A4277
:10BB100008D1029A019B5A600F4B1A89019B1A8126
:10BB2000012314E0009B1B8802AA11461846FFF768
:10BB30006BFF0346002BE4D1009B1B8801339AB2B4
:10BB4000009B1A80009B1B88012BD7D90023184625
:10BB500005B05DF804FB00BFE033002000B587B0FE
:10BB60000390029101920093324B1B78DBB283F079
:10BB70000103DBB2002B02D048F2016355E0019BC8
:10BB8000002B02D0009B002B49D148F204634CE00B
:10BB9000009B9B881946284A0B469B000B449B0040
:10BBA00013441B78002B33D124E0009B1B680593C2
:10BBB000039B002B06D0059B9A88039B1B889A4207
:10BBC00000D017E0029B002B06D0059B1A88029B31
:10BBD0001B889A4200D00DE0059B9A68019B1A6071
:10BBE000009B1A68019B5A60144B1A89019B1A81A9
:10BBF00000231AE0009B9B88009A11461846FFF725
:10BC000003FF0346002BD0D1009B00221A6000E006
:10BC100000BF009B9B8801339AB2009B9A80009BD7
:10BC20009B88012BB4D948F20963184607B05DF828
:10BC300004FB00BFF0320020B0330020E0330020CE
:10BC400000B587B00291019200930346ADF80E3023
:10BC5000BDF80E20314913469B0013449B000B4452
:10BC600004331B6808330593BDF80E202B49134697
:10BC70009B0013449B000B4404331B6803F5805363
:10BC8000049341E004990598FFF782FC0346012BD9
:10BC900004D0022B22D0002B15D034E0019B1B884E
:10BCA00001339AB2019B1A80009B1A88059B5B881E
:10BCB00013449BB203339AB2009B1A800598FFF796
:10BCC0005CFC059020E0029B1B8801339AB2029B2A
:10BCD0001A800598FFF751FC059015E0019B1B8821
:10BCE00001339AB2019B1A80009B1A880499059B24
:10BCF000CB1A9B109BB213449AB2009B1A80089BEC
:10BD000001221A7007E000BF04990598FFF71EFC96
:10BD10000346002BB6D107B05DF804FBB03300201A
:10BD200000B585B00190084B01991846FEF77EFAE0
:10BD300003901C22002103980AF0E4FC039B1846A0
:10BD400005B05DF804FB00BFA033002000B583B050
:10BD50000190044B01991846FEF781FA00BF03B029
:10BD60005DF804FBA033002000B583B00190054BC3
:10BD700001991846FEF787FA0346184603B05DF8A6
:10BD800004FB00BFA033002000B583B00190044B3A
:10BD900001991846FEF790FA00BF03B05DF804FB66
:10BDA000A033002008B501210548FEF787FB0346B4
:10BDB000002B14BF01230023DBB2184608BD00BFCF
:10BDC000F832002000B587B0002305930023ADF8BA
:10BDD00012300323ADF8103000238DF80F3000230C
:10BDE000ADF80C30F3E0BDF80C301A03804BDB6883
:10BDF000134402930298FFF713FC03468DF80730B3
:10BE00009DF80730012B00F09C80032B02D0002B03
:10BE100062D0D7E00298FFF727FC0346002B3BD007
:10BE2000744B1B68002B29D0BDF8122072491346B1
:10BE30009B0013449B000B4402221A70BDF8122091
:10BE40006D4913469B0013449B000B440433029A34
:10BE50001A60BDF81220684913469B0013449B00EA
:10BE60000B44083302221A80644ABDF81230538012
:10BE7000BDF812300133ADF8123008E05D4A029B84
:10BE800013605C4B02229A8001238DF80F30059BD2
:10BE900043F00103059395E0BDF81030013BADF888
:10BEA0001030BDF81220544913469B0013449B00E8
:10BEB0000B440433029A1A60BDF812204E4913460F
:10BEC0009B0013449B000B4403221A70BDF81230F0
:10BED0000133ADF8123075E0BDF812204649134623
:10BEE0009B0013449B000B4400221A70BDF81220E3
:10BEF000414913469B0013449B000B440433029AB0
:10BF00001A60BDF8122013469B0013449B000833AF
:10BF1000394A9918BDF8122013469B0013449B0020
:10BF20001033354A13441A460298FFF735FC059B37
:10BF300043F002030593BDF812300133ADF812301F
:10BF400040E09DF80F30002B29D0BDF812202A497F
:10BF500013469B0013449B000B4402221A70BDF849
:10BF60001220244B1968244813469B0013449B005D
:10BF7000034404331960BDF812201F4913469B0087
:10BF800013449B000B44083302221A801B4ABDF85D
:10BF900012305380BDF812300133ADF81230154A1B
:10BFA000029B1360002216490298FFF7F5FB114B24
:10BFB0009B88022B01D1042300E00823059A134338
:10BFC000059300BFBDF80C300133ADF80C30BDF85F
:10BFD0000C30022B7FF607AFBDF81030012B01D8D3
:10BFE00000230593059BDBB2184607B05DF804FB00
:10BFF000E82A0020D8330020B0330020E0330020AE
:10C00000DC33002000B587B003900291039B02222D
:10C010009A750299039B1A1D002300930423074875
:10C0200001F02CF90590059B002B01D1002301E0C4
:10C0300048F20D63184607B05DF804FBE82A0020BB
:10C0400000B587B003900291039B1B69002B01D0C0
:10C05000032200E00122039B9A75029B08331946D4
:10C06000039B03F10C02002300930423074801F013
:10C0700005F90590059B002B01D1002301E048F252
:10C080000D63184607B05DF804FB00BFE82A0020E6
:10C0900000B587B003900291039B1B78032B01D15D
:10C0A000052200E00622039B9A75029B0433194681
:10C0B000039B03F10802002300930423074801F0C7
:10C0C000DDF80590059B002B01D1002301E048F22B
:10C0D0000D63184607B05DF804FB00BFE82A002096
:10C0E00000B587B003900B46ADF80A3003990023E2
:10C0F000009304230D4A0E4801F0C0F80590059BFB
:10C10000002B02D048F20D630BE0BDF80A2009496C
:10C1100013469B0013449B000B44103301221A70FA
:10C120000023184607B05DF804FB00BFB477030096
:10C13000E82A0020B033002000B589B0019002AB9E
:10C1400000221A605A609A60019BDB6802930DF12D
:10C15000160202AB11461846FFF7A6FC0346002B59
:10C1600012D0039B0693069B9A88019BDA80069B5C
:10C170001A88019B1A81039BBDF8162011461846A8
:10C18000FFF7AEFF079002E048F209630793079BB1
:10C19000184609B05DF804FB00B587B00190019B1B
:10C1A000981D02AA0D4B0021FFF7D8FC0590059BB6
:10C1B000002B08D1039A094B9B8819461046FFF7BC
:10C1C0008FFF059004E00822002104480AF09AFA43
:10C1D000059B184607B05DF804FB00BFF033002054
:10C1E00000B587B003900291039B01229A75029BD0
:10C1F0000C331846039B1A69039BDB8899000023C4
:10C2000000930B460146074801F038F80590059B5E
:10C21000002B01D1002301E048F20D63184607B05E
:10C220005DF804FBE82A002082B0184B1B8901331B
:10C230009AB2164B1A81154B00225A80134B0022DA
:10C240001A730023ADF8063018E0BDF80620104937
:10C2500013469B0013449B000B441A78BDF806302C
:10C26000002A0CBF01220022D1B2084A13440A4618
:10C270009A72BDF806300133ADF80630BDF80630CD
:10C28000012BE2D900BF02B0704700BFE0330020AD
:10C29000B033002084B0019000238DF80F300023CC
:10C2A000ADF80C3031E0BDF80C301C4A13449B7AD9
:10C2B000002B25D0BDF80C30184A134400229A7286
:10C2C000BDF80C20164913469B0013449B000B44F9
:10C2D0000C331B68002B13D1BDF80C2010491346FA
:10C2E0009B0013449B000B4410331B78002B07D09A
:10C2F000019BBDF80C201A8001238DF80F3008E057
:10C30000BDF80C300133ADF80C30BDF80C30012B0A
:10C31000C9D99DF80F30184604B07047E0330020AB
:10C32000B033002008B5084B05221A70074B0222D3
:10C330009A80064B1B68194600230122044801F02D
:10C340007FF80346184608BDE0330020D8330020AC
:10C35000E82A002000B583B0164B5B88ADF80230A8
:10C36000BDF80220144913469B0013449B000B4464
:10C370000C331B68002B14D10E4B04221A70BDF82D
:10C3800002200D4913469B0013449B000B440433C9
:10C390001B68194600230122084801F051F801905A
:10C3A00002E0FFF7BFFF0190019B184603B05DF864
:10C3B00004FB00BFE0330020B0330020E82A002057
:10C3C00000B587B0114B5B680593114B1A68104B91
:10C3D0009B889B0013440493059B5B880333ADF853
:10C3E0000E300A4B03221A700499084B5A68BDF8A4
:10C3F0000E309800002300930346064800F03EFFED
:10C400000346184607B05DF804FB00BFE033002088
:10C41000D8330020E82A002000B583B00A4B5B889F
:10C420000A491846FFF7F0FA0346002B03D0FFF73E
:10C43000C7FF019002E0FFF78DFF0190019B1846B6
:10C4400003B05DF804FB00BFE0330020E4330020BC
:10C4500008B50A4B06221A70084B5B881946084A31
:10C460000B469B000B449B00134404331B68184687
:10C47000FFF71AFA0346184608BD00BFE033002054
:10C48000B033002008B5054B07221A70034B002279
:10C490005A60FFF7F1F90346184608BDE033002063
:10C4A00008B50D48FFF7F6FE034683F00103DBB243
:10C4B000002B0BD0094B00221A70084B00225A8027
:10C4C000064B00225A6041F61D5302E0FFF7A4FF1D
:10C4D0000346184608BD00BFE2330020E0330020C9
:10C4E00082B0094B5B680193019B5B880333ADF815
:10C4F0000230064B9A88BDF8023013449AB2034BBF
:10C500009A8000BF02B07047E0330020D83300208B
:10C5100082B0184B1B680193174B5B881946174A6A
:10C520000B469B000B449B00134404331B68114AC9
:10C530001360114B5B881946104A0B469B000B4455
:10C540009B0013440433019A1A600B4B5B88194615
:10C55000084B9888094A0B469B000B449B001344E8
:10C56000083302461A80034B02229A8000BF02B0B1
:10C57000704700BFD8330020E0330020B0330020E4
:10C5800008B51A4B1B78072B2CD801A252F823F0C0
:10C59000B1C50200E5C50200E5C50200BDC5020047
:10C5A000C9C50200D5C50200D5C50200DDC502001F
:10C5B000FFF73AFE0D4B01221A7014E0FFF790FFCF
:10C5C0000A4B02221A700EE0FFF7A2FF074B062269
:10C5D0001A7008E0054B07221A7004E0034B012291
:10C5E0001A7000E000BF00BF08BD00BFE0330020AC
:10C5F00000B587B00190009148F20E630593019B4E
:10C60000002B05D0634B00225A604FF40643BCE078
:10C61000009B1B79032B00F2AB8001A252F823F0A0
:10C6200031C602003FC60200CDC60200EDC60200C0
:10C63000009B01221A71FFF71FF905909BE0002370
:10C640008DF813300023ADF810302BE0BDF810202A
:10C65000514913469B0013449B000B441B78022B4B
:10C660001BD1BDF810204C4913469B0013449B007E
:10C670000B4400221A7001238DF81330BDF81020EE
:10C68000454913469B0013449B000B4404331B682D
:10C690001846FFF709F9059008E0BDF8103001339E
:10C6A000ADF81030BDF81030012BCFD99DF8133004
:10C6B00083F00103DBB2002B5CD0364B01221A70F1
:10C6C000344B00225A6041F61D535EE0009B00226D
:10C6D0001A71324B02229A80304B1B681946002394
:10C6E00001222F4800F0ACFE059044E0009B0022A0
:10C6F0001A712A4B1B681846FFF7D6F80590294B8C
:10C700005B88ADF80E30254B1B680293BDF80E20F8
:10C71000214913469B0013449B000B4404331B68C0
:10C720001E4A1360BDF80E201B4913469B0013449C
:10C730009B000B440433029A1A60BDF80E20174B7D
:10C740009888154913469B0013449B000B440833FB
:10C7500002461A80114B02229A80BDF80E200E4923
:10C7600013469B0013449B000B4400221A7002E006
:10C7700000BF00E000BF059B002B05D0054B002249
:10C780005A6048F20D6300E00023184607B05DF8D8
:10C7900004FB00BFF0320020B0330020D83300206B
:10C7A000E82A0020E033002000B587B00190009116
:10C7B000009B9B8A1A4613469B0013449B003B4AEE
:10C7C00013440493019B002B06D000990498FFF7B3
:10C7D00035F84FF4064364E0049B5A68049B1B89B8
:10C7E0009B0013440393009B9B7D062B4DD801A215
:10C7F00052F823F039C802005DC8020045C80200A3
:10C8000051C8020011C8020069C8020083C80200B2
:10C81000274B00225A60009B9B69254A13602549DB
:10C820002348FFF741F9034683F00103DBB2002BF5
:10C8300002D048F2096334E003990098FFF7E2FB65
:10C84000059026E003990098FFF7FAFB059020E099
:10C8500003990098FFF7C4FC05901AE0039900982B
:10C86000FFF716FC059014E0009B06229A75104B0A
:10C870005A68104B1B8819461046FFF731FC05908B
:10C8800007E041F61D53059303E048F20E6305935C
:10C8900000BF059B002B03D000990498FEF7CEFF44
:10C8A000059B184607B05DF804FB00BFB0330020BD
:10C8B000F83300200434002000B585B001900091C9
:10C8C000019B002B02D04FF4064326E0009B1B790E
:10C8D000012B0BD0022B16D0002B18D1009B02226B
:10C8E0001A710098FFF728FC039015E00098FFF7F5
:10C8F00053FC0390039B48F2096293420BD141F62B
:10C900001D53039307E041F61D53039304E048F2DF
:10C910000E63039300E000BF039B184605B05DF86B
:10C9200004FB000000B585B00190019B002B02D0F4
:10C930004FF406433DE0214B1B7B002B03D01F4BE4
:10C9400000221A7301E0FFF71BFE1C4B1B78013B12
:10C95000062B29D801A252F823F000BF79C90200A2
:10C9600081C9020089C9020091C90200A9C9020057
:10C9700099C90200A1C90200FFF792FD039017E0D8
:10C98000FFF74AFD039013E0FFF71AFD03900FE055
:10C99000FFF7E0FC03900BE0FFF75AFD039007E080
:10C9A000FFF770FD039003E048F20E63039300BFAE
:10C9B000039B184605B05DF804FB00BFE033002080
:10C9C00000B589B001903B4B1B68002B05D13A485C
:10C9D000FFF7CAF90246374B1A60364B1B681B78C3
:10C9E000013B052B2BD801A252F823F005CA020007
:10C9F00015CA020015CA020025CA020025CA020093
:10CA000035CA02002B4B1B6819460198FFF7F0FD51
:10CA1000019018E0274B1B6819460198FFF7C4FEE8
:10CA2000019010E0234B1B6819460198FFF744FF63
:10CA3000019008E00198FFF775FF019003E048F2CC
:10CA40000E63019300BF019B002B2BD003AB002290
:10CA50001A605A609A60DA601A61019B41F61D52B1
:10CA6000934201D0019B00E000230493114B1B680B
:10CA700003AA11461846FEF7FBFC03AB1846FEF767
:10CA8000D9FC0C4B00221A60002301930A48FFF7DF
:10CA90007BF9FFF787F9034683F00103DBB2002B34
:10CAA00002D190E700BF00E000BF00BF09B05DF811
:10CAB00004FB00BF083400200C34002008B501211D
:10CAC0000548FDF7CBFC0346002B02D10020FFF701
:10CAD00077FF00BF08BD00BFF832002000B583B06B
