:020000022000DC
:1070000000000420757302005D7302005F730200CC
:1070100061730200637302006573020000000000E8
:107020000000000000000000000000006773020084
:1070300069730200000000006B7302006D730200B0
:10704000019502006F730200FD9902006F73020048
:107050006F7302006F730200519802006F73020099
:107060006F7302006F7302006F7302006F73020090
:107070006F7302006F7302006F7302006F73020080
:107080006F730200618702006F7302006F7302006A
:107090006F7302006F73020059B702006F73020032
:1070A0006F7302006F7302006F7302006F73020050
:1070B0006F7302006F730200000000000000000008
:1070C0006F7302006F7302006F7302006F73020030
:1070D0006F7302006F7302006F7302006F73020020
:1070E0006F7302006F7302006F73020000000000F4
:1070F000000000006F730200000000006F730200C8
:10710000000000000000000000000000000000007F
:10711000000000000000000000000000000000006F
:10712000000000000000000000000000000000005F
:10713000000000000000000000000000000000004F
:10714000000000000000000000000000000000003F
:10715000000000000000000000000000000000002F
:10716000000000000000000000000000000000001F
:10717000000000000000000000000000000000000F
:1071800000000000000000000000000000000000FF
:1071900000000000000000000000000000000000EF
:1071A00000000000000000000000000000000000DF
:1071B00000000000000000000000000000000000CF
:1071C00000000000000000000000000000000000BF
:1071D00000000000000000000000000000000000AF
:1071E000000000000000000000000000000000009F
:1071F000000000000000000000000000000000008F
:10720000354936480A1A02D0072291438D4634493F
:1072100034480A1A06D00722914381F309880222D2
:1072200082F3148830483149314A00F044F831483B
:107230003149324A00F03FF831483249324A00F0D1
:107240003AF832483249334A00F035F83248334987
:10725000334A00F030F833483349344A00F02BF811
:1072600033483449344A00F026F83448344900227F
:1072700000F02CF833483449002200F027F8334856
:107280003349091A082902DB002202604160314AB1
:1072900090471F481F49884205D00268043003B454
:1072A000904703BCF7E700208646EC46002000210B
:1072B000294A9047FEE7884207D0521A05D0037842
:1072C00001300B700131013AF9D17047884202D088
:1072D00002700130FAE770470000042000E003204C
:1072E00000000420000004204CCA020000230020FB
:1072F00058230020D0730200D0730200C2BB0200EA
:107300004CCA02000023002000230020B0BC020071
:10731000B0BC0200B0BC0200B0BC0200B0BC0200B5
:10732000B0BC0200B0BC0200B0BC02004CCA0200FB
:10733000A4CA02005823002058230020582300200C
:10734000702C0020702C0020702C0020702C00204D
:10735000704C00209D730200A9A50200FEE7FEE725
:10736000FEE7FEE7FEE7FEE7FEE7FEE7FEE7FEE7F5
:1073700000F002B8FFF7FCBF0F484FF00701884349
:1073800085460E4880470E48016841F4700101604F
:10739000BFF34F8FBFF36F8FFFF732BF09480A4922
:1073A0000A4A884207D0521A05D0037801300B7080
:1073B0000131013AF9D170470000042051900200D8
:1073C00088ED00E0B0BC0200002300200023002074
:1073D000F0B595B01C46164608460D4601F055FD21
:1073E0001A9B0D93CDE9086400242346082205A9C1
:1073F00028460A948DF82C400C9401F063FD079BFD
:107400000293069B03939DF814308DF8114003F00E
:107410000302012A1DD1BDF81440059EC3F3C20327
:10742000C4F383148DF81030A20008230EA9284657
:1074300001F048FDC6F3952608AB0093224602AB47
:107440000EA9304600F0D6FB284601F022FD15B00B
:10745000F0BD022AF8D1BDF81640C3F3C203A40957
:107460008DF810300827082C264628BF08263B46F2
:1074700032460EA9284601F025FDA41B08AB02AA3E
:1074800031460EA8374400F019FC002CEBD1DBE7A5
:10749000014B01221A7070479923002070470000A9
:1074A00070B50E4D06460FCD88B06C460FC495E8FA
:1074B0000F00002E84E80F004FF00603084A094829
:1074C000009308BF0022694601F0B4FF08B100F044
:1074D000E7FD054B1E7008B070BD00BFB0BC0200D8
:1074E00091740200002300205823002007B5044BAC
:1074F0000093044A4023FFF76BFF03B05DF804FBE1
:10750000097502005923002038B50D4B0D4D0020A0
:1075100018700D4804782D5DD2B21C4665B1043058
:1075200002F004FF08B100F0BBFD084B1A7812B15D
:107530002378002BFBD038BD0C3002F0ABFCF1E718
:1075400099230020502A00200023002058230020E7
:1075500008B50848084A0378D35C3BB1043002F010
:107560007DFE0020BDE80840FFF79ABF0C3002F016
:107570003BFCF6E700230020502A00200120FFF703
:107580008FBF000008B5FFF7F9FF0421034800F0A2
:107590009FFA034B01225A7108BD00BFA0BC020034
:1075A00014230020037813F0040216D003F0030321
:1075B000012B03D0022B09D0012070470A680088F4
:1075C0000232C0F3831002440A60F5E70B68428878
:1075D000023303EB92130B60EEE710467047000096
:1075E0002DE9F04F87B000230446851C0DF10700FC
:1075F0000F4690468DF8073000F046FF4548066874
:107600003E60D0E90132134401339B1B824600F2F5
:107610001C4600F5836900F21447AB421BD30022DD
:10762000B8F1000F70D0052363F3070264F38912E9
:10763000DAF80010DAF808309DF807000B40033341
:107640000D444AF82320CAF8005000F041FF012001
:1076500007B0BDE8F08F0121304601F05AF94846E5
:1076600001F06DF9384601F06AF9DAF80400DAF849
:1076700008B0029000EA0B0003300AEB800002A978
:10768000FFF790FF029B50BB0BEA03020AEB82025A
:1076900003F1020CD2680392013303EA0B0B0AEBED
:1076A0008B0B02F00302012ACDF808C0DBF80C10A6
:1076B00022D0022A16D08346384601F043F910B191
:1076C000029BCAF804305946304601F022F9DAE943
:1076D00001231344DAF8002001339B1A9DE70BEADB
:1076E0000300C9E7BDF80E309B0903334FEA114B85
:1076F0000CEB93030293DFE7BDF80C30C3F3831365
:107700004FEA114B6344F5E7062363F3070264F382
:107710009F528DE76C2400200B4B0C48FF2210B5C4
:107720009A600022C3F81824C3E90022C3F8142485
:1077300083F8202401F062FB044610B9044801F0EC
:1077400009FC204610BD00BF6C24002014BC0200C0
:10775000F0BC020030B50A4C71B10A4A0A49121B4A
:10776000D20800239A4201D1002030BD31F82350C5
:10777000854202D00133F5E7034654F83300F4E7BD
:1077800028BC0200A0BC020000230020094B0139E4
:1077900003EBC000032909D8DFE801F00A02040660
:1077A0000420704700797047407970470020704787
:1077B0000220704728BC0200034BD3E90030C31AF3
:1077C00058425841704700BF6C2400202DE9F04317
:1077D00087B0FFF7F1FF0646002840F0FB807E4DA2
:1077E000C5F81804BFF34F8F6868AC68029020405A
:1077F000033005EB800002A9FFF7D4FE029B18B10D
:10780000D5F81824002A5FD004EA0302991C01333A
:1078100005EB8202234005EB8303D268DB68049307
:1078200002F00303022B0392029162D1BDF80E30E5
:107830006A484FEA9318B8F1500FC14628BF4FF07D
:10784000500969F38F1309F10801ADF80E3001F00A
:10785000EDFA0746002800F0A88001F016FB03A906
:1078600000230822384601F023FB029924EA01068E
:107870000136B600B14535D95FFA89F97EB3F6B263
:10788000A9EB0609214003315FFA89F4B146544E51
:1078900005EB810108234A46384601F009FB36B161
:1078A00009F1080322463146384601F001FB029BEC
:1078B00008F1030803EB98030293D5F81834002B62
:1078C0004BD1D5F810445BE02A689A4204D86A602C
:1078D000304607B0BDE8F08304EA030088E740497A
:1078E0003446D7E72140033108234A4605EB81019E
:1078F000DAE7012B59D1BDF80C303848C3F38311B6
:10790000062928BF062161F3891302318900ADF8E9
:107910000C3001F08BFA0746002846D001F0B5FA8A
:107920000023082203A9384601F0C2FA0026BDF858
:107930000C20C2F38312B300964203F10803BCD2B9
:1079400002994A1C21400331029205EB8101042275
:10795000384601F0ADFA0136E9E7384601F099FA08
:10796000FFF72AFF80F00100C6B2B1E7E3685B7958
:1079700023B1236839461B6820469847E3681C6892
:10798000002CF3D1384601F084FA0DF107008DF890
:10799000074000F079FDD5F818340BB9029B6B60F5
:1079A0009DF8070000F094FDDAE7D5F8104454B9CB
:1079B0000C4B0D480D49C01AC008000440F00200ED
:1079C00000F06EF8CCE7236820469B689847E36890
:1079D0001C68ECE700267BE76C24002014BC020046
:1079E0007824002028BC020050BC0200FCBC02002D
:1079F0002DE9F74F284C80460F46924601A90122F7
:107A000018469B46D4F80890FFF7EAFD80B3019D25
:107A10000026A91C5E4506EB010233D100211F4858
:107A200000F04CFF80F310006A1C02EA090204EB2C
:107A30008202000405EA0903033340EA1840D060DB
:107A400014F8232068F3C50204F8232034F8232017
:107A500066F3891224F8232054F8232067F39F2229
:107A600044F8232002F0F80242F0010204F8232037
:107A700094F820341BB1FFF7A9FE0028FBD103B016
:107A8000BDE8F08F09EA020204EB82025AF82630C0
:107A9000D3600136BEE700BF6C2400208828002098
:107AA00000231A46FFF7A4BF07B50123019201AADC
:107AB000FFF79EFF03B05DF804FB07B5CDE9002397
:107AC00002236A46FFF794FF03B05DF804FB000051
:107AD00030B50F49D1F81024002314463CB9C468CE
:107AE000237152B9C1F810042260184630BDE46811
:107AF00025799D4206D02468F0E7D268116821609C
:107B00001060F2E701330A2BE7D14FF0FF33ECE7C7
:107B10006C240020094A38B50123D2F8104482F8B9
:107B200020341D4604B938BDE3685D7123682046E2
:107B30005B689847E3681C68F4E700BF6C2400208A
:107B4000037A052B10B50C460FD0437A23B1084AAF
:107B50000849204600F059FF0749204600F055FF2C
:107B60002046BDE8104000F045BF002AF8D0F3E7FA
:107B700047BD02004CBD02006CBD0200C38873B556
:107B800004460D4633B1144A00921449144A28465B
:107B900000F03BFF217A05291CD0637A4BB1A08805
:107BA000FFF7F4FD0F4B104953F82020284600F052
:107BB0002CFF227A0D4BA08853F822600021FFF79A
:107BC000C9FD0B4903463246284602B0BDE8704065
:107BD00000F01BBF02B070BD47BD020057BD0200E0
:107BE0004FBD020014BD02004CBD02007CBD02006E
:107BF0006FBD02002DE9F04385B01F460C9D0023A8
:107C000006460C46904695F80C902B73294638464C
:107C1000FFF7B4FFB8F1060F09D8DFE808F0041247
:107C2000181F283340003146284600F0EEFE00229F
:107C300029463846FFF784FF85F80C9005B0BDE86B
:107C4000F08322683146284600F0DFFEEFE7D4E9F2
:107C500000233146284600F0D8FEE8E7A3680093E9
:107C60003146D4E90023284600F0CFFEDFE7E36881
:107C70000193A36800933146D4E90023284600F01D
:107C8000C4FED4E723690293E3680193A3680093D9
:107C90003146D4E90023284600F0B7FEC7E7636900
:107CA000039323690293E3680193A3680093314629
:107CB000D4E90023284600F0A8FEB8E708292DE9FA
:107CC000F84F80460E4617461C463AD8002593F8D2
:107CD0000C901D7319461046FFF750FFDFF884A083
:107CE000DFF884B0AE422ED918F805205946204658
:107CF00000F08BFE0135082DF4D11849DFF86CB087
:107D0000204600F082FE4FF0000A564520D918F8B0
:107D10000A507E2D03D8284603F0C2FE00B92E2556
:107D20002A465946204600F070FE0AF1010ABAF1CF
:107D3000080FEAD1012221463846FFF701FF84F8F7
:107D40000C90BDE8F88F5146204600F05EFED1E76A
:107D50000349204600F059FEE7E700BF42BD02009C
:107D600040BD02003EBD020038BD020044BD02001D
:107D7000C30710B507D4F0234008054A145C23401C
:107D80001943115410BD0901C9B20F23F4E700BF14
:107D90005829002030B5094B1C78094B196800237D
:107DA0009C4202DC0022104630BD11F8335085425F
:107DB00001EBC302F7D00133F2E700BF282900200E
:107DC0007829002070B504460D46FFF7E3FF30B177
:107DD000436823B129462046BDE87040184770BD6E
:107DE000034B044819680022490800F05EBA00BF3E
:107DF0002C2900203029002010B5C0B2FFF7CAFF9F
:107E00000446007801F016FD63785A1E5342534130
:107E1000834208D1044BD3E90023134303D1BDE8C7
:107E20001040FFF7DDBF10BD5029002037B54308D3
:107E3000364AD35CC2074CBF1B0903F00F0304464C
:107E40000D46042B36D8DFE803F003262D393D001C
:107E500081B30121FFF78CFF00230DF107008DF89E
:107E6000073000F011FB0122A4F12003C4F120002F
:107E7000274902FA03F322FA00F0034302FA04F45A
:107E8000D1E9002014430343C1E900439DF80700F2
:107E900000F01EFB0EE0002918BF02212046FFF76C
:107EA00067FF07E041B10321FFF762FF0121204690
:107EB000FFF788FF03B030BD0121EFE70029F9D1BA
:107EC0000421EBE709B10321E8E7FFF751FF294659
:107ED0002046FFF777FF0DF107008DF8075000F0FF
:107EE000D3FA0122A4F12003C4F12000084902FAC8
:107EF00003F322FA00F0034302FA04F4D1E900206C
:107F000022EA040420EA0303BEE700BF5829002048
:107F1000502900202DE9F041124E134F00243378F0
:107F2000A34208DC114BD3E90023134318D0BDE86A
:107F3000F041FFF755BF3D6805EBC40815F8340064
:107F400001F078FC98F801104B1E594259410A1A69
:107F5000514215F834005141FFF768FF0134DEE764
:107F6000BDE8F08128290020782900205029002030
:107F7000092AF7B505460C4616463DD901F068FBBF
:107F8000D8B11E4B1E481D601E4B1F4F1C701F4B4F
:107F9000002120221E6003F0B1FD1D4B00200021B6
:107FA000C3E90001013CE4B20326FF2C0BD1194ABE
:107FB0001948002100F06EF903E001F011FB0028E0
:107FC000DFD003B0F0BD20B29DF806308DF804601C
:107FD00005EBC00223F007038DF8063001A9937862
:107FE00015F830008DF805303A4601F03BFB013CB6
:107FF000E4B20028D9D0E4E70720E2E7782900209E
:108000005829002028290020F97D02002C29002071
:1080100050290020157F0200DCBD020070B5084D1C
:10802000084E00242B789C4201D3002070BD336899
:10803000012113F8340001F091FB0134F2E700BF95
:10804000282900207829002073B5114D114E0024F5
:108050002B789C4214D300230DF107008DF80730D4
:1080600000F012FA0C4B00210020C3E900019DF83A
:10807000070000F02DFA094800F02FF902B070BD9A
:10808000336813F8340001F0B3FB0134E0E700BFBC
:10809000282900207829002050290020302900209C
:1080A0001FB50021039001AA44F20100CDE901119E
:1080B00000F004F805B05DF804FB000010B572B6DE
:1080C000FFF728FDFFF782FB0028FBD1104B114C76
:1080D0001149E41AE408240444F00100FFF7E0FC2D
:1080E0000E4B1B68DB0700D500BE0D4944F00200B3
:1080F000FFF7D6FCBFF34F8F0A490B4BCA6802F457
:10810000E0621343CB60BFF34F8F00BFFDE700BFBA
:1081100028BC020050BC0200EBBD0200F0ED00E004
:10812000F7BD020000ED00E00400FA05D0E90223EB
:10813000D1E90201994208BF90422CBF01200020E2
:10814000704700002DE900480C4800F0F4FA0C4B91
:10815000D3E9002312EB000B43F1000C094BD3E9E8
:1081600000239C4508BF93455846614603D21BF146
:1081700080704CF10001BDE8008800BF1C23002086
:1081800080290020F829002037B505460C460A480A
:1081900001A900F002FB60B10570446001A9064826
:1081A00000F025FB18B1054800F0CAFA002003B022
:1081B00030BD0420FBE700BFE42900201C23002081
:1081C000194B1B782DE9304804461BB90025284679
:1081D000BDE830880028F9D0037F03F0FF05002BAD
:1081E000F4D0FFF7AFFFD4E90223994208BF9042D1
:1081F00015D3236903B92377D4E90530984721695A
:108200000029E3D0237F03F0FF05002BDED0D4E963
:10821000022312EB010B43F1000CC4E902BC21461E
:10822000024800F0B6FED2E78829002008BE02000E
:1082300013B5114B114918680190082358221048B2
:1082400000F098FA044698B90E4A0F4801A900F0C8
:1082500063F9044660B901210B4800F04FFA01238D
:108260000A4A0948194600F0B5F9094B01221A706B
:10827000204602B010BD00BF04BE02008C290020C1
:10828000E4290020F58202001C230020FFFF7F006C
:10829000882900203AB103685A614A1E514251416F
:1082A0001961002070470720704738B5037F0446E6
:1082B0000D4683B98261FFF745FF421941F1000382
:1082C000C4E90223236903B1256121460020BDE8EA
:1082D0003840FFF759BF002038BD0023014603771F
:1082E0000120FFF751BF0000014800F024BA00BF91
:1082F0001C2300202DE9F04F85B0074600F006FA58
:1083000040B1594AD2E9003113F1807341F10001C3
:10831000C2E900310021384600F007FA38B1534C69
:10832000236823B12068FFF74BFF0023236001215E
:10833000384600F0FAF920B1FFF704FF4C4BC3E9CF
:10834000000103A94B48494D4B4C4C4E00F05FFADD
:10835000002845D1DFF820A1444CDFF828B1504671
:1083600000F02DFE2368002875D07BB12368D0E98A
:108370000201D3E90223994208BF90422DD223681B
:108380001B7F1BB12168504600F003FE504600F0F1
:1083900010FED0E9026305460193FFF7D3FE019B6F
:1083A000B6EB000863EB0109B8F1010F79F10003A6
:1083B00044DB334EB0453FD9FFF796FF82194FF4A7
:1083C00096030021584600F025F900283ED1236885
:1083D00013B9384600F0F6F8256005B0BDE8F08F17
:1083E0000378012B1DD05BB1022B11D14FF0000A95
:1083F000204600F0DEFD002833D080F81CA0F7E70F
:1084000041680B7F23B901230B77204600F0C1FDA3
:1084100003A9184800F026FA03A9164800F0F7F956
:1084200096E741682B68994202D100232B60EFE761
:10843000204600F0C7FDEBE7AA68C0E700215846D8
:1084400000F069F92846FFF7BBFE01E00D28F9D0DE
:108450000023236083E7002BBFD1384600F0B6F835
:10846000BBE701233370D3E780290020002A0020D6
:10847000F8290020E429002008BE020088290020F5
:10848000FFFFB4001C23002070B5EFF3108672B616
:108490000C4A946801239CB993600B4B0B4DD3F8A5
:1084A000801029401160C3F88050D3F884105160C7
:1084B0004FF0FF32C3F88420047006B962B670BD75
:1084C0000370FAE7042A002000E100E0FC06FFBD8B
:1084D000084B9A6810B55AB150B9EFF3108172B6D3
:1084E000054A1C6814605C685460986001B962B603
:1084F00010BD00BF042A002000E100E0435882B014
:108500003BB10023435043580193019B012002B02B
:1085100070471846FBE70000F8B5224B4679224D1C
:1085200043F82620214A224BF7009B1AEA19DB0860
:1085300012791B0432B143F002001E49FFF7B0FA72
:108540000820F8BD02680C88C2F8084590F904209C
:108550008978002AA8BF02F1604CD4B2BABF04F0F7
:108560000F0EDFF858C00CF5614C4FEA4111C9B24B
:10857000B4BF0CF80E108CF8001352090121DFF87B
:1085800040C004F01F042F4401FA04F44CF82240C8
:10859000397145F83600084943F00300FFF780FAC7
:1085A0000020CEE7182A0020102A002028BC020054
:1085B00060BC020026BE020048BE020014ED00E0CE
:1085C00000E100E0036801221A607047036801229D
:1085D0005A60704773B501F15005AD000068ADB247
:1085E0004FF480348C400026C0F80843C0F848435C
:1085F000465101F5A8714559019522F07F42019D30
:1086000040F82120C0F844430BB1C0F8044302B045
:1086100070BD00002DE9F74F884699464FF480362B
:10862000036808F150058E404FEA880AAD00C3F890
:108630004863ADB2C3F80863074603EB0A00D3F8FA
:1086400004154FF0000B22F07F44D0F84025C0F80D
:10865000401543F805B05B590093009B531A23F073
:108660007F43012B0BD1244B4FF4806043F0010377
:1086700098473B6843F805B05B590193019B386804
:10868000D0F80455C0F84463631B23F07F43012BEB
:108690001AD108F5A878184B013440F8284043F067
:1086A00001034FF4806098473B68D3F804359D423E
:1086B00008D13B680020C3F84463C3F8046303B0E7
:1086C000BDE8F08F0D20FAE78244C9F1FF19CAF81E
:1086D0004045D0F80435E21A013A22F07F4209F50C
:1086E0007F499145EED3002AE3D10134CAF84045D1
:1086F000D0F804259342DBE720BE02000368022283
:10870000C3F8442309B1C3F8042370474FF48271BE
:108710000068FFF7F3BE4FF4803303FA01F10368FA
:10872000C3F84813C3F8081370475031890089B261
:108730000068FFF7E3BE0368D3F804057047000044
:1087400090F9043001215A0903F01F0301FA03F3E1
:108750004032024941F82230704700BF00E100E09A
:10876000024B034A1B681068184700BF182A0020F4
:10877000102A002010B561B1B2FBF3F403FB1424FE
:10878000A4B244B9C0E9001484608281C381204648
:1087900010BD0E20FCE70920FAE737B550E8013F8D
:1087A0009DB2C48925448489A54228BF2D1B048914
:1087B000A54202BFBFF32F8F002207E0C5EA0305E1
:1087C00040E80154002CE9D14FF001028DF803205C
:1087D0000193019B9DF803200B6002F0FF0322B17F
:1087E0000B880068184403B030BD1846FBE70A88C0
:1087F0004B889A4209D150E8012FC2EA024240E870
:108800000123002BF7D1012070470020704737B5B6
:1088100050E8023F1FFAA3F5C488A54202BFBFF388
:108820002F8F00220DE0C48925448489A54228BFEA
:108830002D1BC3EA054540E80254002CE8D14FF057
:1088400001028DF803200193019B9DF803200B602A
:1088500002F0FF0322B14B880068184403B030BD1A
:108860001846FBE70A884B889A4209D150E8022F44
:10887000C2EA224240E80223002BF7D101207047D0
:108880000020704701F01F024B090121914000EBCD
:10889000830000F01DB801F01F0301229A404B092C
:1088A00000EB8300D14300F029B84B0901F01F0110
:1088B00050F82300C84000F00100704750E8002F36
:1088C0000B4640E8003C9CF0000FF7D11046704783
:1088D00050E8003F43EA010240E8002C9CF0000F02
:1088E000F6D11046704750E8002F02EA010340E835
:1088F000003C9CF0000FF6D11046704750E8003F56
:1089000003EA010240E8002C9CF0000FF6D110466B
:10891000704750E8003F03EB010240E8002C9CF058
:10892000000FF6D11046704750E8003FA3EB01025C
:1089300040E8002C9CF0000FF6D110467047012152
:10894000FFF7C6BF0021FFF7CEBF10B590B1D0E949
:10895000012301689B1ADBB20A60013BDBB2FF2BEB
:10896000026802D10020107110BD11684C1C146007
:108970000B70F2E70E20F7E737B5054600240DF13E
:1089800007008DF80740FFF77FFD2A686B681168C4
:1089900099420ED9481E106011F8014CEB68298AE3
:1089A00001FB0434AB6811791B1ADBB2994238BF62
:1089B00013719DF80700FFF78BFD204603B030BD13
:1089C00037B5054600230DF107000C468DF807303A
:1089D000FFF75AFD2A681368591C1160E968641A88
:1089E000298AB4FBF1F41C709DF80700FFF770FDB5
:1089F00003B030BD826810B504462AB143690168EE
:108A0000006998470023A36010BD0EB403B5039915
:108A100021B104AB01AA019300F074F802B05DF833
:108A200004EB03B070470A2938B504460D4602D15D
:108A30000D21FFF7F8FFA3682268591CA160D554E7
:108A4000D4E901329A4204D32046BDE83840FFF70A
:108A5000D1BF38BD2DE9F84F9946DDE90A431746E5
:108A6000824688460A460126BA420FD24E4538BF92
:108A70004E4613F0010B01D164B900240125B9F170
:108A8000010F1AD909F1FF397D43F8E7B2FBF7F27C
:108A90000136E9E79B070ED5B9F1000F0CBF302571
:108AA0002025A642EAD2013C29465046FFF7BBFFEB
:108AB000002CF6D1E1E72025F3E7B8FBF5F39F4260
:108AC000E2D9DFF83C90B8FBF5F3504619F80310F3
:108AD00005FB1388FFF7A7FFB5FBF7F3BD4207D2ED
:108AE000BBF1000F02D00CB1A64203D3BDE8F88F52
:108AF0001D46E8E720215046013CFFF794FFF2E7CE
:108B00005ABE02002DE9F74F054617468846002950
:108B100000F0308118F8011B49B92B7B002B00F0C5
:108B20002981284603B0BDE8F04FFFF763BF252930
:108B300040F0C080002698F800302D2B424608F106
:108B4000010823D0302B24D02B2B25D000242A2B16
:108B500002F1010123D13B681A1D1B683A601C44D5
:108B60000A4613782E2B26D101324FF00009104609
:108B700010F8011BA1F1300CBCF1090F1DD80A231C
:108B800003FB0913A3F130090246F0E746F00106A2
:108B9000D1E746F00206CEE746F00406CBE711F82F
:108BA000013CA3F130000928DBD80A2202FB04347F
:108BB000303C0A46CBE74FF0000912F8011B01F0E8
:108BC000FB0068289046F8D069290ED04AD8582969
:108BD00064D006D825296DD098F80030002B99D1A3
:108BE0009BE7632962D06429F6D13A68D2F800A0E5
:108BF000111D8AEAEA723960A2EBEA724FF0010BAA
:108C0000092A5BDCCB4538BFCB462CB1BAF1000F4B
:108C100001DB720700D5013CB30702D5B9F1000FA3
:108C200004D0F00702D4002C4ED10024BAF1000F7A
:108C300052DACAF1000A2D212846FFF7F4FE06F0A9
:108C40000302022A05D1B9F1000F02D1002C47D14D
:108C50000024CDE900464B460A2251462846FFF73C
:108C6000F9FEB9E773294CD014D87029B4D13B6808
:108C70001A1D3A60302128461C68FFF7D4FE78217F
:108C80002846FFF7D0FE00220823CDE90032214616
:108C90001022E3E775292BD078299DD139680A1D68
:108CA0003A60CDE900464B46102228E03B681A1D89
:108CB00019783A602846FFF7B6FE8DE70A230BF1D4
:108CC000010BB2FBF3F29BE7A345AFD2202128466C
:108CD000013CFFF7A8FEA6E77107B0D52B21ABE753
:108CE000A345B6D230212846013CFFF79CFEADE7F4
:108CF0003968CDE900460A1D3A604B460A220968E8
:108D0000ACE73B681A1D3A6016F00106D3F800A0E4
:108D100020D1BAF1000F03D0504602F022FF0646E0
:108D2000B44200D9C4B90AF1FF3A1EE02846013620
:108D3000FFF779FE1AF806100029F7D1A642BFF412
:108D40004BAF002C3FF448AF20212846013CFFF7F1
:108D50006AFEF3E70026EDE720212846013CFFF7F5
:108D600062FEDDE72846FFF75EFE1AF8011F0029C4
:108D7000F8D131E703B0BDE8F08F2DE9F047B0F846
:108D800006904479D2F800A09DF8208009FB04F4F5
:108D9000043C06460AEB0300A0420F4688BFA4EB42
:108DA000030A191DC2F800A0B1FBF9F509FB151162
:108DB0004DB9A9EB0104544528BF5446BAF1000F40
:108DC00004D1BDE8F0873668013DF1E704317B1935
:108DD00070182246B8F1000F0ED001461846AAEBD3
:108DE000040A02F062FED145254436684C464FF035
:108DF000000128BF5446E1E71946F0E7FFF7A5BD9B
:108E0000F8B546790146721E0546002393422D6847
:108E100003D30024A64202D8F8BD0133F6E70F6859
:108E20002846FFF7CDFD01343946F3E72DE9F84335
:108E3000068ACD1C0746FFF79FFD043E35440446D5
:108E4000B5FBF6F5F0B14FF48073EDB28380C680C8
:108E5000013D076081464FF00008A84512D2384610
:108E6000FFF78AFD064648B163790133637108F163
:108E70000108C9F8000007608146EEE72046FFF7C9
:108E8000BFFF34462046BDE8F88301210430FFF7D8
:108E900040BD10B5012104460430FFF745FD10F038
:108EA000FF0F04D12046BDE81040FFF7A9BF10BD59
:108EB0001FB503920022009203AAFFF75EFF05B0E0
:108EC0005DF804FB1FB503920122009203AAFFF78D
:108ED00054FF05B05DF804FB41DF7047064B10B549
:108EE00000241C70054B1C60BFF35F8F04490548CC
:108EF00000F039F8204610BD242A0020282A00203E
:108F00006CBE02001C2A002007B500230DF10700EB
:108F10008DF80730FFF7B8FAF1EE103A23F09F030F
:108F2000E1EE103ABFF35F8F094B4022C3F8842172
:108F30009DF80700FFF7CCFA02F0F4FB20B1FFF731
:108F4000CBFF03B05DF804FB20BF40BF20BFF8E7B4
:108F500000E100E0836800225A609A60C3E90422BD
:108F6000DA601A6070470B684A684360934208BF32
:108F70000023016008BF43607047436843B1026843
:108F8000916852680B449342436004BF00234360DE
:108F9000704770B5446806460D46206818B1B3683E
:108FA0002946984718B923682B60256070BD24684E
:108FB000F3E74368186808B102681A6070474368AD
:108FC000186870474368186800B97047884203D131
:108FD00002681A600120704703460068F4E7000049
:108FE00010B50D49A1F59472914201D800200FE00F
:108FF0008B1ADB1003EBD3735B1002EBC30452F844
:109000003330834205D802D204F10802ECE76068ED
:1090100010BD2146E8E700BFC8BF020008B5FFF752
:10902000DFFF024B002808BF184608BD8ABE0200B9
:10903000054B1B68082B01BF044B1868B0FA80F081
:10904000400918BF002070473001001034010010A3
:1090500008B54FF080430022C3F80C21C3F810215B
:10906000C3F838254FF0805203F54043D2F804147A
:10907000C3F82015D2F80814C3F82415D2F80C143C
:10908000C3F82815D2F81014C3F82C15D2F814140C
:10909000C3F83015D2F81814C3F83415D2F81C14DC
:1090A000C3F84015D2F82014C3F84415D2F824149C
:1090B000C3F84815D2F82814C3F84C15D2F82C146C
:1090C000C3F85015D2F83014C3F85415D2F834143C
:1090D000C3F86015D2F83814C3F86415D2F83C14FC
:1090E000C3F86815D2F84014C3F86C15D2F84424BC
:1090F000C3F87025FFF79CFF10B1384B384A1A604F
:10910000FFF796FF18B1374BFB22C3F81825FFF77E
:109110008FFF48B13449354B0A681B6822F00F02B3
:1091200003F00F0313430B60FFF782FF18B1304BBE
:109130004FF400721A604FF08043D3F80024D20736
:1091400044BF6FF00102C3F800242A4AD2F88830E5
:1091500043F47003C2F88830BFF34F8FBFF36F8FB3
:109160004FF01023D3F80022002A03DBD3F8043297
:10917000002B2FDA204B0122C3F80425D3F800245A
:10918000002AFBD04FF010221221C2F80012D3F8AF
:109190000024002AFBD04FF010231222C3F804222F
:1091A000154B1A46D3F800140029FBD00021C3F850
:1091B0000415D2F80034002BFBD0BFF34F8F0D49BC
:1091C0000E4BCA6802F4E0621343CB60BFF34F8FCB
:1091D00000BFFDE70A4B0B4A1A6008BD8C560040E1
:1091E0004881030000F00040E40E004058020010E7
:1091F0004096024000ED00E000E001400400FA0566
:10920000242300200090D003074B1B5C1F2B86BF3C
:1092100003F01F0305494FF0A041012202FA03F3B6
:10922000C1F80C35704700BF82C302000003005034
:10923000074B1B5C1F2B86BF03F01F0305494FF034
:10924000A041012202FA03F3C1F80835704700BFBC
:1092500082C302000003005008B50020FFF7E8FFBA
:109260000120FFF7E5FF0220FFF7E2FF0320BDE842
:109270000840FFF7DDBFC20710B504460CD54FF01C
:10928000A0430322C3F83427C3F83827C3F83C2788
:10929000C3F84027FFF7E0FFA3070AD54FF0A0432C
:1092A0000C22C3F82C27C3F83027C3F86027C3F873
:1092B000642710BD38B5074C051E04F1080318BF1C
:1092C0001C4623682BB11A6822605B6828469847C1
:1092D000F7E738BD342A002020B9054B01225A7027
:1092E000FFF7E8BF012802D1014A9070F8E7704704
:1092F0002C2A002020B9034B01225A70FFF7DABF55
:10930000704700BF2C2A002038B50B4C237883B956
:109310000A486360A3602361E36000F0C7F8054674
:1093200002F000FA08B900F0CDF8012323702846B6
:1093300038BD8525FBE700BF2C2A0020D99202000A
:1093400037B50B4C00230DF107008DF80730FFF700
:109350009BF8E368013BE360E56815B900F0C4F8E9
:10936000A5709DF80700FFF7B3F803B030BD00BF4C
:109370002C2A0020012813B509D018B103281CD0CD
:1093800002B010BD0F4B0122C3F88020F8E70E4C4D
:1093900000230DF107008DF80730FFF775F82378EB
:1093A0000BB9FFF7B1FFE3689DF807000133E360F5
:1093B0000123A370FFF78CF8E2E700F083F8FFF7D2
:1093C000BFFFDDE700E100E02C2A00201FB5037895
:1093D0008DF800304368019383688DF80830C368C6
:1093E0000393054A054B684653F8213052F8211083
:1093F000984705B05DF804FB402A0020482A002069
:109400001FB503788DF800304368019383688DF8A9
:109410000830C3680393054A054B684653F821306A
:1094200052F82110984705B05DF804FB402A00204F
:10943000482A0020F0B5184B0778DFF86CE043F8B5
:109440002720164B16460A6943F827204B7F0EF853
:1094500007300C4684460FCC89B06D460FC594E8A2
:109460000F0085E80F001EF80730049753B1002E57
:109470000B4A694608BF32460CF1040000F00CFEAE
:1094800009B0F0BD002E074A694608BF32460CF10C
:109490000C0000F0D5FBF3E7482A0020402A00200A
:1094A000CD93020001940200502A0020044A13794F
:1094B00023B90121106091801846704785207047BC
:1094C000542A0020074B1A68D2075FBFC02283F8D6
:1094D000002301221A604FF080430122C3F81825AF
:1094E000704700BF00E100E0044B01221A604FF01A
:1094F0008042D2F81834DB03FBD470470C000040E4
:10950000154B07B51A687AB100221A601B680093E0
:10951000009B4FF080430122C3F808230F4B58797A
:1095200010B95A711B6898470D4B1A6882B1002216
:109530001A601B680193019B4FF080430222C3F81D
:109540000823064B1B68012003B05DF804EB1847A5
:1095500003B05DF804FB00BF00010040542A002066
:109560000401004000F1804000F5C040002382B0BB
:10957000036003680193019B02B0704703681F2BCF
:1095800083BF03F01F03036001484FF0A040704702
:109590000003005007B5019001A8FFF7EFFF019B02
:1095A00000EB8300D0F8002722F44032C0F80027F7
:1095B000D0F8003743EA0143C0F8003703B05DF844
:1095C00004FB0000054B4FF0FF32072843F8202032
:1095D00084BF1B1883F85820704700BF5C2A002006
:1095E00010B5174C94F86A3043BB04F130033021B6
:1095F000FF22013911F0FF0103F8012BF9D1C8B2A4
:10960000FFF7E0FF01310C29F9D1062200210D48B6
:1096100002F074FA0C4BC02283F8062340221A6031
:109620004FF4BE70FFF79EFF084B4FF00042C3F8A7
:109630000423012384F86A30002010BD0820FCE7D1
:109640005C2A0020C02A002000E100E00060004009
:10965000034B93F86A00003018BF0120704700BF29
:109660005C2A0020F7B53B4E3318054693F930309D
:10967000002B6CDA8B78C3F34003002B0BBF08245C
:1096800000240C200820844202D1042003B0F0BD45
:1096900056F82470013743D1701946F8242080F819
:1096A000304013B9331983F858508B785A0717D4C0
:1096B000D80737D501A80195FFF760FF019B00EBA4
:1096C0008300D0F8003723F00203C0F800372248A7
:1096D000EA0805F007070123BB40875C3B4383543E
:1096E00088780A7810F0020028D0A40004F18044A1
:1096F00004F5C0442D02D4F8103523F44F3323F47D
:109700004073C4F810351204D4F8103505F47C55B4
:1097100002F4403215431D43C4F810550020B5E74C
:109720000134B0E701A84A780195FFF727FF019BB4
:1097300003F5E073920040F82320C8E7083C344466
:1097400094F8605045EA821284F860209EE7082071
:109750009CE700BF5C2A0020C02A002073B5224C81
:109760002518064695F93020072A19DD224492F87B
:1097700058309B09032B0FD1019001A8FFF7FEFE83
:10978000019AD0F81035D340DB0707D402213046C8
:10979000FFF700FF02B070BD012BF7D00321F6E701
:1097A000D3B2072BF6D8930003F1804303F5C043EF
:1097B000D3F8100540F00100C3F8100502F1400095
:1097C000800080B2FFF7CEFE0029E3D095F930305B
:1097D00054F82330002BDDD0012303FA02F2034BAF
:1097E000C3F80423D6E700BF5C2A002000600040D5
:1097F0000E4B034493F93020072A02DD0021FFF7C6
:10980000C9BED3B2072B10D8930003F1804303F5F0
:10981000C043D3F8101521F00101C3F8101501233E
:1098200003FA02F2024BC3F8082370475C2A0020B7
:109830000060004007B5019001A8FFF79FFE019B63
:10984000D0F81005D84000F0010003B05DF804FB2B
:109850002DE9F04F002489B0CDE90244624D4FF468
:109860008072012102F1804303F5C04390B21B686E
:10987000012B06D1D5F804330B4202D0FFF772FE5C
:109880000C430432B2F5907F4FEA4101EAD1574BC5
:109890001B68012B0ED14FF4BE70FFF763FE4FF033
:1098A000A04344F00044D3F810350293504BD3F852
:1098B0001035039314F0FF0F1AD04E4F00250126E8
:1098C000344210D0AB0003F1804303F5C043D3F81A
:1098D0001005D3F8101557F8253023B1C1F3014115
:1098E000C0F3052098470135082D4FEA4606E7D119
:1098F000002C75DA0DF1100800230493C8F8043029
:109900004FF0FF33CDE90633DFF8E8A0DFF8E89049
:1099100000273D4619F9014B631C48D0E4B20123EE
:1099200024F0C00604F0070203FA02F2F00808ABC4
:10993000191811F8083C134239D00AEB0603A409A0
:1099400093F930305AF823B0BBF1000F08D1032C43
:109950002DD118F800C04CEA020C08F800C001E054
:10996000032CF6D001A80196FFF708FE019B11F821
:10997000181C03F5E07C114250F82C00C0F30140A4
:1099800005D0022813D1032C0BD1214604E0032873
:109990000DD1032C05D102213046FFF7FBFD013527
:1099A000EDB2BBF1000F02D021463046D847013757
:1099B000042FAFD1A5B14FF0A0430299D3F81025E1
:1099C00003F540739142D3F8103502D103999942BF
:1099D00006D002920393049A059B0692079395E79B
:1099E00009B0BDE8F08F00BF006000407C6100401E
:1099F000000300505C2A0020BC2A0020014B1B6899
:109A0000184700BFC82A00200E4B984237B50D46B4
:109A100002D0002003B030BD00230DF107008DF807
:109A20000730FEF731FD084B1C7914B901221D6087
:109A30001A719DF80700FEF74BFD002CE9D01120AC
:109A4000E8E700BF00200040C82A0020034B9842EE
:109A500001BF034B00221A601A71704700200040BA
:109A6000C82A00200023435082B043580193019B31
:109A700002B070470A4610B54FF48E71FFF7F2FF3F
:109A8000136A9168C95C136A01331362C0F81C152C
:109A900010BD8B690A4610B54FF4847123B9FFF7E6
:109AA000E1FFD0F8183510BDFFF7DCFF536AD1682D
:109AB000D0F81805C854536A01335362F3E7000025
:109AC0001FB501238DF80030044BCDE90110D3E917
:109AD00000126846904705B05DF804FBD02A0020CC
:109AE00030B54D4AD2F8043313F4007F85B01546E3
:109AF0004FD0D2F82431002B4BD04FF49271104646
:109B0000FFF7B0FF4FF40173C2F80833434B93F8EB
:109B1000291009B9012151603F4902228DF8002026
:109B2000D1F88024C1F8802403929A690292DA68FD
:109B300001920022C3E906226846D3E90012904749
:109B40003548D0F81C315BB134494A690B6A9A42F6
:109B50000A464BD991F82830002B47D1FFF78AFFEE
:109B60002D4AD2F8443193B14FF4A2711046FFF759
:109B700079FF2A4B93F8291009B1012111609A69E4
:109B80002AB100229A61586AD968FFF799FF05B097
:109B900030BDD5F804335B07D2D5D5F80831002B9A
:109BA000CED01E4C1C482146FFF773FF636AA269A2
:109BB0009A422346C4D1E269E1684AB12369E3606D
:109BC0000023606AA261E3616362FFF779FFB7E790
:109BD00094F829200AB901226A600F4A4FF40170F3
:109BE000C2F8080300229A61586AEEE74FF48E71BA
:109BF0000948FFF737FF5369002BB1D05169029133
:109C0000002391688DF80030019153616846D2E9D4
:109C100000139847A4E700BF00200040D02A00208E
:109C20001F2886BF00F01F00044B4FF0A04300F533
:109C3000E070022243F82020704700BF000300506C
:109C40002DE9F843624F047991462C2202FB0472FD
:109C5000064692F82A200D46002A40F0B3805D495E
:109C60000068FFF7D1FE8046002840F0AE802968EA
:109C70004A1C10D01F2987BF01F01F03564A0B460C
:109C80004FF0A0420120984003F5E073C2F80805A8
:109C9000032042F823006868431C0DD01F288BBFA7
:109CA00000F01F0303464C4A4FF0A04203F5E07357
:109CB0004FF0000C42F823C03368AA6995F814C02D
:109CC000C3F824256A7DBCF1010F4CEA0202C3F8F7
:109CD0006C25C3F81405C3F80C152BD1A968481CD2
:109CE0000DD01F298BBF01F01F020A463A484FF0E2
:109CF000A04002F5E0724FF0000C40F822C0E86886
:109D0000421C13D01F2887BF00F01F0C324A844624
:109D10004FF0A0424FF0010E0EFA0CFE0CF5E07C65
:109D2000C2F808E54FF0030E42F82CE0C3F808052E
:109D3000C3F810152C236343FA18C2F804902A695B
:109D4000FA50B9F1000F2AD04FF48E7130682D7F90
:109D5000FFF788FE30684FF4A271FFF783FE326888
:109D60001E4BC2F80433120B51B20029A8BF01F1F7
:109D700060404FEA4513BABF194802F00F0500F5DD
:109D80006140DBB2B4BF435580F8003302F01F02DC
:109D9000012303FA02F24909124B43F821203368E8
:109DA0000422C3F800252C2303FB04730022C3E91B
:109DB000062283F829205A61012283F82A2040468E
:109DC000BDE8F8834FF00808F9E74FF01108F6E70F
:109DD000D02A0020E19A0200000300508000020017
:109DE00014ED00E000E100E02DE9F04103680479A2
:109DF000254D0022C3F800252C2202FB0452064602
:109E0000526872B1214AC3F80823190B4AB20120E3
:109E1000520901F01F0100FA01F120321C4840F8FC
:109E20002210D3F80C05D3F81485D3F80815D3F80D
:109E300010754FF0FF329042C3F81425C3F80C257B
:109E4000C3F80825C3F8102501D0FFF7E9FEB8F1E3
:109E5000FF3F02D04046FFF7E3FE7A1C02D03846AF
:109E6000FFF7DEFE4B1C02D00846FFF7D9FE306834
:109E7000FFF7ECFD2C2303FB0454002384F82A3065
:109E80006360BDE8F08100BFD02A00208402020098
:109E900000E100E02DE9F84F224F06794FF02C0940
:109EA00009FB067480466569002D38D16261A160A6
:109EB00025624FF48E71006884F82850FFF7D2FDB8
:109EC000D8F80000012383602146FFF7D3FD6368C3
:109ED000A1469BB9D8F800A0D4F814B0236A9B45DA
:109EE00012D8D8F80020D2F81C31002BFBD0012367
:109EF000D3602C2303FB067300225A612846BDE879
:109F0000F88F94F8283043B9DAF81C31002BF8D0D8
:109F100049465046FFF7AEFDE0E70F25E9E711257A
:109F2000ECE700BFD02A00200023435082B0435802
:109F30000193019B02B070471FB501238DF80030DB
:109F4000044BCDE90110D3E900126846904705B0F3
:109F50005DF804FBFC2A00201F2886BF00F01F00CC
:109F6000044B4FF0A04300F5E070022243F820209C
:109F7000704700BF000300507FB5454AD2F8246106
:109F8000002E63D010464FF49271FFF7CDFF0223ED
:109F90008DF80030D2F88034C2F880340393D2F8C0
:109FA0003C3502933B4BDA6801920022C3E906225A
:109FB0006846D3E900129047354AD2F844317BB164
:109FC0004FF4A2711046FFF7AFFF324B996939B1D8
:109FD0000021C3E90611D968D2F83C05FFF7ACFFB0
:109FE0002B4AD2F82031B3B14FF490711046FFF7ED
:109FF0009BFF0123D360274B596961B1D2F84C15FF
:10A000000291002299688DF8002001915A616846FA
:10A01000D3E9001290471E4AD2F85831A3B14FF449
:10A02000AC711046FFF780FF1A4B596961B1D2F845
:10A030004C150291002299688DF8002001915A6117
:10A040006846D3E90012904704B070BDD2F81031D1
:10A05000002BB1D04FF488711046FFF765FF0D4B10
:10A06000D2F83C0599698842A6D1DC69D96864B107
:10A07000D2F8005225F02005C2F800521A699C61FE
:10A08000DA60DE61FFF758FF96E79C61FAE700BFF0
:10A0900000200040FC2A00202DE9F843694F067992
:10A0A0009146242202FB0672044692F820200D46B7
:10A0B000002A40F0C08064490068FFF7A5FC804694
:10A0C000002840F0BB802868421C10D01F2887BFA2
:10A0D00000F01F035D4A03464FF0A0420121994062
:10A0E00003F5E073C2F80815032142F823106968EC
:10A0F0004B1C0DD01F298BBF01F01F030B46534A89
:10A100004FF0A04203F5E0734FF0000C42F823C07B
:10A110002368AA6995F814C0C3F824256A7DBCF1A8
:10A12000010F4CEA0202C3F86C25C3F80C05C3F812
:10A1300014152BD1A968481C0DD01F298BBF01F025
:10A140001F020A4641484FF0A04002F5E0724FF06E
:10A15000000C40F822C0E868421C13D01F2887BFBB
:10A1600000F01F0C394A84464FF0A0424FF0010E18
:10A170000EFA0CFE0CF5E07CC2F808E54FF0030E79
:10A1800042F82CE0C3F80805C3F8101524237343E4
:10A19000FA18C2F804902A69FA50B9F1000F39D0C0
:10A1A0004FF4887120682D7FFFF7BEFE4FF4907149
:10A1B0002068FFF7B9FE4FF492712068FFF7B4FEF4
:10A1C0004FF4A2712068FFF7AFFE20684FF4AC7126
:10A1D000FFF7AAFE22681E4BC2F80433120B51B2DD
:10A1E0000029A8BF01F160404FEA4513BABF1948E2
:10A1F00002F00F0500F56140DBB2B4BF435580F8B3
:10A20000003302F01F02012303FA02F24909124B44
:10A2100043F8212023680822C3F80025242303FBE8
:10A2200006730022C3E906225A61012283F8202026
:10A230004046BDE8F8834FF00808F9E74FF01108F1
:10A24000F6E700BFFC2A0020799F020000030050BF
:10A250001003420014ED00E000E100E02DE9F041C0
:10A260002F4D0479242303FB045306465B680068E2
:10A2700073B12C4BC0F80833020B53B201215B09B8
:10A2800002F01F0201FA02F22033274941F823208D
:10A29000D0F80032012223F02003C0F800324FF43E
:10A2A000AC714260FFF740FE3368DA60D3F85821A2
:10A2B000002AFBD00022C3F80025D3F80C05D3F800
:10A2C0001485D3F80815D3F810754FF0FF3290427B
:10A2D000C3F80C25C3F81425C3F80825C3F81025C6
:10A2E00001D0FFF739FEB8F1FF3F02D04046FFF73B
:10A2F00033FE7A1C02D03846FFF72EFE4B1C02D0EC
:10A300000846FFF729FE3068FFF7A0FB242303FB74
:10A310000454002384F820306360BDE8F08100BF5E
:10A32000FC2A00201003420000E100E001F060433D
:10A33000B3F1005F2DE9F041074638D11E4B067995
:10A34000242505FB063598466C69002C31D16A61DD
:10A35000A96000684FF49071FFF7E6FD4FF4AC710F
:10A360003868FFF7E1FD3B686A69A968C3F84415DE
:10A37000C3F8482501229A606A68AAB9D3F8202157
:10A38000D3F858411AB9002CF8D00F2407E0002C5C
:10A39000FBD10122DA60D3F85821002AFBD0242314
:10A3A00003FB0686002373612046BDE8F08110247C
:10A3B000FAE71124F8E700BFFC2A002072DF70479B
:10A3C00073DF704776DF70477ADF70477CDF704756
:10A3D0007FDF70478FDF7047B1DF7047FDF760BEEA
:10A3E00008B5064B01211878FFF7EAFF08B1FDF721
:10A3F00057FE0020BDE80840FEF706BF40230020BE
:10A400000388212B13B5044652D024D8112B2DD00C
:10A41000132B45D0102B41D12D4B2E482E49C01A5D
:10A42000C008000440F00300FDF73AFB0120FEF7EE
:10A43000EBFE0020FEF7FCFE284BA188284819807F
:10A4400000F0E4FF08B1FDF72BFEFDF7E7FD28B3B0
:10A45000FDF726FE22E0522B32D0562B01D03B2BAB
:10A460001CD11321A088FFF7ADFFF0E7184B194866
:10A470001C49C01AC008000440F00300FDF710FB9F
:10A480000120FEF7D5FE154B4FF6FF721A80FDF73F
:10A49000DBFD08B1FDF704FEFFF7A2FF02B010BD1F
:10A4A0000E4800231A4685210088FFF791FFCEE76A
:10A4B000002301A98088ADF80430FFF78BFFC6E7C1
:10A4C000064800231A4619460088FFF785FFBEE7B5
:10A4D00028BC020050BC0200A8C302004223002096
:10A4E0008C2B0020B2C3020008B503784BB9054B92
:10A4F0003B211888FFF766FF18B1BDE80840FDF75B
:10A50000CFBD08BD422300200B2810B50C461AD140
:10A510000F4B10481049C01AC008000440F0030057
:10A52000FDF7BEFA0D4B0E491888224601F052F88D
:10A5300030F008020BD043F20202904207D043F2FF
:10A540000142904203D0BDE81040FDF7A9BD10BD07
:10A5500028BC020050BC0200BFC3020042230020FE
:10A56000742B002010B50B4B0B4CE41AE4082404A8
:10A5700044F0030442B10020FEF746FE074920469E
:10A58000BDE81040FDF78CBA1046FEF751FE0449B5
:10A59000F5E700BF28BC020050BC0200D9C302008E
:10A5A000EAC30200FDF77CBD00B54FF48041A7B0BF
:10A5B0000020FDF7B1F808B1FDF772FDFCF7E2FFEE
:10A5C0000120FEF758FEFDF733FE08B1FDF768FDE8
:10A5D00040F2333201216948FDF7CAFC08B1FDF7AA
:10A5E0005FFDFEF77BFC08B1FDF75AFD01F05CF85A
:10A5F00008B1FDF755FD002317A90120179301F0BD
:10A60000DBF808B1FDF74CFD17A801F087F908B198
:10A61000FDF746FD11235A488DF8203001F0A1FACC
:10A62000574982B208A8FFF7D1FE08B1FDF738FDFF
:10A630000822002117A801F061FA524A4FF0C873AE
:10A6400017A8CDE91723FFF7BFFE08B1FDF728FDD6
:10A6500000214D4800F0D2FD08B1FDF721FD002397
:10A66000089317A9494B4A48179300F0BDFE08B15B
:10A67000FDF716FD474B4848089308A900F03CFF3A
:10A6800008B1FDF70DFD41F22353ADF80430424B04
:10A69000424C9B7C8DF806303C22002108A801F03A
:10A6A0002DFA02238DF820303C2240F20163002174
:10A6B00017A8ADF8223001F021FA22460123ADF8A7
:10A6C0006C3052F8041B01AB08A81C9300F0F0F8A2
:10A6D00008B1FDF7E5FC324AA16817A800F0E8F8D8
:10A6E00008B1FDF7DDFC1822002102A801F006FAEE
:10A6F00000230122ADF8143003934FF480738DF8DA
:10A700000820ADF81C3002AA4023244925480493B0
:10A71000FFF754FE08B1FDF7C3FC1C22002117A867
:10A7200001F0ECF900234FF4A022CDE91732ADF887
:10A730006A304FF4A0328DF86C301B4B19921C9389
:10A7400003221A4B8DF8682017A81D9300F078FBA0
:10A7500008B1FDF7A5FC164B16481749C01AC008EA
:10A76000000440F00300FDF79BF9FFF739FEFDF709
:10A770002DF80028FBD1FEF7C7FBF8E728230020BF
:10A78000FCC302005000A000602B0020DDA30200EB
:10A790008C2B002065A50200742B002030230020A4
:10A7A0003C23002040230020E9A40200A5A50200CC
:10A7B00028BC020050BC02000AC402006DDF7047D2
:10A7C00079DF70477DDF704764DF70472DE9F04F18
:10A7D00085B000250E9CBDF83CB0278801918046CD
:10A7E00091469A462E46B8F80020B2420CDC3DB1A4
:10A7F0002288013AD21B92B2FF2A3BD80AF80720DE
:10A80000002005B0BDE8F08FD8F8042052F82600EB
:10A81000039000220DF10B0103A8FFF7D5FF0028DC
:10A82000EFD19DF80B204A4522D12288002D14BF7C
:10A830000020022002EB0901014459451ADC45B908
:10A84000013292B2019B22800AF802302288013242
:10A85000228022880DF10B01524403A8FFF7B4FFB8
:10A860000028CED121889DF80B200A4422800125A2
:10A870000136B8E70C20C4E72DE9F341089CBDF888
:10A8800024501746CDE90045022206469846FFF7B8
:10A890009DFF50B94346102239463046CDE9084560
:10A8A00002B0BDE8F041FFF791BF02B0BDE8F08112
:10A8B0002DE9F04F00231688138090F82D3085B0D5
:10A8C00007460D46144653B3082E01D80C2027E145
:10A8D00002A8FFF773FF002840F022812388082296
:10A8E000EA54238801339BB21B222380EA54208838
:10A8F000013080B2208006220DF10901284401F0C8
:10A90000D4F823889DF8082006339BB212F0FE028B
:10A9100018BF01222380EA54238801332380BB78A7
:10A92000FBB123880433B342D0D802A8FFF748FF15
:10A93000002840F0F58023880322EA54238801335D
:10A940009BB219222380EA542388BDF808200133E2
:10A950009BB2E9182380EA54120A4A702388023312
:10A960002380FA789AB12388D91CB142AED802214B
:10A97000E954238801339BB201212380E9542388C1
:10A980000B449BB22380EA5423880B4423807A68CB
:10A99000AAB12388D91CB14298D8022192F900208B
:10A9A000E954238801339BB20A212380E954238888
:10A9B00001339BB22380EA542388013323803B89EF
:10A9C000002B40F0A1803B8A5BB1CDE900462B46CD
:10A9D0000722032107F11000FFF74EFF002840F087
:10A9E0009F803B8B5BB1CDE900462B46152214219D
:10A9F00007F11800FFF740FF002840F091803A6A05
:10AA0000002A40F09080D7F82480B8F1000F30D0B1
:10AA1000B8F804302188981C8A1C0244B2423FF6E0
:10AA200055AFFE283FF652AF03336B5423880133F2
:10AA30009BB2FF222380EA54238801339BB22380F8
:10AA4000B8F80020EA54E918120A4A702088023047
:10AA500080B22080B8F804205AB1D8F80810002934
:10AA60006BD0284401F021F82388B8F8042013445F
:10AA7000238097F82C30002B40F09A8038780028FB
:10AA80004ED03B88012B58D0228802F1020CB445ED
:10AA90003FF61CAF012805D17B78023313449E4258
:10AAA000FFF414AF023EB61AB6B202A905EB0C00D1
:10AAB000ADF80860FFF786FE90BB3978BDF8082036
:10AAC000022900F0BA807B78934202D3B24240F26E
:10AAD000B280012940F0B3809BB29E42C0F0AF80AB
:10AAE000ADF808300821BDF80830FE2B3FF6EEAE79
:10AAF00022880133AB542288013292B22280A954B9
:10AB00002288134423800BE0CDE900462B46062221
:10AB1000022107F10800FFF7AFFE00283FF453AF12
:10AB200005B0BDE8F08FB4F800C00CF10603B342E5
:10AB30003FF6CCAE1188052901D80720F0E76FF465
:10AB4000486E01EB0E039BB24FF27D3E7345F4D984
:10AB50005388052BF1D96FF44860181880B27045FE
:10AB6000EBD94FF6FF70814203D0834201D0994266
:10AB7000E3D8052305F80C30238801339BB212215A
:10AB80002380E954238801339BB223801188E95440
:10AB9000E818090A4170238802339BB22380528847
:10ABA000EA54E918120A4A702388023323802AE7FC
:10ABB000BB6A002BC1D04FF000094FF00C0A4FF0D8
:10ABC000160B97F82C305FFA89F293427FF656AF56
:10ABD000B96A0AFB02F201EB0208B8F80430981CCB
:10ABE000FE283FF673AE208803332B5423880133AD
:10ABF0009BB2238005F803B0238801339BB22380E6
:10AC00008A5AEA54E918120A4A702088023080B23F
:10AC10002080B8F804205AB1D8F8081000298CD048
:10AC2000284400F042FF2388B8F80420134423800E
:10AC300009F10109C5E7092155E7B242FBD9ADF891
:10AC400008604FE775DF704776DF70477ADF70473F
:10AC50007BDF7047034B1A8882420CBF18460020E6
:10AC6000704700BFB42B0020024B9B6903B118470B
:10AC7000704700BF982B002073B586B23046FFF7AF
:10AC8000E9FF044670B1164D027A2B7B9A420BD233
:10AC900000F10A013046FFF7D5FFE8B1112801D0D5
:10ACA000FFF7E2FF02B070BD002303722B7C43B1BB
:10ACB0003B213046FFF7C8FF30F0080301D0FFF713
:10ACC000D3FF6B69002BEDD000228DF80420ADF886
:10ACD000066001A89847E5E7237A01332372E1E78C
:10ACE000982B002013B50B46497A0F4C024669B9E0
:10ACF000D4E901101C7A002C18BF01465868FDF7F2
:10AD0000D4FA08B1FFF7B0FF02B010BD00211972EC
:10AD10006369002BF8D00121ADF806008DF804100E
:10AD200001A89847F0E700BF982B00204B880288C5
:10AD30009A4213D842889A4210D380888A8840F277
:10AD4000F313984294BF031AC31A934206D800F231
:10AD5000F310904234BF002001207047002070475C
:10AD60000388112B70B5014648D002D8102B1ED095
:10AD700070BD122B52D0502BFAD12F4BC288DB89D9
:10AD80009A42F5D1038A022BF2D186883046FFF72A
:10AD900061FF05460028EBD001F1120000F03FF9F9
:10ADA00030BB6868FDF799FA0028E1D009E0C37B61
:10ADB000012BDDD14FF6FF70FFF74CFF054620B9A0
:10ADC0000420BDE87040FFF74FBF1C4A8E88068004
:10ADD000002303721368C5F80A300A3053684360D1
:10ADE0001031FFF7A3FF144B6872DB89002BBFD132
:10ADF00029463046BDE87040FFF774BF8088FFF7F2
:10AE000029FF04460028B3D04068FDF766FA08B170
:10AE1000FFF72AFF4FF6FF732380A9E786883046A5
:10AE2000FFF718FF05460028A2D008310A30FFF7C7
:10AE30007DFF6872DCE700BF982B0020C82B002044
:10AE4000F8B5064648B305460FCD154F3C460FC42E
:10AE500095E8070084E807003068124C3C60B0B108
:10AE6000FFF7F4FEC0B9326813682360536863606B
:10AE70000D480E4A4FF6FF7303800D4B40F8043F18
:10AE80000021FDF707FA002818BF032004E0204640
:10AE9000FFF7DEFE0028EBD0F8BD0E20FCE700BF78
:10AEA000982B0020C82B0020B42B002079AC020086
:10AEB000D02B00200AB1FDF7E5BCFDF7ECBC73B563
:10AEC0000191019C06466CB100252C46294601A83B
:10AED000FDF7EBFC18B106EB440301349D8001350E
:10AEE000142DF3D13046346002B070BD2DE9F04727
:10AEF00003888488103B8CB005460A2B1FD8DFE8F6
:10AF000003F0063F1E1E1E1E1E1E1E5F4400314E15
:10AF1000B368DB43009371686846FDF7EFFC009966
:10AF200001A8FFF7CCFF0DF108094FF00008019BC5
:10AF3000984507D3132C13D90420FDF7B1F80CB0B2
:10AF4000BDE8F08739F802AB00270137514606EB20
:10AF50008700FDF7A0FC1E2FF7D108F10108E6E7F6
:10AF600021461D48FDF78EFC21461C48FDF78AFC52
:10AF7000EB7B012BE3D021461948FDF783FCDEE78C
:10AF800021461548FDF787FCD9E7057A15482D09B4
:10AF9000032D94BF002201222146FFF78BFF022DD3
:10AFA00094BF0022012221460F48FFF783FF012DA5
:10AFB0000E4894BF002201222146FFF77BFFBEE727
:10AFC000037A002BBBD1427A0648C2F3C002214665
:10AFD000F3E700BFF02B0020F82B0020F42B00201B
:10AFE000FC2B0020082C0020042C0020002C00202A
:10AFF000AADF7047002301380B70042806D8DFE869
:10B0000000F00306080A0C0011230B70704721237F
:10B01000FBE73123F9E71223F7E72223F5E700786E
:10B0200000F001007047F0B58B7891B0002B0C4612
:10B0300008BF01238DF80E3005460B88ADF80C30A3
:10B04000002116466846032200F058FD6946607CE0
:10B05000FFF7D0FF0DF10101A07CFFF7CBFF9DF8BA
:10B060000230E27B62F3C303227C62F30413227B8F
:10B0700062F30003227D002A14BF0222012262F340
:10B08000420300211C2209A88DF8023000F036FD91
:10B09000637B13F0300F15D002AF03220021384636
:10B0A00000F02CFD0DF10901E07CFFF7A3FF112357
:10B0B0008DF808309DF80A300E97012262F34203A2
:10B0C0008DF80A30637B8DF824301422A37B8DF831
:10B0D0002530002104A800F011FD03AB0493A388E0
:10B0E000ADF81C30A368CDF814D01BB1E288ADF8E0
:10B0F00018200893A369002B2ED001AF0322002152
:10B10000384600F0FBFCA3691A88ADF82C205A8859
:10B11000187BADF82E2039465A680A920D97FFF732
:10B1200069FFA3690DF10501587BFFF763FFA26971
:10B130009DF80630917A61F3C303D17A61F3041369
:10B14000117A927B002A61F3000314BF02220122CC
:10B1500062F342038DF80630E36903B10C93334682
:10B1600004AA09A92846FFF743FF11B0F0BD90DFFC
:10B170007047A5DF7047B5DF704700007FB500233B
:10B18000ADF80810ADF80A106A4602A90646039306
:10B190000093ADF80430FFF7EAFF054600B3124B09
:10B1A000124CE41AE408FDF739FF240444F00104CA
:10B1B000034632460E492046FCF77FFCBDF80020CE
:10B1C000BDF8023052EA030103D00A492046FCF7D9
:10B1D00074FCBDF804201AB107492046FCF764FC52
:10B1E000284604B070BD00BF28BC020070BC02003D
:10B1F00022C402006CC40200ABC4020078B14FF05C
:10B20000171303601B2303711723C380038141F6C7
:10B210001B320023016143818281184670470E2052
:10B220007047000013B5034680880C46A0B91A8801
:10B23000232A00F0A38011D8102A22D0112A51D03D
:10B24000A37A4BB1E1880020FFF793FF002840F07C
:10B250009B804FF48073638102B010BD3A2A49D0BD
:10B26000552A5FD0242AEBD11A7A0B694A73002B36
:10B27000E6D04DF67A21ADF8040000918DF8042057
:10B2800078E0DB7B0A790A73012B13D0022B14D0F0
:10B29000E18823898B4205D20020FFF76AFF70B94D
:10B2A0000123E372217B637B8B42C9D20020FFF72D
:10B2B00065FFC5E70B88E380EAE74B88FBE71128C9
:10B2C00002D10123A372EDE7FDF7A8FE374A384B00
:10B2D00038499B1ADB081B04024643F00100FCF7C7
:10B2E000E3FBDFE71723CB800B8141F61B3348815B
:10B2F0008B81A5E75B89CA88934228BF1346172B29
:10B300000A6938BF17230B814AB1C97A39B140F6AF
:10B3100077210091ADF8043069462046904700231C
:10B3200063818DE7DB88C988A072172B38BF17238C
:10B330008B4228BF0B462381FFF71DFF60B1FDF74D
:10B340006DFE1A4A1A4B1C499B1ADB081B04024665
:10B3500043F00100FCF7A8FBE37A002B7FF470AF09
:10B360002369002B3FF46CAF40F6772200922289CC
:10B37000ADF8042069462046984761E7197A237B97
:10B38000994228BF194692E711283FF465AFFDF7AF
:10B3900045FE064A064B07499B1ADB081B0402467A
:10B3A00043F00100FCF780FB56E700BF28BC020019
:10B3B00070BC020001C5020032C50200B0DF704758
:10B3C00066DF704710B5002104464088FFF7F8FF9C
:10B3D000034608B9237210BD112801D10123F9E7F2
:10B3E0006368BDE81040184760B159B10378DE2B9F
:10B3F0000AD00B684360DE2303704FF6FF7343806F
:10B40000002070470E2070470820704728B103784D
:10B41000DE2B04D14180002070470E2070470820A9
:10B420007047F0B5054685B00C46F1B1E8B10B7830
:10B43000DE2B1AD182884B889A4204D10B7A13B141
:10B440000846FFF7BFFF2B88112B32D0512B0ED0AF
:10B45000012B0AD12B7A012B07D1A988628891424E
:10B4600003D123722046FFF7ADFF05B0F0BDAE88D3
:10B470006388B342F9D1AF79022FF6D1AD7B2B1F90
:10B48000022BF2D800211022684600F037FB052D70
:10B4900014BF4FF4C0730023694630468DF8007026
:10B4A000ADF80430FFF78AFF0028DED063689847C4
:10B4B000DBE76388AA889A4204BF4FF6FF73638074
:10B4C000D3E7A8DF7047AEDF704762DF70470288BE
:10B4D000502A10B40DD1C4884A88944209D1028AF6
:10B4E000012A06D14B6923B1827C5DF8044B808828
:10B4F00018475DF8044B7047F0B50B6843618FB097
:10B50000334B02AA044603F110071646186859681F
:10B51000154603C50833BB422A46F7D104F1120190
:10B520003046FFF7D2FF00284FD1A37C8DF80630BC
:10B53000224641F2235301A90120ADF80430FFF760
:10B54000C0FF002841D10146202206A800F0D6FA0B
:10B5500041F22453ADF81830A37C8DF81A309DF8D1
:10B560002530224623F0120301254FF0011643F047
:10B57000120332F80A0B079606A98DF825308DF8CC
:10B5800029508DF82B50FFF74EFDF0B901462022CF
:10B5900006A800F0B3FA41F22553ADF81830A37CA9
:10B5A0008DF81A309DF825300796224623F00A03BD
:10B5B00043F00A0332F8020B8DF8253006A98DF806
:10B5C00029508DF82A50FFF72EFD0FB0F0BD00BFB7
:10B5D0006EC5020070B588B00E468DF807201022A7
:10B5E000054601240DEB02000021ADF80E4000F0ED
:10B5F00085FA7389ADF810300DF10703079304A99C
:10B600000DF10E0328468DF812400693FFF75BFFFD
:10B6100008B070BD10DF704713B50446094968468D
:10B62000FDF7A1FC019808B902B010BDD0E90031C6
:10B630002046984718B16846FDF79FFCF2E71120B5
:10B64000F2E700BF84C5020013B504460749684607
:10B65000FDF789FC019B0BB902B010BD2046D3E970
:10B66000002190476846FDF788FCF3E79CC502007F
:10B670000B4991F816335A09EC231341DB0706D521
:10B68000084B9A683AB94FF480030B60704742F256
:10B690000200FCF705BD1A6842F480021A60704788
:10B6A00000E100E0042A0020F7B5194F3C7864BBA4
:10B6B000184E012520463570FFF7AEFF112821D026
:10B6C0002046FFF7C1FF144B8DF803401868019026
:10B6D0000DF10300FCF7D8FE104901A8FFF79AFF0F
:10B6E0000446B0FA80F0400938709DF80300FCF77A
:10B6F000EFFE3CB90A4B34701C70FFF7B9FF2846C7
:10B70000FFF7A2FF204603B0F0BD0824FAE700BF10
:10B710006D2C00206C2C00207EC50200BD80020034
:10B720006E2C0020014B1878704700BF6D2C002054
:10B7300007B508496846FDF716FC019B13B903B02D
:10B740005DF804FBD3E9002090476846FDF715FC3F
:10B75000F3E700BF90C50200FFF7EABF60DF704764
:10B7600069DF704761DF704730B5114B1B7891B0CE
:10B77000E3B1104D34240DF1020103A8ADF80240ED
:10B78000FFF7F0FF70B9294601A8FDF7ECFB029B1B
:10B79000002BF0D003A8D3E90021904701A8FDF7C2
:10B7A000ECFBF4E7052801D0FCF77AFC11B030BDC2
:10B7B0006F2C0020DCC7020030B5054685B00C4672
:10B7C000002900F099804D4B0B600C22002101A84C
:10B7D00000F094F901238DF8063022688DF80450AA
:10B7E000062301A92020ADF80830FFF7B9FF60B1AA
:10B7F000FDF714FC424A434B43499B1ADB081B04E8
:10B80000024643F00100FCF74FF90C22002101A889
:10B8100000F074F901238DF805302268002301A996
:10B820004020ADF80630FFF79BFF60B1FDF7F6FB57
:10B83000334A344B35499B1ADB081B04024643F05C
:10B840000100FCF731F90C22002101A800F056F9A3
:10B850000A2322688DF8043001A90120FFF780FF38
:10B8600060B1FDF7DBFB264A264B29499B1ADB0812
:10B870001B04024643F00100FCF716F90C220021DC
:10B8800001A800F03BF94FF4B0632268019301A9CD
:10B89000A120FFF765FF60B1FDF7C0FB184A194B07
:10B8A0001C499B1ADB081B04024643F00100FCF70D
:10B8B000FBF80C22002101A800F020F99DF80430CB
:10B8C00022686FF3000301A9A0208DF80430FFF770
:10B8D00047FF034668B1FDF7A1FB094A094B0E4932
:10B8E0009B1ADB081B04024643F00100FCF7DCF85E
:10B8F0000023184605B030BD0E23FAE700230020D0
:10B9000028BC020080BC0200B0C50200F6C50200DF
:10B9100042C602008EC60200DFC60200F8B5064627
:10B920000768FFF71BFF3368BB4205461DD9194B5B
:10B93000194C1A49E41AE408240444F0020420468D
:10B94000FCF7AEF8336816493A462046FCF7B5F8DE
:10B950004FF080533268D3F80C3112499B0203F147
:10B9600000539A1A2046FCF79FF825B90E4B012286
:10B970001A702846F8BD2846FDF750FB054A064BCD
:10B980000A499B1ADB081B04024643F00100FCF73E
:10B990008BF8EEE728BC020080BC020032C7020030
:10B9A00061C7020092C702006F2C0020BCC70200D2
:10B9B0004BDF70471FB50D4C01A8FFF7F9FF70B9B9
:10B9C000214602A8FDF7CFFA039B002BF4D0019883
:10B9D000D3E90021904702A8FDF7CFFAF4E7052844
:10B9E00001D0FCF75DFB04B010BD00BFF4C702003E
:10B9F0007F2805D8034B185C034B5B5C18407047ED
:10BA0000002070470CC802008CC80200A0F161033E
:10BA1000192B98BF20387047A0F14103192B98BF0C
:10BA2000203070477F2805D8034B185C034B5B5CC4
:10BA300018407047002070470CC802008CC80200F4
:10BA4000A0F16103192B98BF20387047A0F1410382
:10BA5000192B98BF203070477F299ABF01700120B1
:10BA60006FF02E0070475AB10A787F2A0AD800B1C9
:10BA70000260002119605960501A18BF01207047F8
:10BA8000002070476FF02E007047000008B5034B90
:10BA90005B689B681B68984708BD00BF4423002073
:10BAA00008B50921FFF7F2FF08BD844640EA01030B
:10BAB00013F0030F18D18446202A0BD32DE9F00789
:10BAC000B1E8F807A0E8F807A2F12002202AF7D28F
:10BAD000BDE8F007042A07D351F8043B40F8043BC3
:10BAE000A2F10402042AF7D2002A05D011F8013B82
:10BAF00000F8013B013AF9D1604670478446002ABC
:10BB00002DD010F0030F04D000F8011B013A26D00D
:10BB1000F7E7C9B241EA012141EA0141202A12D3E3
:10BB2000A2F120022DE9F0030B460C460D460E460D
:10BB30000F4688468946A0E8FA03203AFBD2BDE8C2
:10BB4000F00320320BD0042A05D340F8041B043A3A
:10BB500005D0042AF9D200F8011B013AFBD1604656
:10BB6000704700F1010110F0030F11D010F8012B04
:10BB7000002A23D010F0030F0AD010F8012B002A5E
:10BB80001CD010F0030F03D010F8012B002A15D0A1
:10BB90002DE970004FF001324FF0803350F8044B24
:10BBA000A4EB020525EA04051D4000D1F6E7A0F14B
:10BBB000040070BC10F8012B002AFBD1A0EB01009F
:02BBC0007047CC
:08BBC400F592020000000000F0
:10BBCC00EDAE02000000000025B20200602B002048
:10BBDC0061AD02000000000023B402008C2B002099
:10BBEC00CFB40200742B002001A40200000000005E
:08BBFC00759302000000000037
:10BC040069B7020000000000B5B90200000000009E
:10BC14009C230020642400206C240020A423002002
:04BC24001800000004
:10BC28008CC302000000000092C302000000000064
:10BC380099C30200000000009DC30200000000003C
:10BC4800A2C30200000000000DBD020000000303B3
:10BC5800E0BD02000000000014BE02000000000069
:10BC680086C302000000000061C502000000030353
:10BC7800A8C5020000000303E8C702000000030390
:10BC880000C802000000030378BE020000000000A4
:08BC980081BE02000000000063
:10BCA000D0BC020000000000DCBC02001423002015
:10BCB000FFFFFFFFFFFFFFFFFFFFFFFFFFFFFFFF94
:10BCC00000000000000000000000D6010601000096
:10BCD000ED740200517502009D740200756172746A
:10BCE0005F6C6F675F6261636B656E64000000008C
:10BCF000902800207F000000102900204261636B23
:10BD0000656E647320666C7573686564006170703D
:10BD10000000000047BD020090BD02004FBD0200C0
:10BD200098BD0200A0BD0200A8BD0200B0BD020087
:10BD3000B8BD0200C0BD02002025303278002020AE
:10BD400020007C002563001B5B306D002573001B09
:10BD50005B313B33316D0025734C6F677320647228
:10BD60006F70706564202825642925730D0A003CD6
:10BD700025733E2025733A200000000000000000DB
:10BD8000F1BD0200C8BD0200D0BD0200D5BD020059
:10BD90001B5B313B33306D001B5B313B33326D003D
:10BDA0001B5B313B33336D001B5B313B33346D0028
:10BDB0001B5B313B33356D001B5B313B33366D0014
:10BDC0001B5B313B33376D007761726E696E6700C4
:10BDD000696E666F00646562756700003029002037
:10BDE0006170705F627574746F6E00466174616C2F
:10BDF000206572726F720053797374656D2072657D
:10BE00007365740001000600000000007C2900201A
:10BE10002D8102006170705F74696D6572000000B1
:10BE20000338FDD8704752544320696E7374616EB5
:10BE3000636520616C726561647920696E697469FB
:10BE4000616C697A65642E005254433A20696E69C8
:10BE50007469616C697A65642E003031323334352F
:10BE6000363738394142434445460000CCBB0200D6
:10BE7000CCBB0200040000007077725F6D676D74C8
:10BE800000736F72746C69737400556E6B6E6F77AC
:10BE90006E206572726F7220636F6465000000002F
:10BEA00000000000C8BF020001000000D4BF020073
:10BEB00002000000F2BF02000300000013C00200F5
:10BEC0000400000026C002000500000037C0020088
:10BED000060000004BC002000700000063C0020023
:10BEE000080000007BC002000900000093C00200AF
:10BEF0000A000000ACC002000B000000C4C0020039
:10BF00000C000000DBC002000D000000EFC00200CA
:10BF10000E00000001C102000F00000010C102006D
:10BF20001000000024C10200110000003BC102000B
:10BF3000120000004AC10200130000005FC10200AD
:10BF40008000000073C102008100000094C1020063
:10BF500082000000B0C1020083000000CCC10200DA
:10BF600084000000EAC10200850000000BC202004C
:10BF70008600000030C202009000000047C20200AC
:10BF80009100000065C202009200000083C202001E
:10BF90000082000098C2020001820000B6C20200C6
:10BFA00002820000D2C2020000840000EEC2020041
:10BFB0000184000012C30200028400003CC302009E
:10BFC0000384000061C302004E52465F5355434351
:10BFD000455353004E52465F4552524F525F53569F
:10BFE000435F48414E444C45525F4D495353494E7F
:10BFF00047004E52465F4552524F525F534F465490
:10C000004445564943455F4E4F545F454E41424C6F
:10C010004544004E52465F4552524F525F494E547E
:10C0200045524E414C004E52465F4552524F525F70
:10C030004E4F5F4D454D004E52465F4552524F5256
:10C040005F4E4F545F464F554E44004E52465F453B
:10C0500052524F525F4E4F545F535550504F5254AF
:10C060004544004E52465F4552524F525F494E562C
:10C07000414C49445F504152414D004E52465F454C
:10C0800052524F525F494E56414C49445F535441BE
:10C090005445004E52465F4552524F525F494E56EC
:10C0A000414C49445F4C454E475448004E52465F10
:10C0B0004552524F525F494E56414C49445F464C9F
:10C0C000414753004E52465F4552524F525F494ED0
:10C0D00056414C49445F44415441004E52465F45ED
:10C0E00052524F525F444154415F53495A45004EAA
:10C0F00052465F4552524F525F54494D454F555439
:10C10000004E52465F4552524F525F4E554C4C00C6
:10C110004E52465F4552524F525F464F524249443B
:10C1200044454E004E52465F4552524F525F494E73
:10C1300056414C49445F41444452004E52465F458B
:10C1400052524F525F42555359004E52465F45522C
:10C15000524F525F434F4E4E5F434F554E54004E29
:10C1600052465F4552524F525F5245534F555243CC
:10C170004553004E52465F4552524F525F4D4F4419
:10C18000554C455F4E4F545F494E495449414C49C7
:10C190005A4544004E52465F4552524F525F4D55EC
:10C1A0005445585F494E49545F4641494C45440007
:10C1B0004E52465F4552524F525F4D555445585F5F
:10C1C0004C4F434B5F4641494C4544004E52465FFD
:10C1D0004552524F525F4D555445585F554E4C4F46
:10C1E000434B5F4641494C4544004E52465F4552E1
:10C1F000524F525F4D555445585F434F4E445F492F
:10C200004E49545F4641494C4544004E52465F45B5
:10C2100052524F525F4D4F44554C455F414C524531
:10C220004144595F494E495449414C495A4544009B
:10C230004E52465F4552524F525F53544F52414700
:10C24000455F46554C4C004E52465F4552524F5248
:10C250005F4150495F4E4F545F494D504C454D45ED
:10C260004E544544004E52465F4552524F525F462F
:10C270004541545552455F4E4F545F454E41424CE7
:10C280004544004E52465F4552524F525F494F5F00
:10C2900050454E44494E47004E52465F4552524F1C
:10C2A000525F4452565F5457495F4552525F4F5652
:10C2B000455252554E004E52465F4552524F525FC4
:10C2C0004452565F5457495F4552525F414E414375
:10C2D0004B004E52465F4552524F525F4452565F9A
:10C2E0005457495F4552525F444E41434B004E52B2
:10C2F000465F4552524F525F424C455F4950535042
:10C300005F52585F504B545F5452554E4341544511
:10C3100044004E52465F4552524F525F424C455F79
:10C32000495053505F4348414E4E454C5F414C523B
:10C33000454144595F455849535453004E52465F56
:10C340004552524F525F424C455F495053505F4CEB
:10C35000494E4B5F444953434F4E4E454354454429
:10C36000004E52465F4552524F525F424C455F4924
:10C370005053505F504545525F52454A45435445DE
:10C3800044000D0E0F10636C6F636B00434C4F4302
:10C390004B004750494F54450050525300554152AD
:10C3A0005400554152544500436F6E6E6563746589
:10C3B0006400446973636F6E6E65637465640053F3
:10C3C000656E6420627574746F6E20737461746539
:10C3D000206368616E67652E0052656365697665E6
:10C3E00064204C4544204F4E2100526563656976B8
:10C3F0006564204C4544204F464621004E6F7264D0
:10C4000069635F426C696E6B7900426C696E6B792F
:10C41000206578616D706C652073746172746564F9
:10C420002E0073645F626C655F6761705F64617446
:10C43000615F6C656E6774685F75706461746528B0
:10C440002920287265717565737429206F6E2063C9
:10C450006F6E6E656374696F6E2030782578207218
:10C46000657475726E65642025732E0054686520AE
:10C470007265717565737465642054582F52582025
:10C480007061636B6574206C656E67746820697396
:10C4900020746F6F206C6F6E672062792025752F76
:10C4A0002575206F63746574732E0054686520725F
:10C4B000657175657374656420636F6D62696E6123
:10C4C00074696F6E206F6620545820616E6420522C
:10C4D00058207061636B6574206C656E6774687357
:10C4E00020697320746F6F206C6F6E6720627920F3
:10C4F0002575206D6963726F7365636F6E64732E4B
:10C500000073645F626C655F67617474635F657814
:10C510006368616E67655F6D74755F72657175657F
:10C52000737428292072657475726E656420257392
:10C530002E0073645F626C655F67617474735F651E
:10C54000786368616E67655F6D74755F7265706C46
:10C550007928292072657475726E65642025732EA2
:10C56000006E72665F626C655F676174740023D1F0
:10C57000BCEA5F782315DEEF121200000000010014
:10C580000007000014BC020014BC020008000000F8
:10C5900004BC020014BC020008000000FCBB020046
:10C5A00004BC0200080000006E72665F73646800DD
:10C5B00073645F626C655F6366675F736574282987
:10C5C0002072657475726E656420257320776865C6
:10C5D0006E20617474656D7074696E6720746F206D
:10C5E00073657420424C455F434F4E4E5F43464750
:10C5F0005F4741502E0073645F626C655F636667DE
:10C600005F73657428292072657475726E65642085
:10C610002573207768656E20617474656D70746928
:10C620006E6720746F2073657420424C455F4741EC
:10C63000505F4346475F524F4C455F434F554E5402
:10C640002E0073645F626C655F6366675F73657419
:10C6500028292072657475726E65642025732077B1
:10C6600068656E20617474656D7074696E6720749E
:10C670006F2073657420424C455F434F4D4D4F4EC4
:10C680005F4346475F56535F555549442E007364D8
:10C690005F626C655F6366675F73657428292072EB
:10C6A000657475726E6564202573207768656E20E9
:10C6B000617474656D7074696E6720746F20736542
:10C6C0007420424C455F47415454535F4346475F93
:10C6D000415454525F5441425F53495A452E0073AE
:10C6E000645F626C655F6366675F736574282920A9
:10C6F00072657475726E6564202573207768656E47
:10C7000020617474656D7074696E6720746F207336
:10C71000657420424C455F47415454535F4346473C
:10C720005F534552564943455F4348414E47454450
:10C730002E00496E73756666696369656E74205272
:10C74000414D20616C6C6F636174656420666F722B
:10C750002074686520536F66744465766963652E3E
:10C76000004368616E6765207468652052414D2002
:10C770007374617274206C6F636174696F6E20668C
:10C78000726F6D203078257820746F20307825788E
:10C790002E004D6178696D756D2052414D20736991
:10C7A0007A6520666F72206170706C69636174696C
:10C7B0006F6E20697320307825782E0073645F6275
:10C7C0006C655F656E61626C6528292072657475A1
:10C7D000726E65642025732E00000000CCBB020041
:10C7E000FCBB0200080000006E72665F7364685F45
:10C7F000626C6500C4BB0200CCBB020008000000F4
:10C800006E72665F7364685F736F63002020202020
:10C8100020202020206828282828202020202020B0
:10C820002020202020202020202020204810101010
:10C830001010101010101010101010108484848428
:10C8400084848484848410101010101010818181DD
:10C850008181810101010101010101010101010148
:10C8600001010101010101101010101010828282DB
:10C870008282820202020202020202020202020218
:10C880000202020202020210101010200007032010
:10C8900004170201085710408000000040CA02003F
:10C8A00004C9020018CA020053756E004D6F6E0075
:10C8B00054756500576564005468750046726900D8
:10C8C00053617400000000004A616E00466562001A
:10C8D0004D617200417072004D6179004A756E00C1
:10C8E0004A756C0041756700536570004F637400B2
:10C8F0004E6F76004465630000000000414D00501B
:10C900004D0000003CCA020038CA020038CA0200CA
:10C9100038CA020038CA020038CA020038CA020007
:10C9200038CA020038CA020038CA0200FFFFFFFFFF
:10C93000FFFFFFFFFFFFFFFFFFFF000078C90200BE
:10C94000A8C80200B4C90200C8C80200FCC802009E
:10C950005CC902000CCA020068C90200256D2F25BF
:10C96000642F2579000000002561202562202565BF
:10C97000202554202559000053756E646179004DBF
:10C980006F6E6461790054756573646179005765F1
:10C99000646E65736461790054687572736461795B
:10C9A00000467269646179005361747572646179DB
:10C9B000000000004A616E7561727900466562721E
:10C9C00075617279004D6172636800417072696CC3
:10C9D000004D6179004A756E65004A756C790041B9
:10C9E00075677573740053657074656D6265720068
:10C9F0004F63746F626572004E6F76656D6265722B
:10CA000000446563656D62657200000025483A2543
:10CA10004D3A255300000000F1B902000DBA0200A2
:10CA200019BA020025BA020041BA02004DBA02004A
:10CA300059BA020067BA0200000000002E00000090
:0CCA400043000000504F53495800000014
:10CA4C00000000000020004000000000002000401A
:10CA5C000000000000000000FF000000001001407A
:10CA6C00110004000090D0030B00030009A5020084
:10CA7C00202B00201F0000003F2B00201F00000077
:10CA8C00FF00FFFF9CC802009CC802009CC802006B
:08CA9C009CC802009CC80200C6
:0400000320007375F1
:00000001FF
