:020000022000DC
:1070000000000420B5720200DD720200DF7202008F
:10701000E1720200E3720200E5720200000000006B
:10702000000000000000000000000000E772020005
:10703000E972020000000000EB720200ED72020033
:107040008DC40200EF72020025CE0200EF72020032
:10705000EF720200EF72020085C80200EF720200B8
:10706000EF720200EF720200EF720200EF72020094
:10707000EF720200EF720200EF720200EF72020084
:10708000EF7202003D920200EF720200EF72020006
:10709000EF720200EF72020011690300EF7202004A
:1070A000EF720200EF720200EF720200EF72020054
:1070B000EF720200EF72020000000000000000000A
:1070C000EF720200EF720200EF720200EF72020034
:1070D000EF720200EF720200EF720200EF72020024
:1070E000EF720200EF720200EF7202000000000077
:1070F00000000000EF72020000000000EF720200CA
:10710000000000000000000000000000000000007F
:10711000000000000000000000000000000000006F
:10712000000000000000000000000000000000005F
:10713000000000000000000000000000000000004F
:10714000000000000000000000000000000000003F
:10715000000000000000000000000000000000002F
:10716000000000000000000000000000000000001F
:10717000000000000000000000000000000000000F
:1071800000000000000000000000000000000000FF
:1071900000000000000000000000000000000000EF
:1071A00000000000000000000000000000000000DF
:1071B00000000000000000000000000000000000CF
:1071C00000000000000000000000000000000000BF
:1071D00000000000000000000000000000000000AF
:1071E000000000000000000000000000000000009F
:1071F000000000000000000000000000000000008F
:1072000010B5054C237833B9044B13B10448AFF3E0
:1072100000800123237010BD202500200000000005
:10722000A4A6030008B5034B1BB103490348AFF301
:10723000008008BD0000000024250020A4A6030053
:10724000154B002B08BF134B9D46A3F5803A002138
:107250008B460F461348144A121A0FF025FD0F4BA8
:10726000002B00D098470E4B002B00D098470020F1
:10727000002104000D000D48002802D00C48AFF397
:1072800000800FF0D1FC2000290007F0AFFB0FF0C9
:10729000B7FC00BF00000800000004200000000050
:1072A0000000000020250020F4390020000000002C
:1072B000000000000649074A074B9B1A03DD043B08
:1072C000C858D050FBDC04F033FEFFF7B9FF0000D4
:1072D00034A803006022002020250020FEE7FEE7FE
:1072E000FEE7FEE7FEE7FEE7FEE7FEE7FEE7FEE776
:1072F000F0B595B000241D460E460846174604F02A
:107300008DFC304623460822099505A91A9D089749
:107310000D950A948DF82C400C9404F0E3FC9DF834
:1073200014308DF81140DDE9061003F00302012A44
:10733000CDE9020128D0022A04D0304604F072FCC4
:1073400015B0F0BDBDF81650C3F3C2038DF8103070
:10735000C5F389150827082D2C4628BF08243B466D
:1073600022460EA9304604F0BDFC2D1B214608AB79
:1073700002AA0EA8274400F0D7FF002DEBD130461B
:1073800004F050FC15B0F0BDBDF81470059DC7F3B6
:107390008312C3F3C2040EA93046920008238DF86D
:1073A0001040C7F3831704F09DFCC5F3952508AB87
:1073B0003A4628460EA9009302AB00F03DFF304646
:1073C00004F030FC15B0F0BD014B01221A7070477B
:1073D00080250020704700BF00B583B0044B0093A8
:1073E000044A4023FFF784FF03B05DF804FB00BFAD
:1073F000F97302004025002038B50E480E4D037881
:107400000E4CEB5C00252570D2B253B1043006F06F
:107410005FFA58B90A4B1B7813B12378002BFCD0C4
:1074200038BD0C3005F08CFF0028F3D001F0DCF9FA
:10743000F0E700BF60220020E43900208025002012
:107440003C2500202DE9704319481A4A0378D35C83
:1074500088B02BB3043006F09FF9174D0FCD6C4662
:107460000FC495E80F004FF0EB7684E80F004FF063
:1074700006084FF0FF394FF0FF344FF0FF350C484E
:10748000069600226946CDE90089CDE9024504F05F
:107490008FFF48B9094B00221A7008B0BDE870830D
:1074A0000C3005F0CFFED8E701F09EF9F2E700BFFF
:1074B00060220020E4390020B07F03003C2500203A
:1074C000F0B5154D0FCD89B06C460FC495E80F008F
:1074D0004FF0EB7C84E80F0006264FF0FF374FF0AB
:1074E000FF344FF0FF350D4A0D48CDF818C06946FE
:1074F000CDE90067CDE9024504F05AFF20B9094BF8
:1075000001221A7009B0F0BD01F06EF9054B01229D
:107510001A7009B0F0BD00BFB07F0300C97302004C
:10752000602200203C25002008B5FFF7C9FF044871
:10753000042100F0FDFD034B01225A7108BD00BF7C
:107540001CA803007422002038B50C4B0C48002402
:1075500000250022C3E90045FF21C3F818249960E3
:1075600083F82024C3F8142404F00CFB044610B95B
:10757000044804F02DFC204638BD00BF58260020EA
:1075800038A703000880030099B10E4B0E495B1A1F
:10759000DB0815D030B400220C4D02E001329342DA
:1075A0000BD035F822408442F8D151F8320030BC7B
:1075B0007047054951F830007047002030BC7047D3
:1075C000184670471CA803004CA703002025002084
:1075D000094B013903EBC00003290BD8DFE801F0A8
:1075E0000402080604207047022070474079704763
:1075F00000797047002070474CA703002DE9F04741
:10760000954CD4E900239A4284B063D00023C4F897
:107610001834BFF34F8FD4E9013503EA0501CA1CC2
:1076200004EB820614F82220500719D52768327817
:1076300002F00302012A43D0022A03D172880233E6
:1076400003EB921305EA0301D4F81804CA1C04EBF7
:10765000820628B99F4239D914F822205207E6D46D
:1076600004EB81015A1CC96801912A4004EB820293
:1076700001F00301D2680292022903F102062DD023
:10768000012900F09580D4F810543DB12B682846AC
:107690009B689847EB681D68002DF7D16F48704BC9
:1076A0007049C01AC008000440F0020000F0E0F881
:1076B000D4E90030C01A18BF012004B0BDE8F0873B
:1076C00032880233C2F383121344BBE7676004B00D
:1076D000BDE8F087002004B0BDE8F087BDF80630B3
:1076E0006148C3F38919B9F1500FC84628BF4FF05C
:1076F000500868F38F1308F10801ADF8063004F064
:1077000043FA07460028BED004F088FA0023082276
:1077100001A9384604F0B2FA25EA06030133B8EBB2
:10772000830F4FEA830A7DD9BAF1000F00F08D80F4
:1077300005EA06010331A8EB0A0804EB81010823DE
:10774000524638465FFA88F804F098FA47494246AC
:107750000AF10803384604F091FA09F1030906EB2F
:107760009906D4F81834002B6BD1D4F8105465B1B5
:10777000EB685A7928463946002A5ED02B681B6888
:107780009847EB681D68002DF2D1384604F04AFA9C
:1077900000230DF103008DF8033001F0BFFBD4F896
:1077A000183403B966609DF8030001F0DDFB7FE744
:1077B000BDF804302C48C3F38312062A28BF0622E2
:1077C000911C62F389138900ADF8043004F0DCF9F0
:1077D000074600283FF457AF04F020FA00230822A0
:1077E00001A9384604F04AFABDF8043013F4707F5A
:1077F000B7D04FF00008314629404FEA88030331E3
:10780000083304EB81010422384604F037FABDF84E
:10781000043008F10108C3F38313434506F1010660
:10782000E9D89EE705EA0601033104EB81014246EF
:107830000823384604F022FA8FE71D68002D97D1FF
:10784000A3E7384604F0EEF932E708494246082338
:10785000384604F013FA80E75826002074A7030086
:107860004CA70300F07F030038A703006426002024
:107870002DE9F04F644C87B0002306460DF10B0054
:107880008DF80B30A568019101F048FBD4E9012384
:1078900027681A440132D21B012A00F2858004F2C3
:1078A0001C4804F5836A04F214491BE0BDF80E304D
:1078B000C3F389130333090C0BEB930B4846009178
:1078C00003F0C2F9009900283ED04046C4F804B045
:1078D00003F07EF9D4E90113226819440131891AB1
:1078E000012962D80121404603F072F9504603F0A5
:1078F0009BF9484603F098F9D4E9013C03EA0C02ED
:10790000D11C04EB810014F821E01EF0040F0EF0EE
:10791000040129D104EB8202591CD268039201EAC6
:107920000C0104EB810102F00302012AC96803F192
:10793000020B32D0022AB9D000214846009103F050
:1079400083F900990028C0D14046C1E743880BEB7A
:1079500093130CEA0302D11C04EB810014F82110EC
:1079600001F004010029D5D090F800E00EF0030EDC
:10797000BEF1010F0BD0BEF1020F03F1020B02F1B9
:10798000030EE3D004EB8E000029EDD1C2E702889C
:107990000233C2F383121344DBE7BDF80C30C3F3A8
:1079A0008313090C9B4489E73A46134003330232A0
:1079B00005219DF80B0044F82310226001F0D4FA51
:1079C0000021124803F0BEF880F31000F1007B1C88
:1079D0002B40019A01F038013D4004EB830341F054
:1079E00001010004033540EA164641EA8221DE60C7
:1079F00044F8251094F820341BB1FFF7FFFD002850
:107A0000FBD107B0BDE8F08F58260020742A002073
:107A10002DE9F04F684C89B0002307460DF11300A3
:107A2000CDE902128DF81330A56801F077FAD4E998
:107A3000012326681A440132921B022A00F2858033
:107A400004F21C4804F5836A04F214491BE0BDF8F3
:107A50001630C3F389130333090C0BEB930B484621
:107A6000019103F0F1F8019900283ED04046C4F896
:107A700004B003F0ADF8D4E90113226819440131D0
:107A8000891A022962D80121404603F0A1F8504624
:107A900003F0CAF8484603F0C7F8D4E9013C03EA0A
:107AA0000C02D11C04EB810014F821E01EF0040F3D
:107AB0000EF0040129D104EB8202591CD268059210
:107AC00001EA0C0104EB810102F00302012AC968FA
:107AD00003F1020B32D0022AB9D0002148460191AD
:107AE00003F0B2F801990028C0D14046C1E74388AD
:107AF0000BEB93130CEA0302D11C04EB810014F886
:107B0000211001F004010029D5D090F800E00EF01A
:107B1000030EBEF1010F0BD0BEF1020F03F1020BF9
:107B200002F1030EE3D004EB8E000029EDD1C2E791
:107B300002880233C2F383121344DBE7BDF814302A
:107B4000C3F38313090C9B4489E732461340033384
:107B5000033245219DF8130044F82310226001F000
:107B600003FAB31C2B4004EB8303039A1348DA6037
:107B7000002102F0E7FF80F31000F900731C2B4096
:107B8000029A01F03801354004EB830341F04101D2
:107B90000004033540EA174741EA8221DF6044F8D8
:107BA000251094F820341BB1FFF728FD0028FBD1E5
:107BB00009B0BDE8F08F00BF58260020742A0020CD
:107BC0002DE9F04F6C4C89B0002607460DF11300EB
:107BD000CDE9011203938DF81360A56801F09EF9B9
:107BE000D4E9012326681A440132921B032A00F2C9
:107BF000858004F21C4804F5836A04F214491BE0F2
:107C0000BDF81630C3F389130333090C0BEB930B48
:107C10004846009103F018F8009900283ED04046ED
:107C2000C4F804B002F0D4FFD4E901132268194467
:107C30000131891A032962D80121404602F0C8FFA8
:107C4000504602F0F1FF484602F0EEFFD4E9013C55
:107C500003EA0C02D11C04EB810014F821E01EF0B1
:107C6000040F0EF0040129D104EB8202591CD268E2
:107C7000059201EA0C0104EB810102F00302012AE2
:107C8000C96803F1020B32D0022AB9D0002148465C
:107C9000009102F0D9FF00990028C0D14046C1E709
:107CA00043880BEB93130CEA0302D11C04EB810015
:107CB00014F8211001F004010029D5D090F800E05B
:107CC0000EF0030EBEF1010F0BD0BEF1020F03F157
:107CD000020B02F1030EE3D004EB8E000029EDD17C
:107CE000C2E702880233C2F383121344DBE7BDF814
:107CF0001430C3F38313090C9B4489E732461340C5
:107D00000333043285219DF8130044F823102260C8
:107D100001F02AF9B21C2A40F31C2B4004EB82022A
:107D200004EB830C029BD3600021039B1348CCF827
:107D30000C3002F007FF80F31000F900731C2B4099
:107D4000019A01F03801354004EB830341F08101D1
:107D50000004033540EA174741EA8221DF6044F816
:107D6000251094F820341BB1FFF748FC0028FBD104
:107D700009B0BDE8F08F00BF58260020742A00200B
:107D80002DE9F04F6F4C89B0002607460DF1130026
:107D9000CDE9011203938DF81360A56801F0BEF8D8
:107DA000D4E9012326681A440132921B042A00F206
:107DB000858004F21C4804F5836A04F214491BE030
:107DC000BDF81630C3F389130333090C0BEB930B87
:107DD0004846009102F038FF009900283ED0404606
:107DE000C4F804B002F0F4FED4E901132268194487
:107DF0000131891A042962D80121404602F0E8FEC7
:107E0000504602F011FF484602F00EFFD4E9013C53
:107E100003EA0C02D11C04EB810014F821E01EF0EF
:107E2000040F0EF0040129D104EB8202591CD26820
:107E3000059201EA0C0104EB810102F00302012A20
:107E4000C96803F1020B32D0022AB9D0002148469A
:107E5000009102F0F9FE00990028C0D14046C1E728
:107E600043880BEB93130CEA0302D11C04EB810053
:107E700014F8211001F004010029D5D090F800E099
:107E80000EF0030EBEF1010F0BD0BEF1020F03F195
:107E9000020B02F1030EE3D004EB8E000029EDD1BA
:107EA000C2E702880233C2F383121344DBE7BDF852
:107EB0001430C3F38313090C9B4489E73246134003
:107EC00003330532C5219DF8130044F823102260C6
:107ED00001F04AF8B01C2840F21C331D2B402A4008
:107EE00004EB800004EB820204EB830C029BC36072
:107EF000039BD3600021129B1348CCF80C3002F096
:107F000021FE80F31000F900731C2B40019A01F050
:107F10003801354004EB830341F0C101000403350F
:107F200040EA174741EA8221DF6044F8251094F8BF
:107F300020341BB1FFF762FB0028FBD109B0BDE87C
:107F4000F08F00BF58260020742A00202DE9F04F42
:107F5000754C89B0002607460DF11300CDE90112DA
:107F600003938DF81360A56800F0D8FFD4E90123CE
:107F700026681A440132921B052A00F2858004F219
:107F80001C4804F5836A04F214491BE0BDF816305E
:107F9000C3F389130333090C0BEB930B4846009191
:107FA00002F052FE009900283ED04046C4F804B0CA
:107FB00002F00EFED4E90113226819440131891A36
:107FC000052962D80121404602F002FE504602F027
:107FD0002BFE484602F028FED4E9013C03EA0C02DD
:107FE000D11C04EB810014F821E01EF0040F0EF008
:107FF000040129D104EB8202591CD268059201EADE
:108000000C0104EB810102F00302012AC96803F1AB
:10801000020B32D0022AB9D000214846009102F06A
:1080200013FE00990028C0D14046C1E743880BEBFE
:1080300093130CEA0302D11C04EB810014F8211005
:1080400001F004010029D5D090F800E00EF0030EF5
:10805000BEF1010F0BD0BEF1020F03F1020B02F1D2
:10806000030EE3D004EB8E000029EDD1C2E70288B5
:108070000233C2F383121344DBE7BDF81430C3F3B9
:108080008313090C9B4489E73246134003330632BD
:1080900040F205119DF8130044F82310226000F00F
:1080A00063FFB11C06F1030C29400CEA050C321DDC
:1080B000731D2B402A4004EB810104EB8C0C0298C9
:1080C000C86004EB820204EB830E039BCCF80C30F7
:1080D000129BD3600021139B1448CEF80C3002F0A1
:1080E00031FD80F31000F90001F03801731C2B40C2
:1080F000019A41F48071354004EB830341F00101A2
:108100000004033540EA174741EA8221DF6044F862
:10811000251094F820341BB1FFF770FA0028FBD12A
:1081200009B0BDE8F08F00BF58260020742A002057
:1081300030B4154DD5F810140446002071B10B462B
:1081400001E01B6853B1DB681A798242F9D1013032
:108150000A28F3D14FF0FF3030BC7047E368187144
:10816000D5F810344BB1DA68E36812681A60D5F8B4
:108170001034DB681C6030BC7047C5F81044E268FE
:10818000136030BC704700BF5826002038B5094B3B
:10819000D3F81044012583F820544CB1E3685D7195
:1081A000236820465B689847E3681C68002CF5D17B
:1081B00038BD00BF5826002030B5C38885B00446BE
:1081C0000D461BBB217A05291ED0627A82B9134A5B
:1081D000A08852F8212003920021FFF7D5F9039AD5
:1081E0000F490346284605B0BDE8304002F0A8BD5F
:1081F000A088FFF7EDF90B4B0B4953F820202846D8
:1082000002F09EFD217AE2E705B030BD074A0092F8
:108210000749084A284602F093FDD3E7DC800300B3
:108220003C800300B88003006098030034800300A2
:108230001C800300148003002DE9F04385B04FF04B
:10824000000C0C9C814694F80C8084F80CC00E46FF
:108250001746184621461D46FFF7AEFF062F09D8E0
:10826000DFE807F0042E343B444F1F004946204608
:1082700002F066FD2B7A052B05D06B7A5BB9274996
:10828000204602F05DFD204602F04EFD84F80C8091
:1082900005B0BDE8F083224A2249204602F050FD95
:1082A000EDE7D6E90413F2680393B3680291CDE9D0
:1082B00000324946D6E90023204602F041FDD9E7C5
:1082C00032684946204602F03BFDD3E7D6E9002359
:1082D0004946204602F034FDCCE7B3680093D6E966
:1082E00000234946204602F02BFDC3E7D6E90232BF
:1082F00001920093D6E900234946204602F020FD72
:10830000B8E7D6E90321B3680291CDE900324946C6
:10831000D6E90023204602F013FDABE748800300B6
:108320003480030060980300082900D970472DE9C4
:10833000F04F9B4683B000241B7B8BF80C400D460E
:1083400006465946104690460193DFF8D0902C4FD0
:10835000FFF732FF05E0325D013402F0F1FC082C3A
:1083600009D0A54239465846F5D84946013402F0AD
:10837000E7FC082CF5D12349DFF8A490224C234FC9
:10838000584602F0DDFC4FF0000A0DE0D15D11F01F
:10839000970F08BF2E22214658460AF1010A02F023
:1083A000CFFCBAF1080F10D0554505D916F80A20B0
:1083B0007E2AEBD92E22EEE7494658460AF1010AF9
:1083C00002F0BEFCBAF1080FEED198F80830052B88
:1083D00002D098F8093063B90D49584602F0B0FC54
:1083E000584602F0A1FC019B8BF80C3003B0BDE8AD
:1083F000F08F084A0849584602F0A2FCECE700BF9B
:108400004C800300588003005C80030009A5030032
:108410004880030034800300609803005480030008
:108420004480030038B5174B1D783DB3164B1968CF
:10843000C0B200230C4604E00133AB4204F108044F
:108440001CD011F833209042F6D104F00BFA637877
:10845000A3F10103B3FA83F35B09834200D038BD73
:108460000A4BD3E900231343F9D1094B0948196892
:108470000022BDE83840490800F0E8BC00231B7822
:10848000FFDE00BF142B0020682B0020402B0020B3
:10849000182B0020202B00202DE9F04FDFF854820C
:1084A00098F8003083B0002B00F01981DFF8489273
:1084B0008C4F8D4E00254FF0010A3C6814F83500B2
:1084C00004F0D0F904EBC50314F835405B784FEAAB
:1084D000540C14F0010E16F80C10A3F10103B3FABA
:1084E00083F314BF0A0901F00F025B09042A00F2AA
:1084F000A080DFE802F0725D32200300834240F08A
:10850000AB80BEF1000F0CBFF0230F2303EA010381
:108510000CBF03213021194306F80C1098F80020F5
:1085200001359542C9DBD9E90023134340F0CD80E2
:1085300003B0BDE8F08F83427BD0BEF1000F0CBFCB
:10854000F0230F2303EA01030CBF04214021194348
:1085500006F80C1098F80020E2E783426CD1BEF1D7
:10856000000F0CBFF0230F2303EA010398F800204B
:108570000CBF03213021194306F80C10002AD2D079
:10858000D7F800C00023614603E0934201F10801DF
:10859000C6D01CF83300A04203F10103F5D14B68AB
:1085A000002BBDD020460121984798F80020B7E75E
:1085B000834219BF0020034602232020BEF1000F92
:1085C0000CBFF0220F2201EA020118BF03460B4341
:1085D00006F80C3098F80020A2E7834229D1BEF1BA
:1085E000000F14BF0F23F02303EA010314BF10216F
:1085F000012119430DF107004FF0000306F80C109C
:108600008DF8073000F08AFCD9E90032A4F120018E
:10861000C4F120000AFA01F12AFA00F001430AFA33
:1086200004F4114323439DF80700C9E9003100F029
:108630009BFC98F8002073E7BEF1000F0CBFF023FD
:108640000F2303EA01030CBF01211021194306F88F
:108650000C1098F8002063E7BEF1000F14BF0F2341
:10866000F02398F80000194006F80C1098B1D7F8DC
:1086700000C00023624603E0834202F108020AD0F0
:108680001CF83310A14203F10103F5D1536813B173
:108690000021204698474FF000030DF107008DF8A8
:1086A000073000F03BFCD9E90032A4F12001C4F10D
:1086B00020000AFA01F12AFA00F001430AFA04F450
:1086C00022EA010123EA0403ADE7084B08481968D0
:1086D0000022490800F0BAFB03B0BDE8F08FDFF8D4
:1086E000189020E7682B0020482B0020182B002032
:1086F000202B0020142B0020402B0020092A43D9D6
:108700002DE9F04182B0144606460D4603F042FFC3
:10871000002832D0214A2249224B16600D7022488F
:108720001C60002120220EF0BFFA204B0020002107
:108730006C1EC3E90001E4B245B3DFF87C8006EBB0
:10874000C404032702E0A64220D01C469DF8063050
:10875000A57820788DF8047023F00703424601A91C
:108760008DF806308DF8055003F01EFFA4F10803C4
:108770000028E8D002B0BDE8F08103F0BDFE00287B
:10878000C8D002B0BDE8F08107207047084A094808
:10879000002100F04DFB02B0BDE8F081682B002005
:1087A000142B0020182B0020482B0020402B0020E9
:1087B00099840200FC8003002584020070B5084DF6
:1087C0002B785BB1074E00243368012113F8340085
:1087D00003F0DCFF2B780134A342F5D8002070BDF4
:1087E000142B0020682B002000B585B00346002123
:1087F00001AA44F20100CDE90111039300F004F84D
:1088000005B05DF804FB00BF10B572B6FFF7BEFC03
:10881000FEF7F4FE0028FBD1104B114C1149E41A6D
:10882000E408240444F00100FFF722F80E4B1B6813
:10883000DB0700D500BE0D4944F00200FFF718F831
:10884000BFF34F8F0A490B4BCA6802F4E06213432F
:10885000CB60BFF34F8F00BFFDE700BF4CA7030005
:1088600074A7030000810300F0ED00E00C81030019
:1088700000ED00E00400FA05F0B4044612F0030035
:1088800011D14B1CDB00094D094E0A4F30709BB2D1
:1088900013442B60084E094D094B30702C80198011
:1088A0003A60F0BC70470720F0BC7047702B002086
:1088B0006C2B0020742B00207C2B0020782B0020B8
:1088C0007A2B00202DE9F043DFF8C480B8F800309F
:1088D0008B4283B003D2092003B0BDE8F0830026A9
:1088E00005460DF107008DF807600C46174600F0AD
:1088F00015FB2349234A244B1278088819788142B2
:108900005FFA81FC38BF0CF10106D2B238BFF6B273
:10891000B2422DD01E781978DFF87890CAB288421A
:1089200086BF0132D2B200229DF807001A70F6B25B
:1089300000F01AFBD9F8003043F8367003EBC60399
:10894000F70005B124B90020988003B0BDE8F0839A
:108950000E4BB8F800001B68294606FB0030224683
:108960000EF094F9D9F800301F440020BC80B3E722
:108970009DF8070000F0F8FA042003B0BDE8F0838A
:108980007A2B00207C2B00206C2B0020702B0020E9
:10899000782B0020742B00202DE9F047194C1A4D3C
:1089A00022782B789A4222D0DFF868A0DFF868900E
:1089B000164F174E4FF000082378DAF80020D9F848
:1089C0000010388802EBC30C03FB001052F8333060
:1089D000BCF80410984722783188D3B20133914211
:1089E000DBB206D9237023782A789A42E4D1BDE815
:1089F000F08784F8008022782B789A42DCD1BDE899
:108A0000F08700BF7C2B00206C2B0020782B0020EF
:108A10007A2B0020742B0020702B0020D0E9022339
:108A2000D1E90201994208BF90422CBF01200020E9
:108A3000704700BFD0E90030184700BF2DE9F04F64
:108A40002DED028B87B0064600F0B8FB40B1AC4A72
:108A5000D2E9003113F1807341F10001C2E9003124
:108A60000021304600F0C6FBA64C002800F09280A2
:108A70002368002B00F08E80A34B25681B7823B160
:108A80001DB12B7F002B40F04D810DF1100800230C
:108A900001213046236000F0ADFB002800F0838008
:108AA0009A489B4D00F0B6FB954BD3E90023D5E9DE
:108AB00000AB121843F100035B4508BF524503D2D7
:108AC00012F1807243F1000392484146C5E9002348
:108AD00001F082FF00286CD1DFF83C928B4FDFF869
:108AE00020A208EE108A39E0484603F0A9F90546AD
:108AF000D5E902813846039100F08CFBDAE90023C6
:108B0000DFF80CB21218DBE9000143F100038B42DD
:108B100008BF8242039903D212F1807243F100032D
:108B2000B8EB020061EB030300900193DDE9002341
:108B3000012A73F100016BDBB2F5350F80F0B780CD
:108B4000AA684FF496030021384600F0B1FA0028D5
:108B500000F0A5800D285FD000232360484603F075
:108B600075F92368002800F0BB80002BBCD0236877
:108B7000D0E90201D3E90223994208BF904280F074
:108B8000918023681B7F002BAED02168484603F0FC
:108B900043F9A9E7012130460DF1100800F02AFB46
:108BA00000287FF47DAF5B48414601F015FF0028A7
:108BB00092D0594DDFF85091564F0BE0002B7CD0EE
:108BC0004146384601F038FF4146384601F004FF7F
:108BD000002881D00378012B12D0022BEED1284639
:108BE0004FF0000A03F02CF930B180F81CA02846A1
:108BF00003F026F90028F8D1012389F80030DFE7D7
:108C000041682368994268D0284603F023F9D7E7E2
:108C10000021384600F0E2FA3B4B1B78002B9BD03A
:108C20002B7F002B98D0384600F0F4FADBE90023C4
:108C3000DAE900BC1BEB000B4CF1000C9C4508BFB3
:108C4000934503D21BF1807B4CF1000CD5E9022344
:108C50009C4508BF93454BD32B69002B46D06B69CD
:108C60000493AB692D4A059318EE100A0821FFF70B
:108C700029FE002841D1296900293FF46DAF2B7FDF
:108C8000002B3FF469AFD5E90223521843F10003EA
:108C9000C5E902232946484603F0BEF85CE723688D
:108CA000BBB1256007B0BDEC028BBDE8F08F384644
:108CB00000F0B0FA1A4A024443E743681A7F002AD8
:108CC0007FF47EAF01221A774168284603F0A4F8AA
:108CD00076E7304600F0BEF9E3E7002323606FE754
:108CE000002BDFD1304600F0B9F9DBE72B77B6E790
:108CF0002946484603F090F82EE7FFF775FDBAE7DE
:108D0000882B0020082C0020902B00207C220020A3
:108D1000002C0020EC2B00202C810300358A02005F
:108D2000FFFFB400224800F075FA224A224BD2E934
:108D30000089D3E9002318EB000849F1000999459F
:108D400008BF904503D218F1807849F10009D5E9B0
:108D50000223994508BF904522D32B6903B92B778D
:108D60006B6904930DF11008AB69144A05934046F2
:108D70000821FFF7A7FDC0B9296900293FF487AE94
:108D80002B7F002B3FF483AED5E90223521843F129
:108D90000003C5E902230A48294603F03DF876E6B8
:108DA0000748294603F038F86FE6FFF71DFDE3E7B3
:108DB0007C220020882B0020002C0020358A020015
:108DC0002C81030010B5134B13491B68134882B064
:108DD00058220193082301F087FD044610B1204674
:108DE00002B010BD0E4A0F4801A900F0D5F80446A4
:108DF0000028F4D10B48012100F0D6F901231946CF
:108E0000094A084800F02EF9084B012220461A7042
:108E100002B010BD28810300942B0020EC2B002011
:108E20003D8A02007C220020FFFF7F00902B002063
:108E30004AB1A1F101010368B1FA81F14909C3E91D
:108E40000412002070470720704700BF037F0BB15A
:108E500000207047F0B5826183B004461A480D4681
:108E600000F0D8F9194B1A49D3E90023D1E900677A
:108E7000121843F10003BB4208BFB24203D212F101
:108E8000807243F100035219216943F10003C4E9E0
:108E9000022301B125610F4801A901F05FFD48B12E
:108EA00000254460057001A90A4801F085FD20B93C
:108EB00003B0F0BD042003B0F0BD034800F0AEF9EC
:108EC000284603B0F0BD00BF7C220020882B002084
:108ED000002C0020EC2B002030B5002583B0044688
:108EE000057701A90B4801F039FD78B101224460F2
:108EF000027001A9074801F05FFD08B903B030BD59
:108F0000054800F08BF9284603B030BD042003B0BB
:108F100030BD00BFEC2B00207C22002070B4EFF3AA
:108F2000108472B60D4B9A68AAB90D490D4E0125F1
:108F30009D60D1F8805035401D60C1F88060D1F847
:108F400084505D604FF0FF33C1F88430027004B983
:108F500062B670BC704701230370F8E7D83900206F
:108F600000E100E0FC06FFBD094B9A687AB170B9D8
:108F700010B4EFF3108172B6064A1C6814605C6886
:108F80005460986001B962B65DF8044B7047704751
:108F9000D839002000E100E070B5264C4379264E18
:108FA00004EBC30546F823202D79002D35D1036845
:108FB0000A88C3F8082590F904308A78002B24DB4E
:108FC00003F1604303F561435201D2B283F80023F9
:108FD00090F90420194E1A4B012502F01F01520985
:108FE00005FA01F146F82210164E4279164944F866
:108FF0003200981B04EBC204C008000440F00300D8
:109000002571FEF735FC002070BD104903F00F03F9
:1090100052011944D2B20A76DAE70A4B08480C49E1
:10902000C01AC008000440F00200FEF721FC08202E
:1090300070BD00BF0C2C0020142C002000E100E0CB
:1090400084A703004CA703005C810300FCEC00E054
:1090500038810300036801221A6070470368012207
:109060005A607047F0B404684FF480358D40C4F8FE
:109070000853066801F15004C6F84853A400066876
:10908000A4B20027375182B036590468019601F521
:10909000A87122F07F42019E44F821200268C2F8A4
:1090A000445313B10368C3F8045302B0F0BC7047D3
:1090B0002DE9F04704464FF4803600688E40C0F832
:1090C00048632068C0F80863206800EB81058A4681
:1090D000D0F80415D5F84005C5F840150AF150053B
:1090E000AD002768ADB24FF0000847F8058082B0A8
:1090F000401A7F59009720F07F40012822F07F47D7
:109100009946009A41D02268D2F80455C2F84463C7
:109110007A1B22F07F42012A0AF5A87125D0226825
:1091200042F821702068D0F804557A1BC9F1FF136A
:10913000013A03F57F4322F07F42934211D342B1BB
:10914000C0F8446323680020C3F8046302B0BDE89C
:10915000F087013740F821702068D0F804359D422F
:10916000EED00D2002B0BDE8F08720680D4B01372E
:1091700040F8217043F001034FF480609847206865
:10918000D0F804359D42DBD0EBE7064A4FF480600F
:1091900042F001029047226842F80580525901923C
:1091A000019AB0E77081030002680223C2F84433D9
:1091B00011B10268C2F80433704700BF0368D3F8E6
:1091C000040100B97047002282B0C3F80421D3F82B
:1091D00004310193019B012002B0704702684FF4F3
:1091E000803303FA01F1C2F848130368C3F8081387
:1091F000704700BF50318900036889B2585800B9E0
:10920000704700225A5082B05B580193019B0120A5
:1092100002B070470368D3F80405704790F9043032
:1092200005485A090121403203F01F0301FA03F3F4
:1092300040F82230704700BF00E100E0024A034BD3
:1092400010681B68184700BF0C2C0020142C00204D
:109250000223F0B50B8000F580550830002A33D08A
:109260002B4F4FF6FF764FF0010C036801331FD0F0
:10927000B0F802E00EF1030400EB8404A5421DD314
:109280008388B34215D003889BB183685C1C10D0DF
:109290003C689C4202D23B60B0F802E00B8803338A
:1092A00073440B804388033300EB83008542DCD892
:1092B000F0BD82F800C0B0F802E0EFE701231370C0
:1092C0004FF480630B80F0BD114E4FF6FF740368BE
:1092D0000133EDD04388DA1C00EB82029542EFD3D4
:1092E0008288A24209D002883AB18268571C04D011
:1092F0003768BA4284BF326043880A880332134415
:109300000B804388033300EB83008542DFD8F0BD38
:10931000502C0020F0B543688C461BB1324AD4680B
:10932000A3423CD20023314EACF8003073684FF0BA
:10933000010E03F580544FF6FF7708339C420ED898
:10934000BEF1020FACF800E006F114064AD07368D3
:1093500003F5805408339C424FF0020EF0D91A688E
:109360000132EDD05A88033203EB82029442E7D3F4
:109370009D88BD4209D01D883DB19D68691C04D0FF
:109380000168A94205D01346D8E79442D8D91346BC
:10939000E5E7174A4360138903810120F0BD126994
:1093A0009342BFD813F00305BCD1114A0489128936
:1093B0009442B7D104689A689442B3D10B4842688A
:1093C000934203D902F58052934207D382699342B4
:1093D00008D902F58052934204D20125ACF800501E
:1093E0000120F0BD0020F0BD0C250020582C0020ED
:1093F0003C2C00202DE9F04F9C4E8BB004464FF6DC
:10940000FF773568002D00F0CB802A78531E052B9E
:1094100000F29081DFE803F05C2323030341002C7A
:1094200040F0C5802B79012B00F0C082022B00F0A8
:10943000DA80002B00F092820DF11408C8E9024492
:109440000594C8F8104048F20E6406942B78013B4E
:10945000052B4DD8DFE803F0756685799949B5F895
:1094600014A0002C40F05482DFF82082A97D0AEB82
:109470008A0308EB83034FEA8A091C895B6803EBC4
:109480008404062900F27B84DFE811F02B02180225
:10949000FE01EB01CA01B0019601002C40F087806B
:1094A000DFF8ECC19CF80C30002B00F0C4809CF875
:1094B00000308CF80C40013B062B00F23B81DFE8CA
:1094C00013F01903F30224010C013901DD02E90054
:1094D000002C40F015822B79032B00F29F80DFE8EF
:1094E00013F05F0172005401340105238DF814302C
:1094F0005F4C04F1100554F8043B404603B1984713
:10950000A542F8D15B495C480024346001F094FA2C
:109510005A48012101F06AFB00287FF472AF0BB0BA
:10952000BDE8F08F01238DF814302B89ADF8203081
:10953000AB88ADF82230EB68079300238DF8243018
:10954000D6E700238DF81430D2E703238DF81430CA
:10955000EB88ADF820302B89ADF82230EB6807930B
:10956000C6E702238DF814302B89ADF82030AB8884
:10957000ADF82230EB680793AB7DA3F10603B3FA95
:1095800083F35B098DF82430B2E704238DF814309F
:10959000EB88ADF820300023ADF822300793A7E721
:1095A0003449354801F018FA054630602DE74FF48C
:1095B00006440DF114080023C8E90033C8E902335A
:1095C000C8F8103041E7DFF8C48098F80030022B6B
:1095D00012D098F81430022B00F0A883284B0121F8
:1095E000002219705A600DF114080024C8E90344E0
:1095F000C8F80840059428E700239A001A4408EBAD
:109600008203002059680090082308F822001D4AB0
:109610001D4801F05FFF002881D03568184A0DF120
:1096200014080023C8E9023353600593C8F81030CA
:1096300048F20D6409E79CF80030072B09D8DFE8F1
:1096400013F0DC02080008000E03FA0229002900CA
:10965000D602013B062B6DD8DFE813F04C02260240
:1096600057003F006C0010021C0000BF542C00206B
:10967000242C00204C2C00200C2D00201C2D002020
:10968000342C00207C8103000C250020582C002065
:109690003C2C0020BB4BBC4A1968BC4800230093FB
:1096A000CCF8043007238CF80030082301F012FFB7
:1096B0000446002C3FF433AF35680DF1140841F631
:1096C0001D5200239442C8E90333C8F808300593BB
:1096D00008BF1C463FF4B9AE16E3BCF80230DFF811
:1096E000C88203EB830308EB8308D8F80C30002B07
:1096F00040F04D8204228CF80020D8F80410A348D2
:10970000012201F085FF0446D3E7DCF804209D48E0
:109710005388848801689D4803339BB29B0001EB0A
:1097200084010024009403248CF8004001F0D2FE50
:109730000446BEE70DF114080023C8E90333C8F856
:109740000830059348F20E647FE68E4C904A2168FB
:109750008E48DFF854824FF0000985F80490082302
:10976000CDF8009001F0B6FE8A4B25685B88A18891
:1097700003EB830308EB830208F82390536823600C
:10978000022355601181A38045E77E4A7F48116816
:10979000002302242B719480012201F039FF3AE763
:1097A000784B794A1968794801232B71002300937B
:1097B000082301F08FFE2EE72A4641F61D5409EBDF
:1097C0000A0108EB8101EB880889033303440B810C
:1097D000D144EB8808EB8908C3F57F43B8F80A1039
:1097E000FD330B441546A8F80A3066E76A4B6B4A0E
:1097F0001C88516865486A4A00234FF0060C85F8BA
:1098000016C00093042301F065FE18BB04EB84042A
:1098100008EB8408012388F810300BB0BDE8F08F06
:109820005E48AB695C4903604FF0000BC0F804B0C0
:10983000FFF770FD002800F06A820223AB75042355
:109840005248CDF800B02146EA1801F043FE002846
:109850003FF465AEAB7D3268022B48F20D64B7D998
:10986000ADE7EB882A6949484FF0010C04F10C017F
:10987000002485F816C09B00009401F02BFE002800
:10988000E8D10BB0BDE8F08F2B694048002B14BF26
:10989000032301230022AB7504F108010092042385
:1098A00005F10C0201F016FE00283FF438AEAB7D46
:1098B0003268022B48F20D648AD980E7032A0CBF74
:1098C000052306230022AB7530480092211D042396
:1098D00005F1080201F0FEFD0028BBD10BB0BDE888
:1098E000F08F02230022AB75042300922748214603
:1098F000EA1801F0EFFD0028ACD10BB0BDE8F08F05
:10990000284B00225A604FF406440DF1140852E629
:10991000AB7DDFF89480022B08D90AEB8A0208EBB2
:109920008202EB88118903330B4413814FEA8A09C1
:1099300009EB0A01EB8808EB8101C3F57F434A89F3
:109940000DF11408FD3313440022C8E903224B81B2
:10995000C8F8082005924FF4064476E502232B71DF
:10996000CDE906440DF11408EB68059340460DF16E
:109970001201FFF7CFFC002840F09E8148F20964F5
:1099800019E600BF202D0020848103000C25002053
:109990007C8103003C2C00202C2D0020182C002062
:1099A00078810300342C0020582C0020BB4B1B78FE
:1099B000002B00F09B81DFF8E8E2BEF80490B9F1DB
:1099C000010F12D8DFF8EC82039409EB890208EB4F
:1099D0008202137883B109F1010399B201299946F2
:1099E000AEF8043002F11402F3D9AD480822002188
:1099F0000DF05AF93568F6E55368DEF8001003F506
:109A0000805C03F1080A002900F06E814B88033363
:109A100001EB83018C4506D8039BCEF80030DAE7D2
:109A20009C45F9D919460B680133F5D04B880333AF
:109A300001EB83039C45EFD38C88BC42F0D0B1F896
:109A400000B0BBF1000FEBD088680130E8D0EB88A4
:109A5000CEF80010A342D6D100230093914A924839
:109A6000042301F037FD002840F07E8109EB8909CD
:109A700008EB8908012388F8103050E5BCF8022073
:109A8000DFF830829300134408EB8308062000239C
:109A9000D8F80410854A00938CF800000823824807
:109AA00001F018FD044604E6BCF80200DFF8048269
:109AB000DCF8042000EB800308EB83034FEA800E00
:109AC000596801F58055002A40F0E28001F1080252
:109AD000AA426DD3704408EB8008D8F80C30002BF4
:109AE00055D104208CF8000001226F4801F090FD50
:109AF0000446DEE59CF80A3063B1DFF8B881D8F897
:109B00000C3000228CF80A2023B998F81020002A83
:109B100040F030819CF80B3053B1DFF89881D8F8D1
:109B2000203000228CF80B2013B998F8243073B938
:109B30000DF114080023C8E90333C8F808308CF885
:109B40000030ACF80230CCF8043005937DE40123FA
:109B500018464FEA830E0EEB030108EB8101DCF897
:109B600004204968ACF8020001F58055002A00F095
:109B700003815088033002EB8002954200F2D880C6
:109B8000734408EB8308D8F80C30002BA9D0484B5D
:109B90004548196802229A8005228CF8002000238B
:109BA000012201F035FD044683E5AB4292D21A460C
:109BB000136801338ED05388033302EB8303AB4227
:109BC00088D89488BC42F0D01488002CEDD09468DA
:109BD0000134EAD0CCF80420354C5388A58821689C
:109BE000314803339BB29B0001EB850199E50123CA
:109BF0008CF800309CF80A307EE7DFF8B880BCF8BB
:109C0000081098F8142098F80030B2FA82F252093D
:109C10000131B3FA83F35B098CF80B20ACF8081020
:109C2000002201218CF80A30ACF802208CF80C20BC
:109C30008CF8001060E7BCF80220DFF878801C493F
:109C400002EB820308EB830308685D688C88586028
:109C500002201C810D60888002FA00F313E7BCF833
:109C60000200134CDFF84C80DCF80420A3885588F0
:109C700000EB800108EB8101033349682B444FF06E
:109C8000020901F58055A38000FA09FE8CF80090C6
:109C90005388033302EB83021AE700BF342C002001
:109CA000302D0020788103000C2500207C810300EA
:109CB000202D0020582C00200699334A8B88EB80F9
:109CC0000B882B81314800940423BDF8124001F029
:109CD00001FC38BB2E4B04EB840403EB840401230A
:109CE00023740BB0BDE8F08F514693E60DF11408D4
:109CF0002146284808220CF0D7FFC8E90244059401
:109D0000C8F8104048F201643568FFF79EBB0DF1BA
:109D10001408C8E90200059048F20964C8F8100068
:109D2000FFF793BB356848F20D6444E4012364E413
:109D3000106801303FF424AF5088033002EB8000FC
:109D40008542FFF41DAF9488BC4205D014881CB135
:109D5000946801347FF43EAF85427FF611AF02462E
:109D600010680130E8D10BE7356848F20D640DF159
:109D7000140820E41846ECE601F10802FDE62A4644
:109D800048F20E641BE500BF788103000C2500201B
:109D9000582C0020302D00204068FFF72BBB00BF5F
:109DA000094A116804290BD038B5084C15680346D8
:109DB0000121104644F8253000F00AFF002038BD8C
:109DC00048F20B60704700BF282D0020242C002093
:109DD0002DE9F04F954D89B02A780023CDE9033362
:109DE000CDE90533079372B1914C04F1100554F895
:109DF000043B03A803B19847A542F8D100242046AC
:109E000009B0BDE8F08F281D02F0FF0900F0FCFE4C
:109E10000028F3D140F6F8731B685C1C41D04FF06A
:109E2000805211695269DFF834828249C8F81030D3
:109E30004046A3F540530022C8F80C3001F01CFB4B
:109E400004460028DBD17C497C48DFF814A21C239F
:109E50008C2200F049FD26464FF0030B2746D8F828
:109E60000C30F018F35827D0754A934279D14368E3
:109E7000744A934278D00132934222D1B9F1000F53
:109E800040F09C80704B7149186000220193FFF7ED
:109E9000DFF9019B9B88022B0CBF042308231C4382
:109EA00028E06B4B4FF080521B6811695269581CB7
:109EB00008BF02FB01F3B6E75A1C02D0604A934286
:109EC0000AD1031D00F5805101E0994261D01A6862
:109ED000013203F10403F8D007EB87030AEB830296
:109EE00003210BF1FF3B01370AF823101FFA8BFB0C
:109EF000BFB2506006F58056B6F5405FAFD1BBF1FA
:109F0000010F40F29080E4B2062C0ED1484C0122A1
:109F100000232A7004F110066B6054F8043B03A878
:109F200003B19847A642F8D168E702D814F0FD0FB4
:109F300079D002A9414800F011FD1C2205460021FC
:109F40000CF0B2FE002D68D00123013C2B700A2CCE
:109F50004ED8DFE804F04B4D4B4D5F4D5F4D5C65D7
:109F60005C000133B8D1ACE707EB870300220AF8A5
:109F7000232099000AEB830301F1100208315244B7
:109F8000514458600137FFF763F944F00204BFB24F
:109F9000B0E72D4B1A681AB307EB87030AEB83016E
:109FA0000222DFF8B0C048600A810AF82320791C39
:109FB000ACF802708FB244F001049BE7254A224BB3
:109FC000578007EB870E0AEB8E024FF0020C1968E0
:109FD0000AF82EC001375160A2F808C0BFB252E79C
:109FE000022218609A804FF00109E4E700232B71E8
:109FF00002A9124800F0E0FC1748012100F0DAFD48
:10A00000044600287FF4FAAEFFF7F4F9F7E60323DD
:10A010002B71EDE701232B71EAE748F20764EEE6C6
:10A0200002232B71E4E748F20A64E8E6342C0020AE
:10A03000242C002098830300802C00200C2D00206D
:10A04000DEC0ADDEFE011EF1202D0020242D0020FB
:10A05000141000103C2C00201C2D00200C2500208A
:10A06000582C002030B370B50D4682B0F1B10DF11F
:10A0700006010446FFF74EF918B948F2096002B02C
:10A0800070BDBDF806000D4B666800EB800003EB69
:10A09000800001210C3000F09BFD2E6063680122DE
:10A0A0000C3300206B60A27202B070BD48F20460F5
:10A0B00002B070BD48F20460704700BF582C002009
:10A0C00010B310B582B00DF106010446FFF722F976
:10A0D000B0B1BDF806300E4A03EB830302EB8303F5
:10A0E000DA684AB1A27A3AB1DA680021013A084640
:10A0F000DA60A17202B010BD48F2056002B010BD76
:10A1000048F2096002B010BD48F20460704700BF19
:10A11000582C00202DE9F047514B1B7882B083B3B7
:10A120000C46002945D00A884FF6FF739A4222D088
:10A130004B8803B34D6815F0030534D1B1F808908E
:10A1400009F103039BB240F2FE32934234D8454AF0
:10A150001178074639B9508911890144194489B2E7
:10A16000B1F5806F2BD9117D89B148F2066528467B
:10A1700002B0BDE8F08748F20365284602B0BDE8AA
:10A18000F08748F20165284602B0BDE8F087D08B21
:10A19000918B0144194489B2B1F5806FE5D84FF035
:10A1A000010841460DE048F20265284602B0BDE8CC
:10A1B000F08748F20465DAE748F20865D7E7A84671
:10A1C00029464FEA810A8A4402EB8A0A034401A91C
:10A1D0002548AAF80A3000F0C1FB1C2206460021DF
:10A1E0000CF062FD002E2FD002234FF0000AA6F8DB
:10A1F0001480337086F816A06368336101211B4810
:10A2000000F0E6FCF0602388338163881648B38051
:10A2100001A9A6F80AA0A6F8069000F0CDFB47B168
:10A22000C7F804A0F268124B3A601B8987F80AA0AD
:10A230003B811048012100F0BDFC0446002896D166
:10A24000FFF7D8F8254692E7BAF80A30C9F57F49F2
:10A2500009F1FD099944AAF80A9048F2076586E7D2
:10A26000342C0020582C00200C2D0020502C0020D5
:10A270003C2C00201C2D00202DE9F04782B068B353
:10A28000524B1B78002B41D00C4639B30A884FF64D
:10A29000FF739A4234D04B8893B34E6816F003068E
:10A2A0003AD1B1F808A00AF103039BB240F2FE32A2
:10A2B000934234D8464A1178054639B951891089F4
:10A2C0000844184480B2B0F5806F2BD9117D59B184
:10A2D00048F20666304602B0BDE8F08748F20466F0
:10A2E000304602B0BDE8F087D18B908B084418440B
:10A2F00080B2B0F5806FEBD84FF00109484613E00B
:10A3000048F20366304602B0BDE8F08748F20166C5
:10A31000304602B0BDE8F08748F20266DAE748F25C
:10A320000866D7E7B14630464FEA8008804402EB22
:10A3300088080B442748A8F80A3001A900F00EFB52
:10A340001C22074600210CF0AFFC002F32D04FF04A
:10A3500000080323A7F814903B7087F81680636801
:10A360003B6101211C4800F033FCF86023883B81ED
:10A370006388BB800423A7F806A0BB752B68BB616C
:10A3800001A91448A7F80A8000F016FBC5F804805C
:10A39000FA68124B2A601B89114885F80A802B81C4
:10A3A000012100F007FC0446002893D1FFF722F8B2
:10A3B00026468FE7B8F80A30CAF57F4A0AF1FD0A47
:10A3C0009A44A8F80AA048F2076683E7342C0020D4
:10A3D000582C00200C2D0020502C00203C2C00205C
:10A3E0001C2D002070B51D4B1B7882B00BB34FF6AF
:10A3F000FF739842044626D001A9194800F0AEFA2E
:10A400001C22054600210CF04FFCBDB1052301269E
:10A41000EC8001A92B7012482E7100F0CDFA114882
:10A42000314600F0C7FB044690B10024204602B03C
:10A4300070BD48F20164204602B070BD48F2076466
:10A44000204602B070BD48F20364204602B070BDE1
:10A45000FEF7D0FF204602B070BD00BF342C0020B4
:10A460000C2D00201C2D002010B5194B1B7882B03C
:10A47000F3B101A9174800F071FA1C22044600212B
:10A480000CF012FCF4B106232370124801A900F06D
:10A4900093FA114B1A780AB101221A730F4801215D
:10A4A00000F088FB044640B10024204602B010BDF5
:10A4B00048F20164204602B010BDFEF79BFF204623
:10A4C00002B010BD48F20764204602B010BD00BFC4
:10A4D000342C00200C2D00203C2C00201C2D0020B2
:10A4E0002DE9F047324C2478002C59D0002A5BD05B
:10A4F000002B59D09F88012F14D82E4E07EB8704CC
:10A500008A4606EB84064FF6FF7E4FF0000834784B
:10A510005CB10137BCB2022C9C8006F114064FF0EE
:10A520000107F4D148F2096035E01C68756805F54B
:10A53000805C002C31D06588033504EB85046445CC
:10A5400005D3C3F80080E4E7AC45FAD92C4625686A
:10A550000135F6D06588033504EB8505AC45F0D3AD
:10A56000B4F80490F145EFD0B4F80090B9F1000FC1
:10A57000EAD0A1680131E7D01C60A5888542D5D119
:10A5800025885545D2D1A168116019680A4B5160E0
:10A590001B8913810020BDE8F08705F10804CEE790
:10A5A00048F20160BDE8F08748F20460BDE8F0873A
:10A5B000342C0020582C00203C2C0020304B1B78E1
:10A5C000002B56D0002957D0002A55D02DE9F04154
:10A5D000B2F804E0BEF1010F14D82A4D0EEB8E0341
:10A5E00005EB83054FF6FF774FF0000C2B7863B136
:10A5F0000EF101039BB2022B938005F114054FF07D
:10A60000010EF3D148F209602EE013686C6804F57E
:10A6100080585BB35C88033403EB8403434505D364
:10A62000C2F800C0E4E7A045FAD923461C6801340B
:10A63000F6D05C88033403EB8404A045F0D39E88F5
:10A64000BE42F0D01E88002EEDD09E680136EAD0C2
:10A6500013601C888442D9D19B680B6012680A4B36
:10A660004A601B890B810020BDE8F08104F10803DA
:10A67000D4E748F20160704748F20460704700BFB9
:10A68000342C0020582C00203C2C0020304B1B7810
:10A69000002B56D0002957D0002A55D02DE9F04183
:10A6A000B2F804E0BEF1010F14D82A4D0EEB8E0370
:10A6B00005EB83054FF6FF774FF0000C2B7863B165
:10A6C0000EF101039BB2022B938005F114054FF0AC
:10A6D000010EF3D148F209602EE013686C6804F5AE
:10A6E00080585BB35C88033403EB8403434505D394
:10A6F000C2F800C0E4E7A045FAD923461C6801343B
:10A70000F6D05C88033403EB8404A045F0D39E8824
:10A71000BE42F0D01E88002EEDD09E680136EAD0F1
:10A7200013609C888442D9D19B680B6012680A4BE5
:10A730004A601B890B810020BDE8F08104F1080309
:10A74000D4E748F20160704748F20460704700BFE8
:10A75000342C0020582C00203C2C002020B119B1B2
:10A7600003680B600020704748F20460704700BF28
:10A770005A4B1B78002B00F0A9802DE9F04F0446BE
:10A7800083B0002800F0A580122200210CF08CFA82
:10A79000DFF84CE1608821896589B4F80C80DFF826
:10A7A000449103237246238000264FF6FF7C1389D1
:10A7B0005789D2F804A03B449BB2BAF1000F55D0A0
:10A7C000DAF800704F4551D1DAF8047007F16E677E
:10A7D00007F5FF370237012F48D8B70037440EEB93
:10A7E00087071D44FF680192384480B26080578912
:10A7F000C3F580639BB239444345ADB289B288BF8B
:10A80000A38121816581576888BF984607F10803B5
:10A8100007F580571A68013221D0B3F802A00AF177
:10A82000030A03EB8A0A57453AD3B3F804A0E2457A
:10A8300020D0B3F800A0BAF1000F1BD09A68013203
:10A8400018D0B4F804A00AF1010AA4F804A0B3F8DF
:10A8500002A00AF1030A03EB8A039F42DAD8019AA5
:10A8600014328EB3002003B0BDE8F08F2788013F7B
:10A870002780B2E7B4F806B0B4F80EA00BF1010BD4
:10A88000A4F806B0B3F802B00AF1030ADA44A4F857
:10A890000EA0B3F802A00AF1030A03EB8A03DCE777
:10A8A0004FF0010AB4F80EB084F810A0B4F806A076
:10A8B000019AFB1A0BEBA3030AF1010AE381A4F846
:10A8C00006A01432002ECDD1012670E748F20160B7
:10A8D000704748F2046003B0BDE8F08F342C0020CC
:10A8E000582C0020DEC0ADDE99B110B4B2FBF3F4F9
:10A8F00003FB1424A4B244B9C0E90014846082812B
:10A90000C38120465DF8044B704709205DF8044B75
:10A9100070470E20704700BF82B050E8022FC188F8
:10A92000B2EB324F4FF0000317BF92B241EA014140
:10A9300042EA014104E04268B2EB324F08BF012312
:10A9400040E80212002AE8D18DF807309DF8073060
:10A95000002B0CBF1120002002B0704730B482B031
:10A9600050E8013F9DB2C48925448489A54228BF8F
:10A970002D1B0489A54202BFBFF32F8F002207E0E1
:10A98000C5EA030540E80154002CE9D14FF001026B
:10A990008DF803200193019B9DF803200B602AB1E1
:10A9A0000B880068184402B030BC704702F0FF0307
:10A9B000184602B030BC70470A884B889A4201D0D2
:10A9C0000020704750E8012FC2EA024240E801230C
:10A9D000002BF7D10120704730B482B050E8023F1D
:10A9E0001FFAA3F5C488A54202BFBFF32F8F002230
:10A9F0000DE0C48925448489A54228BF2D1BC3EAE4
:10AA0000054540E80254002CE8D14FF001028DF8D2
:10AA100003200193019B9DF803200B602AB14B8812
:10AA20000068184402B030BC704702F0FF031846BB
:10AA300002B030BC704700BF0A884B889A4201D0F0
:10AA40000020704750E8022FC2EA224240E8022369
:10AA5000002BF7D1012070474A09012301F01F01A3
:10AA600000EB820003FA01F100F088B84B0910B541
:10AA700001F01F04012100EB8300A14000F070F8F9
:10AA8000E04000F0010010BD01F01F020123490960
:10AA9000934000EB8100D94300F07EB84B0901F0F0
:10AAA0001F0150F82300C84000F00100704700BFAC
:10AAB0002DE9F04F01F1FF3A83B04FEA5A130D46EA
:10AAC000044601934FF000094FF0010854F8293073
:10AAD00004EB89066FEA030B9BFAABFBBBFA8BFB1B
:10AAE000BBF1200F25D00BEB491B5D454FEA491701
:10AAF0000CD81EE03368DB4393FAA3F3B3FA83F375
:10AB0000202B07EB030B14D05D4512D90BF01F036C
:10AB10004FEA5B1008FA03F104EB80009A4600F05C
:10AB20001FF820FA0AF0C307E4D4584603B0BDE882
:10AB3000F08F019A4A4509F1010301D09946C5E712
:10AB4000AB46F2E710B4034653E8000F0A4643E869
:10AB5000002494F0000FF7D15DF8044B704700BF5C
:10AB600010B4034653E8000F40EA010243E8002412
:10AB700094F0000FF6D15DF8044B704710B4034613
:10AB800053E8002F42EA010043E8000494F0000F6C
:10AB9000F6D15DF8044B704710B4034653E8002F1C
:10ABA00002EA010043E8000494F0000FF6D15DF8DA
:10ABB000044B704710B4034653E8000F00EB01024A
:10ABC00043E8002494F0000FF6D15DF8044B704781
:10ABD00010B4034653E8002F02EB010043E80004E1
:10ABE00094F0000FF6D15DF8044B704710B40346A3
:10ABF00053E8002FA2EB010043E8000494F0000F9B
:10AC0000F6D15DF8044B704710B40346012253E8B7
:10AC1000000F40EA020143E8001494F0000FF6D15F
:10AC20005DF8044B704700BF10B40346012253E89F
:10AC3000001F41EA020043E8000494F0000FF6D13F
:10AC40005DF8044B704700BF10B40346002253E880
:10AC5000000F00EA020143E8001494F0000FF6D15F
:10AC60005DF8044B704700BFB8B130B4D0E90112B1
:10AC7000521A0468D2B2531E2160DBB242B101689D
:10AC80000A685C1E551C0D601370E3B2FF2BF6D1F1
:10AC900003680020187130BC70470E20704700BF59
:10ACA000F0B583B0044600250DF107008DF807507C
:10ACB000FEF734F9D4E900311A688A4210D9511EDE
:10ACC00019602168A3680F6812F8015C0A79268A66
:10ACD000E068DB1BDBB29A4206FB050538BF0B714F
:10ACE0009DF80700FEF740F9284603B0F0BD00BF0D
:10ACF00030B5054683B000230DF107000C468DF8F2
:10AD00000730FEF70BF92A681368591C1160E968CF
:10AD10002A8A641AB4FBF2F41C709DF80700FEF74F
:10AD200023F903B030BD00BF826842B110B50446BC
:10AD300043690168006998470023A36010BD70470C
:10AD40000EB400B582B0039921B104AB01AA0193FE
:10AD500000F0ACF802B05DF804EB03B0704700BF40
:10AD60002DE9F04F164683B0B142DDE90C920F4653
:10AD700005469A46C0F095800B464FF00108B3FB9C
:10AD8000F6F39E4208F10108F9D9D04538BFD04604
:10AD900012F00103019302D1B9F1000F5ED1AA684C
:10ADA000012403E00AF1FF3A06FB04F4BAF1010FB3
:10ADB000F8D8B7FBF4F39E42F6D9DFF8ECA007E031
:10ADC000B442B4FBF6F31AD3AA681C46B7FBF3F3FC
:10ADD0001AF803B0BBF10A0F04FB137728D02B68D5
:10ADE000511CA96003F802B0D5E901329A42E7D3B9
:10ADF0002846FFF799FFB4FBF6F3B442E4D2019B77
:10AE00009BB1B9F1000F10D02024C84509F1FF39DA
:10AE10000BD2AB682A68591CA960D454D5E9013219
:10AE20009A4214D2B9F1000FEFD103B0BDE8F08F10
:10AE3000511C2B68A9604FF00D019954D5E90132DE
:10AE40009A42CCD32846FFF76FFFAA68C7E7284687
:10AE5000FFF76AFFB9F1000FD7D1E6E793071AD4DD
:10AE60002024AA68C84502F1010199D22B68A96083
:10AE70009C54D5E901329A4209F1FF3903D2B9F164
:10AE8000000FEFD18CE72846FFF74EFFAA68B9F113
:10AE9000000FE7D184E7BAF1000F0CBF3024202463
:10AEA000DFE74FF0010870E78C810300002900F014
:10AEB00054822DE9F04FDFF8B8950C7885B006463E
:10AEC00090460D464FF00D0A10E00A2CB36800F0D2
:10AED000AD803268591CB160D454D6E901329A422F
:10AEE00080F0A0802C78002C00F087800135002CA9
:10AEF00000F08380252CE8D1294600270D4611F863
:10AF0000012B2D2A00F08880302A00F088802B2A1F
:10AF10007AD02A2A00F09980A2F13003092B4FF051
:10AF200000040BD804EB840402EB440415F8012F51
:10AF3000A2F13003092BA4F13004F3D92E2A00F03A
:10AF40009080002301E015F8012F02F0FB01682931
:10AF5000F9D0252A00F07781583AD1B2202947D874
:10AF6000202A45D8DFE812F03501440044004400AF
:10AF700044004400440044004400440044004301B1
:10AF80001301440044004400440013014400440001
:10AF90004400440044004400D20044004400A200A5
:10AFA00044009400440044003501012098420246C8
:10AFB00038BF1A460292002C40F05081B80740F189
:10AFC0006E81002B40F04E821C46BBF1000FC0F298
:10AFD0000A827A0700F11A8207F00302022A00F0BF
:10AFE000EA81CDE9004759460A223046FFF7B8FE0C
:10AFF00001352C78002C7FF479AF337B002B40F0A7
:10B000001C8105B0BDE8F08F0D4611F8012B2D2AEB
:10B0100047F004077FF478AF47F001076EE747F089
:10B0200002076BE73046FFF77FFE5BE73268591C8B
:10B03000B16002F803A0D6E901239342FFF449AFBF
:10B040003046FFF771FEB36843E7D8F800301A1DA9
:10B05000C8F800206A781C682E2A05F101057FF4E3
:10B0600070AF6A78A2F13003092B05F101054FF0AA
:10B0700000033FF66AAF03EB830302EB430315F8CB
:10B08000012FA2F130010929A3F13003F3D95CE7C4
:10B09000D8F80020111DC8F8001011683046CDE91D
:10B0A00000470A22FFF75CFE0135A2E7D8F800301E
:10B0B0001A1DC8F8002017F00107D3F800B040F0BF
:10B0C000F080BBF1000F03D058460BF00DFE074691
:10B0D000BC4240F24381002C00F04081202205E078
:10B0E000BC4200F03B81002C00F03881B16833682D
:10B0F000481CB0605A54D6E90130984204F1FF343C
:10B10000EED33046FFF710FE2022E9E7D8F8002002
:10B11000131DC8F80030B36831681768581C302216
:10B12000B060CA54D6E90123934280F0EF803268C0
:10B13000581C7821B060D154D6E901329A4280F08F
:10B14000E0800F2F03D93B461B090F2BFCD84FF093
:10B15000805406E00F2C4FEA14137FF649AFB26813
:10B160001C46B7FBF4F319F803B0BBF10A0F04FB5C
:10B17000137754D03368511CB16003F802B0D6E99C
:10B1800001329A42E6D33046FFF7CEFDE2E7D8F827
:10B190000020111DC8F80010D2F800B08BEAEB7245
:10B1A000A2EBEB72092A7FF700AFDFF8C8C20120DB
:10B1B00011466329ACFB02E200F101004FEAD20222
:10B1C000F6DC9842024638BF1A460292002C45D15E
:10B1D000F4E6D8F80020111DC8F8001011683046B8
:10B1E000CDE900471022FFF7BBFD013501E7D8F894
:10B1F00000301A1DC8F800201C78B3680A2C00F033
:10B2000011813268591CB160D454D6E901329A4296
:10B21000FFF4EEAE3046FFF787FD0135E9E633680F
:10B22000511CB16003F802A0D6E901329A42A1D3C1
:10B230003046FFF779FDB2689CE7304605B0BDE8BF
:10B24000F04FFFF771BDB3683168581CB060CA5445
:10B25000D6E901329A42DDD20135CAE6BBF1000FD0
:10B2600059DB7A0757D4B80702D5002B3FF4ADAEAF
:10B27000F9073FF5AAAE94B120220299A142BFF48A
:10B28000A4AEB168481CB06030684254D6E90101F0
:10B29000814204F1FF3480F0D480002CEDD10024F1
:10B2A00093E69BF80030002B00F0E080B0685F462A
:10B2B000CBF101020A2B02EB070B3CD0411CB16021
:10B2C00031680B54D6E90130984226D217F8013F75
:10B2D000002BEFD15C457FF68BAE202702E05C456A
:10B2E0003FF486AEB2683368511CB1609F54D6E912
:10B2F00001329A4204F1FF34F1D33046FFF714FDD6
:10B30000EDE73046FFF710FDB2681AE73046FFF769
:10B310000BFDB3680BE7013CA5E730460292FFF74F
:10B3200003FD17F8013F002BD4D0029AB0680A2B16
:10B3300002EB070BC2D1411CB160316801F800A0DB
:10B34000D6E901108842B9D33046CDE90232FFF781
:10B35000EBFCDDE90232B068B0E770479BF80040D3
:10B36000002C3FF445AE0A2CB0680ED03368421C66
:10B37000B2601C54D6E90130984214D21BF8014F38
:10B38000002C3FF435AE0A2CF0D13368421CB26079
:10B3900003F800A0D6E901309842E7D33046FFF722
:10B3A000C3FCB068E2E73046FFF7BEFC1BF8014F74
:10B3B000002CD8D11CE6002B7FF413AE8CB13022C8
:10B3C0000299A142BFF40DAEB168481CB06030686C
:10B3D0004254D6E90101814204F1FF343BD2002CF2
:10B3E000EED10024FDE5B1684A1CB26032682D2020
:10B3F0005054D6E901219142CBF1000BFFF4ECADA2
:10B4000030460393FFF790FC039BE5E5B1684A1CC7
:10B41000B26032682B205054D6E901219142FFF4EA
:10B42000DBADEDE73268591CB16002F803A0D6E944
:10B4300001239342FFF4E5AE3046FFF775FCB36895
:10B44000DFE630460393FFF76FFC039B2022002CBE
:10B450007FF413AF23E730460393FFF765FC039BAC
:10B460003022BCE7F9073FF5B0AD18E79B4631E75E
:10B470008C810300CDCCCCCC10B582B040B10B4652
:10B48000B9B103601B68114602B0BDE8104018470F
:10B490000A480B4C0B4B0C4A0C49001BC0080E24ED
:10B4A000000440F001000094FCF76AFC0E2002B09A
:10B4B00010BD0248024C034B054AEDE7A4A7030068
:10B4C0004CA70300508303009C810300A481030068
:10B4D000D08103002DE9F04182B0002858D0002A25
:10B4E00068D0D0F800E0BEF1000F68D01D4673B3FD
:10B4F0004768D7F80480B3FBF8F708FB1737002F2D
:10B5000037D18F073AD112F0030F3CD1C768B94247
:10B5100011D23348334C344B344A3549001BC008F0
:10B520001024000440F001000094FCF729FC2046A0
:10B5300002B0BDE8F08104694E1E3544A542E8D84A
:10B54000DEF80C40A44602B0BDE8F0416047244854
:10B55000244C254B274A2649001BC0080924000417
:10B5600040F001000094FCF70BFC204602B0BDE85F
:10B57000F0811B481B4C1C4B1F4AECE71848194C28
:10B58000194B1E4AC9E71648164C174B1C4AC4E70C
:10B590001348144C144B1B4A1549001BC0080E24B9
:10B5A000000440F001000094FCF7EAFB204602B0E2
:10B5B000BDE8F0810A480B4C0B4B134AECE7094CF1
:10B5C0000748094B114A0A49001BC0080824000417
:10B5D00040F001000094FCF7D3FB2046A8E700BF31
:10B5E000A4A703004CA7030064830300A082030008
:10B5F000A4810300EC81030038820300648203000D
:10B600007C8203009C81030030820300D881030008
:10B61000F0B583B0002843D0D0F800C0BCF1000FD3
:10B620004ED03AB34768D7F800E00EF1FF370F422B
:10B6300031D1C768B94210D229482A4C2A4B2B4A2B
:10B640002B49001BC0081024000440F001000094A6
:10B65000FCF796FB204603B0F0BD04694D1E0EFBBF
:10B660000255A542E8D8DCF81040A44603B0BDE876
:10B67000F04060471B4C1A481B4B1E4A1C49001BDC
:10B68000C0080924000440F001000094FCF778FB96
:10B69000204603B0F0BD1248124C134B164ACFE7B8
:10B6A000104C0F48104B154A1149001BC0080E24BE
:10B6B000000440F001000094FCF762FB2046CAE75A
:10B6C000084C0748084B0E4A0949001BC0080824CB
:10B6D000000440F001000094FCF752FB2046BAE75A
:10B6E000A4A703004CA7030078830300F0820300A3
:10B6F000A4810300EC810300C88203009C81030045
:10B70000D881030029DF704728DF7047084670475B
:10B7100000207047024B187A003818BF012070478C
:10B72000D42D0020034B187A0122B0FA80F05A740D
:10B7300040097047D42D002008B510461A460BF07A
:10B74000A5FA002008BD00BF08B514220021044856
:10B750000BF0AAFA0348FFF7DFF8002008BD00BF8E
:10B76000D42D0020C42D002038B50A4C0A4B43606C
:10B770002046FFF749FA08B1002038BD0BF0C2F8A7
:10B78000064905461C238C2205482574FFF7ACF8B2
:10B79000002038BDD42D00208C830300382D0020DC
:10B7A000C42D002030B5394D2B7A87B0002B39D00D
:10B7B000374B1C6802232B722379002B3DD0012BC1
:10B7C00024D022689368C3B10023CDE903330293E8
:10B7D0000093A3680593032301932379002B48D09A
:10B7E000012B07D1E368616904911B0302210293D5
:10B7F0008DF800109368684698470023254926482D
:10B800002B726B60FFF718F907B030BDD4E9030362
:10B810001844FFF779FF20B31128D2D101232B72EE
:10B8200007B030BD1B491C48FFF7D6F8184B04463B
:10B8300018600028BED16860E6E7D4E90520121A36
:10B84000B2F5805F28BF4FF48052D4E90313920809
:10B85000012A38BF012201441844FFF753FF002892
:10B86000DAD12B7C002BCFD10146022000F016F854
:10B87000CAE72069E1680123CDE902018DF80030B3
:10B8800063690493936868469847B6E7D42D00200F
:10B89000EC2D0020E82D0020C42D0020831E012B5C
:10B8A0003FD810B5334C237A86B0002B37D0022B0B
:10B8B00031D103283AD0304B00221B68E2601A795C
:10B8C000002A40D0012A26D1D3E9042101328A423C
:10B8D0001A6120D10020207219688A68BAB100224A
:10B8E000CDE90322029200929A68019005921A799A
:10B8F000002A35D0012A07D1DA685B690493130363
:10B90000022202938DF800208B68684698471B49F5
:10B910001B48FFF791F8637C23B9FFF743FF06B09C
:10B9200010BD70470AF0DEFF06B010BDE3680133BA
:10B93000082B01D8E360EEE70F4B00221B68E260A2
:10B9400022720D20C8E7D3E90512881AB0F5805F8E
:10B9500094BF121802F5805291429A61DBD1B9E787
:10B96000012218698DF80020DA685B690493CDE93B
:10B970000202C9E7D42D0020EC2D0020E82D002084
:10B98000C42D00202DE9F04784B007460E461A4822
:10B9900003A915469A46FEF7E1FF40B3044600218D
:10B9A0001C228846DFF854900BF07EF90C9B12485D
:10B9B0002760C4E90356A360C4F814A003A984F85F
:10B9C0000480FEF7F9FF09F10400FFF71DF918B133
:10B9D000404604B0BDE8F08799F81130002BF8D14B
:10B9E0000190FFF7DFFE019804B0BDE8F087042066
:10B9F00004B0BDE8F08700BFC42D0020D42D002086
:10BA00002DE9F04385B081460D46194803A9164635
:10BA10001F46FEF7A3FF30B304461C2200210BF0A3
:10BA200043F9DFF850801248C4F8009001232D0B31
:10BA3000C4E90275666103A92371FEF7BDFF08F131
:10BA40000400FFF7E1F818B1002005B0BDE8F0836D
:10BA500098F81130002BF8D10190FFF7A3FE019860
:10BA600005B0BDE8F083042005B0BDE8F08300BF59
:10BA7000C42D0020D42D002000F0FD03012B00D0A8
:10BA8000704730B53B4DA0F10100B0FA80F02B7A41
:10BA90004009002287B028746A74002B4AD0364BC4
:10BAA0001C6802232B722379002B4ED0012B07D167
:10BAB000D4E903031844FFF727FE48B311281BD02D
:10BAC000226893687BB10023CDE90333029300938E
:10BAD000A36805930323019323790BB3012B0ED0A5
:10BAE0009368684698470023244925482B726B6069
:10BAF000FEF7A2FF07B030BD01232B72FAE7E3681F
:10BB0000616904911B03022102938DF80010E7E79D
:10BB10002B7C002BEED101460220FFF7BFFEE9E7A8
:10BB20002069E16801238DF8003063690493CDE951
:10BB30000201D5E711491248FEF74EFF0E4B0446AD
:10BB400018600028ADD16860D4E7D4E90520121A46
:10BB5000B2F5805F28BF4FF48052D4E903139208F6
:10BB6000012A38BF012201441844FFF7CBFD002809
:10BB7000A4D1CDE7D42D0020EC2D0020E82D00200D
:10BB8000C42D0020FFF770B82DE9F041058A03317C
:10BB9000043D4E198046B6FBF5F6FFF781F8A0B3D9
:10BBA000F6B24FF48073013E0446C580C0F80080B1
:10BBB00083802BD00346002508E06279AE4202F173
:10BBC000010262713860C0F800801FD040461F46F5
:10BBD000FFF766F8013503460028EED16779791E34
:10BBE00017D02246013399421268FBD1D2F8008067
:10BBF0005FB12668002501E03446366821460135EC
:10BC00004046FFF775F8AF42F6D800242046BDE85D
:10BC1000F08120682146FFF76BF8F6E70430012138
:10BC2000FEF7D6BF2DE9F041012104460430FEF7AE
:10BC3000DDFF10F0FF0301D0BDE8F0816779791EC8
:10BC400016D02246013399421268FBD1D2F8008007
:10BC5000002FF1D02668002501E0344636682146E1
:10BC600001354046FFF744F8AF42F6D8BDE8F08111
:10BC700020682146BDE8F041FFF73AB82DE9F843C6
:10BC80000546C6884079144606FB00F2043A04EBE8
:10BC9000030C1F1D624538BFD41ABE428846B7FB4D
:10BCA000F6F106FB117002D801392D68FCD1371A64
:10BCB000A74228BF27469CB14FF000090430E41B7F
:10BCC00028443A4608EB09010AF0E0FFA642B944CD
:10BCD0002D6837464FF0000028BF2746002CEDD1D5
:10BCE000BDE8F8832DE9F8430546C6884079144637
:10BCF00006FB00F2043A04EB030C1F1D624538BF3B
:10BD0000D41ABE428846B7FBF6F106FB117002D882
:10BD100001392D68FCD1371AA74228BF27469CB1AC
:10BD20004FF0000904302918E41B3A4608EB0900DB
:10BD30000AF0ACFFA642B9442D6837464FF0000028
:10BD400028BF2746002CEDD1BDE8F88341DF7047BE
:10BD5000064A074B10B5002414701C60BFF35F8FB8
:10BD60000449054800F042F8204610BDF82D002097
:10BD7000FC2D0020C4830300F02D002000B583B00B
:10BD800000230DF107008DF80730FDF7C7F8F1EE3D
:10BD9000103A23F09F03E1EE103ABFF35F8F0B4B95
:10BDA0004022C3F884219DF80700FDF7DDF80AF072
:10BDB000A9FD28B920BF40BF20BF03B05DF804FB38
:10BDC000FFF7C4FF03B05DF804FB00BF00E100E033
:10BDD000826800239360826813618268536182687D
:10BDE000D3608268536082681360704701600B689B
:10BDF00043604A68934204BF00234360704700BF1A
:10BE0000436843B1026891680B44436052689342AF
:10BE100004BF00234360704770B54468064620683D
:10BE20000D4618B908E02468206828B1B36829468F
:10BE300098470028F7D120682860256070BD00BFB2
:10BE40004368186808B102681A6070474368186848
:10BE5000704700BF4368186818B908E003460068D7
:10BE600028B18142FAD10A681A60012070477047F0
:10BE7000114910B4A1F5947205E052F8333098429C
:10BE800038BF21460CD28C1AE30F03EBE4035B109E
:10BE9000914202EBC304F0D808485DF8044B7047A8
:10BEA00002D904F10802EEE76068044B5DF8044B28
:10BEB000002808BF1846704704890300C88703009C
:10BEC0000A7B10B4D1E90043002A0ABF23460022AE
:10BED00001225DF8044B02710360704710B40379CE
:10BEE0005BB14B6804688A68191B914218D9A31882
:10BEF00003605DF8044B1846704704680B688A6855
:10BF0000E11A914206D80122036002715DF8044BE8
:10BF100018467047A31A03605DF8044B1846704733
:10BF20000022036002715DF8044B1846704700BFA1
:10BF300010B44FF080414FF080520020C1F80C0146
:10BF40005E4BC1F81001C1F83805D2F80414C3F8EB
:10BF50002015D2F80814C3F82415D2F80C14C3F82D
:10BF60002815D2F81014C3F82C15D2F81414C3F8FD
:10BF70003015D2F81814C3F83415D2F81C14C3F8CD
:10BF80004015D2F82014C3F84415D2F82414C3F88D
:10BF90004815D2F82814C3F84C15D2F82C14C3F85D
:10BFA0005015D2F83014C3F85415D2F83414C3F82D
:10BFB0006015D2F83814C3F86415D2F83C04C3F8FD
:10BFC0006805D2F840043E49C3F86C050968D2F808
:10BFD0004424C3F87025082924D04FF08043D3F8B7
:10BFE0000024D20744BF6FF00102C3F80024354A91
:10BFF000D2F8883043F47003C2F88830BFF34F8F13
:10C00000BFF36F8F4FF01023D3F80022002A23DBF9
:10C01000D3F80432002B1FDB2B4B2C4A1A605DF83F
:10C02000044B70472A4B1B68002BD6D129482A4A5B
:10C030002A4C04602A492B4BFB20C2F818050A68D9
:10C040001B68294822F00F0203F00F0313434FF43B
:10C0500000720B600260C0E7244A0123C2F8043575
:10C06000D2F80034002BFBD04FF0102312211F4ACE
:10C07000C3F80012D2F80034002BFBD04FF010238D
:10C0800012211A4AC3F80412D2F80034002BFBD054
:10C0900000231649C2F80435D1F80034002BFBD038
:10C0A000BFF34F8F0749124BCA6802F4E062134393
:10C0B000CB60BFF34F8F00BFFDE700BF00C0004063
:10C0C0003001001000ED00E0842200200090D00339
:10C0D000340100108C56004000F0004048810300FD
:10C0E000E40E0040580200104096024000E001407B
:10C0F0000400FA05074B1B5C1F2B8ABF064A4FF052
:10C10000A04203F01F03D2F80405D84000F001005C
:10C11000704700BF0489030000030050064B1A5CFF
:10C120001F2A86BF054902F01F024FF0A0410123DC
:10C130009340C1F80835704704890300000300509C
:10C14000064B1A5C1F2A86BF054902F01F024FF0FA
:10C15000A04101239340C1F80C35704704890300C6
:10C1600000030050044B4FF480418022C3F80C15AB
:10C17000C3F80C25704700BF00030050044B4FF478
:10C1800080418022C3F80815C3F80825704700BF16
:10C19000000300500A4B185C1F288ABF09494FF062
:10C1A000A04100F01F00D1F804350122824022EAAC
:10C1B00003001340C1F80805C1F80C35704700BFF3
:10C1C00004890300000300504FF0A043D3F810058A
:10C1D0006FEA503000F00100704700BF0D3818BF03
:10C1E0004FF0FF30704700BF0D207047C10707D4E4
:10C1F000830742BF4FF0A0430C22C3F83427704797
:10C200000B4B032210B48021C3F838274FF480442D
:10C21000C3F81C278207C3F80C45C3F80C1504D5D6
:10C220004FF0A0430C22C3F834275DF8044B70474D
:10C230000003005010B568B90E4CA368012262706B
:10C240003BB1D3E900230020A2609847A368002BEC
:10C25000F7D110BD0128FCD1064C2369A070002B3A
:10C26000F7D0D3E900230120226198472369002BEE
:10C27000F7D110BD002E002070B910B5074CA3688F
:10C28000012262703BB1D3E900230020A2609847ED
:10C29000A368002BF7D110BD704700BF002E00200F
:10C2A00030B5012883B004D003281DD0B0B103B04D
:10C2B00030BD224C00230DF107008DF80730FCF74C
:10C2C0002DFE23784BB3E3689DF80700013301226C
:10C2D000E360A270FCF748FE03B030BD184B0122AA
:10C2E000C3F8802003B030BD144C00F0B1F8002337
:10C2F0000DF107008DF80730FCF710FEE368013BF5
:10C30000E360E5682DB19DF80700FCF72DFE03B052
:10C3100030BD00F0AFF8A570F5E70A486360A36090
:10C320002361E36000F088F80AF0ECFA10B1012311
:10C330002370C8E700F08CF8F9E700BF002E00205A
:10C3400000E100E035C2020030B585B004784568F0
:10C350008DF80040D0E90240064A074B039053F89D
:10C360002130019552F821108DF808406846984711
:10C3700005B030BD142E00201C2E002030B585B035
:10C38000047845688DF80040D0E90240064A074B22
:10C39000039053F82130019552F821108DF8084090
:10C3A0006846984705B030BD142E00201C2E002092
:10C3B0002DE9F047DFF8748090F800E04B7F08F833
:10C3C0000E300D46074616460FCD88B06C460FC49A
:10C3D00095E80F003D78DFF85890DFF858C018F85E
:10C3E000055049F82E6084E80F004CF82E00CDF877
:10C3F00010E05DB1002E0B4A694607F1040008BF4A
:10C40000324601F0B9F808B0BDE8F087002E064AC0
:10C41000694607F10C0008BF324600F01FFE08B065
:10C42000BDE8F08749C302007DC30200E439002063
:10C430001C2E0020142E0020044A137923B9012158
:10C44000106091801846704785207047242E002088
:10C45000074B1A68D20704D4C021012283F80013C5
:10C460001A604FF080430122C3F81825704700BFBF
:10C4700000E100E0044B01221A604FF08042D2F844
:10C480001834DB03FBD470470C00004010B5174B89
:10C490001A6882B062B10021154A19601B68507990
:10C4A00000934FF080410123009CC1F8083398B1FC
:10C4B000104B1A68BAB100221A601B6801934FF042
:10C4C000804202210A4B0198C2F808131B68012020
:10C4D00002B0BDE810401847116853718847054BFA
:10C4E0001A68002AE7D102B010BD00BF0001004069
:10C4F000242E00200401004030B5224C94F86A50EC
:10C5000083B0002D3AD14FF0FF304FF0FF314FF0A4
:10C51000FF33C4E90001C4E90C01C4E90E01C4E918
:10C520001001C4E91201C4E91401C4E9160106228C
:10C53000294604F16400C4E90233C4E90433C4E9C0
:10C540000633C4E90833C4E90A3323660AF0ACFBB6
:10C550000D4A0E4B0E491D60C02082F80603402094
:10C5600010601B68019301984FF000430122284698
:10C5700084F86A20C1F8043303B030BD082003B04A
:10C5800030BD00BF302E002000E100E07C610040A3
:10C5900000600040034B93F86A00003818BF012088
:10C5A000704700BF302E0020F0B4754B1D1895F970
:10C5B0003040002C61DA8C78A707C4F3400C53D4C8
:10C5C0001C6A013400F0D5805C6A013400F0CA8036
:10C5D0000C260A2453F82450013552D0651CB5426C
:10C5E0003FD253F82570013700F0B480A51CB54246
:10C5F00037D253F82570013700F0AC80E71CB74202
:10C600002FD253F8275001353AD0271DB74228D2F0
:10C6100053F82750013533D0671DB74221D253F864
:10C62000275001352CD0A71DB7421AD253F82750F6
:10C63000013525D0E71DB74213D253F827500135F5
:10C640001ED004F10807B7420BD253F8275001352A
:10C6500016D00934B44204D2DC6A013408BF0B247A
:10C660000FD00420F0BC70471C68013474D05C68A3
:10C6700001346DD008260224ACE70820F0BC7047D6
:10C680003C461E1865B243F8242086F83050BCF1B1
:10C69000000F02D11C4484F858008A7854071AD439
:10C6A000D60744D41F284C7887BF364E00F01F02AF
:10C6B00002464FF0A04602F5E072A40046F8224080
:10C6C000314EC40800F0070C375D012202FA0CF26B
:10C6D0003A4332558A7812F002021CD0AB0003F1C3
:10C6E000804303F5C0430978D3F8104524F44F3450
:10C6F00024F44074C3F8104502020904D3F810056D
:10C7000001F4403102F47C520A430243C3F810257D
:10C710000020F0BC7047083D2B44087893F8601067
:10C7200041EA801183F860101046F0BC70471F2862
:10C7300087BF144A00F01F0404464FF0A04202EBEA
:10C740008402D2F8004724F00204C2F80047B7E799
:10C75000012496E72C4694E7002485F830401A60BF
:10C7600025469AE7092685F830605A6234463546F0
:10C7700090E7082685F830601A623446354689E726
:10C78000302E002000030050942E002070B4324C54
:10C79000251883B095F93030072B22DD234493F818
:10C7A00058309B09032B46D0012B0CBF4FF40032AD
:10C7B0004FF440321F288ABF284B4FF0A04300F0AF
:10C7C0001F0003EB8000D0F8003723F44033C0F89B
:10C7D0000037D0F800371A43C0F8002703B070BC08
:10C7E0007047DAB2072AF9D8980000F1804000F5C6
:10C7F000C04003F140029200D0F8106592B202F1FD
:10C80000804202F5C04246F00106C0F810650020E3
:10C81000106012680192019A0029DFD095F930204A
:10C8200054F82220002AD9D00D49012202FA03F33C
:10C83000C1F80433D2E71F288ABF084A4FF0A0424C
:10C8400000F01F03D2F8102598BF0346DA4002F02B
:10C85000010202321204ADE7302E00200003005026
:10C86000006000401F288ABF054B4FF0A04300F036
:10C870001F00D3F8103523FA00F000F001007047D4
:10C88000000300502DE9F047002388B0CDE90233C2
:10C89000C94A1168012900F04B821E46C74B1A682D
:10C8A000012A00F03782C64B1A68012A00F0248260
:10C8B000C44B1A68012A00F01182C34B1A68012A7E
:10C8C00000F0FE81C14B1A68012A00F0EB81C04BD9
:10C8D0001A68012A00F0D881BE4B1A68012A08D0D4
:10C8E000BD4B1A68012A00F02F8216BB08B0BDE8C4
:10C8F000F087BA4AD2F804231706F1D500221A604D
:10C9000019680091196E0098012903F1600346F03F
:10C9100080060ED11A601B6801934FF0A042019B64
:10C92000D2F81025AE4B0292D3F81035039346F09F
:10C930000046AC4F00240125A30003F180432E42A2
:10C9400003F5C0434FEA45050BD0D3F8100557F85F
:10C950002420D3F81015C0F30520C1F3014102B122
:10C9600090470134082CE7D1002EBFDA9D4C9C4F34
:10C970004FF0FF304FF0FF31CDE9060194F9600030
:10C980000DF110080023451CC8F8043004934FF043
:10C99000010600F0F780C0F3C20908AB03EB090EF3
:10C9A00000F007031EF8082C06FA03F312EA030549
:10C9B0005FFA80FC00F03F0021D022184FEA9C1162
:10C9C00092F9302054F82220002A00F03781032900
:10C9D00000F036811F2800F2EB8005464FF0A04C96
:10C9E0000CEB850C1EF8185CDCF800E71D40CEF35C
:10C9F000014E40F0D180BEF1030F00F0B78194F9F1
:10CA00006100411C33D0C0F3C20E08AB03EB0E0C27
:10CA100000F007031CF8081C06FA03F31942C2B21F
:10CA200000F03F0023D004EB0009910999F9309000
:10CA300054F82990B9F1000F00F01281032900F099
:10CA400012811F2800F2F68086464FF0A04202EBCA
:10CA50008E021CF818ECD2F800C71EEA030FCCF3C4
:10CA6000014C40F0DA80BCF1030F00F0918194F9A1
:10CA70006200421C33D0C0F3C20E08AB03EB0E0CB5
:10CA800000F007031CF8081C06FA03F31942C2B2AF
:10CA900000F03F0023D004EB0009910999F9309090
:10CAA00054F82990B9F1000F00F0D080032900F06C
:10CAB000D0801F2800F2A58086464FF0A04202EBEE
:10CAC0008E021CF818ECD2F800C71EEA030FCCF354
:10CAD000014C40F08980BCF1030F00F06D8194F9A6
