:1000000000000420750300005D0300005F03000092
:1000100061030000630300006503000000000000AE
:100020000000000000000000000000006703000066
:1000300069030000000000006B0300006D03000076
:100040006F0300006F0300006F0300006F030000E8
:100050006F0300006F0300006F0300006F030000D8
:100060006F0300006F0300006F0300006F030000C8
:100070006F0300006F0300006F0300006F030000B8
:100080006F0300006F0300006F0300006F030000A8
:100090006F0300006F0300006F0300006F03000098
:1000A0006F0300006F0300006F0300006F03000088
:1000B0006F0300006F03000000000000000000005C
:1000C0006F0300006F0300006F0300006F03000068
:1000D0006F0300006F0300006F0300006F03000058
:1000E0006F0300006F0300006F03000000000000BA
:1000F000000000006F030000000000006F0300001C
:1001000000000000000000000000000000000000EF
:1001100000000000000000000000000000000000DF
:1001200000000000000000000000000000000000CF
:1001300000000000000000000000000000000000BF
:1001400000000000000000000000000000000000AF
:10015000000000000000000000000000000000009F
:10016000000000000000000000000000000000008F
:10017000000000000000000000000000000000007F
:10018000000000000000000000000000000000006F
:10019000000000000000000000000000000000005F
:1001A000000000000000000000000000000000004F
:1001B000000000000000000000000000000000003F
:1001C000000000000000000000000000000000002F
:1001D000000000000000000000000000000000001F
:1001E000000000000000000000000000000000000F
:1001F00000000000000000000000000000000000FF
:10020000354936480A1A02D0072291438D463449AF
:1002100034480A1A06D00722914381F30988022242
:1002200082F3148830483149314A00F044F83148AB
:100230003149324A00F03FF831483249324A00F041
:100240003AF832483249334A00F035F832483349F7
:10025000334A00F030F833483349344A00F02BF881
:1002600033483449344A00F026F8344834490022EF
:1002700000F02CF833483449002200F027F83348C6
:100280003349091A082902DB002202604160314A21
:1002900090471F481F49884205D00268043003B4C4
:1002A000904703BCF7E700208646EC46002000217B
:1002B000294A9047FEE7884207D0521A05D00378B2
:1002C00001300B700131013AF9D17047884202D0F8
:1002D00002700130FAE770470000042000E00320BC
:1002E0000000042000000420A80C000000000020F2
:1002F00004000020D0030000D00300004C0C0000DC
:10030000A80C000000000020000000204C0C0000A1
:100310004C0C00004C0C00004C0C00004C0C00007D
:100320004C0C00004C0C00004C0C0000A60C000013
:10033000AC0C000004000020040000200400002099
:10034000240000202400002024000020240000209D
:10035000242000209D0300002F080000FEE7FEE798
:10036000FEE7FEE7FEE7FEE7FEE7FEE7FEE7FEE765
:1003700000F002B8FFF7FCBF0F484FF007018843B9
:1003800085460E4880470E48016841F470010160BF
:10039000BFF34F8FBFF36F8FFFF732BF09480A4992
:1003A0000A4A884207D0521A05D0037801300B70F0
:1003B0000131013AF9D1704700000420950800008E
:1003C00088ED00E04C0C0000000000200000002040
:1003D00000B583B00190019B1B682F2B04D90B49FA
:1003E00040F2CD1000F0DEF9019B1B681F2B02D8F4
:1003F0004FF0A04306E0019B1B6803F01F02019B26
:100400001A60034B184603B05DF804FB4C0C000067
:100410000003005000B585B00190084611461A4609
:1004200003468DF803300B468DF8023013468DF8E5
:10043000013001AB1846FFF7CBFF03909DF8032076
:100440009DF802305B001A439DF801309B001A436F
:100450009DF818301B0242EA03019DF81C301B0472
:10046000019A1943039B02F5E07243F8221000BF82
:1004700005B05DF804FB00B585B00390002301933F
:10048000002300930023012201210398FFF7C2FFFC
:1004900000BF05B05DF804FB00B585B003900B46C6
:1004A0008DF80B309DF80B2000230193002300935F
:1004B0001346002200210398FFF7ACFF00BF05B0F0
:1004C0005DF804FB00B585B0019001AB1846FFF75D
:1004D0007FFF0390019B012202FA03F31946039860
:1004E00000F04CF800BF05B05DF804FB00B585B026
:1004F000019001AB1846FFF76BFF0390019B0122AF
:1005000002FA03F31946039800F042F800BF05B061
:100510005DF804FB00B585B0019001AB1846FFF70C
:1005200057FF0390039BD3F804350293029BDA43F1
:10053000019B012101FA03F31A40039BC3F808252C
:10054000019B01229A40029B1A40039BC3F80C2591
:1005500000BF05B05DF804FB00B583B001900091C9
:10056000009B002B03D10198FFF7C0FF02E0019828
:10057000FFF7A8FF00BF03B05DF804FB82B0019055
:100580000091019B009AC3F8082500BF02B0704794
:1005900082B001900091019B009AC3F80C2500BF26
:1005A00002B0704700B583B00190019B012B03D9C5
:1005B0000749472000F0F6F8064A019B13441B78D0
:1005C00000211846FFF7C8FF00BF03B05DF804FB29
:1005D000700C0000940C000000B583B00023019360
:1005E00005E00198FFF7DEFF019B01330193019BBA
:1005F000012BF6D900BF03B05DF804FB00B583B052
:100600000190019B012B03D907495F2000F0CAF834
:10061000064A019B13441B781846FFF77BFF00BF77
:1006200003B05DF804FB00BF700C0000940C0000E8
:1006300000B583B00023019309E0094A019B1344EC
:100640001B781846FFF717FF019B01330193019BAD
:10065000012BF2D9FFF7C0FF00BF03B05DF804FB28
:10066000940C000000B583B00023019307E00D2334
:1006700003211846FFF710FF019B01330193019BF3
:10068000002BF4D000BF03B05DF804FB00B583B0CD
:100690000190019B03F00103002B01D0FFF7C8FF7D
:1006A000019B03F00203002B01D0FFF7DBFF00BF2B
:1006B00003B05DF804FB000086B003900291019244
:1006C00001238DF817309DF81730204A039B1360E3
:1006D0001E4A029B53601D4A019B9360039B44F298
:1006E0000102934213D0039B44F20202934221D1B0
:1006F000019B164AD360154BDB681B881A46134BC7
:100700009A61124BDB685B68104AD36112E0019B6F
:100710000E4A13610D4B1B699B680C4A53610B4BCE
:100720001B691B68094A9361084B1B695B68074A90
:10073000D36100BF72B600BF9DF81730DBB2002B4B
:10074000FAD162B600BF06B0704700BF04000020B7
:1007500000B587B003900291019272B6039B44F2F8
:100760000102934207D0039B44F20202934205D157
:10077000019B059303E0019B049300E000BF084B3D
:100780001B6803F00103002B00D000BE019A029900
:100790000398FFF791FF00BF07B05DF804FB00BFAF
:1007A000F0ED00E000B585B003460091ADF80630ED
:1007B000BDF80630ADF80830009B039302AB1A4633
:1007C000002144F20200FFF7C3FF00BF05B05DF84F
:1007D00004FB000000B585B00190019B002B0AD0FE
:1007E000074B43F001030393019B9B010293039B7F
:1007F0000298984700E000BF05B05DF804FB00BF19
:10080000A00C000000B583B00190019B002B0AD022
:100810004FF47A70FFF7DEFF019B013B0193019BD0
:10082000002BF5D100E000BF03B05DF804FB00B57C
:1008300083B00120FFF72AFF002301930AE0019B08
:100840001846FFF7DBFE4FF4FA70FFF7DBFF019B62
:1008500001330193019B012BF1DDEDE7BFF34F8FD6
:10086000054BDB6803F4E0620349044B1343CB60A0
:10087000BFF34F8F00BFFDE700ED00E00400FA0575
:10088000024B034A1A6000BF704700BF00000020FF
:100890000090D00308B500F025F90346002B0ED0D8
:1008A0004FF080430022C3F80C214FF08043002218
:1008B000C3F810214FF080430022C3F8382500F020
:1008C00035F90346002B76D04FF080537C4AD3F89D
:1008D0000434C2F820354FF08053794AD3F80834F5
:1008E000C2F824354FF08053754AD3F80C34C2F85F
:1008F00028354FF08053724AD3F81034C2F82C35A3
:100900004FF080536E4AD3F81434C2F830354FF0AC
:1009100080536B4AD3F81834C2F834354FF0805303
:10092000674AD3F81C34C2F840354FF08053644A0C
:10093000D3F82034C2F844354FF08053604AD3F8DE
:100940002434C2F848354FF080535D4AD3F8283438
:10095000C2F84C354FF08053594AD3F82C34C2F8C2
:1009600050354FF08053564AD3F83034C2F85435DE
:100970004FF08053524AD3F83434C2F860354FF008
:1009800080534F4AD3F83834C2F864354FF080535F
:100990004B4AD3F83C34C2F868354FF08053484A8C
:1009A000D3F84034C2F86C354FF08053444AD3F842
:1009B0004434C2F8703500F0DDF80346002B02D055
:1009C000404B414A1A6000F0E7F80346002B03D081
:1009D0003E4BFB22C3F8182500F0F0F80346002B2D
:1009E0000AD03B4B1B6823F00F023A4B1B6803F005
:1009F0000F03374913430B6000F0F2F80346002B56
:100A000003D0354B4FF400721A6000F0FBF8034638
:100A1000002B0DD04FF08043D3F8003403F00103D6
:100A2000002B05D04FF080436FF00102C3F8002483
:100A30002A4BD3F88830294A43F47003C2F888302F
:100A4000BFF34F8FBFF36F8F4FF01023D3F80032F7
:100A5000002B05DB4FF01023D3F80432002B2BDAE8
:100A60001F4B0122C3F8042500BF1D4BD3F80034EF
:100A7000002BFAD04FF010231222C3F8002200BF3F
:100A8000174BD3F80034002BFAD04FF0102312226A
:100A9000C3F8042200BF124BD3F80034002BFAD065
:100AA0000F4B0022C3F8042500BF0D4BD3F80034D0
:100AB000002BFAD0FFF7D2FEFFF7E2FE00BF08BD21
:100AC00000C000408C5600404881030000F0004008
:100AD000E40E0040580200104096024000ED00E095
:100AE00000E001400F4B1B68082B17D10E4B1B6811
:100AF000002B01D1012312E00B4B1B68012B01D10C
:100B000001230CE0084B1B68022B01D1012306E0F6
:100B1000054B1B68032B01D1012300E0012318467C
:100B2000704700BF30010010340100100F4B1B68EC
:100B3000082B17D10E4B1B68002B01D1012312E0AB
:100B40000B4B1B68012B01D101230CE0084B1B68E8
:100B5000022B01D1012306E0054B1B68032B01D1B9
:100B6000012300E001231846704700BF3001001048
:100B700034010010064B1B68082B05D1054B1B6880
:100B8000002B01D1012300E000231846704700BF6D
:100B90003001001034010010064B1B68082B05D1F2
:100BA000054B1B68002B01D1012300E000231846F0
:100BB000704700BF3001001034010010064B1B6865
:100BC000082B05D1054B1B68002B01D1012300E048
:100BD00000231846704700BF300100103401001098
:100BE000064B1B68082B05D1054B1B68002B01D158
:100BF000012300E000231846704700BF30010010B9
:100C0000340100100F4B1B68082B17D10E4B1B68CB
:100C1000002B01D1012312E00B4B1B68012B01D1EA
:100C200001230CE0084B1B68022B01D1012306E0D5
:100C3000054B1B68032B01D1012300E0012318465B
:0C0C4000704700BF3001001034010010AC
:100C4C00633A5C6E7266355C6D6F64756C65735C73
:100C5C006E7266785C68616C5C6E72665F677069F8
:100C6C006F2E6800433A5C6E5246355C636F6D7054
:100C7C006F6E656E74735C626F617264735C626FCD
:100C8C00617264732E6300002E27000000000000C8
:0A0C9C00000000000338FDD8704787
:040CA8000090D003E5
:040000030000037581
:00000001FF
